{
  "contractName": "TokenFarm",
  "abi": [
    {
      "inputs": [
        {
          "internalType": "contract TegToken",
          "name": "_tegToken",
          "type": "address"
        },
        {
          "internalType": "contract DaiToken",
          "name": "_daiToken",
          "type": "address"
        }
      ],
      "stateMutability": "nonpayable",
      "type": "constructor"
    },
    {
      "inputs": [],
      "name": "daiToken",
      "outputs": [
        {
          "internalType": "contract DaiToken",
          "name": "",
          "type": "address"
        }
      ],
      "stateMutability": "view",
      "type": "function",
      "constant": true
    },
    {
      "inputs": [
        {
          "internalType": "address",
          "name": "",
          "type": "address"
        }
      ],
      "name": "hasStaked",
      "outputs": [
        {
          "internalType": "bool",
          "name": "",
          "type": "bool"
        }
      ],
      "stateMutability": "view",
      "type": "function",
      "constant": true
    },
    {
      "inputs": [
        {
          "internalType": "address",
          "name": "",
          "type": "address"
        }
      ],
      "name": "isStaking",
      "outputs": [
        {
          "internalType": "bool",
          "name": "",
          "type": "bool"
        }
      ],
      "stateMutability": "view",
      "type": "function",
      "constant": true
    },
    {
      "inputs": [],
      "name": "name",
      "outputs": [
        {
          "internalType": "string",
          "name": "",
          "type": "string"
        }
      ],
      "stateMutability": "view",
      "type": "function",
      "constant": true
    },
    {
      "inputs": [],
      "name": "owner",
      "outputs": [
        {
          "internalType": "address",
          "name": "",
          "type": "address"
        }
      ],
      "stateMutability": "view",
      "type": "function",
      "constant": true
    },
    {
      "inputs": [
        {
          "internalType": "uint256",
          "name": "",
          "type": "uint256"
        }
      ],
      "name": "stakers",
      "outputs": [
        {
          "internalType": "address",
          "name": "",
          "type": "address"
        }
      ],
      "stateMutability": "view",
      "type": "function",
      "constant": true
    },
    {
      "inputs": [
        {
          "internalType": "address",
          "name": "",
          "type": "address"
        }
      ],
      "name": "stakingBalance",
      "outputs": [
        {
          "internalType": "uint256",
          "name": "",
          "type": "uint256"
        }
      ],
      "stateMutability": "view",
      "type": "function",
      "constant": true
    },
    {
      "inputs": [],
      "name": "tegToken",
      "outputs": [
        {
          "internalType": "contract TegToken",
          "name": "",
          "type": "address"
        }
      ],
      "stateMutability": "view",
      "type": "function",
      "constant": true
    },
    {
      "inputs": [
        {
          "internalType": "uint256",
          "name": "_amount",
          "type": "uint256"
        }
      ],
      "name": "stakeTokens",
      "outputs": [],
      "stateMutability": "nonpayable",
      "type": "function"
    },
    {
      "inputs": [],
      "name": "issueTokens",
      "outputs": [],
      "stateMutability": "nonpayable",
      "type": "function"
    }
  ],
  "bytecode": "0x60806040526040518060400160405280601281526020017f5465677269747920546f6b656e204661726d0000000000000000000000000000815250600090805190602001906200005192919062000150565b503480156200005f57600080fd5b506040516200121a3803806200121a83398181016040528101906200008591906200022e565b81600260006101000a81548173ffffffffffffffffffffffffffffffffffffffff021916908373ffffffffffffffffffffffffffffffffffffffff16021790555080600360006101000a81548173ffffffffffffffffffffffffffffffffffffffff021916908373ffffffffffffffffffffffffffffffffffffffff16021790555033600160006101000a81548173ffffffffffffffffffffffffffffffffffffffff021916908373ffffffffffffffffffffffffffffffffffffffff16021790555050506200036f565b8280546200015e90620002d1565b90600052602060002090601f016020900481019282620001825760008555620001ce565b82601f106200019d57805160ff1916838001178555620001ce565b82800160010185558215620001ce579182015b82811115620001cd578251825591602001919060010190620001b0565b5b509050620001dd9190620001e1565b5090565b5b80821115620001fc576000816000905550600101620001e2565b5090565b60008151905062000211816200033b565b92915050565b600081519050620002288162000355565b92915050565b6000806040838503121562000248576200024762000336565b5b6000620002588582860162000217565b92505060206200026b8582860162000200565b9150509250929050565b60006200028282620002b1565b9050919050565b6000620002968262000275565b9050919050565b6000620002aa8262000275565b9050919050565b600073ffffffffffffffffffffffffffffffffffffffff82169050919050565b60006002820490506001821680620002ea57607f821691505b6020821081141562000301576200030062000307565b5b50919050565b7f4e487b7100000000000000000000000000000000000000000000000000000000600052602260045260246000fd5b600080fd5b620003468162000289565b81146200035257600080fd5b50565b62000360816200029d565b81146200036c57600080fd5b50565b610e9b806200037f6000396000f3fe608060405234801561001057600080fd5b506004361061009e5760003560e01c80637547c7a3116100665780637547c7a3146101495780638da5cb5b14610165578063be22f54614610183578063c93c8f34146101a1578063fd5e6dd1146101d15761009e565b806306fdde03146100a357806345bc78ab146100c15780635400a834146100f157806360ab58521461010f5780636f49712b14610119575b600080fd5b6100ab610201565b6040516100b89190610ad8565b60405180910390f35b6100db60048036038101906100d691906108bb565b61028f565b6040516100e89190610b3a565b60405180910390f35b6100f96102a7565b6040516101069190610abd565b60405180910390f35b6101176102cd565b005b610133600480360381019061012e91906108bb565b6104c6565b6040516101409190610a87565b60405180910390f35b610163600480360381019061015e9190610915565b6104e6565b005b61016d6107d1565b60405161017a9190610a0c565b60405180910390f35b61018b6107f7565b6040516101989190610aa2565b60405180910390f35b6101bb60048036038101906101b691906108bb565b61081d565b6040516101c89190610a87565b60405180910390f35b6101eb60048036038101906101e69190610915565b61083d565b6040516101f89190610a0c565b60405180910390f35b6000805461020e90610c8a565b80601f016020809104026020016040519081016040528092919081815260200182805461023a90610c8a565b80156102875780601f1061025c57610100808354040283529160200191610287565b820191906000526020600020905b81548152906001019060200180831161026a57829003601f168201915b505050505081565b60056020528060005260406000206000915090505481565b600260009054906101000a900473ffffffffffffffffffffffffffffffffffffffff1681565b600160009054906101000a900473ffffffffffffffffffffffffffffffffffffffff1673ffffffffffffffffffffffffffffffffffffffff163373ffffffffffffffffffffffffffffffffffffffff161461035d576040517f08c379a000000000000000000000000000000000000000000000000000000000815260040161035490610afa565b60405180910390fd5b60005b6004805490508110156104c35760006004828154811061038357610382610d63565b5b9060005260206000200160009054906101000a900473ffffffffffffffffffffffffffffffffffffffff1690506000600560008373ffffffffffffffffffffffffffffffffffffffff1673ffffffffffffffffffffffffffffffffffffffff16815260200190815260200160002054905060008111156104ae57600260009054906101000a900473ffffffffffffffffffffffffffffffffffffffff1673ffffffffffffffffffffffffffffffffffffffff1663a9059cbb83836040518363ffffffff1660e01b815260040161045a929190610a5e565b602060405180830381600087803b15801561047457600080fd5b505af1158015610488573d6000803e3d6000fd5b505050506040513d601f19601f820116820180604052508101906104ac91906108e8565b505b505080806104bb90610cbc565b915050610360565b50565b60076020528060005260406000206000915054906101000a900460ff1681565b60008111610529576040517f08c379a000000000000000000000000000000000000000000000000000000000815260040161052090610b1a565b60405180910390fd5b600360009054906101000a900473ffffffffffffffffffffffffffffffffffffffff1673ffffffffffffffffffffffffffffffffffffffff166323b872dd3330846040518463ffffffff1660e01b815260040161058893929190610a27565b602060405180830381600087803b1580156105a257600080fd5b505af11580156105b6573d6000803e3d6000fd5b505050506040513d601f19601f820116820180604052508101906105da91906108e8565b5080600560003373ffffffffffffffffffffffffffffffffffffffff1673ffffffffffffffffffffffffffffffffffffffff168152602001908152602001600020546106269190610b71565b600560003373ffffffffffffffffffffffffffffffffffffffff1673ffffffffffffffffffffffffffffffffffffffff16815260200190815260200160002081905550600660003373ffffffffffffffffffffffffffffffffffffffff1673ffffffffffffffffffffffffffffffffffffffff16815260200190815260200160002060009054906101000a900460ff1661071e576004339080600181540180825580915050600190039060005260206000200160009091909190916101000a81548173ffffffffffffffffffffffffffffffffffffffff021916908373ffffffffffffffffffffffffffffffffffffffff1602179055505b6001600760003373ffffffffffffffffffffffffffffffffffffffff1673ffffffffffffffffffffffffffffffffffffffff16815260200190815260200160002060006101000a81548160ff0219169083151502179055506001600660003373ffffffffffffffffffffffffffffffffffffffff1673ffffffffffffffffffffffffffffffffffffffff16815260200190815260200160002060006101000a81548160ff02191690831515021790555050565b600160009054906101000a900473ffffffffffffffffffffffffffffffffffffffff1681565b600360009054906101000a900473ffffffffffffffffffffffffffffffffffffffff1681565b60066020528060005260406000206000915054906101000a900460ff1681565b6004818154811061084d57600080fd5b906000526020600020016000915054906101000a900473ffffffffffffffffffffffffffffffffffffffff1681565b60008135905061088b81610e20565b92915050565b6000815190506108a081610e37565b92915050565b6000813590506108b581610e4e565b92915050565b6000602082840312156108d1576108d0610d92565b5b60006108df8482850161087c565b91505092915050565b6000602082840312156108fe576108fd610d92565b5b600061090c84828501610891565b91505092915050565b60006020828403121561092b5761092a610d92565b5b6000610939848285016108a6565b91505092915050565b61094b81610bc7565b82525050565b61095a81610bd9565b82525050565b61096981610c0f565b82525050565b61097881610c33565b82525050565b600061098982610b55565b6109938185610b60565b93506109a3818560208601610c57565b6109ac81610d97565b840191505092915050565b60006109c4602183610b60565b91506109cf82610da8565b604082019050919050565b60006109e7601283610b60565b91506109f282610df7565b602082019050919050565b610a0681610c05565b82525050565b6000602082019050610a216000830184610942565b92915050565b6000606082019050610a3c6000830186610942565b610a496020830185610942565b610a5660408301846109fd565b949350505050565b6000604082019050610a736000830185610942565b610a8060208301846109fd565b9392505050565b6000602082019050610a9c6000830184610951565b92915050565b6000602082019050610ab76000830184610960565b92915050565b6000602082019050610ad2600083018461096f565b92915050565b60006020820190508181036000830152610af2818461097e565b905092915050565b60006020820190508181036000830152610b13816109b7565b9050919050565b60006020820190508181036000830152610b33816109da565b9050919050565b6000602082019050610b4f60008301846109fd565b92915050565b600081519050919050565b600082825260208201905092915050565b6000610b7c82610c05565b9150610b8783610c05565b9250827fffffffffffffffffffffffffffffffffffffffffffffffffffffffffffffffff03821115610bbc57610bbb610d05565b5b828201905092915050565b6000610bd282610be5565b9050919050565b60008115159050919050565b600073ffffffffffffffffffffffffffffffffffffffff82169050919050565b6000819050919050565b6000610c1a82610c21565b9050919050565b6000610c2c82610be5565b9050919050565b6000610c3e82610c45565b9050919050565b6000610c5082610be5565b9050919050565b60005b83811015610c75578082015181840152602081019050610c5a565b83811115610c84576000848401525b50505050565b60006002820490506001821680610ca257607f821691505b60208210811415610cb657610cb5610d34565b5b50919050565b6000610cc782610c05565b91507fffffffffffffffffffffffffffffffffffffffffffffffffffffffffffffffff821415610cfa57610cf9610d05565b5b600182019050919050565b7f4e487b7100000000000000000000000000000000000000000000000000000000600052601160045260246000fd5b7f4e487b7100000000000000000000000000000000000000000000000000000000600052602260045260246000fd5b7f4e487b7100000000000000000000000000000000000000000000000000000000600052603260045260246000fd5b600080fd5b6000601f19601f8301169050919050565b7f6f6e6c79206f776e65722063616e2063616c6c20746869732066756e6374696f60008201527f6e00000000000000000000000000000000000000000000000000000000000000602082015250565b7f616d6f756e742063616e6e6f7420626520300000000000000000000000000000600082015250565b610e2981610bc7565b8114610e3457600080fd5b50565b610e4081610bd9565b8114610e4b57600080fd5b50565b610e5781610c05565b8114610e6257600080fd5b5056fea2646970667358221220678117336e03cc56ebb7c0c9bba4e75575c6a814d61d69b9f9fc2ab81af459b764736f6c63430008060033",
  "immutableReferences": {},
  "source": "// \"SPDX-License-Identifier: UNLICENSED\"\npragma solidity ^0.8.6;\n\nimport \"./DaiToken.sol\";\nimport \"./TegToken.sol\";\n\ncontract TokenFarm {\n\n    string public name = \"Tegrity Token Farm\";\n\n    address public owner;\n    TegToken public tegToken;\n    DaiToken public daiToken;\n\n    address[] public stakers;\n    mapping(address => uint) public stakingBalance;\n    mapping(address => bool) public hasStaked;\n    mapping(address => bool) public isStaking;\n\n    constructor (TegToken _tegToken, DaiToken _daiToken) {\n        tegToken = _tegToken;\n        daiToken = _daiToken;\n        owner = msg.sender;\n    }\n\n    //1. Stake Tokens (deposit)\n    function stakeTokens(uint256 _amount) public {\n      //Amount staked cannot be smaller than 0\n      require(_amount > 0, 'amount cannot be 0');\n      // Transfer Mock Dai to this contract for staking\n      daiToken.transferFrom(msg.sender, address(this), _amount);\n      //update staking balance\n      stakingBalance[msg.sender] = stakingBalance[msg.sender] + _amount; \n      // add user to stakers array \"only\" if they have not yet staked\n      if(!hasStaked[msg.sender]) {\n        stakers.push(msg.sender);\n      }\n      //update staking status\n      isStaking[msg.sender] = true;\n      hasStaked[msg.sender] = true;\n    }\n\n    //2. Unstaking Tokens (withdraw)\n\n    //3. Issuing Teg Tokens to investor on a regular basis\n    function issueTokens() public {\n      require(msg.sender==owner, 'only owner can call this function');\n      for (uint i=0; i<stakers.length; i++) {\n        address recipient = stakers[i];\n        uint balance = stakingBalance[recipient];\n        if (balance > 0) {\n          tegToken.transfer(recipient, balance); // send exactly the same amount of tegToken than dai Token deposited\n        }\n      }\n    }\n}\n",
  "sourcePath": "/home/frankperler/Development/Projects/blockchain/tegrityfarm/src/contracts/TokenFarm.sol",
  "compiler": {
    "name": "solc",
    "version": "0.8.6+commit.11564f7e.Emscripten.clang"
  },
  "schemaVersion": "3.4.2",
  "updatedAt": "2021-07-25T12:30:55.106Z",
  "networkType": "ethereum",
  "devdoc": {
    "kind": "dev",
    "methods": {},
    "version": 1
  },
  "userdoc": {
    "kind": "user",
    "methods": {},
    "version": 1
  }
}