{
  "contractName": "TokenFarm",
  "abi": [
    {
      "inputs": [
        {
          "internalType": "contract TegToken",
          "name": "_tegToken",
          "type": "address"
        },
        {
          "internalType": "contract DaiToken",
          "name": "_daiToken",
          "type": "address"
        }
      ],
      "stateMutability": "nonpayable",
      "type": "constructor"
    },
    {
      "inputs": [],
      "name": "daiToken",
      "outputs": [
        {
          "internalType": "contract DaiToken",
          "name": "",
          "type": "address"
        }
      ],
      "stateMutability": "view",
      "type": "function",
      "constant": true
    },
    {
      "inputs": [],
      "name": "name",
      "outputs": [
        {
          "internalType": "string",
          "name": "",
          "type": "string"
        }
      ],
      "stateMutability": "view",
      "type": "function",
      "constant": true
    },
    {
      "inputs": [],
      "name": "tegToken",
      "outputs": [
        {
          "internalType": "contract TegToken",
          "name": "",
          "type": "address"
        }
      ],
      "stateMutability": "view",
      "type": "function",
      "constant": true
    }
  ],
  "bytecode": "0x60806040526040518060400160405280601281526020017f5465677269747920546f6b656e204661726d00000000000000000000000000008152506000908051906020019061004f929190610107565b5034801561005c57600080fd5b50604051610695380380610695833981810160405281019061007e91906101d4565b81600160006101000a81548173ffffffffffffffffffffffffffffffffffffffff021916908373ffffffffffffffffffffffffffffffffffffffff16021790555080600260006101000a81548173ffffffffffffffffffffffffffffffffffffffff021916908373ffffffffffffffffffffffffffffffffffffffff16021790555050506102fe565b8280546101139061026a565b90600052602060002090601f016020900481019282610135576000855561017c565b82601f1061014e57805160ff191683800117855561017c565b8280016001018555821561017c579182015b8281111561017b578251825591602001919060010190610160565b5b509050610189919061018d565b5090565b5b808211156101a657600081600090555060010161018e565b5090565b6000815190506101b9816102d0565b92915050565b6000815190506101ce816102e7565b92915050565b600080604083850312156101eb576101ea6102cb565b5b60006101f9858286016101bf565b925050602061020a858286016101aa565b9150509250929050565b600061021f8261024a565b9050919050565b600061023182610214565b9050919050565b600061024382610214565b9050919050565b600073ffffffffffffffffffffffffffffffffffffffff82169050919050565b6000600282049050600182168061028257607f821691505b602082108114156102965761029561029c565b5b50919050565b7f4e487b7100000000000000000000000000000000000000000000000000000000600052602260045260246000fd5b600080fd5b6102d981610226565b81146102e457600080fd5b50565b6102f081610238565b81146102fb57600080fd5b50565b6103888061030d6000396000f3fe608060405234801561001057600080fd5b50600436106100415760003560e01c806306fdde03146100465780635400a83414610064578063be22f54614610082575b600080fd5b61004e6100a0565b60405161005b9190610207565b60405180910390f35b61006c61012e565b60405161007991906101ec565b60405180910390f35b61008a610154565b60405161009791906101d1565b60405180910390f35b600080546100ad906102e0565b80601f01602080910402602001604051908101604052809291908181526020018280546100d9906102e0565b80156101265780601f106100fb57610100808354040283529160200191610126565b820191906000526020600020905b81548152906001019060200180831161010957829003601f168201915b505050505081565b600160009054906101000a900473ffffffffffffffffffffffffffffffffffffffff1681565b600260009054906101000a900473ffffffffffffffffffffffffffffffffffffffff1681565b61018381610265565b82525050565b61019281610289565b82525050565b60006101a382610229565b6101ad8185610234565b93506101bd8185602086016102ad565b6101c681610341565b840191505092915050565b60006020820190506101e6600083018461017a565b92915050565b60006020820190506102016000830184610189565b92915050565b600060208201905081810360008301526102218184610198565b905092915050565b600081519050919050565b600082825260208201905092915050565b600073ffffffffffffffffffffffffffffffffffffffff82169050919050565b600061027082610277565b9050919050565b600061028282610245565b9050919050565b60006102948261029b565b9050919050565b60006102a682610245565b9050919050565b60005b838110156102cb5780820151818401526020810190506102b0565b838111156102da576000848401525b50505050565b600060028204905060018216806102f857607f821691505b6020821081141561030c5761030b610312565b5b50919050565b7f4e487b7100000000000000000000000000000000000000000000000000000000600052602260045260246000fd5b6000601f19601f830116905091905056fea264697066735822122048cc4dabb1cf48c26af7440f71394c0d4204017bd87f99f8791f256e3ba2e1b164736f6c63430008060033",
  "immutableReferences": {},
  "source": "// \"SPDX-License-Identifier: UNLICENSED\" \npragma solidity ^0.8.6;\n\nimport \"./DaiToken.sol\";\nimport \"./TegToken.sol\";\n\ncontract TokenFarm {\n\n  string public name = \"Tegrity Token Farm\";\n  TegToken public tegToken;\n  DaiToken public daiToken;\n\n  constructor (TegToken _tegToken, DaiToken _daiToken) {\n    tegToken = _tegToken;\n    daiToken = _daiToken;\n  }\n\n}",
  "sourcePath": "/home/frankperler/Development/Projects/blockchain/tegrityfarm/src/contracts/TokenFarm.sol",
  "compiler": {
    "name": "solc",
    "version": "0.8.6+commit.11564f7e.Emscripten.clang"
  },
  "schemaVersion": "3.4.2",
  "updatedAt": "2021-07-25T08:39:59.689Z",
  "networkType": "ethereum",
  "devdoc": {
    "kind": "dev",
    "methods": {},
    "version": 1
  },
  "userdoc": {
    "kind": "user",
    "methods": {},
    "version": 1
  }
}