{
  "contractName": "BorrowRepay",
  "abi": [
    {
      "anonymous": false,
      "inputs": [
        {
          "indexed": true,
          "internalType": "address",
          "name": "from",
          "type": "address"
        },
        {
          "indexed": false,
          "internalType": "uint256",
          "name": "amount",
          "type": "uint256"
        },
        {
          "indexed": false,
          "internalType": "uint256",
          "name": "borrowBal",
          "type": "uint256"
        },
        {
          "indexed": false,
          "internalType": "uint256",
          "name": "lossBal",
          "type": "uint256"
        },
        {
          "indexed": false,
          "internalType": "uint256",
          "name": "tegBal",
          "type": "uint256"
        },
        {
          "indexed": false,
          "internalType": "uint256",
          "name": "tokenBal",
          "type": "uint256"
        }
      ],
      "name": "Borrow",
      "type": "event"
    },
    {
      "anonymous": false,
      "inputs": [
        {
          "indexed": true,
          "internalType": "address",
          "name": "from",
          "type": "address"
        },
        {
          "indexed": false,
          "internalType": "uint256",
          "name": "amount",
          "type": "uint256"
        },
        {
          "indexed": false,
          "internalType": "uint256",
          "name": "borrowBal",
          "type": "uint256"
        },
        {
          "indexed": false,
          "internalType": "uint256",
          "name": "lossBal",
          "type": "uint256"
        },
        {
          "indexed": false,
          "internalType": "uint256",
          "name": "tegBal",
          "type": "uint256"
        },
        {
          "indexed": false,
          "internalType": "uint256",
          "name": "tokenBal",
          "type": "uint256"
        }
      ],
      "name": "Repay",
      "type": "event"
    },
    {
      "inputs": [
        {
          "internalType": "address",
          "name": "",
          "type": "address"
        }
      ],
      "name": "borrowedTimeDai",
      "outputs": [
        {
          "internalType": "uint256",
          "name": "",
          "type": "uint256"
        }
      ],
      "stateMutability": "view",
      "type": "function"
    },
    {
      "inputs": [
        {
          "internalType": "address",
          "name": "",
          "type": "address"
        }
      ],
      "name": "borrowedTimeEth",
      "outputs": [
        {
          "internalType": "uint256",
          "name": "",
          "type": "uint256"
        }
      ],
      "stateMutability": "view",
      "type": "function"
    },
    {
      "inputs": [
        {
          "internalType": "address",
          "name": "",
          "type": "address"
        }
      ],
      "name": "borrowedTimeUsdt",
      "outputs": [
        {
          "internalType": "uint256",
          "name": "",
          "type": "uint256"
        }
      ],
      "stateMutability": "view",
      "type": "function"
    },
    {
      "inputs": [
        {
          "internalType": "address",
          "name": "user",
          "type": "address"
        },
        {
          "internalType": "string",
          "name": "_tok",
          "type": "string"
        }
      ],
      "name": "calculateBorrowTime",
      "outputs": [
        {
          "internalType": "uint256",
          "name": "",
          "type": "uint256"
        }
      ],
      "stateMutability": "view",
      "type": "function"
    },
    {
      "inputs": [
        {
          "internalType": "address",
          "name": "user",
          "type": "address"
        },
        {
          "internalType": "string",
          "name": "_tok",
          "type": "string"
        }
      ],
      "name": "calculateEarningTime",
      "outputs": [
        {
          "internalType": "uint256",
          "name": "",
          "type": "uint256"
        }
      ],
      "stateMutability": "view",
      "type": "function"
    },
    {
      "inputs": [
        {
          "internalType": "address",
          "name": "user",
          "type": "address"
        },
        {
          "internalType": "string",
          "name": "_tok",
          "type": "string"
        }
      ],
      "name": "calculateEarningYield",
      "outputs": [
        {
          "internalType": "uint256",
          "name": "",
          "type": "uint256"
        }
      ],
      "stateMutability": "view",
      "type": "function"
    },
    {
      "inputs": [
        {
          "internalType": "address",
          "name": "user",
          "type": "address"
        },
        {
          "internalType": "string",
          "name": "_tok",
          "type": "string"
        }
      ],
      "name": "calculateLossYield",
      "outputs": [
        {
          "internalType": "uint256",
          "name": "",
          "type": "uint256"
        }
      ],
      "stateMutability": "view",
      "type": "function"
    },
    {
      "inputs": [
        {
          "internalType": "address",
          "name": "",
          "type": "address"
        }
      ],
      "name": "daiBorrowedBalance",
      "outputs": [
        {
          "internalType": "uint256",
          "name": "",
          "type": "uint256"
        }
      ],
      "stateMutability": "view",
      "type": "function"
    },
    {
      "inputs": [
        {
          "internalType": "address",
          "name": "",
          "type": "address"
        }
      ],
      "name": "daiEarnedBalance",
      "outputs": [
        {
          "internalType": "uint256",
          "name": "",
          "type": "uint256"
        }
      ],
      "stateMutability": "view",
      "type": "function"
    },
    {
      "inputs": [
        {
          "internalType": "address",
          "name": "",
          "type": "address"
        }
      ],
      "name": "daiLossBalance",
      "outputs": [
        {
          "internalType": "uint256",
          "name": "",
          "type": "uint256"
        }
      ],
      "stateMutability": "view",
      "type": "function"
    },
    {
      "inputs": [
        {
          "internalType": "address",
          "name": "",
          "type": "address"
        }
      ],
      "name": "daiStakingBalance",
      "outputs": [
        {
          "internalType": "uint256",
          "name": "",
          "type": "uint256"
        }
      ],
      "stateMutability": "view",
      "type": "function"
    },
    {
      "inputs": [],
      "name": "daiToken",
      "outputs": [
        {
          "internalType": "contract DaiToken",
          "name": "",
          "type": "address"
        }
      ],
      "stateMutability": "view",
      "type": "function"
    },
    {
      "inputs": [
        {
          "internalType": "address",
          "name": "",
          "type": "address"
        }
      ],
      "name": "earnedTimeDai",
      "outputs": [
        {
          "internalType": "uint256",
          "name": "",
          "type": "uint256"
        }
      ],
      "stateMutability": "view",
      "type": "function"
    },
    {
      "inputs": [
        {
          "internalType": "address",
          "name": "",
          "type": "address"
        }
      ],
      "name": "earnedTimeEth",
      "outputs": [
        {
          "internalType": "uint256",
          "name": "",
          "type": "uint256"
        }
      ],
      "stateMutability": "view",
      "type": "function"
    },
    {
      "inputs": [
        {
          "internalType": "address",
          "name": "",
          "type": "address"
        }
      ],
      "name": "earnedTimeUsdt",
      "outputs": [
        {
          "internalType": "uint256",
          "name": "",
          "type": "uint256"
        }
      ],
      "stateMutability": "view",
      "type": "function"
    },
    {
      "inputs": [
        {
          "internalType": "address",
          "name": "",
          "type": "address"
        }
      ],
      "name": "ethBorrowedBalance",
      "outputs": [
        {
          "internalType": "uint256",
          "name": "",
          "type": "uint256"
        }
      ],
      "stateMutability": "view",
      "type": "function"
    },
    {
      "inputs": [
        {
          "internalType": "address",
          "name": "",
          "type": "address"
        }
      ],
      "name": "ethEarnedBalance",
      "outputs": [
        {
          "internalType": "uint256",
          "name": "",
          "type": "uint256"
        }
      ],
      "stateMutability": "view",
      "type": "function"
    },
    {
      "inputs": [
        {
          "internalType": "address",
          "name": "",
          "type": "address"
        }
      ],
      "name": "ethLossBalance",
      "outputs": [
        {
          "internalType": "uint256",
          "name": "",
          "type": "uint256"
        }
      ],
      "stateMutability": "view",
      "type": "function"
    },
    {
      "inputs": [
        {
          "internalType": "address",
          "name": "",
          "type": "address"
        }
      ],
      "name": "ethStakingBalance",
      "outputs": [
        {
          "internalType": "uint256",
          "name": "",
          "type": "uint256"
        }
      ],
      "stateMutability": "view",
      "type": "function"
    },
    {
      "inputs": [],
      "name": "ethToken",
      "outputs": [
        {
          "internalType": "contract EthToken",
          "name": "",
          "type": "address"
        }
      ],
      "stateMutability": "view",
      "type": "function"
    },
    {
      "inputs": [
        {
          "internalType": "address",
          "name": "",
          "type": "address"
        }
      ],
      "name": "isBorrowingDai",
      "outputs": [
        {
          "internalType": "bool",
          "name": "",
          "type": "bool"
        }
      ],
      "stateMutability": "view",
      "type": "function"
    },
    {
      "inputs": [
        {
          "internalType": "address",
          "name": "",
          "type": "address"
        }
      ],
      "name": "isBorrowingEth",
      "outputs": [
        {
          "internalType": "bool",
          "name": "",
          "type": "bool"
        }
      ],
      "stateMutability": "view",
      "type": "function"
    },
    {
      "inputs": [
        {
          "internalType": "address",
          "name": "",
          "type": "address"
        }
      ],
      "name": "isBorrowingUsdt",
      "outputs": [
        {
          "internalType": "bool",
          "name": "",
          "type": "bool"
        }
      ],
      "stateMutability": "view",
      "type": "function"
    },
    {
      "inputs": [
        {
          "internalType": "address",
          "name": "",
          "type": "address"
        }
      ],
      "name": "isStakingDai",
      "outputs": [
        {
          "internalType": "bool",
          "name": "",
          "type": "bool"
        }
      ],
      "stateMutability": "view",
      "type": "function"
    },
    {
      "inputs": [
        {
          "internalType": "address",
          "name": "",
          "type": "address"
        }
      ],
      "name": "isStakingEth",
      "outputs": [
        {
          "internalType": "bool",
          "name": "",
          "type": "bool"
        }
      ],
      "stateMutability": "view",
      "type": "function"
    },
    {
      "inputs": [
        {
          "internalType": "address",
          "name": "",
          "type": "address"
        }
      ],
      "name": "isStakingUsdt",
      "outputs": [
        {
          "internalType": "bool",
          "name": "",
          "type": "bool"
        }
      ],
      "stateMutability": "view",
      "type": "function"
    },
    {
      "inputs": [],
      "name": "owner",
      "outputs": [
        {
          "internalType": "address",
          "name": "",
          "type": "address"
        }
      ],
      "stateMutability": "view",
      "type": "function"
    },
    {
      "inputs": [],
      "name": "tegToken",
      "outputs": [
        {
          "internalType": "contract TegToken",
          "name": "",
          "type": "address"
        }
      ],
      "stateMutability": "view",
      "type": "function"
    },
    {
      "inputs": [
        {
          "internalType": "address",
          "name": "",
          "type": "address"
        }
      ],
      "name": "usdtBorrowedBalance",
      "outputs": [
        {
          "internalType": "uint256",
          "name": "",
          "type": "uint256"
        }
      ],
      "stateMutability": "view",
      "type": "function"
    },
    {
      "inputs": [
        {
          "internalType": "address",
          "name": "",
          "type": "address"
        }
      ],
      "name": "usdtEarnedBalance",
      "outputs": [
        {
          "internalType": "uint256",
          "name": "",
          "type": "uint256"
        }
      ],
      "stateMutability": "view",
      "type": "function"
    },
    {
      "inputs": [
        {
          "internalType": "address",
          "name": "",
          "type": "address"
        }
      ],
      "name": "usdtLossBalance",
      "outputs": [
        {
          "internalType": "uint256",
          "name": "",
          "type": "uint256"
        }
      ],
      "stateMutability": "view",
      "type": "function"
    },
    {
      "inputs": [
        {
          "internalType": "address",
          "name": "",
          "type": "address"
        }
      ],
      "name": "usdtStakingBalance",
      "outputs": [
        {
          "internalType": "uint256",
          "name": "",
          "type": "uint256"
        }
      ],
      "stateMutability": "view",
      "type": "function"
    },
    {
      "inputs": [],
      "name": "usdtToken",
      "outputs": [
        {
          "internalType": "contract UsdtToken",
          "name": "",
          "type": "address"
        }
      ],
      "stateMutability": "view",
      "type": "function"
    },
    {
      "inputs": [
        {
          "internalType": "uint256",
          "name": "_amount",
          "type": "uint256"
        },
        {
          "internalType": "string",
          "name": "_tok",
          "type": "string"
        }
      ],
      "name": "borrowTokens",
      "outputs": [
        {
          "internalType": "uint256",
          "name": "balance",
          "type": "uint256"
        }
      ],
      "stateMutability": "nonpayable",
      "type": "function"
    },
    {
      "inputs": [
        {
          "internalType": "uint256",
          "name": "_amount",
          "type": "uint256"
        },
        {
          "internalType": "string",
          "name": "_tok",
          "type": "string"
        }
      ],
      "name": "repayTokens",
      "outputs": [
        {
          "internalType": "uint256",
          "name": "balance",
          "type": "uint256"
        }
      ],
      "stateMutability": "nonpayable",
      "type": "function"
    }
  ],
  "bytecode": "0x608060405234801561001057600080fd5b50614350806100206000396000f3fe608060405234801561001057600080fd5b50600436106102115760003560e01c80638ffc8e1611610125578063c483d2d9116100ad578063e133a4bd1161007c578063e133a4bd1461075c578063e554e44b1461078c578063f74df17a146107bc578063f7add760146107ec578063fa18a8981461081c57610211565b8063c483d2d91461069c578063c8e0f3a7146106cc578063d13cef9b146106fc578063d84468531461072c57610211565b8063be22f546116100f4578063be22f546146105be578063be28969f146105dc578063bfa491561461060c578063c15ddc311461063c578063c2d7324d1461066c57610211565b80638ffc8e16146105105780639d63006c14610540578063a98ad46c14610570578063b15e14201461058e57610211565b806345f4e3b6116101a8578063589801a211610177578063589801a21461044457806360bb9fe31461047457806364f4a23d146104a45780637bf1a627146104d45780638da5cb5b146104f257610211565b806345f4e3b6146103965780634d3fb27d146103c657806353ecf456146103f65780635400a8341461042657610211565b8063338c5bf2116101e4578063338c5bf2146102d65780633b912144146103065780633f598d5b146103365780634386e34f1461036657610211565b8063014253e81461021657806306c21eba1461024657806322d0772e14610276578063330a9fb9146102a6575b600080fd5b610230600480360381019061022b9190613be4565b61084c565b60405161023d9190613e31565b60405180910390f35b610260600480360381019061025b9190613b01565b611a05565b60405161026d9190613e31565b60405180910390f35b610290600480360381019061028b9190613b01565b611a1d565b60405161029d9190613e31565b60405180910390f35b6102c060048036038101906102bb9190613b2e565b611a35565b6040516102cd9190613e31565b60405180910390f35b6102f060048036038101906102eb9190613b01565b611d57565b6040516102fd9190613d6a565b60405180910390f35b610320600480360381019061031b9190613b01565b611d77565b60405161032d9190613d6a565b60405180910390f35b610350600480360381019061034b9190613b01565b611d97565b60405161035d9190613e31565b60405180910390f35b610380600480360381019061037b9190613b01565b611daf565b60405161038d9190613e31565b60405180910390f35b6103b060048036038101906103ab9190613b01565b611dc7565b6040516103bd9190613e31565b60405180910390f35b6103e060048036038101906103db9190613b01565b611ddf565b6040516103ed9190613e31565b60405180910390f35b610410600480360381019061040b9190613b2e565b611df7565b60405161041d9190613e31565b60405180910390f35b61042e611f9d565b60405161043b9190613dbb565b60405180910390f35b61045e60048036038101906104599190613b01565b611fc3565b60405161046b9190613e31565b60405180910390f35b61048e60048036038101906104899190613b01565b611fdb565b60405161049b9190613e31565b60405180910390f35b6104be60048036038101906104b99190613b2e565b611ff3565b6040516104cb9190613e31565b60405180910390f35b6104dc612316565b6040516104e99190613da0565b60405180910390f35b6104fa61233c565b6040516105079190613cef565b60405180910390f35b61052a60048036038101906105259190613b01565b612362565b6040516105379190613e31565b60405180910390f35b61055a60048036038101906105559190613b01565b61237a565b6040516105679190613e31565b60405180910390f35b610578612392565b6040516105859190613dd6565b60405180910390f35b6105a860048036038101906105a39190613b01565b6123b8565b6040516105b59190613d6a565b60405180910390f35b6105c66123d8565b6040516105d39190613d85565b60405180910390f35b6105f660048036038101906105f19190613be4565b6123fe565b6040516106039190613e31565b60405180910390f35b61062660048036038101906106219190613b2e565b613585565b6040516106339190613e31565b60405180910390f35b61065660048036038101906106519190613b01565b61372b565b6040516106639190613e31565b60405180910390f35b61068660048036038101906106819190613b01565b613743565b6040516106939190613e31565b60405180910390f35b6106b660048036038101906106b19190613b01565b61375b565b6040516106c39190613e31565b60405180910390f35b6106e660048036038101906106e19190613b01565b613773565b6040516106f39190613e31565b60405180910390f35b61071660048036038101906107119190613b01565b61378b565b6040516107239190613d6a565b60405180910390f35b61074660048036038101906107419190613b01565b6137ab565b6040516107539190613e31565b60405180910390f35b61077660048036038101906107719190613b01565b6137c3565b6040516107839190613d6a565b60405180910390f35b6107a660048036038101906107a19190613b01565b6137e3565b6040516107b39190613e31565b60405180910390f35b6107d660048036038101906107d19190613b01565b6137fb565b6040516107e39190613e31565b60405180910390f35b61080660048036038101906108019190613b01565b613813565b6040516108139190613d6a565b60405180910390f35b61083660048036038101906108319190613b01565b613833565b6040516108439190613e31565b60405180910390f35b600061088d826040518060400160405280600381526020017f646169000000000000000000000000000000000000000000000000000000000081525061384b565b15610e4b576000831180156108f2575060011515601360003373ffffffffffffffffffffffffffffffffffffffff1673ffffffffffffffffffffffffffffffffffffffff16815260200190815260200160002060009054906101000a900460ff161515145b801561093c5750826000803373ffffffffffffffffffffffffffffffffffffffff1673ffffffffffffffffffffffffffffffffffffffff1681526020019081526020016000205410155b61097b576040517f08c379a000000000000000000000000000000000000000000000000000000000815260040161097290613e11565b60405180910390fd5b60011515601460003373ffffffffffffffffffffffffffffffffffffffff1673ffffffffffffffffffffffffffffffffffffffff16815260200190815260200160002060009054906101000a900460ff1615151415610a3a5760006109e03384611ff3565b905080601160003373ffffffffffffffffffffffffffffffffffffffff1673ffffffffffffffffffffffffffffffffffffffff1681526020019081526020016000206000828254610a319190613f06565b92505081905550505b600e60009054906101000a900473ffffffffffffffffffffffffffffffffffffffff1673ffffffffffffffffffffffffffffffffffffffff1663a9059cbb33856040518363ffffffff1660e01b8152600401610a97929190613d41565b602060405180830381600087803b158015610ab157600080fd5b505af1158015610ac5573d6000803e3d6000fd5b505050506040513d601f19601f82011682018060405250810190610ae99190613b8a565b5042600260003373ffffffffffffffffffffffffffffffffffffffff1673ffffffffffffffffffffffffffffffffffffffff1681526020019081526020016000208190555082600360003373ffffffffffffffffffffffffffffffffffffffff1673ffffffffffffffffffffffffffffffffffffffff1681526020019081526020016000206000828254610b7d9190613f06565b925050819055506001601460003373ffffffffffffffffffffffffffffffffffffffff1673ffffffffffffffffffffffffffffffffffffffff16815260200190815260200160002060006101000a81548160ff0219169083151502179055503373ffffffffffffffffffffffffffffffffffffffff167f212a25b7e6d62ca82a704bf5f0513e2d0840e89914c62639dceabfb40a34491a84600360003373ffffffffffffffffffffffffffffffffffffffff1673ffffffffffffffffffffffffffffffffffffffff16815260200190815260200160002054601160003373ffffffffffffffffffffffffffffffffffffffff1673ffffffffffffffffffffffffffffffffffffffff16815260200190815260200160002054600d60009054906101000a900473ffffffffffffffffffffffffffffffffffffffff1673ffffffffffffffffffffffffffffffffffffffff166370a08231336040518263ffffffff1660e01b8152600401610cf09190613cef565b60206040518083038186803b158015610d0857600080fd5b505afa158015610d1c573d6000803e3d6000fd5b505050506040513d601f19601f82011682018060405250810190610d409190613bb7565b600e60009054906101000a900473ffffffffffffffffffffffffffffffffffffffff1673ffffffffffffffffffffffffffffffffffffffff166370a08231336040518263ffffffff1660e01b8152600401610d9b9190613cef565b60206040518083038186803b158015610db357600080fd5b505afa158015610dc7573d6000803e3d6000fd5b505050506040513d601f19601f82011682018060405250810190610deb9190613bb7565b604051610dfc959493929190613e4c565b60405180910390a2600360003373ffffffffffffffffffffffffffffffffffffffff1673ffffffffffffffffffffffffffffffffffffffff1681526020019081526020016000205490506119ff565b610e8a826040518060400160405280600381526020017f657468000000000000000000000000000000000000000000000000000000000081525061384b565b1561144957600083118015610eef575060011515601760003373ffffffffffffffffffffffffffffffffffffffff1673ffffffffffffffffffffffffffffffffffffffff16815260200190815260200160002060009054906101000a900460ff161515145b8015610f3a575082600460003373ffffffffffffffffffffffffffffffffffffffff1673ffffffffffffffffffffffffffffffffffffffff1681526020019081526020016000205410155b610f79576040517f08c379a0000000000000000000000000000000000000000000000000000000008152600401610f7090613e11565b60405180910390fd5b60011515601860003373ffffffffffffffffffffffffffffffffffffffff1673ffffffffffffffffffffffffffffffffffffffff16815260200190815260200160002060009054906101000a900460ff1615151415611038576000610fde3384611ff3565b905080601560003373ffffffffffffffffffffffffffffffffffffffff1673ffffffffffffffffffffffffffffffffffffffff168152602001908152602001600020600082825461102f9190613f06565b92505081905550505b600f60009054906101000a900473ffffffffffffffffffffffffffffffffffffffff1673ffffffffffffffffffffffffffffffffffffffff1663a9059cbb33856040518363ffffffff1660e01b8152600401611095929190613d41565b602060405180830381600087803b1580156110af57600080fd5b505af11580156110c3573d6000803e3d6000fd5b505050506040513d601f19601f820116820180604052508101906110e79190613b8a565b5042600760003373ffffffffffffffffffffffffffffffffffffffff1673ffffffffffffffffffffffffffffffffffffffff1681526020019081526020016000208190555082600560003373ffffffffffffffffffffffffffffffffffffffff1673ffffffffffffffffffffffffffffffffffffffff168152602001908152602001600020600082825461117b9190613f06565b925050819055506001601860003373ffffffffffffffffffffffffffffffffffffffff1673ffffffffffffffffffffffffffffffffffffffff16815260200190815260200160002060006101000a81548160ff0219169083151502179055503373ffffffffffffffffffffffffffffffffffffffff167f212a25b7e6d62ca82a704bf5f0513e2d0840e89914c62639dceabfb40a34491a84600560003373ffffffffffffffffffffffffffffffffffffffff1673ffffffffffffffffffffffffffffffffffffffff16815260200190815260200160002054601560003373ffffffffffffffffffffffffffffffffffffffff1673ffffffffffffffffffffffffffffffffffffffff16815260200190815260200160002054600d60009054906101000a900473ffffffffffffffffffffffffffffffffffffffff1673ffffffffffffffffffffffffffffffffffffffff166370a08231336040518263ffffffff1660e01b81526004016112ee9190613cef565b60206040518083038186803b15801561130657600080fd5b505afa15801561131a573d6000803e3d6000fd5b505050506040513d601f19601f8201168201806040525081019061133e9190613bb7565b600f60009054906101000a900473ffffffffffffffffffffffffffffffffffffffff1673ffffffffffffffffffffffffffffffffffffffff166370a08231336040518263ffffffff1660e01b81526004016113999190613cef565b60206040518083038186803b1580156113b157600080fd5b505afa1580156113c5573d6000803e3d6000fd5b505050506040513d601f19601f820116820180604052508101906113e99190613bb7565b6040516113fa959493929190613e4c565b60405180910390a2600560003373ffffffffffffffffffffffffffffffffffffffff1673ffffffffffffffffffffffffffffffffffffffff1681526020019081526020016000205490506119ff565b6000831180156114a9575060011515601b60003373ffffffffffffffffffffffffffffffffffffffff1673ffffffffffffffffffffffffffffffffffffffff16815260200190815260200160002060009054906101000a900460ff161515145b80156114f4575082600860003373ffffffffffffffffffffffffffffffffffffffff1673ffffffffffffffffffffffffffffffffffffffff1681526020019081526020016000205410155b611533576040517f08c379a000000000000000000000000000000000000000000000000000000000815260040161152a90613e11565b60405180910390fd5b60011515601c60003373ffffffffffffffffffffffffffffffffffffffff1673ffffffffffffffffffffffffffffffffffffffff16815260200190815260200160002060009054906101000a900460ff16151514156115f25760006115983384611ff3565b905080601960003373ffffffffffffffffffffffffffffffffffffffff1673ffffffffffffffffffffffffffffffffffffffff16815260200190815260200160002060008282546115e99190613f06565b92505081905550505b601060009054906101000a900473ffffffffffffffffffffffffffffffffffffffff1673ffffffffffffffffffffffffffffffffffffffff1663a9059cbb33856040518363ffffffff1660e01b815260040161164f929190613d41565b602060405180830381600087803b15801561166957600080fd5b505af115801561167d573d6000803e3d6000fd5b505050506040513d601f19601f820116820180604052508101906116a19190613b8a565b5042600b60003373ffffffffffffffffffffffffffffffffffffffff1673ffffffffffffffffffffffffffffffffffffffff1681526020019081526020016000208190555082600960003373ffffffffffffffffffffffffffffffffffffffff1673ffffffffffffffffffffffffffffffffffffffff16815260200190815260200160002060008282546117359190613f06565b925050819055506001601c60003373ffffffffffffffffffffffffffffffffffffffff1673ffffffffffffffffffffffffffffffffffffffff16815260200190815260200160002060006101000a81548160ff0219169083151502179055503373ffffffffffffffffffffffffffffffffffffffff167f212a25b7e6d62ca82a704bf5f0513e2d0840e89914c62639dceabfb40a34491a84600960003373ffffffffffffffffffffffffffffffffffffffff1673ffffffffffffffffffffffffffffffffffffffff16815260200190815260200160002054601960003373ffffffffffffffffffffffffffffffffffffffff1673ffffffffffffffffffffffffffffffffffffffff16815260200190815260200160002054600d60009054906101000a900473ffffffffffffffffffffffffffffffffffffffff1673ffffffffffffffffffffffffffffffffffffffff166370a08231336040518263ffffffff1660e01b81526004016118a89190613cef565b60206040518083038186803b1580156118c057600080fd5b505afa1580156118d4573d6000803e3d6000fd5b505050506040513d601f19601f820116820180604052508101906118f89190613bb7565b601060009054906101000a900473ffffffffffffffffffffffffffffffffffffffff1673ffffffffffffffffffffffffffffffffffffffff166370a08231336040518263ffffffff1660e01b81526004016119539190613cef565b60206040518083038186803b15801561196b57600080fd5b505afa15801561197f573d6000803e3d6000fd5b505050506040513d601f19601f820116820180604052508101906119a39190613bb7565b6040516119b4959493929190613e4c565b60405180910390a2600960003373ffffffffffffffffffffffffffffffffffffffff1673ffffffffffffffffffffffffffffffffffffffff1681526020019081526020016000205490505b92915050565b60066020528060005260406000206000915090505481565b60016020528060005260406000206000915090505481565b6000611a76826040518060400160405280600381526020017f646169000000000000000000000000000000000000000000000000000000000081525061384b565b15611b57576000670de0b6b3a7640000611ac5856040518060400160405280600381526020017f6461690000000000000000000000000000000000000000000000000000000000815250613585565b611acf9190613f8d565b905060006301e13380905060008183611ae89190613f5c565b90506000670de0b6b3a7640000826000808a73ffffffffffffffffffffffffffffffffffffffff1673ffffffffffffffffffffffffffffffffffffffff16815260200190815260200160002054611b3f9190613f8d565b611b499190613f5c565b905080945050505050611d51565b611b96826040518060400160405280600381526020017f657468000000000000000000000000000000000000000000000000000000000081525061384b565b15611c78576000670de0b6b3a7640000611be5856040518060400160405280600381526020017f6574680000000000000000000000000000000000000000000000000000000000815250613585565b611bef9190613f8d565b905060006301e13380905060008183611c089190613f5c565b90506000670de0b6b3a764000082600460008a73ffffffffffffffffffffffffffffffffffffffff1673ffffffffffffffffffffffffffffffffffffffff16815260200190815260200160002054611c609190613f8d565b611c6a9190613f5c565b905080945050505050611d51565b6000670de0b6b3a7640000611cc2856040518060400160405280600481526020017f7573647400000000000000000000000000000000000000000000000000000000815250613585565b611ccc9190613f8d565b905060006301e13380905060008183611ce59190613f5c565b90506000670de0b6b3a764000082600860008a73ffffffffffffffffffffffffffffffffffffffff1673ffffffffffffffffffffffffffffffffffffffff16815260200190815260200160002054611d3d9190613f8d565b611d479190613f5c565b9050809450505050505b92915050565b601c6020528060005260406000206000915054906101000a900460ff1681565b60176020528060005260406000206000915054906101000a900460ff1681565b60196020528060005260406000206000915090505481565b60086020528060005260406000206000915090505481565b60056020528060005260406000206000915090505481565b60036020528060005260406000206000915090505481565b6000611e38826040518060400160405280600381526020017f646169000000000000000000000000000000000000000000000000000000000081525061384b565b15611e9b5760004290506000600260008673ffffffffffffffffffffffffffffffffffffffff1673ffffffffffffffffffffffffffffffffffffffff1681526020019081526020016000205482611e8f9190613fe7565b90508092505050611f97565b611eda826040518060400160405280600381526020017f657468000000000000000000000000000000000000000000000000000000000081525061384b565b15611f3d5760004290506000600760008673ffffffffffffffffffffffffffffffffffffffff1673ffffffffffffffffffffffffffffffffffffffff1681526020019081526020016000205482611f319190613fe7565b90508092505050611f97565b60004290506000600b60008673ffffffffffffffffffffffffffffffffffffffff1673ffffffffffffffffffffffffffffffffffffffff1681526020019081526020016000205482611f8f9190613fe7565b905080925050505b92915050565b600d60009054906101000a900473ffffffffffffffffffffffffffffffffffffffff1681565b60156020528060005260406000206000915090505481565b60126020528060005260406000206000915090505481565b6000612034826040518060400160405280600381526020017f646169000000000000000000000000000000000000000000000000000000000081525061384b565b15612116576000670de0b6b3a7640000612083856040518060400160405280600381526020017f6461690000000000000000000000000000000000000000000000000000000000815250611df7565b61208d9190613f8d565b905060006301b574a29050600081836120a69190613f5c565b90506000670de0b6b3a764000082600360008a73ffffffffffffffffffffffffffffffffffffffff1673ffffffffffffffffffffffffffffffffffffffff168152602001908152602001600020546120fe9190613f8d565b6121089190613f5c565b905080945050505050612310565b612155826040518060400160405280600381526020017f657468000000000000000000000000000000000000000000000000000000000081525061384b565b15612237576000670de0b6b3a76400006121a4856040518060400160405280600381526020017f6574680000000000000000000000000000000000000000000000000000000000815250611df7565b6121ae9190613f8d565b905060006301b574a29050600081836121c79190613f5c565b90506000670de0b6b3a764000082600560008a73ffffffffffffffffffffffffffffffffffffffff1673ffffffffffffffffffffffffffffffffffffffff1681526020019081526020016000205461221f9190613f8d565b6122299190613f5c565b905080945050505050612310565b6000670de0b6b3a7640000612281856040518060400160405280600481526020017f7573647400000000000000000000000000000000000000000000000000000000815250611df7565b61228b9190613f8d565b905060006301b574a29050600081836122a49190613f5c565b90506000670de0b6b3a764000082600960008a73ffffffffffffffffffffffffffffffffffffffff1673ffffffffffffffffffffffffffffffffffffffff168152602001908152602001600020546122fc9190613f8d565b6123069190613f5c565b9050809450505050505b92915050565b600f60009054906101000a900473ffffffffffffffffffffffffffffffffffffffff1681565b600c60009054906101000a900473ffffffffffffffffffffffffffffffffffffffff1681565b60116020528060005260406000206000915090505481565b600b6020528060005260406000206000915090505481565b601060009054906101000a900473ffffffffffffffffffffffffffffffffffffffff1681565b60186020528060005260406000206000915054906101000a900460ff1681565b600e60009054906101000a900473ffffffffffffffffffffffffffffffffffffffff1681565b600061243f826040518060400160405280600381526020017f646169000000000000000000000000000000000000000000000000000000000081525061384b565b156129ed5782600360003373ffffffffffffffffffffffffffffffffffffffff1673ffffffffffffffffffffffffffffffffffffffff16815260200190815260200160002054101580156124e3575060011515601460003373ffffffffffffffffffffffffffffffffffffffff1673ffffffffffffffffffffffffffffffffffffffff16815260200190815260200160002060009054906101000a900460ff161515145b612522576040517f08c379a000000000000000000000000000000000000000000000000000000000815260040161251990613df1565b60405180910390fd5b600061252e3384611ff3565b905042600260003373ffffffffffffffffffffffffffffffffffffffff1673ffffffffffffffffffffffffffffffffffffffff1681526020019081526020016000208190555060008490506000945080600360003373ffffffffffffffffffffffffffffffffffffffff1673ffffffffffffffffffffffffffffffffffffffff16815260200190815260200160002060008282546125cc9190613fe7565b92505081905550600e60009054906101000a900473ffffffffffffffffffffffffffffffffffffffff1673ffffffffffffffffffffffffffffffffffffffff166323b872dd3330846040518463ffffffff1660e01b815260040161263293929190613d0a565b602060405180830381600087803b15801561264c57600080fd5b505af1158015612660573d6000803e3d6000fd5b505050506040513d601f19601f820116820180604052508101906126849190613b8a565b5081601160003373ffffffffffffffffffffffffffffffffffffffff1673ffffffffffffffffffffffffffffffffffffffff16815260200190815260200160002060008282546126d49190613f06565b925050819055506000600360003373ffffffffffffffffffffffffffffffffffffffff1673ffffffffffffffffffffffffffffffffffffffff16815260200190815260200160002054141561277c576000601460003373ffffffffffffffffffffffffffffffffffffffff1673ffffffffffffffffffffffffffffffffffffffff16815260200190815260200160002060006101000a81548160ff0219169083151502179055505b3373ffffffffffffffffffffffffffffffffffffffff167ff8d50c6057e24414caf5becd2c1db2b04030072f04629ef793e79845601341c586600360003373ffffffffffffffffffffffffffffffffffffffff1673ffffffffffffffffffffffffffffffffffffffff16815260200190815260200160002054601160003373ffffffffffffffffffffffffffffffffffffffff1673ffffffffffffffffffffffffffffffffffffffff16815260200190815260200160002054600d60009054906101000a900473ffffffffffffffffffffffffffffffffffffffff1673ffffffffffffffffffffffffffffffffffffffff166370a08231336040518263ffffffff1660e01b81526004016128909190613cef565b60206040518083038186803b1580156128a857600080fd5b505afa1580156128bc573d6000803e3d6000fd5b505050506040513d601f19601f820116820180604052508101906128e09190613bb7565b600e60009054906101000a900473ffffffffffffffffffffffffffffffffffffffff1673ffffffffffffffffffffffffffffffffffffffff166370a08231336040518263ffffffff1660e01b815260040161293b9190613cef565b60206040518083038186803b15801561295357600080fd5b505afa158015612967573d6000803e3d6000fd5b505050506040513d601f19601f8201168201806040525081019061298b9190613bb7565b60405161299c959493929190613e4c565b60405180910390a2600360003373ffffffffffffffffffffffffffffffffffffffff1673ffffffffffffffffffffffffffffffffffffffff168152602001908152602001600020549250505061357f565b612a2c826040518060400160405280600381526020017f657468000000000000000000000000000000000000000000000000000000000081525061384b565b15612fda5782600560003373ffffffffffffffffffffffffffffffffffffffff1673ffffffffffffffffffffffffffffffffffffffff1681526020019081526020016000205410158015612ad0575060011515601860003373ffffffffffffffffffffffffffffffffffffffff1673ffffffffffffffffffffffffffffffffffffffff16815260200190815260200160002060009054906101000a900460ff161515145b612b0f576040517f08c379a0000000000000000000000000000000000000000000000000000000008152600401612b0690613df1565b60405180910390fd5b6000612b1b3384611ff3565b905042600760003373ffffffffffffffffffffffffffffffffffffffff1673ffffffffffffffffffffffffffffffffffffffff1681526020019081526020016000208190555060008490506000945080600560003373ffffffffffffffffffffffffffffffffffffffff1673ffffffffffffffffffffffffffffffffffffffff1681526020019081526020016000206000828254612bb99190613fe7565b92505081905550600f60009054906101000a900473ffffffffffffffffffffffffffffffffffffffff1673ffffffffffffffffffffffffffffffffffffffff166323b872dd3330846040518463ffffffff1660e01b8152600401612c1f93929190613d0a565b602060405180830381600087803b158015612c3957600080fd5b505af1158015612c4d573d6000803e3d6000fd5b505050506040513d601f19601f82011682018060405250810190612c719190613b8a565b5081601560003373ffffffffffffffffffffffffffffffffffffffff1673ffffffffffffffffffffffffffffffffffffffff1681526020019081526020016000206000828254612cc19190613f06565b925050819055506000600560003373ffffffffffffffffffffffffffffffffffffffff1673ffffffffffffffffffffffffffffffffffffffff168152602001908152602001600020541415612d69576000601860003373ffffffffffffffffffffffffffffffffffffffff1673ffffffffffffffffffffffffffffffffffffffff16815260200190815260200160002060006101000a81548160ff0219169083151502179055505b3373ffffffffffffffffffffffffffffffffffffffff167ff8d50c6057e24414caf5becd2c1db2b04030072f04629ef793e79845601341c586600560003373ffffffffffffffffffffffffffffffffffffffff1673ffffffffffffffffffffffffffffffffffffffff16815260200190815260200160002054601560003373ffffffffffffffffffffffffffffffffffffffff1673ffffffffffffffffffffffffffffffffffffffff16815260200190815260200160002054600d60009054906101000a900473ffffffffffffffffffffffffffffffffffffffff1673ffffffffffffffffffffffffffffffffffffffff166370a08231336040518263ffffffff1660e01b8152600401612e7d9190613cef565b60206040518083038186803b158015612e9557600080fd5b505afa158015612ea9573d6000803e3d6000fd5b505050506040513d601f19601f82011682018060405250810190612ecd9190613bb7565b600f60009054906101000a900473ffffffffffffffffffffffffffffffffffffffff1673ffffffffffffffffffffffffffffffffffffffff166370a08231336040518263ffffffff1660e01b8152600401612f289190613cef565b60206040518083038186803b158015612f4057600080fd5b505afa158015612f54573d6000803e3d6000fd5b505050506040513d601f19601f82011682018060405250810190612f789190613bb7565b604051612f89959493929190613e4c565b60405180910390a2600560003373ffffffffffffffffffffffffffffffffffffffff1673ffffffffffffffffffffffffffffffffffffffff168152602001908152602001600020549250505061357f565b82600960003373ffffffffffffffffffffffffffffffffffffffff1673ffffffffffffffffffffffffffffffffffffffff1681526020019081526020016000205410158015613079575060011515601c60003373ffffffffffffffffffffffffffffffffffffffff1673ffffffffffffffffffffffffffffffffffffffff16815260200190815260200160002060009054906101000a900460ff161515145b6130b8576040517f08c379a00000000000000000000000000000000000000000000000000000000081526004016130af90613df1565b60405180910390fd5b60006130c43384611ff3565b905042600b60003373ffffffffffffffffffffffffffffffffffffffff1673ffffffffffffffffffffffffffffffffffffffff1681526020019081526020016000208190555060008490506000945080600960003373ffffffffffffffffffffffffffffffffffffffff1673ffffffffffffffffffffffffffffffffffffffff16815260200190815260200160002060008282546131629190613fe7565b92505081905550601060009054906101000a900473ffffffffffffffffffffffffffffffffffffffff1673ffffffffffffffffffffffffffffffffffffffff166323b872dd3330846040518463ffffffff1660e01b81526004016131c893929190613d0a565b602060405180830381600087803b1580156131e257600080fd5b505af11580156131f6573d6000803e3d6000fd5b505050506040513d601f19601f8201168201806040525081019061321a9190613b8a565b5081601960003373ffffffffffffffffffffffffffffffffffffffff1673ffffffffffffffffffffffffffffffffffffffff168152602001908152602001600020600082825461326a9190613f06565b925050819055506000600960003373ffffffffffffffffffffffffffffffffffffffff1673ffffffffffffffffffffffffffffffffffffffff168152602001908152602001600020541415613312576000601c60003373ffffffffffffffffffffffffffffffffffffffff1673ffffffffffffffffffffffffffffffffffffffff16815260200190815260200160002060006101000a81548160ff0219169083151502179055505b3373ffffffffffffffffffffffffffffffffffffffff167ff8d50c6057e24414caf5becd2c1db2b04030072f04629ef793e79845601341c586600960003373ffffffffffffffffffffffffffffffffffffffff1673ffffffffffffffffffffffffffffffffffffffff16815260200190815260200160002054601960003373ffffffffffffffffffffffffffffffffffffffff1673ffffffffffffffffffffffffffffffffffffffff16815260200190815260200160002054600d60009054906101000a900473ffffffffffffffffffffffffffffffffffffffff1673ffffffffffffffffffffffffffffffffffffffff166370a08231336040518263ffffffff1660e01b81526004016134269190613cef565b60206040518083038186803b15801561343e57600080fd5b505afa158015613452573d6000803e3d6000fd5b505050506040513d601f19601f820116820180604052508101906134769190613bb7565b601060009054906101000a900473ffffffffffffffffffffffffffffffffffffffff1673ffffffffffffffffffffffffffffffffffffffff166370a08231336040518263ffffffff1660e01b81526004016134d19190613cef565b60206040518083038186803b1580156134e957600080fd5b505afa1580156134fd573d6000803e3d6000fd5b505050506040513d601f19601f820116820180604052508101906135219190613bb7565b604051613532959493929190613e4c565b60405180910390a2600960003373ffffffffffffffffffffffffffffffffffffffff1673ffffffffffffffffffffffffffffffffffffffff16815260200190815260200160002054925050505b92915050565b60006135c6826040518060400160405280600381526020017f646169000000000000000000000000000000000000000000000000000000000081525061384b565b156136295760004290506000600160008673ffffffffffffffffffffffffffffffffffffffff1673ffffffffffffffffffffffffffffffffffffffff168152602001908152602001600020548261361d9190613fe7565b90508092505050613725565b613668826040518060400160405280600381526020017f657468000000000000000000000000000000000000000000000000000000000081525061384b565b156136cb5760004290506000600660008673ffffffffffffffffffffffffffffffffffffffff1673ffffffffffffffffffffffffffffffffffffffff16815260200190815260200160002054826136bf9190613fe7565b90508092505050613725565b60004290506000600a60008673ffffffffffffffffffffffffffffffffffffffff1673ffffffffffffffffffffffffffffffffffffffff168152602001908152602001600020548261371d9190613fe7565b905080925050505b92915050565b60166020528060005260406000206000915090505481565b60076020528060005260406000206000915090505481565b600a6020528060005260406000206000915090505481565b60026020528060005260406000206000915090505481565b601b6020528060005260406000206000915054906101000a900460ff1681565b60046020528060005260406000206000915090505481565b60146020528060005260406000206000915054906101000a900460ff1681565b601a6020528060005260406000206000915090505481565b60096020528060005260406000206000915090505481565b60136020528060005260406000206000915054906101000a900460ff1681565b60006020528060005260406000206000915090505481565b6000806138588484613861565b14905092915050565b6000808390506000839050600082519050808251101561388057815190505b60005b818110156139e35782818151811061389e5761389d6141da565b5b602001015160f81c60f81b7effffffffffffffffffffffffffffffffffffffffffffffffffffffffffffff19168482815181106138de576138dd6141da565b5b602001015160f81c60f81b7effffffffffffffffffffffffffffffffffffffffffffffffffffffffffffff1916101561393d577fffffffffffffffffffffffffffffffffffffffffffffffffffffffffffffffff945050505050613a37565b8281815181106139505761394f6141da565b5b602001015160f81c60f81b7effffffffffffffffffffffffffffffffffffffffffffffffffffffffffffff19168482815181106139905761398f6141da565b5b602001015160f81c60f81b7effffffffffffffffffffffffffffffffffffffffffffffffffffffffffffff191611156139d0576001945050505050613a37565b80806139db90614133565b915050613883565b50815183511015613a19577fffffffffffffffffffffffffffffffffffffffffffffffffffffffffffffffff9350505050613a37565b815183511115613a2f5760019350505050613a37565b600093505050505b92915050565b6000613a50613a4b84613ec4565b613e9f565b905082815260208101848484011115613a6c57613a6b61423d565b5b613a778482856140f3565b509392505050565b600081359050613a8e816142d5565b92915050565b600081519050613aa3816142ec565b92915050565b600082601f830112613abe57613abd614238565b5b8135613ace848260208601613a3d565b91505092915050565b600081359050613ae681614303565b92915050565b600081519050613afb81614303565b92915050565b600060208284031215613b1757613b16614247565b5b6000613b2584828501613a7f565b91505092915050565b60008060408385031215613b4557613b44614247565b5b6000613b5385828601613a7f565b925050602083013567ffffffffffffffff811115613b7457613b73614242565b5b613b8085828601613aa9565b9150509250929050565b600060208284031215613ba057613b9f614247565b5b6000613bae84828501613a94565b91505092915050565b600060208284031215613bcd57613bcc614247565b5b6000613bdb84828501613aec565b91505092915050565b60008060408385031215613bfb57613bfa614247565b5b6000613c0985828601613ad7565b925050602083013567ffffffffffffffff811115613c2a57613c29614242565b5b613c3685828601613aa9565b9150509250929050565b613c498161401b565b82525050565b613c588161402d565b82525050565b613c6781614063565b82525050565b613c7681614087565b82525050565b613c85816140ab565b82525050565b613c94816140cf565b82525050565b6000613ca7602b83613ef5565b9150613cb28261425d565b604082019050919050565b6000613cca601d83613ef5565b9150613cd5826142ac565b602082019050919050565b613ce981614059565b82525050565b6000602082019050613d046000830184613c40565b92915050565b6000606082019050613d1f6000830186613c40565b613d2c6020830185613c40565b613d396040830184613ce0565b949350505050565b6000604082019050613d566000830185613c40565b613d636020830184613ce0565b9392505050565b6000602082019050613d7f6000830184613c4f565b92915050565b6000602082019050613d9a6000830184613c5e565b92915050565b6000602082019050613db56000830184613c6d565b92915050565b6000602082019050613dd06000830184613c7c565b92915050565b6000602082019050613deb6000830184613c8b565b92915050565b60006020820190508181036000830152613e0a81613c9a565b9050919050565b60006020820190508181036000830152613e2a81613cbd565b9050919050565b6000602082019050613e466000830184613ce0565b92915050565b600060a082019050613e616000830188613ce0565b613e6e6020830187613ce0565b613e7b6040830186613ce0565b613e886060830185613ce0565b613e956080830184613ce0565b9695505050505050565b6000613ea9613eba565b9050613eb58282614102565b919050565b6000604051905090565b600067ffffffffffffffff821115613edf57613ede614209565b5b613ee88261424c565b9050602081019050919050565b600082825260208201905092915050565b6000613f1182614059565b9150613f1c83614059565b9250827fffffffffffffffffffffffffffffffffffffffffffffffffffffffffffffffff03821115613f5157613f5061417c565b5b828201905092915050565b6000613f6782614059565b9150613f7283614059565b925082613f8257613f816141ab565b5b828204905092915050565b6000613f9882614059565b9150613fa383614059565b9250817fffffffffffffffffffffffffffffffffffffffffffffffffffffffffffffffff0483118215151615613fdc57613fdb61417c565b5b828202905092915050565b6000613ff282614059565b9150613ffd83614059565b9250828210156140105761400f61417c565b5b828203905092915050565b600061402682614039565b9050919050565b60008115159050919050565b600073ffffffffffffffffffffffffffffffffffffffff82169050919050565b6000819050919050565b600061406e82614075565b9050919050565b600061408082614039565b9050919050565b600061409282614099565b9050919050565b60006140a482614039565b9050919050565b60006140b6826140bd565b9050919050565b60006140c882614039565b9050919050565b60006140da826140e1565b9050919050565b60006140ec82614039565b9050919050565b82818337600083830152505050565b61410b8261424c565b810181811067ffffffffffffffff8211171561412a57614129614209565b5b80604052505050565b600061413e82614059565b91507fffffffffffffffffffffffffffffffffffffffffffffffffffffffffffffffff8214156141715761417061417c565b5b600182019050919050565b7f4e487b7100000000000000000000000000000000000000000000000000000000600052601160045260246000fd5b7f4e487b7100000000000000000000000000000000000000000000000000000000600052601260045260246000fd5b7f4e487b7100000000000000000000000000000000000000000000000000000000600052603260045260246000fd5b7f4e487b7100000000000000000000000000000000000000000000000000000000600052604160045260246000fd5b600080fd5b600080fd5b600080fd5b600080fd5b6000601f19601f8301169050919050565b7f426f72726f7765642062616c616e6365206d757374206265206c61726765722060008201527f7468616e20616d6f756e74000000000000000000000000000000000000000000602082015250565b7f596f752063616e6e6f7420626f72726f77207a65726f20746f6b656e73000000600082015250565b6142de8161401b565b81146142e957600080fd5b50565b6142f58161402d565b811461430057600080fd5b50565b61430c81614059565b811461431757600080fd5b5056fea2646970667358221220c0b9acc47112a91e0be9218a58414eb7873b8495bc8ee6369fecd7c16c853da264736f6c63430008060033",
  "immutableReferences": {},
  "source": "//\"SPDX-License-Identifier: UNLICENSED\"\npragma solidity ^0.8.6;\n\nimport \"./stringUtils.sol\";\nimport \"./FarmingHelpers.sol\";\nimport \"./DaiToken.sol\";\nimport \"./EthToken.sol\";\nimport \"./UsdtToken.sol\";\nimport \"./TegToken.sol\";\n\ncontract BorrowRepay is FarmingHelpers {\n\n    address public owner;\n    TegToken public tegToken;\n    DaiToken public daiToken;\n    EthToken public ethToken;\n    UsdtToken public usdtToken;\n    \n    //dai\n    mapping(address => uint256) public daiLossBalance;\n    mapping(address => uint256) public daiEarnedBalance;\n    mapping(address => bool) public isStakingDai;\n    mapping(address => bool) public isBorrowingDai;\n\n    //eth\n    mapping(address => uint256) public ethLossBalance;\n    mapping(address => uint256) public ethEarnedBalance;\n    mapping(address => bool) public isStakingEth;\n    mapping(address => bool) public isBorrowingEth;\n\n    //usdt\n    mapping(address => uint256) public usdtLossBalance;\n    mapping(address => uint256) public usdtEarnedBalance;\n    mapping(address => bool) public isStakingUsdt;\n    mapping(address => bool) public isBorrowingUsdt;\n\n    event Borrow(\n        address indexed from,\n        uint256 amount,\n        uint256 borrowBal,\n        uint256 lossBal,\n        uint256 tegBal,\n        uint256 tokenBal\n    );\n\n    event Repay(\n        address indexed from,\n        uint256 amount,\n        uint256 borrowBal,\n        uint256 lossBal,\n        uint256 tegBal,\n        uint256 tokenBal\n    );\n\n    //3. Borrow Tokens\n    function borrowTokens(uint256 _amount, string memory _tok)\n        public\n        returns (uint256 balance)\n    {\n        if (StringUtils.equal(_tok, \"dai\")) {\n            //Amount staked cannot be smaller than 0,\n            //Borrower should be staking\n            //His staking balance should always be larger than borrowed amount (overcollateralized)\n            //Balance of TEG tokens should not be 0 or lower\n            require(\n                _amount > 0 &&\n                    isStakingDai[msg.sender] == true &&\n                    daiStakingBalance[msg.sender] >= _amount,\n                // tegToken.balanceOf(msg.sender) >= 0,\n                \"You cannot borrow zero tokens\"\n            );\n\n            if (isBorrowingDai[msg.sender] == true) {\n                uint256 toTransfer = calculateLossYield(msg.sender, _tok);\n                daiLossBalance[msg.sender] += toTransfer;\n            }\n            // Transfer Mock Dai to borrower\n            // daiToken.approve(address(this), _amount);\n            daiToken.transfer(msg.sender, _amount);\n            //update start time\n            borrowedTimeDai[msg.sender] = block.timestamp;\n            //update borrowed balance\n            daiBorrowedBalance[msg.sender] += _amount;\n            //update borrowing status\n            isBorrowingDai[msg.sender] = true;\n            emit Borrow(\n                msg.sender,\n                _amount,\n                daiBorrowedBalance[msg.sender],\n                daiLossBalance[msg.sender],\n                tegToken.balanceOf(msg.sender),\n                daiToken.balanceOf(msg.sender)\n            );\n            return daiBorrowedBalance[msg.sender];\n        } else if (StringUtils.equal(_tok, \"eth\")) {\n            //Amount staked cannot be smaller than 0,\n            //Borrower should be staking\n            //His staking balance should always be larger than borrowed amount (overcollateralized)\n            //Balance of TEG tokens should not be 0 or lower\n            require(\n                _amount > 0 &&\n                    isStakingEth[msg.sender] == true &&\n                    ethStakingBalance[msg.sender] >= _amount,\n                // tegToken.balanceOf(msg.sender) >= 0,\n                \"You cannot borrow zero tokens\"\n            );\n\n            if (isBorrowingEth[msg.sender] == true) {\n                uint256 toTransfer = calculateLossYield(msg.sender, _tok);\n                ethLossBalance[msg.sender] += toTransfer;\n            }\n            // Transfer Mock eth to borrower\n            // ethToken.approve(address(this), _amount);\n            ethToken.transfer(msg.sender, _amount);\n            //update start time\n            borrowedTimeEth[msg.sender] = block.timestamp;\n            //update borrowed balance\n            ethBorrowedBalance[msg.sender] += _amount;\n            //update borrowing status\n            isBorrowingEth[msg.sender] = true;\n            emit Borrow(\n                msg.sender,\n                _amount,\n                ethBorrowedBalance[msg.sender],\n                ethLossBalance[msg.sender],\n                tegToken.balanceOf(msg.sender),\n                ethToken.balanceOf(msg.sender)\n            );\n            return ethBorrowedBalance[msg.sender];\n        } else {\n            //Amount staked cannot be smaller than 0,\n            //Borrower should be staking\n            //His staking balance should always be larger than borrowed amount (overcollateralized)\n            //Balance of TEG tokens should not be 0 or lower\n            require(\n                _amount > 0 &&\n                    isStakingUsdt[msg.sender] == true &&\n                    usdtStakingBalance[msg.sender] >= _amount,\n                // tegToken.balanceOf(msg.sender) >= 0,\n                \"You cannot borrow zero tokens\"\n            );\n\n            if (isBorrowingUsdt[msg.sender] == true) {\n                uint256 toTransfer = calculateLossYield(msg.sender, _tok);\n                usdtLossBalance[msg.sender] += toTransfer;\n            }\n            // Transfer Mock usdt to borrower\n            // usdtToken.approve(address(this), _amount);\n            usdtToken.transfer(msg.sender, _amount);\n            //update start time\n            borrowedTimeUsdt[msg.sender] = block.timestamp;\n            //update borrowed balance\n            usdtBorrowedBalance[msg.sender] += _amount;\n            //update borrowing status\n            isBorrowingUsdt[msg.sender] = true;\n            emit Borrow(\n                msg.sender,\n                _amount,\n                usdtBorrowedBalance[msg.sender],\n                usdtLossBalance[msg.sender],\n                tegToken.balanceOf(msg.sender),\n                usdtToken.balanceOf(msg.sender)\n            );\n            return usdtBorrowedBalance[msg.sender];\n        }\n    }\n\n    //4. Repay Tokens\n    function repayTokens(uint256 _amount, string memory _tok)\n        public\n        returns (uint256 balance)\n    {\n        if (StringUtils.equal(_tok, \"dai\")) {\n            require(\n                daiBorrowedBalance[msg.sender] >= _amount &&\n                    isBorrowingDai[msg.sender] == true,\n                \"Borrowed balance must be larger than amount\"\n            );\n\n            uint256 yieldTransfer = calculateLossYield(msg.sender, _tok);\n            borrowedTimeDai[msg.sender] = block.timestamp;\n            uint256 balanceTransfer = _amount;\n            _amount = 0;\n            //decrease borrowed balance by amount\n            daiBorrowedBalance[msg.sender] -= balanceTransfer;\n            //repay dai tokens to farm\n            daiToken.transferFrom(msg.sender, address(this), balanceTransfer);\n\n            daiLossBalance[msg.sender] += yieldTransfer;\n            // is he still staking?\n            //update staking status\n            if (daiBorrowedBalance[msg.sender] == 0) {\n                isBorrowingDai[msg.sender] = false;\n            }\n            emit Repay(\n                msg.sender,\n                _amount,\n                daiBorrowedBalance[msg.sender],\n                daiLossBalance[msg.sender],\n                tegToken.balanceOf(msg.sender),\n                daiToken.balanceOf(msg.sender)\n            );\n            return daiBorrowedBalance[msg.sender];\n        } else if (StringUtils.equal(_tok, \"eth\")) {\n            require(\n                ethBorrowedBalance[msg.sender] >= _amount &&\n                    isBorrowingEth[msg.sender] == true,\n                \"Borrowed balance must be larger than amount\"\n            );\n\n            uint256 yieldTransfer = calculateLossYield(msg.sender, _tok);\n            borrowedTimeEth[msg.sender] = block.timestamp;\n            uint256 balanceTransfer = _amount;\n            _amount = 0;\n            //decrease borrowed balance by amount\n            ethBorrowedBalance[msg.sender] -= balanceTransfer;\n            //repay eth tokens to farm\n            ethToken.transferFrom(msg.sender, address(this), balanceTransfer);\n\n            ethLossBalance[msg.sender] += yieldTransfer;\n            // is he still staking?\n            //update staking status\n            if (ethBorrowedBalance[msg.sender] == 0) {\n                isBorrowingEth[msg.sender] = false;\n            }\n            emit Repay(\n                msg.sender,\n                _amount,\n                ethBorrowedBalance[msg.sender],\n                ethLossBalance[msg.sender],\n                tegToken.balanceOf(msg.sender),\n                ethToken.balanceOf(msg.sender)\n            );\n            return ethBorrowedBalance[msg.sender];\n        } else {\n            require(\n                usdtBorrowedBalance[msg.sender] >= _amount &&\n                    isBorrowingUsdt[msg.sender] == true,\n                \"Borrowed balance must be larger than amount\"\n            );\n\n            uint256 yieldTransfer = calculateLossYield(msg.sender, _tok);\n            borrowedTimeUsdt[msg.sender] = block.timestamp;\n            uint256 balanceTransfer = _amount;\n            _amount = 0;\n            //decrease borrowed balance by amount\n            usdtBorrowedBalance[msg.sender] -= balanceTransfer;\n            //repay usdt tokens to farm\n            usdtToken.transferFrom(msg.sender, address(this), balanceTransfer);\n\n            usdtLossBalance[msg.sender] += yieldTransfer;\n            // is he still staking?\n            //update staking status\n            if (usdtBorrowedBalance[msg.sender] == 0) {\n                isBorrowingUsdt[msg.sender] = false;\n            }\n            emit Repay(\n                msg.sender,\n                _amount,\n                usdtBorrowedBalance[msg.sender],\n                usdtLossBalance[msg.sender],\n                tegToken.balanceOf(msg.sender),\n                usdtToken.balanceOf(msg.sender)\n            );\n            return usdtBorrowedBalance[msg.sender];\n        }\n    }\n}\n",
  "sourcePath": "/home/frankperler/Development/Codeworks/projects/blockchain/tegridyfarm/client/src/contracts/Borrow-Repay.sol",
  "compiler": {
    "name": "solc",
    "version": "0.8.6+commit.11564f7e.Emscripten.clang"
  },
  "schemaVersion": "3.4.2",
  "updatedAt": "2021-07-30T14:18:09.648Z",
  "devdoc": {
    "kind": "dev",
    "methods": {},
    "version": 1
  },
  "userdoc": {
    "kind": "user",
    "methods": {},
    "version": 1
  }
}