{
  "contractName": "FarmingHelpers",
  "abi": [
    {
      "inputs": [
        {
          "internalType": "address",
          "name": "",
          "type": "address"
        }
      ],
      "name": "borrowedTimeDai",
      "outputs": [
        {
          "internalType": "uint256",
          "name": "",
          "type": "uint256"
        }
      ],
      "stateMutability": "view",
      "type": "function"
    },
    {
      "inputs": [
        {
          "internalType": "address",
          "name": "",
          "type": "address"
        }
      ],
      "name": "borrowedTimeEth",
      "outputs": [
        {
          "internalType": "uint256",
          "name": "",
          "type": "uint256"
        }
      ],
      "stateMutability": "view",
      "type": "function"
    },
    {
      "inputs": [
        {
          "internalType": "address",
          "name": "",
          "type": "address"
        }
      ],
      "name": "borrowedTimeUsdt",
      "outputs": [
        {
          "internalType": "uint256",
          "name": "",
          "type": "uint256"
        }
      ],
      "stateMutability": "view",
      "type": "function"
    },
    {
      "inputs": [
        {
          "internalType": "address",
          "name": "",
          "type": "address"
        }
      ],
      "name": "daiBorrowedBalance",
      "outputs": [
        {
          "internalType": "uint256",
          "name": "",
          "type": "uint256"
        }
      ],
      "stateMutability": "view",
      "type": "function"
    },
    {
      "inputs": [
        {
          "internalType": "address",
          "name": "",
          "type": "address"
        }
      ],
      "name": "daiStakingBalance",
      "outputs": [
        {
          "internalType": "uint256",
          "name": "",
          "type": "uint256"
        }
      ],
      "stateMutability": "view",
      "type": "function"
    },
    {
      "inputs": [
        {
          "internalType": "address",
          "name": "",
          "type": "address"
        }
      ],
      "name": "earnedTimeDai",
      "outputs": [
        {
          "internalType": "uint256",
          "name": "",
          "type": "uint256"
        }
      ],
      "stateMutability": "view",
      "type": "function"
    },
    {
      "inputs": [
        {
          "internalType": "address",
          "name": "",
          "type": "address"
        }
      ],
      "name": "earnedTimeEth",
      "outputs": [
        {
          "internalType": "uint256",
          "name": "",
          "type": "uint256"
        }
      ],
      "stateMutability": "view",
      "type": "function"
    },
    {
      "inputs": [
        {
          "internalType": "address",
          "name": "",
          "type": "address"
        }
      ],
      "name": "earnedTimeUsdt",
      "outputs": [
        {
          "internalType": "uint256",
          "name": "",
          "type": "uint256"
        }
      ],
      "stateMutability": "view",
      "type": "function"
    },
    {
      "inputs": [
        {
          "internalType": "address",
          "name": "",
          "type": "address"
        }
      ],
      "name": "ethBorrowedBalance",
      "outputs": [
        {
          "internalType": "uint256",
          "name": "",
          "type": "uint256"
        }
      ],
      "stateMutability": "view",
      "type": "function"
    },
    {
      "inputs": [
        {
          "internalType": "address",
          "name": "",
          "type": "address"
        }
      ],
      "name": "ethStakingBalance",
      "outputs": [
        {
          "internalType": "uint256",
          "name": "",
          "type": "uint256"
        }
      ],
      "stateMutability": "view",
      "type": "function"
    },
    {
      "inputs": [
        {
          "internalType": "address",
          "name": "",
          "type": "address"
        }
      ],
      "name": "usdtBorrowedBalance",
      "outputs": [
        {
          "internalType": "uint256",
          "name": "",
          "type": "uint256"
        }
      ],
      "stateMutability": "view",
      "type": "function"
    },
    {
      "inputs": [
        {
          "internalType": "address",
          "name": "",
          "type": "address"
        }
      ],
      "name": "usdtStakingBalance",
      "outputs": [
        {
          "internalType": "uint256",
          "name": "",
          "type": "uint256"
        }
      ],
      "stateMutability": "view",
      "type": "function"
    },
    {
      "inputs": [
        {
          "internalType": "address",
          "name": "user",
          "type": "address"
        },
        {
          "internalType": "string",
          "name": "_tok",
          "type": "string"
        }
      ],
      "name": "calculateEarningTime",
      "outputs": [
        {
          "internalType": "uint256",
          "name": "",
          "type": "uint256"
        }
      ],
      "stateMutability": "view",
      "type": "function"
    },
    {
      "inputs": [
        {
          "internalType": "address",
          "name": "user",
          "type": "address"
        },
        {
          "internalType": "string",
          "name": "_tok",
          "type": "string"
        }
      ],
      "name": "calculateEarningYield",
      "outputs": [
        {
          "internalType": "uint256",
          "name": "",
          "type": "uint256"
        }
      ],
      "stateMutability": "view",
      "type": "function"
    },
    {
      "inputs": [
        {
          "internalType": "address",
          "name": "user",
          "type": "address"
        },
        {
          "internalType": "string",
          "name": "_tok",
          "type": "string"
        }
      ],
      "name": "calculateBorrowTime",
      "outputs": [
        {
          "internalType": "uint256",
          "name": "",
          "type": "uint256"
        }
      ],
      "stateMutability": "view",
      "type": "function"
    },
    {
      "inputs": [
        {
          "internalType": "address",
          "name": "user",
          "type": "address"
        },
        {
          "internalType": "string",
          "name": "_tok",
          "type": "string"
        }
      ],
      "name": "calculateLossYield",
      "outputs": [
        {
          "internalType": "uint256",
          "name": "",
          "type": "uint256"
        }
      ],
      "stateMutability": "view",
      "type": "function"
    }
  ],
  "bytecode": "0x608060405234801561001057600080fd5b506114e8806100206000396000f3fe608060405234801561001057600080fd5b50600436106101005760003560e01c80639d63006c11610097578063c8e0f3a711610066578063c8e0f3a714610345578063d844685314610375578063f74df17a146103a5578063fa18a898146103d557610100565b80639d63006c14610285578063bfa49156146102b5578063c2d7324d146102e5578063c483d2d91461031557610100565b806345f4e3b6116100d357806345f4e3b6146101c55780634d3fb27d146101f557806353ecf4561461022557806364f4a23d1461025557610100565b806306c21eba1461010557806322d0772e14610135578063330a9fb9146101655780634386e34f14610195575b600080fd5b61011f600480360381019061011a919061112d565b610405565b60405161012c91906111c5565b60405180910390f35b61014f600480360381019061014a919061112d565b61041d565b60405161015c91906111c5565b60405180910390f35b61017f600480360381019061017a919061115a565b610435565b60405161018c91906111c5565b60405180910390f35b6101af60048036038101906101aa919061112d565b610757565b6040516101bc91906111c5565b60405180910390f35b6101df60048036038101906101da919061112d565b61076f565b6040516101ec91906111c5565b60405180910390f35b61020f600480360381019061020a919061112d565b610787565b60405161021c91906111c5565b60405180910390f35b61023f600480360381019061023a919061115a565b61079f565b60405161024c91906111c5565b60405180910390f35b61026f600480360381019061026a919061115a565b610945565b60405161027c91906111c5565b60405180910390f35b61029f600480360381019061029a919061112d565b610c68565b6040516102ac91906111c5565b60405180910390f35b6102cf60048036038101906102ca919061115a565b610c80565b6040516102dc91906111c5565b60405180910390f35b6102ff60048036038101906102fa919061112d565b610e26565b60405161030c91906111c5565b60405180910390f35b61032f600480360381019061032a919061112d565b610e3e565b60405161033c91906111c5565b60405180910390f35b61035f600480360381019061035a919061112d565b610e56565b60405161036c91906111c5565b60405180910390f35b61038f600480360381019061038a919061112d565b610e6e565b60405161039c91906111c5565b60405180910390f35b6103bf60048036038101906103ba919061112d565b610e86565b6040516103cc91906111c5565b60405180910390f35b6103ef60048036038101906103ea919061112d565b610e9e565b6040516103fc91906111c5565b60405180910390f35b60066020528060005260406000206000915090505481565b60016020528060005260406000206000915090505481565b6000610476826040518060400160405280600381526020017f6461690000000000000000000000000000000000000000000000000000000000815250610eb6565b15610557576000670de0b6b3a76400006104c5856040518060400160405280600381526020017f6461690000000000000000000000000000000000000000000000000000000000815250610c80565b6104cf9190611267565b905060006301e133809050600081836104e89190611236565b90506000670de0b6b3a7640000826000808a73ffffffffffffffffffffffffffffffffffffffff1673ffffffffffffffffffffffffffffffffffffffff1681526020019081526020016000205461053f9190611267565b6105499190611236565b905080945050505050610751565b610596826040518060400160405280600381526020017f6574680000000000000000000000000000000000000000000000000000000000815250610eb6565b15610678576000670de0b6b3a76400006105e5856040518060400160405280600381526020017f6574680000000000000000000000000000000000000000000000000000000000815250610c80565b6105ef9190611267565b905060006301e133809050600081836106089190611236565b90506000670de0b6b3a764000082600460008a73ffffffffffffffffffffffffffffffffffffffff1673ffffffffffffffffffffffffffffffffffffffff168152602001908152602001600020546106609190611267565b61066a9190611236565b905080945050505050610751565b6000670de0b6b3a76400006106c2856040518060400160405280600481526020017f7573647400000000000000000000000000000000000000000000000000000000815250610c80565b6106cc9190611267565b905060006301e133809050600081836106e59190611236565b90506000670de0b6b3a764000082600860008a73ffffffffffffffffffffffffffffffffffffffff1673ffffffffffffffffffffffffffffffffffffffff1681526020019081526020016000205461073d9190611267565b6107479190611236565b9050809450505050505b92915050565b60086020528060005260406000206000915090505481565b60056020528060005260406000206000915090505481565b60036020528060005260406000206000915090505481565b60006107e0826040518060400160405280600381526020017f6461690000000000000000000000000000000000000000000000000000000000815250610eb6565b156108435760004290506000600260008673ffffffffffffffffffffffffffffffffffffffff1673ffffffffffffffffffffffffffffffffffffffff168152602001908152602001600020548261083791906112c1565b9050809250505061093f565b610882826040518060400160405280600381526020017f6574680000000000000000000000000000000000000000000000000000000000815250610eb6565b156108e55760004290506000600760008673ffffffffffffffffffffffffffffffffffffffff1673ffffffffffffffffffffffffffffffffffffffff16815260200190815260200160002054826108d991906112c1565b9050809250505061093f565b60004290506000600b60008673ffffffffffffffffffffffffffffffffffffffff1673ffffffffffffffffffffffffffffffffffffffff168152602001908152602001600020548261093791906112c1565b905080925050505b92915050565b6000610986826040518060400160405280600381526020017f6461690000000000000000000000000000000000000000000000000000000000815250610eb6565b15610a68576000670de0b6b3a76400006109d5856040518060400160405280600381526020017f646169000000000000000000000000000000000000000000000000000000000081525061079f565b6109df9190611267565b905060006301b574a29050600081836109f89190611236565b90506000670de0b6b3a764000082600360008a73ffffffffffffffffffffffffffffffffffffffff1673ffffffffffffffffffffffffffffffffffffffff16815260200190815260200160002054610a509190611267565b610a5a9190611236565b905080945050505050610c62565b610aa7826040518060400160405280600381526020017f6574680000000000000000000000000000000000000000000000000000000000815250610eb6565b15610b89576000670de0b6b3a7640000610af6856040518060400160405280600381526020017f657468000000000000000000000000000000000000000000000000000000000081525061079f565b610b009190611267565b905060006301b574a2905060008183610b199190611236565b90506000670de0b6b3a764000082600560008a73ffffffffffffffffffffffffffffffffffffffff1673ffffffffffffffffffffffffffffffffffffffff16815260200190815260200160002054610b719190611267565b610b7b9190611236565b905080945050505050610c62565b6000670de0b6b3a7640000610bd3856040518060400160405280600481526020017f757364740000000000000000000000000000000000000000000000000000000081525061079f565b610bdd9190611267565b905060006301b574a2905060008183610bf69190611236565b90506000670de0b6b3a764000082600960008a73ffffffffffffffffffffffffffffffffffffffff1673ffffffffffffffffffffffffffffffffffffffff16815260200190815260200160002054610c4e9190611267565b610c589190611236565b9050809450505050505b92915050565b600b6020528060005260406000206000915090505481565b6000610cc1826040518060400160405280600381526020017f6461690000000000000000000000000000000000000000000000000000000000815250610eb6565b15610d245760004290506000600160008673ffffffffffffffffffffffffffffffffffffffff1673ffffffffffffffffffffffffffffffffffffffff1681526020019081526020016000205482610d1891906112c1565b90508092505050610e20565b610d63826040518060400160405280600381526020017f6574680000000000000000000000000000000000000000000000000000000000815250610eb6565b15610dc65760004290506000600660008673ffffffffffffffffffffffffffffffffffffffff1673ffffffffffffffffffffffffffffffffffffffff1681526020019081526020016000205482610dba91906112c1565b90508092505050610e20565b60004290506000600a60008673ffffffffffffffffffffffffffffffffffffffff1673ffffffffffffffffffffffffffffffffffffffff1681526020019081526020016000205482610e1891906112c1565b905080925050505b92915050565b60076020528060005260406000206000915090505481565b600a6020528060005260406000206000915090505481565b60026020528060005260406000206000915090505481565b60046020528060005260406000206000915090505481565b60096020528060005260406000206000915090505481565b60006020528060005260406000206000915090505481565b600080610ec38484610ecc565b14905092915050565b60008083905060008390506000825190508082511015610eeb57815190505b60005b8181101561104e57828181518110610f0957610f08611418565b5b602001015160f81c60f81b7effffffffffffffffffffffffffffffffffffffffffffffffffffffffffffff1916848281518110610f4957610f48611418565b5b602001015160f81c60f81b7effffffffffffffffffffffffffffffffffffffffffffffffffffffffffffff19161015610fa8577fffffffffffffffffffffffffffffffffffffffffffffffffffffffffffffffff9450505050506110a2565b828181518110610fbb57610fba611418565b5b602001015160f81c60f81b7effffffffffffffffffffffffffffffffffffffffffffffffffffffffffffff1916848281518110610ffb57610ffa611418565b5b602001015160f81c60f81b7effffffffffffffffffffffffffffffffffffffffffffffffffffffffffffff1916111561103b5760019450505050506110a2565b808061104690611371565b915050610eee565b50815183511015611084577fffffffffffffffffffffffffffffffffffffffffffffffffffffffffffffffff93505050506110a2565b81518351111561109a57600193505050506110a2565b600093505050505b92915050565b60006110bb6110b684611205565b6111e0565b9050828152602081018484840111156110d7576110d661147b565b5b6110e2848285611331565b509392505050565b6000813590506110f98161149b565b92915050565b600082601f83011261111457611113611476565b5b81356111248482602086016110a8565b91505092915050565b60006020828403121561114357611142611485565b5b6000611151848285016110ea565b91505092915050565b6000806040838503121561117157611170611485565b5b600061117f858286016110ea565b925050602083013567ffffffffffffffff8111156111a05761119f611480565b5b6111ac858286016110ff565b9150509250929050565b6111bf81611327565b82525050565b60006020820190506111da60008301846111b6565b92915050565b60006111ea6111fb565b90506111f68282611340565b919050565b6000604051905090565b600067ffffffffffffffff8211156112205761121f611447565b5b6112298261148a565b9050602081019050919050565b600061124182611327565b915061124c83611327565b92508261125c5761125b6113e9565b5b828204905092915050565b600061127282611327565b915061127d83611327565b9250817fffffffffffffffffffffffffffffffffffffffffffffffffffffffffffffffff04831182151516156112b6576112b56113ba565b5b828202905092915050565b60006112cc82611327565b91506112d783611327565b9250828210156112ea576112e96113ba565b5b828203905092915050565b600061130082611307565b9050919050565b600073ffffffffffffffffffffffffffffffffffffffff82169050919050565b6000819050919050565b82818337600083830152505050565b6113498261148a565b810181811067ffffffffffffffff8211171561136857611367611447565b5b80604052505050565b600061137c82611327565b91507fffffffffffffffffffffffffffffffffffffffffffffffffffffffffffffffff8214156113af576113ae6113ba565b5b600182019050919050565b7f4e487b7100000000000000000000000000000000000000000000000000000000600052601160045260246000fd5b7f4e487b7100000000000000000000000000000000000000000000000000000000600052601260045260246000fd5b7f4e487b7100000000000000000000000000000000000000000000000000000000600052603260045260246000fd5b7f4e487b7100000000000000000000000000000000000000000000000000000000600052604160045260246000fd5b600080fd5b600080fd5b600080fd5b600080fd5b6000601f19601f8301169050919050565b6114a4816112f5565b81146114af57600080fd5b5056fea26469706673582212207883a28aa60576b43740f9ba98620127c404eeec0a83da7fcae463d120a2f3f564736f6c63430008060033",
  "immutableReferences": {},
  "source": "//\"SPDX-License-Identifier: UNLICENSED\"\npragma solidity ^0.8.6;\n\nimport \"./stringUtils.sol\";\n\ncontract FarmingHelpers {\n\n    mapping(address => uint256) public daiStakingBalance;\n    mapping(address => uint256) public earnedTimeDai;\n    mapping(address => uint256) public borrowedTimeDai;\n    mapping(address => uint256) public daiBorrowedBalance;\n\n    mapping(address => uint256) public ethStakingBalance;\n    mapping(address => uint256) public ethBorrowedBalance;\n    mapping(address => uint256) public earnedTimeEth;\n    mapping(address => uint256) public borrowedTimeEth;\n\n    //usdt\n    mapping(address => uint256) public usdtStakingBalance;\n    mapping(address => uint256) public usdtBorrowedBalance;\n    mapping(address => uint256) public earnedTimeUsdt;\n    mapping(address => uint256) public borrowedTimeUsdt;\n\n    function calculateEarningTime(address user, string memory _tok) \n        public\n        view\n        returns (uint256)\n    {\n        if (StringUtils.equal(_tok, \"dai\")) {\n            uint256 end = block.timestamp;\n            uint256 totalTime = end - earnedTimeDai[user];\n            return totalTime;\n        } else if (StringUtils.equal(_tok, \"eth\")) {\n            uint256 end = block.timestamp;\n            uint256 totalTime = end - earnedTimeEth[user];\n            return totalTime;\n        } else {\n            uint256 end = block.timestamp;\n            uint256 totalTime = end - earnedTimeUsdt[user];\n            return totalTime;\n        }\n    }\n\n    function calculateEarningYield(address user, string memory _tok)\n        public\n        view\n        returns (uint256)\n    {\n        if (StringUtils.equal(_tok, \"dai\")) {\n            uint256 time = calculateEarningTime(user, \"dai\") * 10**18;\n            uint256 rate = 31536000; // 100%\n            uint256 timeRate = time / rate;\n            uint256 rawYield = (daiStakingBalance[user] * timeRate) / 10**18;\n            return rawYield;\n        } else if (StringUtils.equal(_tok, \"eth\")) {\n            uint256 time = calculateEarningTime(user, \"eth\") * 10**18;\n            uint256 rate = 31536000;\n            uint256 timeRate = time / rate;\n            uint256 rawYield = (ethStakingBalance[user] * timeRate) / 10**18;\n            return rawYield;\n        } else {\n            uint256 time = calculateEarningTime(user, \"usdt\") * 10**18;\n            uint256 rate = 31536000; // 100%\n            uint256 timeRate = time / rate;\n            uint256 rawYield = (usdtStakingBalance[user] * timeRate) / 10**18;\n            return rawYield;\n        }\n    }\n\n    function calculateBorrowTime(address user, string memory _tok)\n        public\n        view\n        returns (uint256)\n    {\n        if (StringUtils.equal(_tok, \"dai\")) {\n            uint256 end = block.timestamp;\n            uint256 totalTime = end - borrowedTimeDai[user];\n            return totalTime;\n        } else if (StringUtils.equal(_tok, \"eth\")) {\n            uint256 end = block.timestamp;\n            uint256 totalTime = end - borrowedTimeEth[user];\n            return totalTime;\n        } else {\n            uint256 end = block.timestamp;\n            uint256 totalTime = end - borrowedTimeUsdt[user];\n            return totalTime;\n        }\n    }\n\n    function calculateLossYield(address user, string memory _tok)\n        public\n        view\n        returns (uint256)\n    {\n        if (StringUtils.equal(_tok, \"dai\")) {\n            uint256 time = calculateBorrowTime(user, \"dai\") * 10**18;\n            uint256 rate = 28669090; // 110%\n            uint256 timeRate = time / rate;\n            uint256 rawYield = (daiBorrowedBalance[user] * timeRate) / 10**18;\n            return rawYield;\n        } else if (StringUtils.equal(_tok, \"eth\")) {\n            uint256 time = calculateBorrowTime(user, \"eth\") * 10**18;\n            uint256 rate = 28669090; // 110%\n            uint256 timeRate = time / rate;\n            uint256 rawYield = (ethBorrowedBalance[user] * timeRate) / 10**18;\n            return rawYield;\n        } else {\n            uint256 time = calculateBorrowTime(user, \"usdt\") * 10**18;\n            uint256 rate = 28669090; // 110%\n            uint256 timeRate = time / rate;\n            uint256 rawYield = (usdtBorrowedBalance[user] * timeRate) / 10**18;\n            return rawYield;\n        }\n    }\n}",
  "sourcePath": "/home/frankperler/Development/Codeworks/projects/blockchain/tegridyfarm/client/src/contracts/FarmingHelpers.sol",
  "compiler": {
    "name": "solc",
    "version": "0.8.6+commit.11564f7e.Emscripten.clang"
  },
  "schemaVersion": "3.4.2",
  "updatedAt": "2021-07-30T14:18:09.699Z",
  "devdoc": {
    "kind": "dev",
    "methods": {},
    "version": 1
  },
  "userdoc": {
    "kind": "user",
    "methods": {},
    "version": 1
  }
}