{
  "contractName": "Helpers",
  "abi": [
    {
      "inputs": [
        {
          "internalType": "uint256",
          "name": "_startTime",
          "type": "uint256"
        }
      ],
      "name": "calculateTime",
      "outputs": [
        {
          "internalType": "uint256",
          "name": "",
          "type": "uint256"
        }
      ],
      "stateMutability": "view",
      "type": "function",
      "constant": true
    },
    {
      "inputs": [
        {
          "internalType": "uint256",
          "name": "_startTime",
          "type": "uint256"
        },
        {
          "internalType": "uint256",
          "name": "_borrowedBalance",
          "type": "uint256"
        }
      ],
      "name": "calculateLossYield",
      "outputs": [
        {
          "internalType": "uint256",
          "name": "",
          "type": "uint256"
        }
      ],
      "stateMutability": "view",
      "type": "function",
      "constant": true
    },
    {
      "inputs": [
        {
          "internalType": "uint256",
          "name": "_startTime",
          "type": "uint256"
        },
        {
          "internalType": "uint256",
          "name": "_earnedBalance",
          "type": "uint256"
        }
      ],
      "name": "calculateEarningYield",
      "outputs": [
        {
          "internalType": "uint256",
          "name": "",
          "type": "uint256"
        }
      ],
      "stateMutability": "view",
      "type": "function",
      "constant": true
    }
  ],
  "bytecode": "0x6103e1610053600b82828239805160001a607314610046577f4e487b7100000000000000000000000000000000000000000000000000000000600052600060045260246000fd5b30600052607381538281f3fe730000000000000000000000000000000000000000301460806040526004361061004b5760003560e01c806305620b6114610050578063ad9abb5214610080578063b602fc25146100b0575b600080fd5b61006a600480360381019061006591906101fe565b6100e0565b604051610077919061024d565b60405180910390f35b61009a600480360381019061009591906101fe565b61013e565b6040516100a7919061024d565b60405180910390f35b6100ca60048036038101906100c591906101d1565b61019c565b6040516100d7919061024d565b60405180910390f35b600080670de0b6b3a76400006100f58561019c565b6100ff9190610299565b90506000670de0b6b3a76400006301b574a2838661011d9190610299565b6101279190610268565b6101319190610268565b9050809250505092915050565b600080670de0b6b3a76400006101538561019c565b61015d9190610299565b90506000670de0b6b3a76400006301e13380838661017b9190610299565b6101859190610268565b61018f9190610268565b9050809250505092915050565b600080429050600083826101b091906102f3565b90508092505050919050565b6000813590506101cb81610394565b92915050565b6000602082840312156101e7576101e661038f565b5b60006101f5848285016101bc565b91505092915050565b600080604083850312156102155761021461038f565b5b6000610223858286016101bc565b9250506020610234858286016101bc565b9150509250929050565b61024781610327565b82525050565b6000602082019050610262600083018461023e565b92915050565b600061027382610327565b915061027e83610327565b92508261028e5761028d610360565b5b828204905092915050565b60006102a482610327565b91506102af83610327565b9250817fffffffffffffffffffffffffffffffffffffffffffffffffffffffffffffffff04831182151516156102e8576102e7610331565b5b828202905092915050565b60006102fe82610327565b915061030983610327565b92508282101561031c5761031b610331565b5b828203905092915050565b6000819050919050565b7f4e487b7100000000000000000000000000000000000000000000000000000000600052601160045260246000fd5b7f4e487b7100000000000000000000000000000000000000000000000000000000600052601260045260246000fd5b600080fd5b61039d81610327565b81146103a857600080fd5b5056fea264697066735822122056cfb2233e14e7a1723161ab973af87b0dcb790287d760db13e823e8b411d59664736f6c63430008060033",
  "immutableReferences": {},
  "source": "//\"SPDX-License-Identifier: UNLICENSED\"\npragma solidity ^0.8.6;\n\nlibrary Helpers {\n    function calculateTime(uint256 _startTime) public view returns (uint256) {\n        uint256 end = block.timestamp;\n        uint256 totalTime = end - _startTime; // borrowedTimeDai[user];\n        return totalTime;\n    }\n\n    function calculateLossYield(uint256 _startTime, uint256 _borrowedBalance)\n        public\n        view\n        returns (uint256)\n    {\n        uint256 time = calculateTime(_startTime) * 10**18;\n        uint256 rawYield = ((_borrowedBalance * time) / 28669090) / 10**18;\n        return rawYield;\n    }\n\n    function calculateEarningYield(uint256 _startTime, uint256 _earnedBalance)\n        public\n        view\n        returns (uint256)\n    {\n        uint256 time = calculateTime(_startTime) * 10**18;\n        uint256 rawYield = ((_earnedBalance * time) / 31536000) / 10**18;\n        return rawYield;\n    }\n\n}\n",
  "sourcePath": "/home/frankperler/Development/Codeworks/projects/blockchain/tegridyfarm/client/src/contracts/Helpers.sol",
  "compiler": {
    "name": "solc",
    "version": "0.8.6+commit.11564f7e.Emscripten.clang"
  },
  "schemaVersion": "3.4.2",
  "updatedAt": "2021-07-31T14:03:49.686Z",
  "networkType": "ethereum",
  "devdoc": {
    "kind": "dev",
    "methods": {},
    "version": 1
  },
  "userdoc": {
    "kind": "user",
    "methods": {},
    "version": 1
  }
}