{
  "contractName": "TokenFarm",
  "abi": [
    {
      "inputs": [
        {
          "internalType": "contract TegToken",
          "name": "_tegToken",
          "type": "address"
        },
        {
          "internalType": "contract DaiToken",
          "name": "_daiToken",
          "type": "address"
        }
      ],
      "stateMutability": "nonpayable",
      "type": "constructor"
    },
    {
      "anonymous": false,
      "inputs": [
        {
          "indexed": true,
          "internalType": "address",
          "name": "from",
          "type": "address"
        },
        {
          "indexed": false,
          "internalType": "uint256",
          "name": "amount",
          "type": "uint256"
        },
        {
          "indexed": false,
          "internalType": "uint256",
          "name": "borrowBal",
          "type": "uint256"
        },
        {
          "indexed": false,
          "internalType": "uint256",
          "name": "lossBal",
          "type": "uint256"
        },
        {
          "indexed": false,
          "internalType": "uint256",
          "name": "tegBal",
          "type": "uint256"
        },
        {
          "indexed": false,
          "internalType": "uint256",
          "name": "daiBal",
          "type": "uint256"
        }
      ],
      "name": "Borrow",
      "type": "event"
    },
    {
      "anonymous": false,
      "inputs": [
        {
          "indexed": true,
          "internalType": "address",
          "name": "from",
          "type": "address"
        },
        {
          "indexed": false,
          "internalType": "uint256",
          "name": "amount",
          "type": "uint256"
        },
        {
          "indexed": false,
          "internalType": "uint256",
          "name": "borrowBal",
          "type": "uint256"
        },
        {
          "indexed": false,
          "internalType": "uint256",
          "name": "lossBal",
          "type": "uint256"
        },
        {
          "indexed": false,
          "internalType": "uint256",
          "name": "tegBal",
          "type": "uint256"
        },
        {
          "indexed": false,
          "internalType": "uint256",
          "name": "daiBal",
          "type": "uint256"
        }
      ],
      "name": "Repay",
      "type": "event"
    },
    {
      "anonymous": false,
      "inputs": [
        {
          "indexed": true,
          "internalType": "address",
          "name": "from",
          "type": "address"
        },
        {
          "indexed": false,
          "internalType": "uint256",
          "name": "amount",
          "type": "uint256"
        },
        {
          "indexed": false,
          "internalType": "uint256",
          "name": "stakingBal",
          "type": "uint256"
        },
        {
          "indexed": false,
          "internalType": "uint256",
          "name": "intBal",
          "type": "uint256"
        },
        {
          "indexed": false,
          "internalType": "uint256",
          "name": "tegBal",
          "type": "uint256"
        },
        {
          "indexed": false,
          "internalType": "uint256",
          "name": "daiBal",
          "type": "uint256"
        }
      ],
      "name": "Stake",
      "type": "event"
    },
    {
      "anonymous": false,
      "inputs": [
        {
          "indexed": true,
          "internalType": "address",
          "name": "from",
          "type": "address"
        },
        {
          "indexed": false,
          "internalType": "uint256",
          "name": "amount",
          "type": "uint256"
        },
        {
          "indexed": false,
          "internalType": "uint256",
          "name": "stakingBal",
          "type": "uint256"
        },
        {
          "indexed": false,
          "internalType": "uint256",
          "name": "intBal",
          "type": "uint256"
        },
        {
          "indexed": false,
          "internalType": "uint256",
          "name": "tegBal",
          "type": "uint256"
        },
        {
          "indexed": false,
          "internalType": "uint256",
          "name": "daiBal",
          "type": "uint256"
        }
      ],
      "name": "Unstake",
      "type": "event"
    },
    {
      "anonymous": false,
      "inputs": [
        {
          "indexed": true,
          "internalType": "address",
          "name": "to",
          "type": "address"
        },
        {
          "indexed": false,
          "internalType": "uint256",
          "name": "amount",
          "type": "uint256"
        },
        {
          "indexed": false,
          "internalType": "uint256",
          "name": "borrowBal",
          "type": "uint256"
        },
        {
          "indexed": false,
          "internalType": "uint256",
          "name": "lossBal",
          "type": "uint256"
        },
        {
          "indexed": false,
          "internalType": "uint256",
          "name": "tegBal",
          "type": "uint256"
        },
        {
          "indexed": false,
          "internalType": "uint256",
          "name": "daiBal",
          "type": "uint256"
        }
      ],
      "name": "YieldLossWithdraw",
      "type": "event"
    },
    {
      "anonymous": false,
      "inputs": [
        {
          "indexed": true,
          "internalType": "address",
          "name": "to",
          "type": "address"
        },
        {
          "indexed": false,
          "internalType": "uint256",
          "name": "amountEarned",
          "type": "uint256"
        },
        {
          "indexed": false,
          "internalType": "uint256",
          "name": "amountLost",
          "type": "uint256"
        },
        {
          "indexed": false,
          "internalType": "uint256",
          "name": "stakingBal",
          "type": "uint256"
        },
        {
          "indexed": false,
          "internalType": "uint256",
          "name": "intBal",
          "type": "uint256"
        },
        {
          "indexed": false,
          "internalType": "uint256",
          "name": "borrowBal",
          "type": "uint256"
        },
        {
          "indexed": false,
          "internalType": "uint256",
          "name": "lossBal",
          "type": "uint256"
        },
        {
          "indexed": false,
          "internalType": "uint256",
          "name": "tegBal",
          "type": "uint256"
        },
        {
          "indexed": false,
          "internalType": "uint256",
          "name": "daiBal",
          "type": "uint256"
        }
      ],
      "name": "YieldWithdraw",
      "type": "event"
    },
    {
      "inputs": [
        {
          "internalType": "address",
          "name": "",
          "type": "address"
        }
      ],
      "name": "borrowedBalance",
      "outputs": [
        {
          "internalType": "uint256",
          "name": "",
          "type": "uint256"
        }
      ],
      "stateMutability": "view",
      "type": "function",
      "constant": true
    },
    {
      "inputs": [
        {
          "internalType": "address",
          "name": "",
          "type": "address"
        }
      ],
      "name": "borrowedTime",
      "outputs": [
        {
          "internalType": "uint256",
          "name": "",
          "type": "uint256"
        }
      ],
      "stateMutability": "view",
      "type": "function",
      "constant": true
    },
    {
      "inputs": [],
      "name": "daiToken",
      "outputs": [
        {
          "internalType": "contract DaiToken",
          "name": "",
          "type": "address"
        }
      ],
      "stateMutability": "view",
      "type": "function",
      "constant": true
    },
    {
      "inputs": [
        {
          "internalType": "address",
          "name": "",
          "type": "address"
        }
      ],
      "name": "earnedBalance",
      "outputs": [
        {
          "internalType": "uint256",
          "name": "",
          "type": "uint256"
        }
      ],
      "stateMutability": "view",
      "type": "function",
      "constant": true
    },
    {
      "inputs": [
        {
          "internalType": "address",
          "name": "",
          "type": "address"
        }
      ],
      "name": "earnedTime",
      "outputs": [
        {
          "internalType": "uint256",
          "name": "",
          "type": "uint256"
        }
      ],
      "stateMutability": "view",
      "type": "function",
      "constant": true
    },
    {
      "inputs": [
        {
          "internalType": "address",
          "name": "",
          "type": "address"
        }
      ],
      "name": "isBorrowing",
      "outputs": [
        {
          "internalType": "bool",
          "name": "",
          "type": "bool"
        }
      ],
      "stateMutability": "view",
      "type": "function",
      "constant": true
    },
    {
      "inputs": [
        {
          "internalType": "address",
          "name": "",
          "type": "address"
        }
      ],
      "name": "isStaking",
      "outputs": [
        {
          "internalType": "bool",
          "name": "",
          "type": "bool"
        }
      ],
      "stateMutability": "view",
      "type": "function",
      "constant": true
    },
    {
      "inputs": [
        {
          "internalType": "address",
          "name": "",
          "type": "address"
        }
      ],
      "name": "lossBalance",
      "outputs": [
        {
          "internalType": "uint256",
          "name": "",
          "type": "uint256"
        }
      ],
      "stateMutability": "view",
      "type": "function",
      "constant": true
    },
    {
      "inputs": [],
      "name": "name",
      "outputs": [
        {
          "internalType": "string",
          "name": "",
          "type": "string"
        }
      ],
      "stateMutability": "view",
      "type": "function",
      "constant": true
    },
    {
      "inputs": [],
      "name": "owner",
      "outputs": [
        {
          "internalType": "address",
          "name": "",
          "type": "address"
        }
      ],
      "stateMutability": "view",
      "type": "function",
      "constant": true
    },
    {
      "inputs": [
        {
          "internalType": "address",
          "name": "",
          "type": "address"
        }
      ],
      "name": "stakingBalance",
      "outputs": [
        {
          "internalType": "uint256",
          "name": "",
          "type": "uint256"
        }
      ],
      "stateMutability": "view",
      "type": "function",
      "constant": true
    },
    {
      "inputs": [],
      "name": "tegToken",
      "outputs": [
        {
          "internalType": "contract TegToken",
          "name": "",
          "type": "address"
        }
      ],
      "stateMutability": "view",
      "type": "function",
      "constant": true
    },
    {
      "inputs": [
        {
          "internalType": "uint256",
          "name": "_amount",
          "type": "uint256"
        },
        {
          "internalType": "string",
          "name": "_tok",
          "type": "string"
        }
      ],
      "name": "stakeTokens",
      "outputs": [
        {
          "internalType": "uint256",
          "name": "balance",
          "type": "uint256"
        }
      ],
      "stateMutability": "nonpayable",
      "type": "function"
    },
    {
      "inputs": [
        {
          "internalType": "uint256",
          "name": "_amount",
          "type": "uint256"
        }
      ],
      "name": "unstakeTokens",
      "outputs": [
        {
          "internalType": "uint256",
          "name": "balance",
          "type": "uint256"
        }
      ],
      "stateMutability": "nonpayable",
      "type": "function"
    },
    {
      "inputs": [],
      "name": "withdrawYield",
      "outputs": [],
      "stateMutability": "nonpayable",
      "type": "function"
    },
    {
      "inputs": [
        {
          "internalType": "address",
          "name": "user",
          "type": "address"
        }
      ],
      "name": "calculateEarningTime",
      "outputs": [
        {
          "internalType": "uint256",
          "name": "",
          "type": "uint256"
        }
      ],
      "stateMutability": "view",
      "type": "function",
      "constant": true
    },
    {
      "inputs": [
        {
          "internalType": "address",
          "name": "user",
          "type": "address"
        }
      ],
      "name": "calculateEarningYield",
      "outputs": [
        {
          "internalType": "uint256",
          "name": "",
          "type": "uint256"
        }
      ],
      "stateMutability": "view",
      "type": "function",
      "constant": true
    },
    {
      "inputs": [
        {
          "internalType": "uint256",
          "name": "_amount",
          "type": "uint256"
        }
      ],
      "name": "borrowTokens",
      "outputs": [
        {
          "internalType": "uint256",
          "name": "balance",
          "type": "uint256"
        }
      ],
      "stateMutability": "nonpayable",
      "type": "function"
    },
    {
      "inputs": [
        {
          "internalType": "uint256",
          "name": "_amount",
          "type": "uint256"
        }
      ],
      "name": "repayTokens",
      "outputs": [
        {
          "internalType": "uint256",
          "name": "balance",
          "type": "uint256"
        }
      ],
      "stateMutability": "nonpayable",
      "type": "function"
    },
    {
      "inputs": [
        {
          "internalType": "address",
          "name": "user",
          "type": "address"
        }
      ],
      "name": "calculateBorrowTime",
      "outputs": [
        {
          "internalType": "uint256",
          "name": "",
          "type": "uint256"
        }
      ],
      "stateMutability": "view",
      "type": "function",
      "constant": true
    },
    {
      "inputs": [
        {
          "internalType": "address",
          "name": "user",
          "type": "address"
        }
      ],
      "name": "calculateLossYield",
      "outputs": [
        {
          "internalType": "uint256",
          "name": "",
          "type": "uint256"
        }
      ],
      "stateMutability": "view",
      "type": "function",
      "constant": true
    }
  ],
  "bytecode": "0x60806040526040518060400160405280601281526020017f5465677269647920546f6b656e204661726d0000000000000000000000000000815250600090805190602001906200005192919062000150565b503480156200005f57600080fd5b50604051620037ea380380620037ea83398181016040528101906200008591906200022e565b81600260006101000a81548173ffffffffffffffffffffffffffffffffffffffff021916908373ffffffffffffffffffffffffffffffffffffffff16021790555080600360006101000a81548173ffffffffffffffffffffffffffffffffffffffff021916908373ffffffffffffffffffffffffffffffffffffffff16021790555033600160006101000a81548173ffffffffffffffffffffffffffffffffffffffff021916908373ffffffffffffffffffffffffffffffffffffffff16021790555050506200036f565b8280546200015e90620002d1565b90600052602060002090601f016020900481019282620001825760008555620001ce565b82601f106200019d57805160ff1916838001178555620001ce565b82800160010185558215620001ce579182015b82811115620001cd578251825591602001919060010190620001b0565b5b509050620001dd9190620001e1565b5090565b5b80821115620001fc576000816000905550600101620001e2565b5090565b60008151905062000211816200033b565b92915050565b600081519050620002288162000355565b92915050565b6000806040838503121562000248576200024762000336565b5b6000620002588582860162000217565b92505060206200026b8582860162000200565b9150509250929050565b60006200028282620002b1565b9050919050565b6000620002968262000275565b9050919050565b6000620002aa8262000275565b9050919050565b600073ffffffffffffffffffffffffffffffffffffffff82169050919050565b60006002820490506001821680620002ea57607f821691505b6020821081141562000301576200030062000307565b5b50919050565b7f4e487b7100000000000000000000000000000000000000000000000000000000600052602260045260246000fd5b600080fd5b620003468162000289565b81146200035257600080fd5b50565b62000360816200029d565b81146200036c57600080fd5b50565b61346b806200037f6000396000f3fe608060405234801561001057600080fd5b50600436106101375760003560e01c8063608e4dd0116100b8578063b0ed7af41161007c578063b0ed7af4146103d6578063be22f54614610406578063c728667814610424578063e507a8a414610454578063e91e59681461045e578063ecf4911f1461048e57610137565b8063608e4dd0146102f85780636f49712b146103285780638a76a112146103585780638da5cb5b14610388578063aed4730b146103a657610137565b80631e55f76d116100ff5780631e55f76d1461021a57806345bc78ab1461024a57806350711be91461027a5780635400a834146102aa5780635890e149146102c857610137565b806302b28d4b1461013c57806306fdde031461016c57806308bf91481461018a5780630b059048146101ba5780630d9a9411146101ea575b600080fd5b610156600480360381019061015191906129b9565b6104be565b6040516101639190612d8a565b60405180910390f35b6101746104d6565b6040516101819190612cc8565b60405180910390f35b6101a4600480360381019061019f91906129b9565b610564565b6040516101b19190612d8a565b60405180910390f35b6101d460048036038101906101cf91906129b9565b6105c3565b6040516101e19190612d8a565b60405180910390f35b61020460048036038101906101ff9190612a6d565b6105db565b6040516102119190612d8a565b60405180910390f35b610234600480360381019061022f91906129b9565b610bf2565b6040516102419190612d8a565b60405180910390f35b610264600480360381019061025f91906129b9565b610c9a565b6040516102719190612d8a565b60405180910390f35b610294600480360381019061028f91906129b9565b610cb2565b6040516102a19190612c77565b60405180910390f35b6102b2610cd2565b6040516102bf9190612cad565b60405180910390f35b6102e260048036038101906102dd91906129b9565b610cf8565b6040516102ef9190612d8a565b60405180910390f35b610312600480360381019061030d9190612a13565b610d10565b60405161031f9190612d8a565b60405180910390f35b610342600480360381019061033d91906129b9565b61134d565b60405161034f9190612c77565b60405180910390f35b610372600480360381019061036d91906129b9565b61136d565b60405161037f9190612d8a565b60405180910390f35b610390611385565b60405161039d9190612bfc565b60405180910390f35b6103c060048036038101906103bb91906129b9565b6113ab565b6040516103cd9190612d8a565b60405180910390f35b6103f060048036038101906103eb91906129b9565b6113c3565b6040516103fd9190612d8a565b60405180910390f35b61040e61146b565b60405161041b9190612c92565b60405180910390f35b61043e60048036038101906104399190612a13565b611491565b60405161044b9190612d8a565b60405180910390f35b61045c611a4b565b005b610478600480360381019061047391906129b9565b6120fa565b6040516104859190612d8a565b60405180910390f35b6104a860048036038101906104a39190612a13565b612159565b6040516104b59190612d8a565b60405180910390f35b60086020528060005260406000206000915090505481565b600080546104e3906130cf565b80601f016020809104026020016040519081016040528092919081815260200182805461050f906130cf565b801561055c5780601f106105315761010080835404028352916020019161055c565b820191906000526020600020905b81548152906001019060200180831161053f57829003601f168201915b505050505081565b6000804290506000600b60008573ffffffffffffffffffffffffffffffffffffffff1673ffffffffffffffffffffffffffffffffffffffff16815260200190815260200160002054826105b79190612fc9565b90508092505050919050565b60096020528060005260406000206000915090505481565b600061061c826040518060400160405280600381526020017f6461690000000000000000000000000000000000000000000000000000000000815250612703565b15610beb576000831180156106db575082600360009054906101000a900473ffffffffffffffffffffffffffffffffffffffff1673ffffffffffffffffffffffffffffffffffffffff166370a08231336040518263ffffffff1660e01b81526004016106889190612bfc565b60206040518083038186803b1580156106a057600080fd5b505afa1580156106b4573d6000803e3d6000fd5b505050506040513d601f19601f820116820180604052508101906106d89190612a40565b10155b61071a576040517f08c379a000000000000000000000000000000000000000000000000000000000815260040161071190612d4a565b60405180910390fd5b60011515600660003373ffffffffffffffffffffffffffffffffffffffff1673ffffffffffffffffffffffffffffffffffffffff16815260200190815260200160002060009054906101000a900460ff16151514156107d857600061077e336113c3565b905080600560003373ffffffffffffffffffffffffffffffffffffffff1673ffffffffffffffffffffffffffffffffffffffff16815260200190815260200160002060008282546107cf9190612ee8565b92505081905550505b600360009054906101000a900473ffffffffffffffffffffffffffffffffffffffff1673ffffffffffffffffffffffffffffffffffffffff166323b872dd3330866040518463ffffffff1660e01b815260040161083793929190612c17565b602060405180830381600087803b15801561085157600080fd5b505af1158015610865573d6000803e3d6000fd5b505050506040513d601f19601f8201168201806040525081019061088991906129e6565b5042600760003373ffffffffffffffffffffffffffffffffffffffff1673ffffffffffffffffffffffffffffffffffffffff1681526020019081526020016000208190555082600460003373ffffffffffffffffffffffffffffffffffffffff1673ffffffffffffffffffffffffffffffffffffffff168152602001908152602001600020600082825461091d9190612ee8565b925050819055506001600660003373ffffffffffffffffffffffffffffffffffffffff1673ffffffffffffffffffffffffffffffffffffffff16815260200190815260200160002060006101000a81548160ff0219169083151502179055503373ffffffffffffffffffffffffffffffffffffffff167fc6f8dbf1fa0a0918d52df74fa2b529a0a4da7011a24f263a28678e7504444cd684600460003373ffffffffffffffffffffffffffffffffffffffff1673ffffffffffffffffffffffffffffffffffffffff16815260200190815260200160002054600560003373ffffffffffffffffffffffffffffffffffffffff1673ffffffffffffffffffffffffffffffffffffffff16815260200190815260200160002054600260009054906101000a900473ffffffffffffffffffffffffffffffffffffffff1673ffffffffffffffffffffffffffffffffffffffff166370a08231336040518263ffffffff1660e01b8152600401610a909190612bfc565b60206040518083038186803b158015610aa857600080fd5b505afa158015610abc573d6000803e3d6000fd5b505050506040513d601f19601f82011682018060405250810190610ae09190612a40565b600360009054906101000a900473ffffffffffffffffffffffffffffffffffffffff1673ffffffffffffffffffffffffffffffffffffffff166370a08231336040518263ffffffff1660e01b8152600401610b3b9190612bfc565b60206040518083038186803b158015610b5357600080fd5b505afa158015610b67573d6000803e3d6000fd5b505050506040513d601f19601f82011682018060405250810190610b8b9190612a40565b604051610b9c959493929190612da5565b60405180910390a2600460003373ffffffffffffffffffffffffffffffffffffffff1673ffffffffffffffffffffffffffffffffffffffff168152602001908152602001600020549050610bec565b5b92915050565b600080670de0b6b3a7640000610c0784610564565b610c119190612f6f565b905060006301b574a2905060008183610c2a9190612f3e565b90506000670de0b6b3a764000082600860008973ffffffffffffffffffffffffffffffffffffffff1673ffffffffffffffffffffffffffffffffffffffff16815260200190815260200160002054610c829190612f6f565b610c8c9190612f3e565b905080945050505050919050565b60046020528060005260406000206000915090505481565b600a6020528060005260406000206000915054906101000a900460ff1681565b600260009054906101000a900473ffffffffffffffffffffffffffffffffffffffff1681565b60076020528060005260406000206000915090505481565b600081600460003373ffffffffffffffffffffffffffffffffffffffff1673ffffffffffffffffffffffffffffffffffffffff1681526020019081526020016000205410158015610db1575060011515600660003373ffffffffffffffffffffffffffffffffffffffff1673ffffffffffffffffffffffffffffffffffffffff16815260200190815260200160002060009054906101000a900460ff161515145b8015610e46575081600460003373ffffffffffffffffffffffffffffffffffffffff1673ffffffffffffffffffffffffffffffffffffffff16815260200190815260200160002054610e039190612fc9565b600860003373ffffffffffffffffffffffffffffffffffffffff1673ffffffffffffffffffffffffffffffffffffffff1681526020019081526020016000205411155b610e85576040517f08c379a0000000000000000000000000000000000000000000000000000000008152600401610e7c90612d6a565b60405180910390fd5b6000610e90336113c3565b905042600760003373ffffffffffffffffffffffffffffffffffffffff1673ffffffffffffffffffffffffffffffffffffffff1681526020019081526020016000208190555060008390506000935080600460003373ffffffffffffffffffffffffffffffffffffffff1673ffffffffffffffffffffffffffffffffffffffff1681526020019081526020016000206000828254610f2e9190612fc9565b92505081905550600360009054906101000a900473ffffffffffffffffffffffffffffffffffffffff1673ffffffffffffffffffffffffffffffffffffffff1663a9059cbb33836040518363ffffffff1660e01b8152600401610f92929190612c4e565b602060405180830381600087803b158015610fac57600080fd5b505af1158015610fc0573d6000803e3d6000fd5b505050506040513d601f19601f82011682018060405250810190610fe491906129e6565b5081600560003373ffffffffffffffffffffffffffffffffffffffff1673ffffffffffffffffffffffffffffffffffffffff16815260200190815260200160002060008282546110349190612ee8565b925050819055506000600460003373ffffffffffffffffffffffffffffffffffffffff1673ffffffffffffffffffffffffffffffffffffffff1681526020019081526020016000205414156110dc576000600660003373ffffffffffffffffffffffffffffffffffffffff1673ffffffffffffffffffffffffffffffffffffffff16815260200190815260200160002060006101000a81548160ff0219169083151502179055505b3373ffffffffffffffffffffffffffffffffffffffff167f2ae77851d374757c0aeee19fd5d8f75edac9f1f52043fb96992607c29373144185600460003373ffffffffffffffffffffffffffffffffffffffff1673ffffffffffffffffffffffffffffffffffffffff16815260200190815260200160002054600560003373ffffffffffffffffffffffffffffffffffffffff1673ffffffffffffffffffffffffffffffffffffffff16815260200190815260200160002054600260009054906101000a900473ffffffffffffffffffffffffffffffffffffffff1673ffffffffffffffffffffffffffffffffffffffff166370a08231336040518263ffffffff1660e01b81526004016111f09190612bfc565b60206040518083038186803b15801561120857600080fd5b505afa15801561121c573d6000803e3d6000fd5b505050506040513d601f19601f820116820180604052508101906112409190612a40565b600360009054906101000a900473ffffffffffffffffffffffffffffffffffffffff1673ffffffffffffffffffffffffffffffffffffffff166370a08231336040518263ffffffff1660e01b815260040161129b9190612bfc565b60206040518083038186803b1580156112b357600080fd5b505afa1580156112c7573d6000803e3d6000fd5b505050506040513d601f19601f820116820180604052508101906112eb9190612a40565b6040516112fc959493929190612da5565b60405180910390a2600460003373ffffffffffffffffffffffffffffffffffffffff1673ffffffffffffffffffffffffffffffffffffffff1681526020019081526020016000205492505050919050565b60066020528060005260406000206000915054906101000a900460ff1681565b600b6020528060005260406000206000915090505481565b600160009054906101000a900473ffffffffffffffffffffffffffffffffffffffff1681565b60056020528060005260406000206000915090505481565b600080670de0b6b3a76400006113d8846120fa565b6113e29190612f6f565b905060006301e133809050600081836113fb9190612f3e565b90506000670de0b6b3a764000082600460008973ffffffffffffffffffffffffffffffffffffffff1673ffffffffffffffffffffffffffffffffffffffff168152602001908152602001600020546114539190612f6f565b61145d9190612f3e565b905080945050505050919050565b600360009054906101000a900473ffffffffffffffffffffffffffffffffffffffff1681565b600080821180156114f2575060011515600660003373ffffffffffffffffffffffffffffffffffffffff1673ffffffffffffffffffffffffffffffffffffffff16815260200190815260200160002060009054906101000a900460ff161515145b801561153d575081600460003373ffffffffffffffffffffffffffffffffffffffff1673ffffffffffffffffffffffffffffffffffffffff1681526020019081526020016000205410155b61157c576040517f08c379a000000000000000000000000000000000000000000000000000000000815260040161157390612d2a565b60405180910390fd5b60011515600a60003373ffffffffffffffffffffffffffffffffffffffff1673ffffffffffffffffffffffffffffffffffffffff16815260200190815260200160002060009054906101000a900460ff161515141561163a5760006115e033610bf2565b905080600960003373ffffffffffffffffffffffffffffffffffffffff1673ffffffffffffffffffffffffffffffffffffffff16815260200190815260200160002060008282546116319190612ee8565b92505081905550505b600360009054906101000a900473ffffffffffffffffffffffffffffffffffffffff1673ffffffffffffffffffffffffffffffffffffffff1663a9059cbb33846040518363ffffffff1660e01b8152600401611697929190612c4e565b602060405180830381600087803b1580156116b157600080fd5b505af11580156116c5573d6000803e3d6000fd5b505050506040513d601f19601f820116820180604052508101906116e991906129e6565b5042600b60003373ffffffffffffffffffffffffffffffffffffffff1673ffffffffffffffffffffffffffffffffffffffff1681526020019081526020016000208190555081600860003373ffffffffffffffffffffffffffffffffffffffff1673ffffffffffffffffffffffffffffffffffffffff168152602001908152602001600020600082825461177d9190612ee8565b925050819055506001600a60003373ffffffffffffffffffffffffffffffffffffffff1673ffffffffffffffffffffffffffffffffffffffff16815260200190815260200160002060006101000a81548160ff0219169083151502179055503373ffffffffffffffffffffffffffffffffffffffff167f212a25b7e6d62ca82a704bf5f0513e2d0840e89914c62639dceabfb40a34491a83600860003373ffffffffffffffffffffffffffffffffffffffff1673ffffffffffffffffffffffffffffffffffffffff16815260200190815260200160002054600960003373ffffffffffffffffffffffffffffffffffffffff1673ffffffffffffffffffffffffffffffffffffffff16815260200190815260200160002054600260009054906101000a900473ffffffffffffffffffffffffffffffffffffffff1673ffffffffffffffffffffffffffffffffffffffff166370a08231336040518263ffffffff1660e01b81526004016118f09190612bfc565b60206040518083038186803b15801561190857600080fd5b505afa15801561191c573d6000803e3d6000fd5b505050506040513d601f19601f820116820180604052508101906119409190612a40565b600360009054906101000a900473ffffffffffffffffffffffffffffffffffffffff1673ffffffffffffffffffffffffffffffffffffffff166370a08231336040518263ffffffff1660e01b815260040161199b9190612bfc565b60206040518083038186803b1580156119b357600080fd5b505afa1580156119c7573d6000803e3d6000fd5b505050506040513d601f19601f820116820180604052508101906119eb9190612a40565b6040516119fc959493929190612da5565b60405180910390a2600860003373ffffffffffffffffffffffffffffffffffffffff1673ffffffffffffffffffffffffffffffffffffffff168152602001908152602001600020549050919050565b6000611a56336113c3565b90506000611a6333610bf2565b90506000821180611ab357506000600560003373ffffffffffffffffffffffffffffffffffffffff1673ffffffffffffffffffffffffffffffffffffffff16815260200190815260200160002054115b80611abe5750600081115b80611b0857506000600960003373ffffffffffffffffffffffffffffffffffffffff1673ffffffffffffffffffffffffffffffffffffffff16815260200190815260200160002054115b611b47576040517f08c379a0000000000000000000000000000000000000000000000000000000008152600401611b3e90612cea565b60405180910390fd5b6000600560003373ffffffffffffffffffffffffffffffffffffffff1673ffffffffffffffffffffffffffffffffffffffff1681526020019081526020016000205414611c27576000600560003373ffffffffffffffffffffffffffffffffffffffff1673ffffffffffffffffffffffffffffffffffffffff1681526020019081526020016000205490506000600560003373ffffffffffffffffffffffffffffffffffffffff1673ffffffffffffffffffffffffffffffffffffffff168152602001908152602001600020819055508083611c239190612ee8565b9250505b6000600960003373ffffffffffffffffffffffffffffffffffffffff1673ffffffffffffffffffffffffffffffffffffffff1681526020019081526020016000205414611d07576000600960003373ffffffffffffffffffffffffffffffffffffffff1673ffffffffffffffffffffffffffffffffffffffff1681526020019081526020016000205490506000600960003373ffffffffffffffffffffffffffffffffffffffff1673ffffffffffffffffffffffffffffffffffffffff168152602001908152602001600020819055508082611d039190612ee8565b9150505b42600760003373ffffffffffffffffffffffffffffffffffffffff1673ffffffffffffffffffffffffffffffffffffffff1681526020019081526020016000208190555042600b60003373ffffffffffffffffffffffffffffffffffffffff1673ffffffffffffffffffffffffffffffffffffffff16815260200190815260200160002081905550600260009054906101000a900473ffffffffffffffffffffffffffffffffffffffff1673ffffffffffffffffffffffffffffffffffffffff1663a9059cbb338385611dda9190612fc9565b6040518363ffffffff1660e01b8152600401611df7929190612c4e565b602060405180830381600087803b158015611e1157600080fd5b505af1158015611e25573d6000803e3d6000fd5b505050506040513d601f19601f82011682018060405250810190611e4991906129e6565b503373ffffffffffffffffffffffffffffffffffffffff167fc62728ffc77cb9d3e5ddecc13bd771e4b3510013e9d2c5c18df7b874af32ba8f8383600460003373ffffffffffffffffffffffffffffffffffffffff1673ffffffffffffffffffffffffffffffffffffffff16815260200190815260200160002054600560003373ffffffffffffffffffffffffffffffffffffffff1673ffffffffffffffffffffffffffffffffffffffff16815260200190815260200160002054600860003373ffffffffffffffffffffffffffffffffffffffff1673ffffffffffffffffffffffffffffffffffffffff16815260200190815260200160002054600960003373ffffffffffffffffffffffffffffffffffffffff1673ffffffffffffffffffffffffffffffffffffffff16815260200190815260200160002054600260009054906101000a900473ffffffffffffffffffffffffffffffffffffffff1673ffffffffffffffffffffffffffffffffffffffff166370a08231336040518263ffffffff1660e01b8152600401611fdf9190612bfc565b60206040518083038186803b158015611ff757600080fd5b505afa15801561200b573d6000803e3d6000fd5b505050506040513d601f19601f8201168201806040525081019061202f9190612a40565b600360009054906101000a900473ffffffffffffffffffffffffffffffffffffffff1673ffffffffffffffffffffffffffffffffffffffff166370a08231336040518263ffffffff1660e01b815260040161208a9190612bfc565b60206040518083038186803b1580156120a257600080fd5b505afa1580156120b6573d6000803e3d6000fd5b505050506040513d601f19601f820116820180604052508101906120da9190612a40565b6040516120ee989796959493929190612df8565b60405180910390a25050565b6000804290506000600760008573ffffffffffffffffffffffffffffffffffffffff1673ffffffffffffffffffffffffffffffffffffffff168152602001908152602001600020548261214d9190612fc9565b90508092505050919050565b600081600860003373ffffffffffffffffffffffffffffffffffffffff1673ffffffffffffffffffffffffffffffffffffffff16815260200190815260200160002054101580156121fa575060011515600a60003373ffffffffffffffffffffffffffffffffffffffff1673ffffffffffffffffffffffffffffffffffffffff16815260200190815260200160002060009054906101000a900460ff161515145b612239576040517f08c379a000000000000000000000000000000000000000000000000000000000815260040161223090612d0a565b60405180910390fd5b600061224433610bf2565b905042600b60003373ffffffffffffffffffffffffffffffffffffffff1673ffffffffffffffffffffffffffffffffffffffff1681526020019081526020016000208190555060008390506000935080600860003373ffffffffffffffffffffffffffffffffffffffff1673ffffffffffffffffffffffffffffffffffffffff16815260200190815260200160002060008282546122e29190612fc9565b92505081905550600360009054906101000a900473ffffffffffffffffffffffffffffffffffffffff1673ffffffffffffffffffffffffffffffffffffffff166323b872dd3330846040518463ffffffff1660e01b815260040161234893929190612c17565b602060405180830381600087803b15801561236257600080fd5b505af1158015612376573d6000803e3d6000fd5b505050506040513d601f19601f8201168201806040525081019061239a91906129e6565b5081600960003373ffffffffffffffffffffffffffffffffffffffff1673ffffffffffffffffffffffffffffffffffffffff16815260200190815260200160002060008282546123ea9190612ee8565b925050819055506000600860003373ffffffffffffffffffffffffffffffffffffffff1673ffffffffffffffffffffffffffffffffffffffff168152602001908152602001600020541415612492576000600a60003373ffffffffffffffffffffffffffffffffffffffff1673ffffffffffffffffffffffffffffffffffffffff16815260200190815260200160002060006101000a81548160ff0219169083151502179055505b3373ffffffffffffffffffffffffffffffffffffffff167ff8d50c6057e24414caf5becd2c1db2b04030072f04629ef793e79845601341c585600860003373ffffffffffffffffffffffffffffffffffffffff1673ffffffffffffffffffffffffffffffffffffffff16815260200190815260200160002054600960003373ffffffffffffffffffffffffffffffffffffffff1673ffffffffffffffffffffffffffffffffffffffff16815260200190815260200160002054600260009054906101000a900473ffffffffffffffffffffffffffffffffffffffff1673ffffffffffffffffffffffffffffffffffffffff166370a08231336040518263ffffffff1660e01b81526004016125a69190612bfc565b60206040518083038186803b1580156125be57600080fd5b505afa1580156125d2573d6000803e3d6000fd5b505050506040513d601f19601f820116820180604052508101906125f69190612a40565b600360009054906101000a900473ffffffffffffffffffffffffffffffffffffffff1673ffffffffffffffffffffffffffffffffffffffff166370a08231336040518263ffffffff1660e01b81526004016126519190612bfc565b60206040518083038186803b15801561266957600080fd5b505afa15801561267d573d6000803e3d6000fd5b505050506040513d601f19601f820116820180604052508101906126a19190612a40565b6040516126b2959493929190612da5565b60405180910390a2600860003373ffffffffffffffffffffffffffffffffffffffff1673ffffffffffffffffffffffffffffffffffffffff1681526020019081526020016000205492505050919050565b6000806127108484612719565b14905092915050565b6000808390506000839050600082519050808251101561273857815190505b60005b8181101561289b5782818151811061275657612755613208565b5b602001015160f81c60f81b7effffffffffffffffffffffffffffffffffffffffffffffffffffffffffffff191684828151811061279657612795613208565b5b602001015160f81c60f81b7effffffffffffffffffffffffffffffffffffffffffffffffffffffffffffff191610156127f5577fffffffffffffffffffffffffffffffffffffffffffffffffffffffffffffffff9450505050506128ef565b82818151811061280857612807613208565b5b602001015160f81c60f81b7effffffffffffffffffffffffffffffffffffffffffffffffffffffffffffff191684828151811061284857612847613208565b5b602001015160f81c60f81b7effffffffffffffffffffffffffffffffffffffffffffffffffffffffffffff191611156128885760019450505050506128ef565b808061289390613132565b91505061273b565b508151835110156128d1577fffffffffffffffffffffffffffffffffffffffffffffffffffffffffffffffff93505050506128ef565b8151835111156128e757600193505050506128ef565b600093505050505b92915050565b600061290861290384612e9b565b612e76565b9050828152602081018484840111156129245761292361326b565b5b61292f84828561308d565b509392505050565b600081359050612946816133f0565b92915050565b60008151905061295b81613407565b92915050565b600082601f83011261297657612975613266565b5b81356129868482602086016128f5565b91505092915050565b60008135905061299e8161341e565b92915050565b6000815190506129b38161341e565b92915050565b6000602082840312156129cf576129ce613275565b5b60006129dd84828501612937565b91505092915050565b6000602082840312156129fc576129fb613275565b5b6000612a0a8482850161294c565b91505092915050565b600060208284031215612a2957612a28613275565b5b6000612a378482850161298f565b91505092915050565b600060208284031215612a5657612a55613275565b5b6000612a64848285016129a4565b91505092915050565b60008060408385031215612a8457612a83613275565b5b6000612a928582860161298f565b925050602083013567ffffffffffffffff811115612ab357612ab2613270565b5b612abf85828601612961565b9150509250929050565b612ad281612ffd565b82525050565b612ae18161300f565b82525050565b612af081613045565b82525050565b612aff81613069565b82525050565b6000612b1082612ecc565b612b1a8185612ed7565b9350612b2a81856020860161309c565b612b338161327a565b840191505092915050565b6000612b4b601383612ed7565b9150612b568261328b565b602082019050919050565b6000612b6e602b83612ed7565b9150612b79826132b4565b604082019050919050565b6000612b91601d83612ed7565b9150612b9c82613303565b602082019050919050565b6000612bb4601c83612ed7565b9150612bbf8261332c565b602082019050919050565b6000612bd7606383612ed7565b9150612be282613355565b608082019050919050565b612bf68161303b565b82525050565b6000602082019050612c116000830184612ac9565b92915050565b6000606082019050612c2c6000830186612ac9565b612c396020830185612ac9565b612c466040830184612bed565b949350505050565b6000604082019050612c636000830185612ac9565b612c706020830184612bed565b9392505050565b6000602082019050612c8c6000830184612ad8565b92915050565b6000602082019050612ca76000830184612ae7565b92915050565b6000602082019050612cc26000830184612af6565b92915050565b60006020820190508181036000830152612ce28184612b05565b905092915050565b60006020820190508181036000830152612d0381612b3e565b9050919050565b60006020820190508181036000830152612d2381612b61565b9050919050565b60006020820190508181036000830152612d4381612b84565b9050919050565b60006020820190508181036000830152612d6381612ba7565b9050919050565b60006020820190508181036000830152612d8381612bca565b9050919050565b6000602082019050612d9f6000830184612bed565b92915050565b600060a082019050612dba6000830188612bed565b612dc76020830187612bed565b612dd46040830186612bed565b612de16060830185612bed565b612dee6080830184612bed565b9695505050505050565b600061010082019050612e0e600083018b612bed565b612e1b602083018a612bed565b612e286040830189612bed565b612e356060830188612bed565b612e426080830187612bed565b612e4f60a0830186612bed565b612e5c60c0830185612bed565b612e6960e0830184612bed565b9998505050505050505050565b6000612e80612e91565b9050612e8c8282613101565b919050565b6000604051905090565b600067ffffffffffffffff821115612eb657612eb5613237565b5b612ebf8261327a565b9050602081019050919050565b600081519050919050565b600082825260208201905092915050565b6000612ef38261303b565b9150612efe8361303b565b9250827fffffffffffffffffffffffffffffffffffffffffffffffffffffffffffffffff03821115612f3357612f3261317b565b5b828201905092915050565b6000612f498261303b565b9150612f548361303b565b925082612f6457612f636131aa565b5b828204905092915050565b6000612f7a8261303b565b9150612f858361303b565b9250817fffffffffffffffffffffffffffffffffffffffffffffffffffffffffffffffff0483118215151615612fbe57612fbd61317b565b5b828202905092915050565b6000612fd48261303b565b9150612fdf8361303b565b925082821015612ff257612ff161317b565b5b828203905092915050565b60006130088261301b565b9050919050565b60008115159050919050565b600073ffffffffffffffffffffffffffffffffffffffff82169050919050565b6000819050919050565b600061305082613057565b9050919050565b60006130628261301b565b9050919050565b60006130748261307b565b9050919050565b60006130868261301b565b9050919050565b82818337600083830152505050565b60005b838110156130ba57808201518184015260208101905061309f565b838111156130c9576000848401525b50505050565b600060028204905060018216806130e757607f821691505b602082108114156130fb576130fa6131d9565b5b50919050565b61310a8261327a565b810181811067ffffffffffffffff8211171561312957613128613237565b5b80604052505050565b600061313d8261303b565b91507fffffffffffffffffffffffffffffffffffffffffffffffffffffffffffffffff8214156131705761316f61317b565b5b600182019050919050565b7f4e487b7100000000000000000000000000000000000000000000000000000000600052601160045260246000fd5b7f4e487b7100000000000000000000000000000000000000000000000000000000600052601260045260246000fd5b7f4e487b7100000000000000000000000000000000000000000000000000000000600052602260045260246000fd5b7f4e487b7100000000000000000000000000000000000000000000000000000000600052603260045260246000fd5b7f4e487b7100000000000000000000000000000000000000000000000000000000600052604160045260246000fd5b600080fd5b600080fd5b600080fd5b600080fd5b6000601f19601f8301169050919050565b7f4e6f7468696e6720746f20776974686472617700000000000000000000000000600082015250565b7f426f72726f7765642062616c616e6365206d757374206265206c61726765722060008201527f7468616e20616d6f756e74000000000000000000000000000000000000000000602082015250565b7f596f752063616e6e6f7420626f72726f77207a65726f20746f6b656e73000000600082015250565b7f596f752063616e6e6f74207374616b65207a65726f20746f6b656e7300000000600082015250565b7f5374616b696e672062616c616e6365206d757374206265206c6172676572207460008201527f68616e20616d6f756e7420616e6420796f752073686f756c64206e6f7420626560208201527f207374616b696e67206c657373207468616e20626f72726f77656420616d6f7560408201527f6e74730000000000000000000000000000000000000000000000000000000000606082015250565b6133f981612ffd565b811461340457600080fd5b50565b6134108161300f565b811461341b57600080fd5b50565b6134278161303b565b811461343257600080fd5b5056fea264697066735822122008ab202c573328fcc889da73706b49eb1bd191088a5d348b059b9a454f4b8bd564736f6c63430008060033",
  "immutableReferences": {},
  "source": "//\"SPDX-License-Identifier: UNLICENSED\"\npragma solidity ^0.8.6;\n\nimport \"./DaiToken.sol\";\nimport \"./TegToken.sol\";\nimport \"./stringUtils.sol\";\n\ncontract TokenFarm {\n    string public name = \"Tegridy Token Farm\";\n\n    address public owner;\n    TegToken public tegToken;\n    DaiToken public daiToken;\n\n    mapping(address => uint256) public stakingBalance;\n    mapping(address => uint256) public earnedBalance;\n    mapping(address => bool) public isStaking;\n    mapping(address => uint256) public earnedTime;\n\n    mapping(address => uint256) public borrowedBalance;\n    mapping(address => uint256) public lossBalance;\n    mapping(address => bool) public isBorrowing;\n    mapping(address => uint256) public borrowedTime;\n\n    event Stake(\n        address indexed from,\n        uint256 amount,\n        uint256 stakingBal,\n        uint256 intBal,\n        uint256 tegBal,\n        uint256 daiBal\n    );\n    event Unstake(\n        address indexed from,\n        uint256 amount,\n        uint256 stakingBal,\n        uint256 intBal,\n        uint256 tegBal,\n        uint256 daiBal\n    );\n\n    event YieldWithdraw(\n        address indexed to,\n        uint256 amountEarned,\n        uint256 amountLost,\n        uint256 stakingBal,\n        uint256 intBal,\n        uint256 borrowBal,\n        uint256 lossBal,\n        uint256 tegBal,\n        uint256 daiBal\n    );\n\n    event Borrow(\n        address indexed from,\n        uint256 amount,\n        uint256 borrowBal,\n        uint256 lossBal,\n        uint256 tegBal,\n        uint256 daiBal\n    );\n\n    event Repay(\n        address indexed from,\n        uint256 amount,\n        uint256 borrowBal,\n        uint256 lossBal,\n        uint256 tegBal,\n        uint256 daiBal\n    );\n    event YieldLossWithdraw(\n        address indexed to,\n        uint256 amount,\n        uint256 borrowBal,\n        uint256 lossBal,\n        uint256 tegBal,\n        uint256 daiBal\n    );\n\n    constructor(TegToken _tegToken, DaiToken _daiToken) {\n        tegToken = _tegToken;\n        daiToken = _daiToken;\n        owner = msg.sender;\n    }\n\n    //1. Stake Tokens (deposit)\n    function stakeTokens(uint256 _amount, string memory _tok)\n        public\n        returns (uint256 balance)\n    {\n\n        if (StringUtils.equal(_tok, \"dai\")) {\n          \n            //Amount staked cannot be smaller than 0\n            require(\n                _amount > 0 && daiToken.balanceOf(msg.sender) >= _amount,\n                \"You cannot stake zero tokens\"\n            );\n\n            if (isStaking[msg.sender] == true) {\n                uint256 toTransfer = calculateEarningYield(msg.sender);\n                earnedBalance[msg.sender] += toTransfer;\n            }\n            // Transfer Mock Dai to this contract for staking\n            daiToken.transferFrom(msg.sender, address(this), _amount);\n            //update start time\n            earnedTime[msg.sender] = block.timestamp;\n            //update staking balance\n            stakingBalance[msg.sender] += _amount;\n            // add user to stakers array \"only\" if they have not yet staked\n            // if (!hasStaked[msg.sender]) {\n            //     stakers.push(msg.sender);\n            // }\n            //update staking status\n            isStaking[msg.sender] = true;\n            // hasStaked[msg.sender] = true;\n            emit Stake(\n                msg.sender,\n                _amount,\n                stakingBalance[msg.sender],\n                earnedBalance[msg.sender],\n                tegToken.balanceOf(msg.sender),\n                daiToken.balanceOf(msg.sender)\n            );\n            return stakingBalance[msg.sender];\n        }\n    }\n\n    //2. Unstaking Tokens (withdraw)\n    function unstakeTokens(uint256 _amount) public returns (uint256 balance) {\n        //require amounnt > 0\n        require(\n            stakingBalance[msg.sender] >= _amount &&\n                isStaking[msg.sender] == true &&\n                borrowedBalance[msg.sender] <=\n                (stakingBalance[msg.sender] - _amount),\n            \"Staking balance must be larger than amount and you should not be staking less than borrowed amounts\"\n        );\n\n        //fetch staking balance\n        // uint256 balance = stakingBalance[msg.sender];\n\n        uint256 yieldTransfer = calculateEarningYield(msg.sender);\n        earnedTime[msg.sender] = block.timestamp;\n        uint256 balanceTransfer = _amount;\n        _amount = 0;\n        //decrease staking balance by amount\n        stakingBalance[msg.sender] -= balanceTransfer;\n        //unstake dai tokens from farm to investor\n        daiToken.transfer(msg.sender, balanceTransfer);\n\n        earnedBalance[msg.sender] += yieldTransfer;\n        // is he still staking?\n        //update staking status\n        if (stakingBalance[msg.sender] == 0) {\n            isStaking[msg.sender] = false;\n        }\n        emit Unstake(\n            msg.sender,\n            _amount,\n            stakingBalance[msg.sender],\n            earnedBalance[msg.sender],\n            tegToken.balanceOf(msg.sender),\n            daiToken.balanceOf(msg.sender)\n        );\n        return stakingBalance[msg.sender];\n    }\n\n    //3. withdraw earned yield\n    function withdrawYield() public {\n        uint256 toTransferEarned = calculateEarningYield(msg.sender);\n        uint256 toTransferLost = calculateLossYield(msg.sender);\n\n        require(\n            toTransferEarned > 0 ||\n                earnedBalance[msg.sender] > 0 ||\n                toTransferLost > 0 ||\n                lossBalance[msg.sender] > 0,\n            \"Nothing to withdraw\"\n        );\n\n        if (earnedBalance[msg.sender] != 0) {\n            uint256 oldBalanceEarned = earnedBalance[msg.sender];\n            earnedBalance[msg.sender] = 0;\n            toTransferEarned += oldBalanceEarned;\n        }\n\n        if (lossBalance[msg.sender] != 0) {\n            uint256 oldBalanceLost = lossBalance[msg.sender];\n            lossBalance[msg.sender] = 0;\n            toTransferLost += oldBalanceLost;\n        }\n\n        earnedTime[msg.sender] = block.timestamp;\n        borrowedTime[msg.sender] = block.timestamp;\n\n        tegToken.transfer(msg.sender, toTransferEarned - toTransferLost);\n        emit YieldWithdraw(\n            msg.sender,\n            toTransferEarned,\n            toTransferLost,\n            stakingBalance[msg.sender],\n            earnedBalance[msg.sender],\n            borrowedBalance[msg.sender],\n            lossBalance[msg.sender],\n            tegToken.balanceOf(msg.sender),\n            daiToken.balanceOf(msg.sender)\n        );\n    }\n\n    function calculateEarningTime(address user) public view returns (uint256) {\n        uint256 end = block.timestamp;\n        uint256 totalTime = end - earnedTime[user];\n        return totalTime;\n    }\n\n    function calculateEarningYield(address user) public view returns (uint256) {\n        uint256 time = calculateEarningTime(user) * 10**18;\n        uint256 rate = 31536000; // 100%\n        uint256 timeRate = time / rate;\n        uint256 rawYield = (stakingBalance[user] * timeRate) / 10**18;\n        return rawYield;\n    }\n\n    //4. Borrow Tokens\n    function borrowTokens(uint256 _amount) public returns (uint256 balance) {\n        //Amount staked cannot be smaller than 0,\n        //Borrower should be staking\n        //His staking balance should always be larger than borrowed amount (overcollateralized)\n        //Balance of TEG tokens should not be 0 or lower\n        require(\n            _amount > 0 &&\n                isStaking[msg.sender] == true &&\n                stakingBalance[msg.sender] >= _amount,\n            // tegToken.balanceOf(msg.sender) >= 0,\n            \"You cannot borrow zero tokens\"\n        );\n\n        if (isBorrowing[msg.sender] == true) {\n            uint256 toTransfer = calculateLossYield(msg.sender);\n            lossBalance[msg.sender] += toTransfer;\n        }\n        // Transfer Mock Dai to borrower\n        // daiToken.approve(address(this), _amount);\n        daiToken.transfer(msg.sender, _amount);\n        //update start time\n        borrowedTime[msg.sender] = block.timestamp;\n        //update borrowed balance\n        borrowedBalance[msg.sender] += _amount;\n        //update borrowing status\n        isBorrowing[msg.sender] = true;\n        emit Borrow(\n            msg.sender,\n            _amount,\n            borrowedBalance[msg.sender],\n            lossBalance[msg.sender],\n            tegToken.balanceOf(msg.sender),\n            daiToken.balanceOf(msg.sender)\n        );\n        return borrowedBalance[msg.sender];\n    }\n\n    //5. Repay Tokens\n    function repayTokens(uint256 _amount) public returns (uint256 balance) {\n        //require amount > 0\n        require(\n            borrowedBalance[msg.sender] >= _amount &&\n                isBorrowing[msg.sender] == true,\n            \"Borrowed balance must be larger than amount\"\n        );\n\n        uint256 yieldTransfer = calculateLossYield(msg.sender);\n        borrowedTime[msg.sender] = block.timestamp;\n        uint256 balanceTransfer = _amount;\n        _amount = 0;\n        //decrease borrowed balance by amount\n        borrowedBalance[msg.sender] -= balanceTransfer;\n        //repay dai tokens to farm\n        daiToken.transferFrom(msg.sender, address(this), balanceTransfer);\n\n        lossBalance[msg.sender] += yieldTransfer;\n        // is he still staking?\n        //update staking status\n        if (borrowedBalance[msg.sender] == 0) {\n            isBorrowing[msg.sender] = false;\n        }\n        emit Repay(\n            msg.sender,\n            _amount,\n            borrowedBalance[msg.sender],\n            lossBalance[msg.sender],\n            tegToken.balanceOf(msg.sender),\n            daiToken.balanceOf(msg.sender)\n        );\n        return borrowedBalance[msg.sender];\n    }\n\n    // //3. withdraw loss yield\n    // function withdrawLossYield() public {\n    //     uint256 toTransfer = calculateLossYield(msg.sender);\n\n    //     require(\n    //         toTransfer > 0 || lossBalance[msg.sender] > 0,\n    //         \"Nothing to withdraw\"\n    //     );\n\n    //     if (lossBalance[msg.sender] != 0) {\n    //         uint256 oldBalance = lossBalance[msg.sender];\n    //         lossBalance[msg.sender] = 0;\n    //         toTransfer += oldBalance;\n    //     }\n\n    //     borrowedTime[msg.sender] = block.timestamp;\n    //     tegToken.transfer(msg.sender, toTransfer);\n    //     emit YieldLossWithdraw(\n    //         msg.sender,\n    //         toTransfer,\n    //         borrowedBalance[msg.sender],\n    //         lossBalance[msg.sender],\n    //         tegToken.balanceOf(msg.sender),\n    //         daiToken.balanceOf(msg.sender)\n    //     );\n    // }\n\n    function calculateBorrowTime(address user) public view returns (uint256) {\n        uint256 end = block.timestamp;\n        uint256 totalTime = end - borrowedTime[user];\n        return totalTime;\n    }\n\n    function calculateLossYield(address user) public view returns (uint256) {\n        uint256 time = calculateBorrowTime(user) * 10**18;\n        uint256 rate = 28669090; // 110%\n        uint256 timeRate = time / rate;\n        uint256 rawYield = (borrowedBalance[user] * timeRate) / 10**18;\n        return rawYield;\n    }\n}\n",
  "sourcePath": "/home/frankperler/Development/Codeworks/projects/blockchain/tegridyfarm/client/src/contracts/TokenFarm.sol",
  "compiler": {
    "name": "solc",
    "version": "0.8.6+commit.11564f7e.Emscripten.clang"
  },
  "schemaVersion": "3.4.2",
  "updatedAt": "2021-07-30T08:35:57.364Z",
  "networkType": "ethereum",
  "devdoc": {
    "kind": "dev",
    "methods": {},
    "version": 1
  },
  "userdoc": {
    "kind": "user",
    "methods": {},
    "version": 1
  }
}