{
  "contractName": "TokenFarm",
  "abi": [
    {
      "inputs": [
        {
          "internalType": "contract TegToken",
          "name": "_tegToken",
          "type": "address"
        },
        {
          "internalType": "contract DaiToken",
          "name": "_daiToken",
          "type": "address"
        },
        {
          "internalType": "contract EthToken",
          "name": "_ethToken",
          "type": "address"
        },
        {
          "internalType": "contract UsdtToken",
          "name": "_usdtToken",
          "type": "address"
        }
      ],
      "stateMutability": "nonpayable",
      "type": "constructor"
    },
    {
      "anonymous": false,
      "inputs": [
        {
          "indexed": true,
          "internalType": "address",
          "name": "from",
          "type": "address"
        },
        {
          "indexed": false,
          "internalType": "uint256",
          "name": "amount",
          "type": "uint256"
        },
        {
          "indexed": false,
          "internalType": "uint256",
          "name": "borrowBal",
          "type": "uint256"
        },
        {
          "indexed": false,
          "internalType": "uint256",
          "name": "lossBal",
          "type": "uint256"
        },
        {
          "indexed": false,
          "internalType": "uint256",
          "name": "tegBal",
          "type": "uint256"
        },
        {
          "indexed": false,
          "internalType": "uint256",
          "name": "tokenBal",
          "type": "uint256"
        }
      ],
      "name": "Borrow",
      "type": "event"
    },
    {
      "anonymous": false,
      "inputs": [
        {
          "indexed": true,
          "internalType": "address",
          "name": "from",
          "type": "address"
        },
        {
          "indexed": false,
          "internalType": "uint256",
          "name": "amount",
          "type": "uint256"
        },
        {
          "indexed": false,
          "internalType": "uint256",
          "name": "borrowBal",
          "type": "uint256"
        },
        {
          "indexed": false,
          "internalType": "uint256",
          "name": "lossBal",
          "type": "uint256"
        },
        {
          "indexed": false,
          "internalType": "uint256",
          "name": "tegBal",
          "type": "uint256"
        },
        {
          "indexed": false,
          "internalType": "uint256",
          "name": "tokenBal",
          "type": "uint256"
        }
      ],
      "name": "Repay",
      "type": "event"
    },
    {
      "anonymous": false,
      "inputs": [
        {
          "indexed": true,
          "internalType": "address",
          "name": "from",
          "type": "address"
        },
        {
          "indexed": false,
          "internalType": "uint256",
          "name": "amount",
          "type": "uint256"
        },
        {
          "indexed": false,
          "internalType": "uint256",
          "name": "stakingBal",
          "type": "uint256"
        },
        {
          "indexed": false,
          "internalType": "uint256",
          "name": "intBal",
          "type": "uint256"
        },
        {
          "indexed": false,
          "internalType": "uint256",
          "name": "tegBal",
          "type": "uint256"
        },
        {
          "indexed": false,
          "internalType": "uint256",
          "name": "tokenBal",
          "type": "uint256"
        }
      ],
      "name": "Stake",
      "type": "event"
    },
    {
      "anonymous": false,
      "inputs": [
        {
          "indexed": true,
          "internalType": "address",
          "name": "from",
          "type": "address"
        },
        {
          "indexed": false,
          "internalType": "uint256",
          "name": "amount",
          "type": "uint256"
        },
        {
          "indexed": false,
          "internalType": "uint256",
          "name": "stakingBal",
          "type": "uint256"
        },
        {
          "indexed": false,
          "internalType": "uint256",
          "name": "intBal",
          "type": "uint256"
        },
        {
          "indexed": false,
          "internalType": "uint256",
          "name": "tegBal",
          "type": "uint256"
        },
        {
          "indexed": false,
          "internalType": "uint256",
          "name": "tokenBal",
          "type": "uint256"
        }
      ],
      "name": "Unstake",
      "type": "event"
    },
    {
      "anonymous": false,
      "inputs": [
        {
          "indexed": true,
          "internalType": "address",
          "name": "to",
          "type": "address"
        },
        {
          "indexed": false,
          "internalType": "uint256",
          "name": "amountEarned",
          "type": "uint256"
        },
        {
          "indexed": false,
          "internalType": "uint256",
          "name": "amountLost",
          "type": "uint256"
        },
        {
          "indexed": false,
          "internalType": "uint256",
          "name": "stakingBal",
          "type": "uint256"
        },
        {
          "indexed": false,
          "internalType": "uint256",
          "name": "intBal",
          "type": "uint256"
        },
        {
          "indexed": false,
          "internalType": "uint256",
          "name": "borrowBal",
          "type": "uint256"
        },
        {
          "indexed": false,
          "internalType": "uint256",
          "name": "lossBal",
          "type": "uint256"
        },
        {
          "indexed": false,
          "internalType": "uint256",
          "name": "tegBal",
          "type": "uint256"
        },
        {
          "indexed": false,
          "internalType": "uint256",
          "name": "tokenBal",
          "type": "uint256"
        }
      ],
      "name": "YieldWithdraw",
      "type": "event"
    },
    {
      "inputs": [
        {
          "internalType": "uint256",
          "name": "_amount",
          "type": "uint256"
        },
        {
          "internalType": "string",
          "name": "_tok",
          "type": "string"
        }
      ],
      "name": "borrowTokens",
      "outputs": [
        {
          "internalType": "uint256",
          "name": "balance",
          "type": "uint256"
        }
      ],
      "stateMutability": "nonpayable",
      "type": "function"
    },
    {
      "inputs": [
        {
          "internalType": "address",
          "name": "",
          "type": "address"
        }
      ],
      "name": "borrowedTimeDai",
      "outputs": [
        {
          "internalType": "uint256",
          "name": "",
          "type": "uint256"
        }
      ],
      "stateMutability": "view",
      "type": "function"
    },
    {
      "inputs": [
        {
          "internalType": "address",
          "name": "",
          "type": "address"
        }
      ],
      "name": "borrowedTimeEth",
      "outputs": [
        {
          "internalType": "uint256",
          "name": "",
          "type": "uint256"
        }
      ],
      "stateMutability": "view",
      "type": "function"
    },
    {
      "inputs": [
        {
          "internalType": "address",
          "name": "",
          "type": "address"
        }
      ],
      "name": "borrowedTimeUsdt",
      "outputs": [
        {
          "internalType": "uint256",
          "name": "",
          "type": "uint256"
        }
      ],
      "stateMutability": "view",
      "type": "function"
    },
    {
      "inputs": [
        {
          "internalType": "address",
          "name": "user",
          "type": "address"
        },
        {
          "internalType": "string",
          "name": "_tok",
          "type": "string"
        }
      ],
      "name": "calculateBorrowTime",
      "outputs": [
        {
          "internalType": "uint256",
          "name": "",
          "type": "uint256"
        }
      ],
      "stateMutability": "view",
      "type": "function"
    },
    {
      "inputs": [
        {
          "internalType": "address",
          "name": "user",
          "type": "address"
        },
        {
          "internalType": "string",
          "name": "_tok",
          "type": "string"
        }
      ],
      "name": "calculateEarningTime",
      "outputs": [
        {
          "internalType": "uint256",
          "name": "",
          "type": "uint256"
        }
      ],
      "stateMutability": "view",
      "type": "function"
    },
    {
      "inputs": [
        {
          "internalType": "address",
          "name": "user",
          "type": "address"
        },
        {
          "internalType": "string",
          "name": "_tok",
          "type": "string"
        }
      ],
      "name": "calculateEarningYield",
      "outputs": [
        {
          "internalType": "uint256",
          "name": "",
          "type": "uint256"
        }
      ],
      "stateMutability": "view",
      "type": "function"
    },
    {
      "inputs": [
        {
          "internalType": "address",
          "name": "user",
          "type": "address"
        },
        {
          "internalType": "string",
          "name": "_tok",
          "type": "string"
        }
      ],
      "name": "calculateLossYield",
      "outputs": [
        {
          "internalType": "uint256",
          "name": "",
          "type": "uint256"
        }
      ],
      "stateMutability": "view",
      "type": "function"
    },
    {
      "inputs": [
        {
          "internalType": "address",
          "name": "",
          "type": "address"
        }
      ],
      "name": "daiBorrowedBalance",
      "outputs": [
        {
          "internalType": "uint256",
          "name": "",
          "type": "uint256"
        }
      ],
      "stateMutability": "view",
      "type": "function"
    },
    {
      "inputs": [
        {
          "internalType": "address",
          "name": "",
          "type": "address"
        }
      ],
      "name": "daiEarnedBalance",
      "outputs": [
        {
          "internalType": "uint256",
          "name": "",
          "type": "uint256"
        }
      ],
      "stateMutability": "view",
      "type": "function"
    },
    {
      "inputs": [
        {
          "internalType": "address",
          "name": "",
          "type": "address"
        }
      ],
      "name": "daiLossBalance",
      "outputs": [
        {
          "internalType": "uint256",
          "name": "",
          "type": "uint256"
        }
      ],
      "stateMutability": "view",
      "type": "function"
    },
    {
      "inputs": [
        {
          "internalType": "address",
          "name": "",
          "type": "address"
        }
      ],
      "name": "daiStakingBalance",
      "outputs": [
        {
          "internalType": "uint256",
          "name": "",
          "type": "uint256"
        }
      ],
      "stateMutability": "view",
      "type": "function"
    },
    {
      "inputs": [],
      "name": "daiToken",
      "outputs": [
        {
          "internalType": "contract DaiToken",
          "name": "",
          "type": "address"
        }
      ],
      "stateMutability": "view",
      "type": "function"
    },
    {
      "inputs": [
        {
          "internalType": "address",
          "name": "",
          "type": "address"
        }
      ],
      "name": "earnedTimeDai",
      "outputs": [
        {
          "internalType": "uint256",
          "name": "",
          "type": "uint256"
        }
      ],
      "stateMutability": "view",
      "type": "function"
    },
    {
      "inputs": [
        {
          "internalType": "address",
          "name": "",
          "type": "address"
        }
      ],
      "name": "earnedTimeEth",
      "outputs": [
        {
          "internalType": "uint256",
          "name": "",
          "type": "uint256"
        }
      ],
      "stateMutability": "view",
      "type": "function"
    },
    {
      "inputs": [
        {
          "internalType": "address",
          "name": "",
          "type": "address"
        }
      ],
      "name": "earnedTimeUsdt",
      "outputs": [
        {
          "internalType": "uint256",
          "name": "",
          "type": "uint256"
        }
      ],
      "stateMutability": "view",
      "type": "function"
    },
    {
      "inputs": [
        {
          "internalType": "address",
          "name": "",
          "type": "address"
        }
      ],
      "name": "ethBorrowedBalance",
      "outputs": [
        {
          "internalType": "uint256",
          "name": "",
          "type": "uint256"
        }
      ],
      "stateMutability": "view",
      "type": "function"
    },
    {
      "inputs": [
        {
          "internalType": "address",
          "name": "",
          "type": "address"
        }
      ],
      "name": "ethEarnedBalance",
      "outputs": [
        {
          "internalType": "uint256",
          "name": "",
          "type": "uint256"
        }
      ],
      "stateMutability": "view",
      "type": "function"
    },
    {
      "inputs": [
        {
          "internalType": "address",
          "name": "",
          "type": "address"
        }
      ],
      "name": "ethLossBalance",
      "outputs": [
        {
          "internalType": "uint256",
          "name": "",
          "type": "uint256"
        }
      ],
      "stateMutability": "view",
      "type": "function"
    },
    {
      "inputs": [
        {
          "internalType": "address",
          "name": "",
          "type": "address"
        }
      ],
      "name": "ethStakingBalance",
      "outputs": [
        {
          "internalType": "uint256",
          "name": "",
          "type": "uint256"
        }
      ],
      "stateMutability": "view",
      "type": "function"
    },
    {
      "inputs": [],
      "name": "ethToken",
      "outputs": [
        {
          "internalType": "contract EthToken",
          "name": "",
          "type": "address"
        }
      ],
      "stateMutability": "view",
      "type": "function"
    },
    {
      "inputs": [
        {
          "internalType": "address",
          "name": "",
          "type": "address"
        }
      ],
      "name": "isBorrowingDai",
      "outputs": [
        {
          "internalType": "bool",
          "name": "",
          "type": "bool"
        }
      ],
      "stateMutability": "view",
      "type": "function"
    },
    {
      "inputs": [
        {
          "internalType": "address",
          "name": "",
          "type": "address"
        }
      ],
      "name": "isBorrowingEth",
      "outputs": [
        {
          "internalType": "bool",
          "name": "",
          "type": "bool"
        }
      ],
      "stateMutability": "view",
      "type": "function"
    },
    {
      "inputs": [
        {
          "internalType": "address",
          "name": "",
          "type": "address"
        }
      ],
      "name": "isBorrowingUsdt",
      "outputs": [
        {
          "internalType": "bool",
          "name": "",
          "type": "bool"
        }
      ],
      "stateMutability": "view",
      "type": "function"
    },
    {
      "inputs": [
        {
          "internalType": "address",
          "name": "",
          "type": "address"
        }
      ],
      "name": "isStakingDai",
      "outputs": [
        {
          "internalType": "bool",
          "name": "",
          "type": "bool"
        }
      ],
      "stateMutability": "view",
      "type": "function"
    },
    {
      "inputs": [
        {
          "internalType": "address",
          "name": "",
          "type": "address"
        }
      ],
      "name": "isStakingEth",
      "outputs": [
        {
          "internalType": "bool",
          "name": "",
          "type": "bool"
        }
      ],
      "stateMutability": "view",
      "type": "function"
    },
    {
      "inputs": [
        {
          "internalType": "address",
          "name": "",
          "type": "address"
        }
      ],
      "name": "isStakingUsdt",
      "outputs": [
        {
          "internalType": "bool",
          "name": "",
          "type": "bool"
        }
      ],
      "stateMutability": "view",
      "type": "function"
    },
    {
      "inputs": [],
      "name": "name",
      "outputs": [
        {
          "internalType": "string",
          "name": "",
          "type": "string"
        }
      ],
      "stateMutability": "view",
      "type": "function"
    },
    {
      "inputs": [],
      "name": "owner",
      "outputs": [
        {
          "internalType": "address",
          "name": "",
          "type": "address"
        }
      ],
      "stateMutability": "view",
      "type": "function"
    },
    {
      "inputs": [
        {
          "internalType": "uint256",
          "name": "_amount",
          "type": "uint256"
        },
        {
          "internalType": "string",
          "name": "_tok",
          "type": "string"
        }
      ],
      "name": "repayTokens",
      "outputs": [
        {
          "internalType": "uint256",
          "name": "balance",
          "type": "uint256"
        }
      ],
      "stateMutability": "nonpayable",
      "type": "function"
    },
    {
      "inputs": [],
      "name": "tegToken",
      "outputs": [
        {
          "internalType": "contract TegToken",
          "name": "",
          "type": "address"
        }
      ],
      "stateMutability": "view",
      "type": "function"
    },
    {
      "inputs": [
        {
          "internalType": "address",
          "name": "",
          "type": "address"
        }
      ],
      "name": "usdtBorrowedBalance",
      "outputs": [
        {
          "internalType": "uint256",
          "name": "",
          "type": "uint256"
        }
      ],
      "stateMutability": "view",
      "type": "function"
    },
    {
      "inputs": [
        {
          "internalType": "address",
          "name": "",
          "type": "address"
        }
      ],
      "name": "usdtEarnedBalance",
      "outputs": [
        {
          "internalType": "uint256",
          "name": "",
          "type": "uint256"
        }
      ],
      "stateMutability": "view",
      "type": "function"
    },
    {
      "inputs": [
        {
          "internalType": "address",
          "name": "",
          "type": "address"
        }
      ],
      "name": "usdtLossBalance",
      "outputs": [
        {
          "internalType": "uint256",
          "name": "",
          "type": "uint256"
        }
      ],
      "stateMutability": "view",
      "type": "function"
    },
    {
      "inputs": [
        {
          "internalType": "address",
          "name": "",
          "type": "address"
        }
      ],
      "name": "usdtStakingBalance",
      "outputs": [
        {
          "internalType": "uint256",
          "name": "",
          "type": "uint256"
        }
      ],
      "stateMutability": "view",
      "type": "function"
    },
    {
      "inputs": [],
      "name": "usdtToken",
      "outputs": [
        {
          "internalType": "contract UsdtToken",
          "name": "",
          "type": "address"
        }
      ],
      "stateMutability": "view",
      "type": "function"
    },
    {
      "inputs": [
        {
          "internalType": "uint256",
          "name": "_amount",
          "type": "uint256"
        },
        {
          "internalType": "string",
          "name": "_tok",
          "type": "string"
        }
      ],
      "name": "stakeTokens",
      "outputs": [
        {
          "internalType": "uint256",
          "name": "balance",
          "type": "uint256"
        }
      ],
      "stateMutability": "nonpayable",
      "type": "function"
    },
    {
      "inputs": [
        {
          "internalType": "uint256",
          "name": "_amount",
          "type": "uint256"
        },
        {
          "internalType": "string",
          "name": "_tok",
          "type": "string"
        }
      ],
      "name": "unstakeTokens",
      "outputs": [
        {
          "internalType": "uint256",
          "name": "balance",
          "type": "uint256"
        }
      ],
      "stateMutability": "nonpayable",
      "type": "function"
    },
    {
      "inputs": [
        {
          "internalType": "string",
          "name": "_tok",
          "type": "string"
        }
      ],
      "name": "withdrawYield",
      "outputs": [],
      "stateMutability": "nonpayable",
      "type": "function"
    }
  ],
  "bytecode": "0x60806040526040518060400160405280601281526020017f5465677269647920546f6b656e204661726d0000000000000000000000000000815250601d908051906020019062000051929190620001d4565b503480156200005f57600080fd5b506040516200865e3803806200865e8339818101604052810190620000859190620002e0565b83600d60006101000a81548173ffffffffffffffffffffffffffffffffffffffff021916908373ffffffffffffffffffffffffffffffffffffffff16021790555082600e60006101000a81548173ffffffffffffffffffffffffffffffffffffffff021916908373ffffffffffffffffffffffffffffffffffffffff16021790555081600f60006101000a81548173ffffffffffffffffffffffffffffffffffffffff021916908373ffffffffffffffffffffffffffffffffffffffff16021790555080601060006101000a81548173ffffffffffffffffffffffffffffffffffffffff021916908373ffffffffffffffffffffffffffffffffffffffff16021790555033600c60006101000a81548173ffffffffffffffffffffffffffffffffffffffff021916908373ffffffffffffffffffffffffffffffffffffffff16021790555050505050620004a8565b828054620001e290620003d6565b90600052602060002090601f01602090048101928262000206576000855562000252565b82601f106200022157805160ff191683800117855562000252565b8280016001018555821562000252579182015b828111156200025157825182559160200191906001019062000234565b5b50905062000261919062000265565b5090565b5b808211156200028057600081600090555060010162000266565b5090565b600081519050620002958162000440565b92915050565b600081519050620002ac816200045a565b92915050565b600081519050620002c38162000474565b92915050565b600081519050620002da816200048e565b92915050565b60008060008060808587031215620002fd57620002fc6200043b565b5b60006200030d87828801620002b2565b9450506020620003208782880162000284565b935050604062000333878288016200029b565b92505060606200034687828801620002c9565b91505092959194509250565b60006200035f82620003b6565b9050919050565b6000620003738262000352565b9050919050565b6000620003878262000352565b9050919050565b60006200039b8262000352565b9050919050565b6000620003af8262000352565b9050919050565b600073ffffffffffffffffffffffffffffffffffffffff82169050919050565b60006002820490506001821680620003ef57607f821691505b602082108114156200040657620004056200040c565b5b50919050565b7f4e487b7100000000000000000000000000000000000000000000000000000000600052602260045260246000fd5b600080fd5b6200044b8162000366565b81146200045757600080fd5b50565b62000465816200037a565b81146200047157600080fd5b50565b6200047f816200038e565b81146200048b57600080fd5b50565b6200049981620003a2565b8114620004a557600080fd5b50565b6181a680620004b86000396000f3fe608060405234801561001057600080fd5b506004361061023d5760003560e01c80638ffc8e161161013b578063c483d2d9116100b8578063e554e44b1161007c578063e554e44b14610822578063f74df17a14610852578063f7add76014610882578063fa18a898146108b2578063ff33e294146108e25761023d565b8063c483d2d914610732578063c8e0f3a714610762578063d13cef9b14610792578063d8446853146107c2578063e133a4bd146107f25761023d565b8063be22f546116100ff578063be22f54614610654578063be28969f14610672578063bfa49156146106a2578063c15ddc31146106d2578063c2d7324d146107025761023d565b80638ffc8e161461058a5780639085b4ba146105ba5780639d63006c146105d6578063a98ad46c14610606578063b15e1420146106245761023d565b80634386e34f116101c9578063589801a21161018d578063589801a2146104be57806360bb9fe3146104ee57806364f4a23d1461051e5780637bf1a6271461054e5780638da5cb5b1461056c5761023d565b80634386e34f146103e057806345f4e3b6146104105780634d3fb27d1461044057806353ecf456146104705780635400a834146104a05761023d565b806322d0772e1161021057806322d0772e146102f0578063330a9fb914610320578063338c5bf2146103505780633b912144146103805780633f598d5b146103b05761023d565b8063014253e81461024257806306c21eba1461027257806306fdde03146102a25780630d9a9411146102c0575b600080fd5b61025c6004803603810190610257919061770c565b610912565b6040516102699190617a7d565b60405180910390f35b61028c600480360381019061028791906175e0565b611acb565b6040516102999190617a7d565b60405180910390f35b6102aa611ae3565b6040516102b791906179bb565b60405180910390f35b6102da60048036038101906102d5919061770c565b611b71565b6040516102e79190617a7d565b60405180910390f35b61030a600480360381019061030591906175e0565b612d5b565b6040516103179190617a7d565b60405180910390f35b61033a6004803603810190610335919061760d565b612d73565b6040516103479190617a7d565b60405180910390f35b61036a600480360381019061036591906175e0565b613095565b6040516103779190617934565b60405180910390f35b61039a600480360381019061039591906175e0565b6130b5565b6040516103a79190617934565b60405180910390f35b6103ca60048036038101906103c591906175e0565b6130d5565b6040516103d79190617a7d565b60405180910390f35b6103fa60048036038101906103f591906175e0565b6130ed565b6040516104079190617a7d565b60405180910390f35b61042a600480360381019061042591906175e0565b613105565b6040516104379190617a7d565b60405180910390f35b61045a600480360381019061045591906175e0565b61311d565b6040516104679190617a7d565b60405180910390f35b61048a6004803603810190610485919061760d565b613135565b6040516104979190617a7d565b60405180910390f35b6104a86132db565b6040516104b59190617985565b60405180910390f35b6104d860048036038101906104d391906175e0565b613301565b6040516104e59190617a7d565b60405180910390f35b610508600480360381019061050391906175e0565b613319565b6040516105159190617a7d565b60405180910390f35b6105386004803603810190610533919061760d565b613331565b6040516105459190617a7d565b60405180910390f35b610556613654565b604051610563919061796a565b60405180910390f35b61057461367a565b60405161058191906178b9565b60405180910390f35b6105a4600480360381019061059f91906175e0565b6136a0565b6040516105b19190617a7d565b60405180910390f35b6105d460048036038101906105cf9190617696565b6136b8565b005b6105f060048036038101906105eb91906175e0565b614b1f565b6040516105fd9190617a7d565b60405180910390f35b61060e614b37565b60405161061b91906179a0565b60405180910390f35b61063e600480360381019061063991906175e0565b614b5d565b60405161064b9190617934565b60405180910390f35b61065c614b7d565b604051610669919061794f565b60405180910390f35b61068c6004803603810190610687919061770c565b614ba3565b6040516106999190617a7d565b60405180910390f35b6106bc60048036038101906106b7919061760d565b615d2a565b6040516106c99190617a7d565b60405180910390f35b6106ec60048036038101906106e791906175e0565b615ed0565b6040516106f99190617a7d565b60405180910390f35b61071c600480360381019061071791906175e0565b615ee8565b6040516107299190617a7d565b60405180910390f35b61074c600480360381019061074791906175e0565b615f00565b6040516107599190617a7d565b60405180910390f35b61077c600480360381019061077791906175e0565b615f18565b6040516107899190617a7d565b60405180910390f35b6107ac60048036038101906107a791906175e0565b615f30565b6040516107b99190617934565b60405180910390f35b6107dc60048036038101906107d791906175e0565b615f50565b6040516107e99190617a7d565b60405180910390f35b61080c600480360381019061080791906175e0565b615f68565b6040516108199190617934565b60405180910390f35b61083c600480360381019061083791906175e0565b615f88565b6040516108499190617a7d565b60405180910390f35b61086c600480360381019061086791906175e0565b615fa0565b6040516108799190617a7d565b60405180910390f35b61089c600480360381019061089791906175e0565b615fb8565b6040516108a99190617934565b60405180910390f35b6108cc60048036038101906108c791906175e0565b615fd8565b6040516108d99190617a7d565b60405180910390f35b6108fc60048036038101906108f7919061770c565b615ff0565b6040516109099190617a7d565b60405180910390f35b6000610953826040518060400160405280600381526020017f646169000000000000000000000000000000000000000000000000000000000081525061732a565b15610f11576000831180156109b8575060011515601360003373ffffffffffffffffffffffffffffffffffffffff1673ffffffffffffffffffffffffffffffffffffffff16815260200190815260200160002060009054906101000a900460ff161515145b8015610a025750826000803373ffffffffffffffffffffffffffffffffffffffff1673ffffffffffffffffffffffffffffffffffffffff1681526020019081526020016000205410155b610a41576040517f08c379a0000000000000000000000000000000000000000000000000000000008152600401610a3890617a1d565b60405180910390fd5b60011515601460003373ffffffffffffffffffffffffffffffffffffffff1673ffffffffffffffffffffffffffffffffffffffff16815260200190815260200160002060009054906101000a900460ff1615151415610b00576000610aa63384613331565b905080601160003373ffffffffffffffffffffffffffffffffffffffff1673ffffffffffffffffffffffffffffffffffffffff1681526020019081526020016000206000828254610af79190617bdb565b92505081905550505b600e60009054906101000a900473ffffffffffffffffffffffffffffffffffffffff1673ffffffffffffffffffffffffffffffffffffffff1663a9059cbb33856040518363ffffffff1660e01b8152600401610b5d92919061790b565b602060405180830381600087803b158015610b7757600080fd5b505af1158015610b8b573d6000803e3d6000fd5b505050506040513d601f19601f82011682018060405250810190610baf9190617669565b5042600260003373ffffffffffffffffffffffffffffffffffffffff1673ffffffffffffffffffffffffffffffffffffffff1681526020019081526020016000208190555082600360003373ffffffffffffffffffffffffffffffffffffffff1673ffffffffffffffffffffffffffffffffffffffff1681526020019081526020016000206000828254610c439190617bdb565b925050819055506001601460003373ffffffffffffffffffffffffffffffffffffffff1673ffffffffffffffffffffffffffffffffffffffff16815260200190815260200160002060006101000a81548160ff0219169083151502179055503373ffffffffffffffffffffffffffffffffffffffff167f212a25b7e6d62ca82a704bf5f0513e2d0840e89914c62639dceabfb40a34491a84600360003373ffffffffffffffffffffffffffffffffffffffff1673ffffffffffffffffffffffffffffffffffffffff16815260200190815260200160002054601160003373ffffffffffffffffffffffffffffffffffffffff1673ffffffffffffffffffffffffffffffffffffffff16815260200190815260200160002054600d60009054906101000a900473ffffffffffffffffffffffffffffffffffffffff1673ffffffffffffffffffffffffffffffffffffffff166370a08231336040518263ffffffff1660e01b8152600401610db691906178b9565b60206040518083038186803b158015610dce57600080fd5b505afa158015610de2573d6000803e3d6000fd5b505050506040513d601f19601f82011682018060405250810190610e0691906176df565b600e60009054906101000a900473ffffffffffffffffffffffffffffffffffffffff1673ffffffffffffffffffffffffffffffffffffffff166370a08231336040518263ffffffff1660e01b8152600401610e6191906178b9565b60206040518083038186803b158015610e7957600080fd5b505afa158015610e8d573d6000803e3d6000fd5b505050506040513d601f19601f82011682018060405250810190610eb191906176df565b604051610ec2959493929190617a98565b60405180910390a2600360003373ffffffffffffffffffffffffffffffffffffffff1673ffffffffffffffffffffffffffffffffffffffff168152602001908152602001600020549050611ac5565b610f50826040518060400160405280600381526020017f657468000000000000000000000000000000000000000000000000000000000081525061732a565b1561150f57600083118015610fb5575060011515601760003373ffffffffffffffffffffffffffffffffffffffff1673ffffffffffffffffffffffffffffffffffffffff16815260200190815260200160002060009054906101000a900460ff161515145b8015611000575082600460003373ffffffffffffffffffffffffffffffffffffffff1673ffffffffffffffffffffffffffffffffffffffff1681526020019081526020016000205410155b61103f576040517f08c379a000000000000000000000000000000000000000000000000000000000815260040161103690617a1d565b60405180910390fd5b60011515601860003373ffffffffffffffffffffffffffffffffffffffff1673ffffffffffffffffffffffffffffffffffffffff16815260200190815260200160002060009054906101000a900460ff16151514156110fe5760006110a43384613331565b905080601560003373ffffffffffffffffffffffffffffffffffffffff1673ffffffffffffffffffffffffffffffffffffffff16815260200190815260200160002060008282546110f59190617bdb565b92505081905550505b600f60009054906101000a900473ffffffffffffffffffffffffffffffffffffffff1673ffffffffffffffffffffffffffffffffffffffff1663a9059cbb33856040518363ffffffff1660e01b815260040161115b92919061790b565b602060405180830381600087803b15801561117557600080fd5b505af1158015611189573d6000803e3d6000fd5b505050506040513d601f19601f820116820180604052508101906111ad9190617669565b5042600760003373ffffffffffffffffffffffffffffffffffffffff1673ffffffffffffffffffffffffffffffffffffffff1681526020019081526020016000208190555082600560003373ffffffffffffffffffffffffffffffffffffffff1673ffffffffffffffffffffffffffffffffffffffff16815260200190815260200160002060008282546112419190617bdb565b925050819055506001601860003373ffffffffffffffffffffffffffffffffffffffff1673ffffffffffffffffffffffffffffffffffffffff16815260200190815260200160002060006101000a81548160ff0219169083151502179055503373ffffffffffffffffffffffffffffffffffffffff167f212a25b7e6d62ca82a704bf5f0513e2d0840e89914c62639dceabfb40a34491a84600560003373ffffffffffffffffffffffffffffffffffffffff1673ffffffffffffffffffffffffffffffffffffffff16815260200190815260200160002054601560003373ffffffffffffffffffffffffffffffffffffffff1673ffffffffffffffffffffffffffffffffffffffff16815260200190815260200160002054600d60009054906101000a900473ffffffffffffffffffffffffffffffffffffffff1673ffffffffffffffffffffffffffffffffffffffff166370a08231336040518263ffffffff1660e01b81526004016113b491906178b9565b60206040518083038186803b1580156113cc57600080fd5b505afa1580156113e0573d6000803e3d6000fd5b505050506040513d601f19601f8201168201806040525081019061140491906176df565b600f60009054906101000a900473ffffffffffffffffffffffffffffffffffffffff1673ffffffffffffffffffffffffffffffffffffffff166370a08231336040518263ffffffff1660e01b815260040161145f91906178b9565b60206040518083038186803b15801561147757600080fd5b505afa15801561148b573d6000803e3d6000fd5b505050506040513d601f19601f820116820180604052508101906114af91906176df565b6040516114c0959493929190617a98565b60405180910390a2600560003373ffffffffffffffffffffffffffffffffffffffff1673ffffffffffffffffffffffffffffffffffffffff168152602001908152602001600020549050611ac5565b60008311801561156f575060011515601b60003373ffffffffffffffffffffffffffffffffffffffff1673ffffffffffffffffffffffffffffffffffffffff16815260200190815260200160002060009054906101000a900460ff161515145b80156115ba575082600860003373ffffffffffffffffffffffffffffffffffffffff1673ffffffffffffffffffffffffffffffffffffffff1681526020019081526020016000205410155b6115f9576040517f08c379a00000000000000000000000000000000000000000000000000000000081526004016115f090617a1d565b60405180910390fd5b60011515601c60003373ffffffffffffffffffffffffffffffffffffffff1673ffffffffffffffffffffffffffffffffffffffff16815260200190815260200160002060009054906101000a900460ff16151514156116b857600061165e3384613331565b905080601960003373ffffffffffffffffffffffffffffffffffffffff1673ffffffffffffffffffffffffffffffffffffffff16815260200190815260200160002060008282546116af9190617bdb565b92505081905550505b601060009054906101000a900473ffffffffffffffffffffffffffffffffffffffff1673ffffffffffffffffffffffffffffffffffffffff1663a9059cbb33856040518363ffffffff1660e01b815260040161171592919061790b565b602060405180830381600087803b15801561172f57600080fd5b505af1158015611743573d6000803e3d6000fd5b505050506040513d601f19601f820116820180604052508101906117679190617669565b5042600b60003373ffffffffffffffffffffffffffffffffffffffff1673ffffffffffffffffffffffffffffffffffffffff1681526020019081526020016000208190555082600960003373ffffffffffffffffffffffffffffffffffffffff1673ffffffffffffffffffffffffffffffffffffffff16815260200190815260200160002060008282546117fb9190617bdb565b925050819055506001601c60003373ffffffffffffffffffffffffffffffffffffffff1673ffffffffffffffffffffffffffffffffffffffff16815260200190815260200160002060006101000a81548160ff0219169083151502179055503373ffffffffffffffffffffffffffffffffffffffff167f212a25b7e6d62ca82a704bf5f0513e2d0840e89914c62639dceabfb40a34491a84600960003373ffffffffffffffffffffffffffffffffffffffff1673ffffffffffffffffffffffffffffffffffffffff16815260200190815260200160002054601960003373ffffffffffffffffffffffffffffffffffffffff1673ffffffffffffffffffffffffffffffffffffffff16815260200190815260200160002054600d60009054906101000a900473ffffffffffffffffffffffffffffffffffffffff1673ffffffffffffffffffffffffffffffffffffffff166370a08231336040518263ffffffff1660e01b815260040161196e91906178b9565b60206040518083038186803b15801561198657600080fd5b505afa15801561199a573d6000803e3d6000fd5b505050506040513d601f19601f820116820180604052508101906119be91906176df565b601060009054906101000a900473ffffffffffffffffffffffffffffffffffffffff1673ffffffffffffffffffffffffffffffffffffffff166370a08231336040518263ffffffff1660e01b8152600401611a1991906178b9565b60206040518083038186803b158015611a3157600080fd5b505afa158015611a45573d6000803e3d6000fd5b505050506040513d601f19601f82011682018060405250810190611a6991906176df565b604051611a7a959493929190617a98565b60405180910390a2600960003373ffffffffffffffffffffffffffffffffffffffff1673ffffffffffffffffffffffffffffffffffffffff1681526020019081526020016000205490505b92915050565b60066020528060005260406000206000915090505481565b601d8054611af090617e0a565b80601f0160208091040260200160405190810160405280929190818152602001828054611b1c90617e0a565b8015611b695780601f10611b3e57610100808354040283529160200191611b69565b820191906000526020600020905b815481529060010190602001808311611b4c57829003601f168201915b505050505081565b6000611bb2826040518060400160405280600381526020017f646169000000000000000000000000000000000000000000000000000000000081525061732a565b1561217f57600083118015611c71575082600e60009054906101000a900473ffffffffffffffffffffffffffffffffffffffff1673ffffffffffffffffffffffffffffffffffffffff166370a08231336040518263ffffffff1660e01b8152600401611c1e91906178b9565b60206040518083038186803b158015611c3657600080fd5b505afa158015611c4a573d6000803e3d6000fd5b505050506040513d601f19601f82011682018060405250810190611c6e91906176df565b10155b611cb0576040517f08c379a0000000000000000000000000000000000000000000000000000000008152600401611ca790617a3d565b60405180910390fd5b60011515601360003373ffffffffffffffffffffffffffffffffffffffff1673ffffffffffffffffffffffffffffffffffffffff16815260200190815260200160002060009054906101000a900460ff1615151415611d6f576000611d153384612d73565b905080601260003373ffffffffffffffffffffffffffffffffffffffff1673ffffffffffffffffffffffffffffffffffffffff1681526020019081526020016000206000828254611d669190617bdb565b92505081905550505b600e60009054906101000a900473ffffffffffffffffffffffffffffffffffffffff1673ffffffffffffffffffffffffffffffffffffffff166323b872dd3330866040518463ffffffff1660e01b8152600401611dce939291906178d4565b602060405180830381600087803b158015611de857600080fd5b505af1158015611dfc573d6000803e3d6000fd5b505050506040513d601f19601f82011682018060405250810190611e209190617669565b5042600160003373ffffffffffffffffffffffffffffffffffffffff1673ffffffffffffffffffffffffffffffffffffffff16815260200190815260200160002081905550826000803373ffffffffffffffffffffffffffffffffffffffff1673ffffffffffffffffffffffffffffffffffffffff1681526020019081526020016000206000828254611eb39190617bdb565b925050819055506001601360003373ffffffffffffffffffffffffffffffffffffffff1673ffffffffffffffffffffffffffffffffffffffff16815260200190815260200160002060006101000a81548160ff0219169083151502179055503373ffffffffffffffffffffffffffffffffffffffff167fc6f8dbf1fa0a0918d52df74fa2b529a0a4da7011a24f263a28678e7504444cd6846000803373ffffffffffffffffffffffffffffffffffffffff1673ffffffffffffffffffffffffffffffffffffffff16815260200190815260200160002054601260003373ffffffffffffffffffffffffffffffffffffffff1673ffffffffffffffffffffffffffffffffffffffff16815260200190815260200160002054600d60009054906101000a900473ffffffffffffffffffffffffffffffffffffffff1673ffffffffffffffffffffffffffffffffffffffff166370a08231336040518263ffffffff1660e01b815260040161202591906178b9565b60206040518083038186803b15801561203d57600080fd5b505afa158015612051573d6000803e3d6000fd5b505050506040513d601f19601f8201168201806040525081019061207591906176df565b600e60009054906101000a900473ffffffffffffffffffffffffffffffffffffffff1673ffffffffffffffffffffffffffffffffffffffff166370a08231336040518263ffffffff1660e01b81526004016120d091906178b9565b60206040518083038186803b1580156120e857600080fd5b505afa1580156120fc573d6000803e3d6000fd5b505050506040513d601f19601f8201168201806040525081019061212091906176df565b604051612131959493929190617a98565b60405180910390a26000803373ffffffffffffffffffffffffffffffffffffffff1673ffffffffffffffffffffffffffffffffffffffff168152602001908152602001600020549050612d55565b6121be826040518060400160405280600381526020017f657468000000000000000000000000000000000000000000000000000000000081525061732a565b1561278e5760008311801561227d575082600f60009054906101000a900473ffffffffffffffffffffffffffffffffffffffff1673ffffffffffffffffffffffffffffffffffffffff166370a08231336040518263ffffffff1660e01b815260040161222a91906178b9565b60206040518083038186803b15801561224257600080fd5b505afa158015612256573d6000803e3d6000fd5b505050506040513d601f19601f8201168201806040525081019061227a91906176df565b10155b6122bc576040517f08c379a00000000000000000000000000000000000000000000000000000000081526004016122b390617a3d565b60405180910390fd5b60011515601760003373ffffffffffffffffffffffffffffffffffffffff1673ffffffffffffffffffffffffffffffffffffffff16815260200190815260200160002060009054906101000a900460ff161515141561237b5760006123213384612d73565b905080601660003373ffffffffffffffffffffffffffffffffffffffff1673ffffffffffffffffffffffffffffffffffffffff16815260200190815260200160002060008282546123729190617bdb565b92505081905550505b600f60009054906101000a900473ffffffffffffffffffffffffffffffffffffffff1673ffffffffffffffffffffffffffffffffffffffff166323b872dd3330866040518463ffffffff1660e01b81526004016123da939291906178d4565b602060405180830381600087803b1580156123f457600080fd5b505af1158015612408573d6000803e3d6000fd5b505050506040513d601f19601f8201168201806040525081019061242c9190617669565b5042600660003373ffffffffffffffffffffffffffffffffffffffff1673ffffffffffffffffffffffffffffffffffffffff1681526020019081526020016000208190555082600460003373ffffffffffffffffffffffffffffffffffffffff1673ffffffffffffffffffffffffffffffffffffffff16815260200190815260200160002060008282546124c09190617bdb565b925050819055506001601760003373ffffffffffffffffffffffffffffffffffffffff1673ffffffffffffffffffffffffffffffffffffffff16815260200190815260200160002060006101000a81548160ff0219169083151502179055503373ffffffffffffffffffffffffffffffffffffffff167fc6f8dbf1fa0a0918d52df74fa2b529a0a4da7011a24f263a28678e7504444cd684600460003373ffffffffffffffffffffffffffffffffffffffff1673ffffffffffffffffffffffffffffffffffffffff16815260200190815260200160002054601660003373ffffffffffffffffffffffffffffffffffffffff1673ffffffffffffffffffffffffffffffffffffffff16815260200190815260200160002054600d60009054906101000a900473ffffffffffffffffffffffffffffffffffffffff1673ffffffffffffffffffffffffffffffffffffffff166370a08231336040518263ffffffff1660e01b815260040161263391906178b9565b60206040518083038186803b15801561264b57600080fd5b505afa15801561265f573d6000803e3d6000fd5b505050506040513d601f19601f8201168201806040525081019061268391906176df565b600f60009054906101000a900473ffffffffffffffffffffffffffffffffffffffff1673ffffffffffffffffffffffffffffffffffffffff166370a08231336040518263ffffffff1660e01b81526004016126de91906178b9565b60206040518083038186803b1580156126f657600080fd5b505afa15801561270a573d6000803e3d6000fd5b505050506040513d601f19601f8201168201806040525081019061272e91906176df565b60405161273f959493929190617a98565b60405180910390a2600460003373ffffffffffffffffffffffffffffffffffffffff1673ffffffffffffffffffffffffffffffffffffffff168152602001908152602001600020549050612d55565b600083118015612848575082601060009054906101000a900473ffffffffffffffffffffffffffffffffffffffff1673ffffffffffffffffffffffffffffffffffffffff166370a08231336040518263ffffffff1660e01b81526004016127f591906178b9565b60206040518083038186803b15801561280d57600080fd5b505afa158015612821573d6000803e3d6000fd5b505050506040513d601f19601f8201168201806040525081019061284591906176df565b10155b612887576040517f08c379a000000000000000000000000000000000000000000000000000000000815260040161287e90617a3d565b60405180910390fd5b60011515601b60003373ffffffffffffffffffffffffffffffffffffffff1673ffffffffffffffffffffffffffffffffffffffff16815260200190815260200160002060009054906101000a900460ff16151514156129465760006128ec3384612d73565b905080601a60003373ffffffffffffffffffffffffffffffffffffffff1673ffffffffffffffffffffffffffffffffffffffff168152602001908152602001600020600082825461293d9190617bdb565b92505081905550505b601060009054906101000a900473ffffffffffffffffffffffffffffffffffffffff1673ffffffffffffffffffffffffffffffffffffffff166323b872dd3330866040518463ffffffff1660e01b81526004016129a5939291906178d4565b602060405180830381600087803b1580156129bf57600080fd5b505af11580156129d3573d6000803e3d6000fd5b505050506040513d601f19601f820116820180604052508101906129f79190617669565b5042600a60003373ffffffffffffffffffffffffffffffffffffffff1673ffffffffffffffffffffffffffffffffffffffff1681526020019081526020016000208190555082600860003373ffffffffffffffffffffffffffffffffffffffff1673ffffffffffffffffffffffffffffffffffffffff1681526020019081526020016000206000828254612a8b9190617bdb565b925050819055506001601b60003373ffffffffffffffffffffffffffffffffffffffff1673ffffffffffffffffffffffffffffffffffffffff16815260200190815260200160002060006101000a81548160ff0219169083151502179055503373ffffffffffffffffffffffffffffffffffffffff167fc6f8dbf1fa0a0918d52df74fa2b529a0a4da7011a24f263a28678e7504444cd684600860003373ffffffffffffffffffffffffffffffffffffffff1673ffffffffffffffffffffffffffffffffffffffff16815260200190815260200160002054601a60003373ffffffffffffffffffffffffffffffffffffffff1673ffffffffffffffffffffffffffffffffffffffff16815260200190815260200160002054600d60009054906101000a900473ffffffffffffffffffffffffffffffffffffffff1673ffffffffffffffffffffffffffffffffffffffff166370a08231336040518263ffffffff1660e01b8152600401612bfe91906178b9565b60206040518083038186803b158015612c1657600080fd5b505afa158015612c2a573d6000803e3d6000fd5b505050506040513d601f19601f82011682018060405250810190612c4e91906176df565b601060009054906101000a900473ffffffffffffffffffffffffffffffffffffffff1673ffffffffffffffffffffffffffffffffffffffff166370a08231336040518263ffffffff1660e01b8152600401612ca991906178b9565b60206040518083038186803b158015612cc157600080fd5b505afa158015612cd5573d6000803e3d6000fd5b505050506040513d601f19601f82011682018060405250810190612cf991906176df565b604051612d0a959493929190617a98565b60405180910390a2600860003373ffffffffffffffffffffffffffffffffffffffff1673ffffffffffffffffffffffffffffffffffffffff1681526020019081526020016000205490505b92915050565b60016020528060005260406000206000915090505481565b6000612db4826040518060400160405280600381526020017f646169000000000000000000000000000000000000000000000000000000000081525061732a565b15612e95576000670de0b6b3a7640000612e03856040518060400160405280600381526020017f6461690000000000000000000000000000000000000000000000000000000000815250615d2a565b612e0d9190617c62565b905060006301e13380905060008183612e269190617c31565b90506000670de0b6b3a7640000826000808a73ffffffffffffffffffffffffffffffffffffffff1673ffffffffffffffffffffffffffffffffffffffff16815260200190815260200160002054612e7d9190617c62565b612e879190617c31565b90508094505050505061308f565b612ed4826040518060400160405280600381526020017f657468000000000000000000000000000000000000000000000000000000000081525061732a565b15612fb6576000670de0b6b3a7640000612f23856040518060400160405280600381526020017f6574680000000000000000000000000000000000000000000000000000000000815250615d2a565b612f2d9190617c62565b905060006301e13380905060008183612f469190617c31565b90506000670de0b6b3a764000082600460008a73ffffffffffffffffffffffffffffffffffffffff1673ffffffffffffffffffffffffffffffffffffffff16815260200190815260200160002054612f9e9190617c62565b612fa89190617c31565b90508094505050505061308f565b6000670de0b6b3a7640000613000856040518060400160405280600481526020017f7573647400000000000000000000000000000000000000000000000000000000815250615d2a565b61300a9190617c62565b905060006301e133809050600081836130239190617c31565b90506000670de0b6b3a764000082600860008a73ffffffffffffffffffffffffffffffffffffffff1673ffffffffffffffffffffffffffffffffffffffff1681526020019081526020016000205461307b9190617c62565b6130859190617c31565b9050809450505050505b92915050565b601c6020528060005260406000206000915054906101000a900460ff1681565b60176020528060005260406000206000915054906101000a900460ff1681565b60196020528060005260406000206000915090505481565b60086020528060005260406000206000915090505481565b60056020528060005260406000206000915090505481565b60036020528060005260406000206000915090505481565b6000613176826040518060400160405280600381526020017f646169000000000000000000000000000000000000000000000000000000000081525061732a565b156131d95760004290506000600260008673ffffffffffffffffffffffffffffffffffffffff1673ffffffffffffffffffffffffffffffffffffffff16815260200190815260200160002054826131cd9190617cbc565b905080925050506132d5565b613218826040518060400160405280600381526020017f657468000000000000000000000000000000000000000000000000000000000081525061732a565b1561327b5760004290506000600760008673ffffffffffffffffffffffffffffffffffffffff1673ffffffffffffffffffffffffffffffffffffffff168152602001908152602001600020548261326f9190617cbc565b905080925050506132d5565b60004290506000600b60008673ffffffffffffffffffffffffffffffffffffffff1673ffffffffffffffffffffffffffffffffffffffff16815260200190815260200160002054826132cd9190617cbc565b905080925050505b92915050565b600d60009054906101000a900473ffffffffffffffffffffffffffffffffffffffff1681565b60156020528060005260406000206000915090505481565b60126020528060005260406000206000915090505481565b6000613372826040518060400160405280600381526020017f646169000000000000000000000000000000000000000000000000000000000081525061732a565b15613454576000670de0b6b3a76400006133c1856040518060400160405280600381526020017f6461690000000000000000000000000000000000000000000000000000000000815250613135565b6133cb9190617c62565b905060006301b574a29050600081836133e49190617c31565b90506000670de0b6b3a764000082600360008a73ffffffffffffffffffffffffffffffffffffffff1673ffffffffffffffffffffffffffffffffffffffff1681526020019081526020016000205461343c9190617c62565b6134469190617c31565b90508094505050505061364e565b613493826040518060400160405280600381526020017f657468000000000000000000000000000000000000000000000000000000000081525061732a565b15613575576000670de0b6b3a76400006134e2856040518060400160405280600381526020017f6574680000000000000000000000000000000000000000000000000000000000815250613135565b6134ec9190617c62565b905060006301b574a29050600081836135059190617c31565b90506000670de0b6b3a764000082600560008a73ffffffffffffffffffffffffffffffffffffffff1673ffffffffffffffffffffffffffffffffffffffff1681526020019081526020016000205461355d9190617c62565b6135679190617c31565b90508094505050505061364e565b6000670de0b6b3a76400006135bf856040518060400160405280600481526020017f7573647400000000000000000000000000000000000000000000000000000000815250613135565b6135c99190617c62565b905060006301b574a29050600081836135e29190617c31565b90506000670de0b6b3a764000082600960008a73ffffffffffffffffffffffffffffffffffffffff1673ffffffffffffffffffffffffffffffffffffffff1681526020019081526020016000205461363a9190617c62565b6136449190617c31565b9050809450505050505b92915050565b600f60009054906101000a900473ffffffffffffffffffffffffffffffffffffffff1681565b600c60009054906101000a900473ffffffffffffffffffffffffffffffffffffffff1681565b60116020528060005260406000206000915090505481565b60006136c43383612d73565b905060006136d23384613331565b9050613713836040518060400160405280600381526020017f646169000000000000000000000000000000000000000000000000000000000081525061732a565b15613dad57600082118061376657506000601260003373ffffffffffffffffffffffffffffffffffffffff1673ffffffffffffffffffffffffffffffffffffffff16815260200190815260200160002054115b806137715750600081115b806137bb57506000601160003373ffffffffffffffffffffffffffffffffffffffff1673ffffffffffffffffffffffffffffffffffffffff16815260200190815260200160002054115b6137fa576040517f08c379a00000000000000000000000000000000000000000000000000000000081526004016137f1906179dd565b60405180910390fd5b6000601260003373ffffffffffffffffffffffffffffffffffffffff1673ffffffffffffffffffffffffffffffffffffffff16815260200190815260200160002054146138da576000601260003373ffffffffffffffffffffffffffffffffffffffff1673ffffffffffffffffffffffffffffffffffffffff1681526020019081526020016000205490506000601260003373ffffffffffffffffffffffffffffffffffffffff1673ffffffffffffffffffffffffffffffffffffffff1681526020019081526020016000208190555080836138d69190617bdb565b9250505b6000601160003373ffffffffffffffffffffffffffffffffffffffff1673ffffffffffffffffffffffffffffffffffffffff16815260200190815260200160002054146139ba576000601160003373ffffffffffffffffffffffffffffffffffffffff1673ffffffffffffffffffffffffffffffffffffffff1681526020019081526020016000205490506000601160003373ffffffffffffffffffffffffffffffffffffffff1673ffffffffffffffffffffffffffffffffffffffff1681526020019081526020016000208190555080826139b69190617bdb565b9150505b42600160003373ffffffffffffffffffffffffffffffffffffffff1673ffffffffffffffffffffffffffffffffffffffff1681526020019081526020016000208190555042600260003373ffffffffffffffffffffffffffffffffffffffff1673ffffffffffffffffffffffffffffffffffffffff16815260200190815260200160002081905550600d60009054906101000a900473ffffffffffffffffffffffffffffffffffffffff1673ffffffffffffffffffffffffffffffffffffffff1663a9059cbb338385613a8d9190617cbc565b6040518363ffffffff1660e01b8152600401613aaa92919061790b565b602060405180830381600087803b158015613ac457600080fd5b505af1158015613ad8573d6000803e3d6000fd5b505050506040513d601f19601f82011682018060405250810190613afc9190617669565b503373ffffffffffffffffffffffffffffffffffffffff167fc62728ffc77cb9d3e5ddecc13bd771e4b3510013e9d2c5c18df7b874af32ba8f83836000803373ffffffffffffffffffffffffffffffffffffffff1673ffffffffffffffffffffffffffffffffffffffff16815260200190815260200160002054601260003373ffffffffffffffffffffffffffffffffffffffff1673ffffffffffffffffffffffffffffffffffffffff16815260200190815260200160002054600360003373ffffffffffffffffffffffffffffffffffffffff1673ffffffffffffffffffffffffffffffffffffffff16815260200190815260200160002054601160003373ffffffffffffffffffffffffffffffffffffffff1673ffffffffffffffffffffffffffffffffffffffff16815260200190815260200160002054600d60009054906101000a900473ffffffffffffffffffffffffffffffffffffffff1673ffffffffffffffffffffffffffffffffffffffff166370a08231336040518263ffffffff1660e01b8152600401613c9191906178b9565b60206040518083038186803b158015613ca957600080fd5b505afa158015613cbd573d6000803e3d6000fd5b505050506040513d601f19601f82011682018060405250810190613ce191906176df565b600e60009054906101000a900473ffffffffffffffffffffffffffffffffffffffff1673ffffffffffffffffffffffffffffffffffffffff166370a08231336040518263ffffffff1660e01b8152600401613d3c91906178b9565b60206040518083038186803b158015613d5457600080fd5b505afa158015613d68573d6000803e3d6000fd5b505050506040513d601f19601f82011682018060405250810190613d8c91906176df565b604051613da0989796959493929190617aeb565b60405180910390a2614b1a565b613dec836040518060400160405280600381526020017f646169000000000000000000000000000000000000000000000000000000000081525061732a565b15614487576000821180613e3f57506000601660003373ffffffffffffffffffffffffffffffffffffffff1673ffffffffffffffffffffffffffffffffffffffff16815260200190815260200160002054115b80613e4a5750600081115b80613e9457506000601560003373ffffffffffffffffffffffffffffffffffffffff1673ffffffffffffffffffffffffffffffffffffffff16815260200190815260200160002054115b613ed3576040517f08c379a0000000000000000000000000000000000000000000000000000000008152600401613eca906179dd565b60405180910390fd5b6000601660003373ffffffffffffffffffffffffffffffffffffffff1673ffffffffffffffffffffffffffffffffffffffff1681526020019081526020016000205414613fb3576000601660003373ffffffffffffffffffffffffffffffffffffffff1673ffffffffffffffffffffffffffffffffffffffff1681526020019081526020016000205490506000601660003373ffffffffffffffffffffffffffffffffffffffff1673ffffffffffffffffffffffffffffffffffffffff168152602001908152602001600020819055508083613faf9190617bdb565b9250505b6000601560003373ffffffffffffffffffffffffffffffffffffffff1673ffffffffffffffffffffffffffffffffffffffff1681526020019081526020016000205414614093576000601560003373ffffffffffffffffffffffffffffffffffffffff1673ffffffffffffffffffffffffffffffffffffffff1681526020019081526020016000205490506000601560003373ffffffffffffffffffffffffffffffffffffffff1673ffffffffffffffffffffffffffffffffffffffff16815260200190815260200160002081905550808261408f9190617bdb565b9150505b42600660003373ffffffffffffffffffffffffffffffffffffffff1673ffffffffffffffffffffffffffffffffffffffff1681526020019081526020016000208190555042600760003373ffffffffffffffffffffffffffffffffffffffff1673ffffffffffffffffffffffffffffffffffffffff16815260200190815260200160002081905550600d60009054906101000a900473ffffffffffffffffffffffffffffffffffffffff1673ffffffffffffffffffffffffffffffffffffffff1663a9059cbb3383856141669190617cbc565b6040518363ffffffff1660e01b815260040161418392919061790b565b602060405180830381600087803b15801561419d57600080fd5b505af11580156141b1573d6000803e3d6000fd5b505050506040513d601f19601f820116820180604052508101906141d59190617669565b503373ffffffffffffffffffffffffffffffffffffffff167fc62728ffc77cb9d3e5ddecc13bd771e4b3510013e9d2c5c18df7b874af32ba8f8383600460003373ffffffffffffffffffffffffffffffffffffffff1673ffffffffffffffffffffffffffffffffffffffff16815260200190815260200160002054601660003373ffffffffffffffffffffffffffffffffffffffff1673ffffffffffffffffffffffffffffffffffffffff16815260200190815260200160002054600560003373ffffffffffffffffffffffffffffffffffffffff1673ffffffffffffffffffffffffffffffffffffffff16815260200190815260200160002054601560003373ffffffffffffffffffffffffffffffffffffffff1673ffffffffffffffffffffffffffffffffffffffff16815260200190815260200160002054600d60009054906101000a900473ffffffffffffffffffffffffffffffffffffffff1673ffffffffffffffffffffffffffffffffffffffff166370a08231336040518263ffffffff1660e01b815260040161436b91906178b9565b60206040518083038186803b15801561438357600080fd5b505afa158015614397573d6000803e3d6000fd5b505050506040513d601f19601f820116820180604052508101906143bb91906176df565b600f60009054906101000a900473ffffffffffffffffffffffffffffffffffffffff1673ffffffffffffffffffffffffffffffffffffffff166370a08231336040518263ffffffff1660e01b815260040161441691906178b9565b60206040518083038186803b15801561442e57600080fd5b505afa158015614442573d6000803e3d6000fd5b505050506040513d601f19601f8201168201806040525081019061446691906176df565b60405161447a989796959493929190617aeb565b60405180910390a2614b19565b60008211806144d557506000601a60003373ffffffffffffffffffffffffffffffffffffffff1673ffffffffffffffffffffffffffffffffffffffff16815260200190815260200160002054115b806144e05750600081115b8061452a57506000601960003373ffffffffffffffffffffffffffffffffffffffff1673ffffffffffffffffffffffffffffffffffffffff16815260200190815260200160002054115b614569576040517f08c379a0000000000000000000000000000000000000000000000000000000008152600401614560906179dd565b60405180910390fd5b6000601a60003373ffffffffffffffffffffffffffffffffffffffff1673ffffffffffffffffffffffffffffffffffffffff1681526020019081526020016000205414614649576000601a60003373ffffffffffffffffffffffffffffffffffffffff1673ffffffffffffffffffffffffffffffffffffffff1681526020019081526020016000205490506000601a60003373ffffffffffffffffffffffffffffffffffffffff1673ffffffffffffffffffffffffffffffffffffffff1681526020019081526020016000208190555080836146459190617bdb565b9250505b6000601960003373ffffffffffffffffffffffffffffffffffffffff1673ffffffffffffffffffffffffffffffffffffffff1681526020019081526020016000205414614729576000601960003373ffffffffffffffffffffffffffffffffffffffff1673ffffffffffffffffffffffffffffffffffffffff1681526020019081526020016000205490506000601960003373ffffffffffffffffffffffffffffffffffffffff1673ffffffffffffffffffffffffffffffffffffffff1681526020019081526020016000208190555080826147259190617bdb565b9150505b42600a60003373ffffffffffffffffffffffffffffffffffffffff1673ffffffffffffffffffffffffffffffffffffffff1681526020019081526020016000208190555042600b60003373ffffffffffffffffffffffffffffffffffffffff1673ffffffffffffffffffffffffffffffffffffffff16815260200190815260200160002081905550600d60009054906101000a900473ffffffffffffffffffffffffffffffffffffffff1673ffffffffffffffffffffffffffffffffffffffff1663a9059cbb3383856147fc9190617cbc565b6040518363ffffffff1660e01b815260040161481992919061790b565b602060405180830381600087803b15801561483357600080fd5b505af1158015614847573d6000803e3d6000fd5b505050506040513d601f19601f8201168201806040525081019061486b9190617669565b503373ffffffffffffffffffffffffffffffffffffffff167fc62728ffc77cb9d3e5ddecc13bd771e4b3510013e9d2c5c18df7b874af32ba8f8383600860003373ffffffffffffffffffffffffffffffffffffffff1673ffffffffffffffffffffffffffffffffffffffff16815260200190815260200160002054601a60003373ffffffffffffffffffffffffffffffffffffffff1673ffffffffffffffffffffffffffffffffffffffff16815260200190815260200160002054600960003373ffffffffffffffffffffffffffffffffffffffff1673ffffffffffffffffffffffffffffffffffffffff16815260200190815260200160002054601960003373ffffffffffffffffffffffffffffffffffffffff1673ffffffffffffffffffffffffffffffffffffffff16815260200190815260200160002054600d60009054906101000a900473ffffffffffffffffffffffffffffffffffffffff1673ffffffffffffffffffffffffffffffffffffffff166370a08231336040518263ffffffff1660e01b8152600401614a0191906178b9565b60206040518083038186803b158015614a1957600080fd5b505afa158015614a2d573d6000803e3d6000fd5b505050506040513d601f19601f82011682018060405250810190614a5191906176df565b601060009054906101000a900473ffffffffffffffffffffffffffffffffffffffff1673ffffffffffffffffffffffffffffffffffffffff166370a08231336040518263ffffffff1660e01b8152600401614aac91906178b9565b60206040518083038186803b158015614ac457600080fd5b505afa158015614ad8573d6000803e3d6000fd5b505050506040513d601f19601f82011682018060405250810190614afc91906176df565b604051614b10989796959493929190617aeb565b60405180910390a25b5b505050565b600b6020528060005260406000206000915090505481565b601060009054906101000a900473ffffffffffffffffffffffffffffffffffffffff1681565b60186020528060005260406000206000915054906101000a900460ff1681565b600e60009054906101000a900473ffffffffffffffffffffffffffffffffffffffff1681565b6000614be4826040518060400160405280600381526020017f646169000000000000000000000000000000000000000000000000000000000081525061732a565b156151925782600360003373ffffffffffffffffffffffffffffffffffffffff1673ffffffffffffffffffffffffffffffffffffffff1681526020019081526020016000205410158015614c88575060011515601460003373ffffffffffffffffffffffffffffffffffffffff1673ffffffffffffffffffffffffffffffffffffffff16815260200190815260200160002060009054906101000a900460ff161515145b614cc7576040517f08c379a0000000000000000000000000000000000000000000000000000000008152600401614cbe906179fd565b60405180910390fd5b6000614cd33384613331565b905042600260003373ffffffffffffffffffffffffffffffffffffffff1673ffffffffffffffffffffffffffffffffffffffff1681526020019081526020016000208190555060008490506000945080600360003373ffffffffffffffffffffffffffffffffffffffff1673ffffffffffffffffffffffffffffffffffffffff1681526020019081526020016000206000828254614d719190617cbc565b92505081905550600e60009054906101000a900473ffffffffffffffffffffffffffffffffffffffff1673ffffffffffffffffffffffffffffffffffffffff166323b872dd3330846040518463ffffffff1660e01b8152600401614dd7939291906178d4565b602060405180830381600087803b158015614df157600080fd5b505af1158015614e05573d6000803e3d6000fd5b505050506040513d601f19601f82011682018060405250810190614e299190617669565b5081601160003373ffffffffffffffffffffffffffffffffffffffff1673ffffffffffffffffffffffffffffffffffffffff1681526020019081526020016000206000828254614e799190617bdb565b925050819055506000600360003373ffffffffffffffffffffffffffffffffffffffff1673ffffffffffffffffffffffffffffffffffffffff168152602001908152602001600020541415614f21576000601460003373ffffffffffffffffffffffffffffffffffffffff1673ffffffffffffffffffffffffffffffffffffffff16815260200190815260200160002060006101000a81548160ff0219169083151502179055505b3373ffffffffffffffffffffffffffffffffffffffff167ff8d50c6057e24414caf5becd2c1db2b04030072f04629ef793e79845601341c586600360003373ffffffffffffffffffffffffffffffffffffffff1673ffffffffffffffffffffffffffffffffffffffff16815260200190815260200160002054601160003373ffffffffffffffffffffffffffffffffffffffff1673ffffffffffffffffffffffffffffffffffffffff16815260200190815260200160002054600d60009054906101000a900473ffffffffffffffffffffffffffffffffffffffff1673ffffffffffffffffffffffffffffffffffffffff166370a08231336040518263ffffffff1660e01b815260040161503591906178b9565b60206040518083038186803b15801561504d57600080fd5b505afa158015615061573d6000803e3d6000fd5b505050506040513d601f19601f8201168201806040525081019061508591906176df565b600e60009054906101000a900473ffffffffffffffffffffffffffffffffffffffff1673ffffffffffffffffffffffffffffffffffffffff166370a08231336040518263ffffffff1660e01b81526004016150e091906178b9565b60206040518083038186803b1580156150f857600080fd5b505afa15801561510c573d6000803e3d6000fd5b505050506040513d601f19601f8201168201806040525081019061513091906176df565b604051615141959493929190617a98565b60405180910390a2600360003373ffffffffffffffffffffffffffffffffffffffff1673ffffffffffffffffffffffffffffffffffffffff1681526020019081526020016000205492505050615d24565b6151d1826040518060400160405280600381526020017f657468000000000000000000000000000000000000000000000000000000000081525061732a565b1561577f5782600560003373ffffffffffffffffffffffffffffffffffffffff1673ffffffffffffffffffffffffffffffffffffffff1681526020019081526020016000205410158015615275575060011515601860003373ffffffffffffffffffffffffffffffffffffffff1673ffffffffffffffffffffffffffffffffffffffff16815260200190815260200160002060009054906101000a900460ff161515145b6152b4576040517f08c379a00000000000000000000000000000000000000000000000000000000081526004016152ab906179fd565b60405180910390fd5b60006152c03384613331565b905042600760003373ffffffffffffffffffffffffffffffffffffffff1673ffffffffffffffffffffffffffffffffffffffff1681526020019081526020016000208190555060008490506000945080600560003373ffffffffffffffffffffffffffffffffffffffff1673ffffffffffffffffffffffffffffffffffffffff168152602001908152602001600020600082825461535e9190617cbc565b92505081905550600f60009054906101000a900473ffffffffffffffffffffffffffffffffffffffff1673ffffffffffffffffffffffffffffffffffffffff166323b872dd3330846040518463ffffffff1660e01b81526004016153c4939291906178d4565b602060405180830381600087803b1580156153de57600080fd5b505af11580156153f2573d6000803e3d6000fd5b505050506040513d601f19601f820116820180604052508101906154169190617669565b5081601560003373ffffffffffffffffffffffffffffffffffffffff1673ffffffffffffffffffffffffffffffffffffffff16815260200190815260200160002060008282546154669190617bdb565b925050819055506000600560003373ffffffffffffffffffffffffffffffffffffffff1673ffffffffffffffffffffffffffffffffffffffff16815260200190815260200160002054141561550e576000601860003373ffffffffffffffffffffffffffffffffffffffff1673ffffffffffffffffffffffffffffffffffffffff16815260200190815260200160002060006101000a81548160ff0219169083151502179055505b3373ffffffffffffffffffffffffffffffffffffffff167ff8d50c6057e24414caf5becd2c1db2b04030072f04629ef793e79845601341c586600560003373ffffffffffffffffffffffffffffffffffffffff1673ffffffffffffffffffffffffffffffffffffffff16815260200190815260200160002054601560003373ffffffffffffffffffffffffffffffffffffffff1673ffffffffffffffffffffffffffffffffffffffff16815260200190815260200160002054600d60009054906101000a900473ffffffffffffffffffffffffffffffffffffffff1673ffffffffffffffffffffffffffffffffffffffff166370a08231336040518263ffffffff1660e01b815260040161562291906178b9565b60206040518083038186803b15801561563a57600080fd5b505afa15801561564e573d6000803e3d6000fd5b505050506040513d601f19601f8201168201806040525081019061567291906176df565b600f60009054906101000a900473ffffffffffffffffffffffffffffffffffffffff1673ffffffffffffffffffffffffffffffffffffffff166370a08231336040518263ffffffff1660e01b81526004016156cd91906178b9565b60206040518083038186803b1580156156e557600080fd5b505afa1580156156f9573d6000803e3d6000fd5b505050506040513d601f19601f8201168201806040525081019061571d91906176df565b60405161572e959493929190617a98565b60405180910390a2600560003373ffffffffffffffffffffffffffffffffffffffff1673ffffffffffffffffffffffffffffffffffffffff1681526020019081526020016000205492505050615d24565b82600960003373ffffffffffffffffffffffffffffffffffffffff1673ffffffffffffffffffffffffffffffffffffffff168152602001908152602001600020541015801561581e575060011515601c60003373ffffffffffffffffffffffffffffffffffffffff1673ffffffffffffffffffffffffffffffffffffffff16815260200190815260200160002060009054906101000a900460ff161515145b61585d576040517f08c379a0000000000000000000000000000000000000000000000000000000008152600401615854906179fd565b60405180910390fd5b60006158693384613331565b905042600b60003373ffffffffffffffffffffffffffffffffffffffff1673ffffffffffffffffffffffffffffffffffffffff1681526020019081526020016000208190555060008490506000945080600960003373ffffffffffffffffffffffffffffffffffffffff1673ffffffffffffffffffffffffffffffffffffffff16815260200190815260200160002060008282546159079190617cbc565b92505081905550601060009054906101000a900473ffffffffffffffffffffffffffffffffffffffff1673ffffffffffffffffffffffffffffffffffffffff166323b872dd3330846040518463ffffffff1660e01b815260040161596d939291906178d4565b602060405180830381600087803b15801561598757600080fd5b505af115801561599b573d6000803e3d6000fd5b505050506040513d601f19601f820116820180604052508101906159bf9190617669565b5081601960003373ffffffffffffffffffffffffffffffffffffffff1673ffffffffffffffffffffffffffffffffffffffff1681526020019081526020016000206000828254615a0f9190617bdb565b925050819055506000600960003373ffffffffffffffffffffffffffffffffffffffff1673ffffffffffffffffffffffffffffffffffffffff168152602001908152602001600020541415615ab7576000601c60003373ffffffffffffffffffffffffffffffffffffffff1673ffffffffffffffffffffffffffffffffffffffff16815260200190815260200160002060006101000a81548160ff0219169083151502179055505b3373ffffffffffffffffffffffffffffffffffffffff167ff8d50c6057e24414caf5becd2c1db2b04030072f04629ef793e79845601341c586600960003373ffffffffffffffffffffffffffffffffffffffff1673ffffffffffffffffffffffffffffffffffffffff16815260200190815260200160002054601960003373ffffffffffffffffffffffffffffffffffffffff1673ffffffffffffffffffffffffffffffffffffffff16815260200190815260200160002054600d60009054906101000a900473ffffffffffffffffffffffffffffffffffffffff1673ffffffffffffffffffffffffffffffffffffffff166370a08231336040518263ffffffff1660e01b8152600401615bcb91906178b9565b60206040518083038186803b158015615be357600080fd5b505afa158015615bf7573d6000803e3d6000fd5b505050506040513d601f19601f82011682018060405250810190615c1b91906176df565b601060009054906101000a900473ffffffffffffffffffffffffffffffffffffffff1673ffffffffffffffffffffffffffffffffffffffff166370a08231336040518263ffffffff1660e01b8152600401615c7691906178b9565b60206040518083038186803b158015615c8e57600080fd5b505afa158015615ca2573d6000803e3d6000fd5b505050506040513d601f19601f82011682018060405250810190615cc691906176df565b604051615cd7959493929190617a98565b60405180910390a2600960003373ffffffffffffffffffffffffffffffffffffffff1673ffffffffffffffffffffffffffffffffffffffff16815260200190815260200160002054925050505b92915050565b6000615d6b826040518060400160405280600381526020017f646169000000000000000000000000000000000000000000000000000000000081525061732a565b15615dce5760004290506000600160008673ffffffffffffffffffffffffffffffffffffffff1673ffffffffffffffffffffffffffffffffffffffff1681526020019081526020016000205482615dc29190617cbc565b90508092505050615eca565b615e0d826040518060400160405280600381526020017f657468000000000000000000000000000000000000000000000000000000000081525061732a565b15615e705760004290506000600660008673ffffffffffffffffffffffffffffffffffffffff1673ffffffffffffffffffffffffffffffffffffffff1681526020019081526020016000205482615e649190617cbc565b90508092505050615eca565b60004290506000600a60008673ffffffffffffffffffffffffffffffffffffffff1673ffffffffffffffffffffffffffffffffffffffff1681526020019081526020016000205482615ec29190617cbc565b905080925050505b92915050565b60166020528060005260406000206000915090505481565b60076020528060005260406000206000915090505481565b600a6020528060005260406000206000915090505481565b60026020528060005260406000206000915090505481565b601b6020528060005260406000206000915054906101000a900460ff1681565b60046020528060005260406000206000915090505481565b60146020528060005260406000206000915054906101000a900460ff1681565b601a6020528060005260406000206000915090505481565b60096020528060005260406000206000915090505481565b60136020528060005260406000206000915054906101000a900460ff1681565b60006020528060005260406000206000915090505481565b6000616031826040518060400160405280600381526020017f646169000000000000000000000000000000000000000000000000000000000081525061732a565b1561666c57826000803373ffffffffffffffffffffffffffffffffffffffff1673ffffffffffffffffffffffffffffffffffffffff16815260200190815260200160002054101580156160d4575060011515601360003373ffffffffffffffffffffffffffffffffffffffff1673ffffffffffffffffffffffffffffffffffffffff16815260200190815260200160002060009054906101000a900460ff161515145b80156161685750826000803373ffffffffffffffffffffffffffffffffffffffff1673ffffffffffffffffffffffffffffffffffffffff168152602001908152602001600020546161259190617cbc565b600360003373ffffffffffffffffffffffffffffffffffffffff1673ffffffffffffffffffffffffffffffffffffffff1681526020019081526020016000205411155b6161a7576040517f08c379a000000000000000000000000000000000000000000000000000000000815260040161619e90617a5d565b60405180910390fd5b60006161b33384612d73565b905042600160003373ffffffffffffffffffffffffffffffffffffffff1673ffffffffffffffffffffffffffffffffffffffff16815260200190815260200160002081905550600084905060009450806000803373ffffffffffffffffffffffffffffffffffffffff1673ffffffffffffffffffffffffffffffffffffffff16815260200190815260200160002060008282546162509190617cbc565b92505081905550600e60009054906101000a900473ffffffffffffffffffffffffffffffffffffffff1673ffffffffffffffffffffffffffffffffffffffff1663a9059cbb33836040518363ffffffff1660e01b81526004016162b492919061790b565b602060405180830381600087803b1580156162ce57600080fd5b505af11580156162e2573d6000803e3d6000fd5b505050506040513d601f19601f820116820180604052508101906163069190617669565b5081601260003373ffffffffffffffffffffffffffffffffffffffff1673ffffffffffffffffffffffffffffffffffffffff16815260200190815260200160002060008282546163569190617bdb565b9250508190555060008060003373ffffffffffffffffffffffffffffffffffffffff1673ffffffffffffffffffffffffffffffffffffffff1681526020019081526020016000205414156163fd576000601360003373ffffffffffffffffffffffffffffffffffffffff1673ffffffffffffffffffffffffffffffffffffffff16815260200190815260200160002060006101000a81548160ff0219169083151502179055505b3373ffffffffffffffffffffffffffffffffffffffff167f2ae77851d374757c0aeee19fd5d8f75edac9f1f52043fb96992607c293731441866000803373ffffffffffffffffffffffffffffffffffffffff1673ffffffffffffffffffffffffffffffffffffffff16815260200190815260200160002054601260003373ffffffffffffffffffffffffffffffffffffffff1673ffffffffffffffffffffffffffffffffffffffff16815260200190815260200160002054600d60009054906101000a900473ffffffffffffffffffffffffffffffffffffffff1673ffffffffffffffffffffffffffffffffffffffff166370a08231336040518263ffffffff1660e01b815260040161651091906178b9565b60206040518083038186803b15801561652857600080fd5b505afa15801561653c573d6000803e3d6000fd5b505050506040513d601f19601f8201168201806040525081019061656091906176df565b600e60009054906101000a900473ffffffffffffffffffffffffffffffffffffffff1673ffffffffffffffffffffffffffffffffffffffff166370a08231336040518263ffffffff1660e01b81526004016165bb91906178b9565b60206040518083038186803b1580156165d357600080fd5b505afa1580156165e7573d6000803e3d6000fd5b505050506040513d601f19601f8201168201806040525081019061660b91906176df565b60405161661c959493929190617a98565b60405180910390a26000803373ffffffffffffffffffffffffffffffffffffffff1673ffffffffffffffffffffffffffffffffffffffff1681526020019081526020016000205492505050617324565b6166ab826040518060400160405280600381526020017f657468000000000000000000000000000000000000000000000000000000000081525061732a565b15616cec5782600460003373ffffffffffffffffffffffffffffffffffffffff1673ffffffffffffffffffffffffffffffffffffffff168152602001908152602001600020541015801561674f575060011515601760003373ffffffffffffffffffffffffffffffffffffffff1673ffffffffffffffffffffffffffffffffffffffff16815260200190815260200160002060009054906101000a900460ff161515145b80156167e4575082600460003373ffffffffffffffffffffffffffffffffffffffff1673ffffffffffffffffffffffffffffffffffffffff168152602001908152602001600020546167a19190617cbc565b600560003373ffffffffffffffffffffffffffffffffffffffff1673ffffffffffffffffffffffffffffffffffffffff1681526020019081526020016000205411155b616823576040517f08c379a000000000000000000000000000000000000000000000000000000000815260040161681a90617a5d565b60405180910390fd5b600061682f3384612d73565b905042600660003373ffffffffffffffffffffffffffffffffffffffff1673ffffffffffffffffffffffffffffffffffffffff1681526020019081526020016000208190555060008490506000945080600460003373ffffffffffffffffffffffffffffffffffffffff1673ffffffffffffffffffffffffffffffffffffffff16815260200190815260200160002060008282546168cd9190617cbc565b92505081905550600f60009054906101000a900473ffffffffffffffffffffffffffffffffffffffff1673ffffffffffffffffffffffffffffffffffffffff1663a9059cbb33836040518363ffffffff1660e01b815260040161693192919061790b565b602060405180830381600087803b15801561694b57600080fd5b505af115801561695f573d6000803e3d6000fd5b505050506040513d601f19601f820116820180604052508101906169839190617669565b5081601660003373ffffffffffffffffffffffffffffffffffffffff1673ffffffffffffffffffffffffffffffffffffffff16815260200190815260200160002060008282546169d39190617bdb565b925050819055506000600460003373ffffffffffffffffffffffffffffffffffffffff1673ffffffffffffffffffffffffffffffffffffffff168152602001908152602001600020541415616a7b576000601760003373ffffffffffffffffffffffffffffffffffffffff1673ffffffffffffffffffffffffffffffffffffffff16815260200190815260200160002060006101000a81548160ff0219169083151502179055505b3373ffffffffffffffffffffffffffffffffffffffff167f2ae77851d374757c0aeee19fd5d8f75edac9f1f52043fb96992607c29373144186600460003373ffffffffffffffffffffffffffffffffffffffff1673ffffffffffffffffffffffffffffffffffffffff16815260200190815260200160002054601660003373ffffffffffffffffffffffffffffffffffffffff1673ffffffffffffffffffffffffffffffffffffffff16815260200190815260200160002054600d60009054906101000a900473ffffffffffffffffffffffffffffffffffffffff1673ffffffffffffffffffffffffffffffffffffffff166370a08231336040518263ffffffff1660e01b8152600401616b8f91906178b9565b60206040518083038186803b158015616ba757600080fd5b505afa158015616bbb573d6000803e3d6000fd5b505050506040513d601f19601f82011682018060405250810190616bdf91906176df565b600f60009054906101000a900473ffffffffffffffffffffffffffffffffffffffff1673ffffffffffffffffffffffffffffffffffffffff166370a08231336040518263ffffffff1660e01b8152600401616c3a91906178b9565b60206040518083038186803b158015616c5257600080fd5b505afa158015616c66573d6000803e3d6000fd5b505050506040513d601f19601f82011682018060405250810190616c8a91906176df565b604051616c9b959493929190617a98565b60405180910390a2600460003373ffffffffffffffffffffffffffffffffffffffff1673ffffffffffffffffffffffffffffffffffffffff1681526020019081526020016000205492505050617324565b82600860003373ffffffffffffffffffffffffffffffffffffffff1673ffffffffffffffffffffffffffffffffffffffff1681526020019081526020016000205410158015616d8b575060011515601b60003373ffffffffffffffffffffffffffffffffffffffff1673ffffffffffffffffffffffffffffffffffffffff16815260200190815260200160002060009054906101000a900460ff161515145b8015616e20575082600860003373ffffffffffffffffffffffffffffffffffffffff1673ffffffffffffffffffffffffffffffffffffffff16815260200190815260200160002054616ddd9190617cbc565b600960003373ffffffffffffffffffffffffffffffffffffffff1673ffffffffffffffffffffffffffffffffffffffff1681526020019081526020016000205411155b616e5f576040517f08c379a0000000000000000000000000000000000000000000000000000000008152600401616e5690617a5d565b60405180910390fd5b6000616e6b3384612d73565b905042600a60003373ffffffffffffffffffffffffffffffffffffffff1673ffffffffffffffffffffffffffffffffffffffff1681526020019081526020016000208190555060008490506000945080600860003373ffffffffffffffffffffffffffffffffffffffff1673ffffffffffffffffffffffffffffffffffffffff1681526020019081526020016000206000828254616f099190617cbc565b92505081905550601060009054906101000a900473ffffffffffffffffffffffffffffffffffffffff1673ffffffffffffffffffffffffffffffffffffffff1663a9059cbb33836040518363ffffffff1660e01b8152600401616f6d92919061790b565b602060405180830381600087803b158015616f8757600080fd5b505af1158015616f9b573d6000803e3d6000fd5b505050506040513d601f19601f82011682018060405250810190616fbf9190617669565b5081601a60003373ffffffffffffffffffffffffffffffffffffffff1673ffffffffffffffffffffffffffffffffffffffff168152602001908152602001600020600082825461700f9190617bdb565b925050819055506000600860003373ffffffffffffffffffffffffffffffffffffffff1673ffffffffffffffffffffffffffffffffffffffff1681526020019081526020016000205414156170b7576000601b60003373ffffffffffffffffffffffffffffffffffffffff1673ffffffffffffffffffffffffffffffffffffffff16815260200190815260200160002060006101000a81548160ff0219169083151502179055505b3373ffffffffffffffffffffffffffffffffffffffff167f2ae77851d374757c0aeee19fd5d8f75edac9f1f52043fb96992607c29373144186600860003373ffffffffffffffffffffffffffffffffffffffff1673ffffffffffffffffffffffffffffffffffffffff16815260200190815260200160002054601a60003373ffffffffffffffffffffffffffffffffffffffff1673ffffffffffffffffffffffffffffffffffffffff16815260200190815260200160002054600d60009054906101000a900473ffffffffffffffffffffffffffffffffffffffff1673ffffffffffffffffffffffffffffffffffffffff166370a08231336040518263ffffffff1660e01b81526004016171cb91906178b9565b60206040518083038186803b1580156171e357600080fd5b505afa1580156171f7573d6000803e3d6000fd5b505050506040513d601f19601f8201168201806040525081019061721b91906176df565b601060009054906101000a900473ffffffffffffffffffffffffffffffffffffffff1673ffffffffffffffffffffffffffffffffffffffff166370a08231336040518263ffffffff1660e01b815260040161727691906178b9565b60206040518083038186803b15801561728e57600080fd5b505afa1580156172a2573d6000803e3d6000fd5b505050506040513d601f19601f820116820180604052508101906172c691906176df565b6040516172d7959493929190617a98565b60405180910390a2600860003373ffffffffffffffffffffffffffffffffffffffff1673ffffffffffffffffffffffffffffffffffffffff16815260200190815260200160002054925050505b92915050565b6000806173378484617340565b14905092915050565b6000808390506000839050600082519050808251101561735f57815190505b60005b818110156174c25782818151811061737d5761737c617f43565b5b602001015160f81c60f81b7effffffffffffffffffffffffffffffffffffffffffffffffffffffffffffff19168482815181106173bd576173bc617f43565b5b602001015160f81c60f81b7effffffffffffffffffffffffffffffffffffffffffffffffffffffffffffff1916101561741c577fffffffffffffffffffffffffffffffffffffffffffffffffffffffffffffffff945050505050617516565b82818151811061742f5761742e617f43565b5b602001015160f81c60f81b7effffffffffffffffffffffffffffffffffffffffffffffffffffffffffffff191684828151811061746f5761746e617f43565b5b602001015160f81c60f81b7effffffffffffffffffffffffffffffffffffffffffffffffffffffffffffff191611156174af576001945050505050617516565b80806174ba90617e6d565b915050617362565b508151835110156174f8577fffffffffffffffffffffffffffffffffffffffffffffffffffffffffffffffff9350505050617516565b81518351111561750e5760019350505050617516565b600093505050505b92915050565b600061752f61752a84617b8e565b617b69565b90508281526020810184848401111561754b5761754a617fa6565b5b617556848285617dc8565b509392505050565b60008135905061756d8161812b565b92915050565b60008151905061758281618142565b92915050565b600082601f83011261759d5761759c617fa1565b5b81356175ad84826020860161751c565b91505092915050565b6000813590506175c581618159565b92915050565b6000815190506175da81618159565b92915050565b6000602082840312156175f6576175f5617fb0565b5b60006176048482850161755e565b91505092915050565b6000806040838503121561762457617623617fb0565b5b60006176328582860161755e565b925050602083013567ffffffffffffffff81111561765357617652617fab565b5b61765f85828601617588565b9150509250929050565b60006020828403121561767f5761767e617fb0565b5b600061768d84828501617573565b91505092915050565b6000602082840312156176ac576176ab617fb0565b5b600082013567ffffffffffffffff8111156176ca576176c9617fab565b5b6176d684828501617588565b91505092915050565b6000602082840312156176f5576176f4617fb0565b5b6000617703848285016175cb565b91505092915050565b6000806040838503121561772357617722617fb0565b5b6000617731858286016175b6565b925050602083013567ffffffffffffffff81111561775257617751617fab565b5b61775e85828601617588565b9150509250929050565b61777181617cf0565b82525050565b61778081617d02565b82525050565b61778f81617d38565b82525050565b61779e81617d5c565b82525050565b6177ad81617d80565b82525050565b6177bc81617da4565b82525050565b60006177cd82617bbf565b6177d78185617bca565b93506177e7818560208601617dd7565b6177f081617fb5565b840191505092915050565b6000617808601383617bca565b915061781382617fc6565b602082019050919050565b600061782b602b83617bca565b915061783682617fef565b604082019050919050565b600061784e601d83617bca565b91506178598261803e565b602082019050919050565b6000617871601c83617bca565b915061787c82618067565b602082019050919050565b6000617894606383617bca565b915061789f82618090565b608082019050919050565b6178b381617d2e565b82525050565b60006020820190506178ce6000830184617768565b92915050565b60006060820190506178e96000830186617768565b6178f66020830185617768565b61790360408301846178aa565b949350505050565b60006040820190506179206000830185617768565b61792d60208301846178aa565b9392505050565b60006020820190506179496000830184617777565b92915050565b60006020820190506179646000830184617786565b92915050565b600060208201905061797f6000830184617795565b92915050565b600060208201905061799a60008301846177a4565b92915050565b60006020820190506179b560008301846177b3565b92915050565b600060208201905081810360008301526179d581846177c2565b905092915050565b600060208201905081810360008301526179f6816177fb565b9050919050565b60006020820190508181036000830152617a168161781e565b9050919050565b60006020820190508181036000830152617a3681617841565b9050919050565b60006020820190508181036000830152617a5681617864565b9050919050565b60006020820190508181036000830152617a7681617887565b9050919050565b6000602082019050617a9260008301846178aa565b92915050565b600060a082019050617aad60008301886178aa565b617aba60208301876178aa565b617ac760408301866178aa565b617ad460608301856178aa565b617ae160808301846178aa565b9695505050505050565b600061010082019050617b01600083018b6178aa565b617b0e602083018a6178aa565b617b1b60408301896178aa565b617b2860608301886178aa565b617b3560808301876178aa565b617b4260a08301866178aa565b617b4f60c08301856178aa565b617b5c60e08301846178aa565b9998505050505050505050565b6000617b73617b84565b9050617b7f8282617e3c565b919050565b6000604051905090565b600067ffffffffffffffff821115617ba957617ba8617f72565b5b617bb282617fb5565b9050602081019050919050565b600081519050919050565b600082825260208201905092915050565b6000617be682617d2e565b9150617bf183617d2e565b9250827fffffffffffffffffffffffffffffffffffffffffffffffffffffffffffffffff03821115617c2657617c25617eb6565b5b828201905092915050565b6000617c3c82617d2e565b9150617c4783617d2e565b925082617c5757617c56617ee5565b5b828204905092915050565b6000617c6d82617d2e565b9150617c7883617d2e565b9250817fffffffffffffffffffffffffffffffffffffffffffffffffffffffffffffffff0483118215151615617cb157617cb0617eb6565b5b828202905092915050565b6000617cc782617d2e565b9150617cd283617d2e565b925082821015617ce557617ce4617eb6565b5b828203905092915050565b6000617cfb82617d0e565b9050919050565b60008115159050919050565b600073ffffffffffffffffffffffffffffffffffffffff82169050919050565b6000819050919050565b6000617d4382617d4a565b9050919050565b6000617d5582617d0e565b9050919050565b6000617d6782617d6e565b9050919050565b6000617d7982617d0e565b9050919050565b6000617d8b82617d92565b9050919050565b6000617d9d82617d0e565b9050919050565b6000617daf82617db6565b9050919050565b6000617dc182617d0e565b9050919050565b82818337600083830152505050565b60005b83811015617df5578082015181840152602081019050617dda565b83811115617e04576000848401525b50505050565b60006002820490506001821680617e2257607f821691505b60208210811415617e3657617e35617f14565b5b50919050565b617e4582617fb5565b810181811067ffffffffffffffff82111715617e6457617e63617f72565b5b80604052505050565b6000617e7882617d2e565b91507fffffffffffffffffffffffffffffffffffffffffffffffffffffffffffffffff821415617eab57617eaa617eb6565b5b600182019050919050565b7f4e487b7100000000000000000000000000000000000000000000000000000000600052601160045260246000fd5b7f4e487b7100000000000000000000000000000000000000000000000000000000600052601260045260246000fd5b7f4e487b7100000000000000000000000000000000000000000000000000000000600052602260045260246000fd5b7f4e487b7100000000000000000000000000000000000000000000000000000000600052603260045260246000fd5b7f4e487b7100000000000000000000000000000000000000000000000000000000600052604160045260246000fd5b600080fd5b600080fd5b600080fd5b600080fd5b6000601f19601f8301169050919050565b7f4e6f7468696e6720746f20776974686472617700000000000000000000000000600082015250565b7f426f72726f7765642062616c616e6365206d757374206265206c61726765722060008201527f7468616e20616d6f756e74000000000000000000000000000000000000000000602082015250565b7f596f752063616e6e6f7420626f72726f77207a65726f20746f6b656e73000000600082015250565b7f596f752063616e6e6f74207374616b65207a65726f20746f6b656e7300000000600082015250565b7f5374616b696e672062616c616e6365206d757374206265206c6172676572207460008201527f68616e20616d6f756e7420616e6420796f752073686f756c64206e6f7420626560208201527f207374616b696e67206c657373207468616e20626f72726f77656420616d6f7560408201527f6e74730000000000000000000000000000000000000000000000000000000000606082015250565b61813481617cf0565b811461813f57600080fd5b50565b61814b81617d02565b811461815657600080fd5b50565b61816281617d2e565b811461816d57600080fd5b5056fea264697066735822122044b8ce1a0d504ddc3489aa5f8c1d835814775c49e60daa98b52c630e8cd62aa864736f6c63430008060033",
  "immutableReferences": {},
  "source": "//\"SPDX-License-Identifier: UNLICENSED\"\npragma solidity ^0.8.6;\n\n// import \"./DaiToken.sol\";\n// import \"./EthToken.sol\";\n// import \"./UsdtToken.sol\";\n// import \"./TegToken.sol\";\nimport \"./Borrow-Repay.sol\";\n// import \"./stringUtils.sol\";\n\ncontract TokenFarm is BorrowRepay  {\n    string public name = \"Tegridy Token Farm\";\n\n    // address public owner;\n    // TegToken public tegToken;\n    // DaiToken public daiToken;\n    // EthToken public ethToken;\n    // UsdtToken public usdtToken;\n\n    // //dai\n    // mapping(address => uint256) public daiLossBalance;\n    // mapping(address => uint256) public daiEarnedBalance;\n    // mapping(address => bool) public isStakingDai;\n    // mapping(address => bool) public isBorrowingDai;\n\n    // //eth\n    // mapping(address => uint256) public ethLossBalance;\n    // mapping(address => uint256) public ethEarnedBalance;\n    // mapping(address => bool) public isStakingEth;\n    // mapping(address => bool) public isBorrowingEth;\n\n    // //usdt\n    // mapping(address => uint256) public usdtLossBalance;\n    // mapping(address => uint256) public usdtEarnedBalance;\n    // mapping(address => bool) public isStakingUsdt;\n    // mapping(address => bool) public isBorrowingUsdt;\n\n    event Stake(\n        address indexed from,\n        uint256 amount,\n        uint256 stakingBal,\n        uint256 intBal,\n        uint256 tegBal,\n        uint256 tokenBal\n    );\n    event Unstake(\n        address indexed from,\n        uint256 amount,\n        uint256 stakingBal,\n        uint256 intBal,\n        uint256 tegBal,\n        uint256 tokenBal\n    );\n\n    event YieldWithdraw(\n        address indexed to,\n        uint256 amountEarned,\n        uint256 amountLost,\n        uint256 stakingBal,\n        uint256 intBal,\n        uint256 borrowBal,\n        uint256 lossBal,\n        uint256 tegBal,\n        uint256 tokenBal\n    );\n\n    constructor(\n        TegToken _tegToken,\n        DaiToken _daiToken,\n        EthToken _ethToken,\n        UsdtToken _usdtToken\n    ) {\n        tegToken = _tegToken;\n        daiToken = _daiToken;\n        ethToken = _ethToken;\n        usdtToken = _usdtToken;\n        owner = msg.sender;\n    }\n\n    //1. Stake Tokens (deposit)\n    function stakeTokens(uint256 _amount, string memory _tok)\n        public\n        returns (uint256 balance)\n    {\n        if (StringUtils.equal(_tok, \"dai\")) {\n            //Amount staked cannot be smaller than 0\n            require(\n                _amount > 0 && daiToken.balanceOf(msg.sender) >= _amount,\n                \"You cannot stake zero tokens\"\n            );\n\n            if (isStakingDai[msg.sender] == true) {\n                uint256 toTransfer = calculateEarningYield(msg.sender, _tok);\n                daiEarnedBalance[msg.sender] += toTransfer;\n            }\n            // Transfer Mock Dai to this contract for staking\n            daiToken.transferFrom(msg.sender, address(this), _amount);\n            //update start time\n            earnedTimeDai[msg.sender] = block.timestamp;\n            //update staking balance\n            daiStakingBalance[msg.sender] += _amount;\n            // add user to stakers array \"only\" if they have not yet staked\n            // if (!hasStaked[msg.sender]) {\n            //     stakers.push(msg.sender);\n            // }\n            //update staking status\n            isStakingDai[msg.sender] = true;\n            // hasStaked[msg.sender] = true;\n            emit Stake(\n                msg.sender,\n                _amount,\n                daiStakingBalance[msg.sender],\n                daiEarnedBalance[msg.sender],\n                tegToken.balanceOf(msg.sender),\n                daiToken.balanceOf(msg.sender)\n            );\n            return daiStakingBalance[msg.sender];\n        } else if (StringUtils.equal(_tok, \"eth\")) {\n            //Amount staked cannot be smaller than 0\n            require(\n                _amount > 0 && ethToken.balanceOf(msg.sender) >= _amount,\n                \"You cannot stake zero tokens\"\n            );\n\n            if (isStakingEth[msg.sender] == true) {\n                uint256 toTransfer = calculateEarningYield(msg.sender, _tok);\n                ethEarnedBalance[msg.sender] += toTransfer;\n            }\n            // Transfer Mock eth to this contract for staking\n            ethToken.transferFrom(msg.sender, address(this), _amount);\n            //update start time\n            earnedTimeEth[msg.sender] = block.timestamp;\n            //update staking balance\n            ethStakingBalance[msg.sender] += _amount;\n            // add user to stakers array \"only\" if they have not yet staked\n            // if (!hasStaked[msg.sender]) {\n            //     stakers.push(msg.sender);\n            // }\n            //update staking status\n            isStakingEth[msg.sender] = true;\n            // hasStaked[msg.sender] = true;\n            emit Stake(\n                msg.sender,\n                _amount,\n                ethStakingBalance[msg.sender],\n                ethEarnedBalance[msg.sender],\n                tegToken.balanceOf(msg.sender),\n                ethToken.balanceOf(msg.sender)\n            );\n            return ethStakingBalance[msg.sender];\n        } else {\n            //Amount staked cannot be smaller than 0\n            require(\n                _amount > 0 && usdtToken.balanceOf(msg.sender) >= _amount,\n                \"You cannot stake zero tokens\"\n            );\n\n            if (isStakingUsdt[msg.sender] == true) {\n                uint256 toTransfer = calculateEarningYield(msg.sender, _tok);\n                usdtEarnedBalance[msg.sender] += toTransfer;\n            }\n            // Transfer Mock usdt to this contract for staking\n            usdtToken.transferFrom(msg.sender, address(this), _amount);\n            //update start time\n            earnedTimeUsdt[msg.sender] = block.timestamp;\n            //update staking balance\n            usdtStakingBalance[msg.sender] += _amount;\n            // add user to stakers array \"only\" if they have not yet staked\n            // if (!hasStaked[msg.sender]) {\n            //     stakers.push(msg.sender);\n            // }\n            //update staking status\n            isStakingUsdt[msg.sender] = true;\n            // hasStaked[msg.sender] = true;\n            emit Stake(\n                msg.sender,\n                _amount,\n                usdtStakingBalance[msg.sender],\n                usdtEarnedBalance[msg.sender],\n                tegToken.balanceOf(msg.sender),\n                usdtToken.balanceOf(msg.sender)\n            );\n            return usdtStakingBalance[msg.sender];\n        }\n    }\n\n    //2. Unstaking Tokens (withdraw)\n    function unstakeTokens(uint256 _amount, string memory _tok)\n        public\n        returns (uint256 balance)\n    {\n        if (StringUtils.equal(_tok, \"dai\")) {\n            //require amount > 0\n            require(\n                daiStakingBalance[msg.sender] >= _amount &&\n                    isStakingDai[msg.sender] == true &&\n                    daiBorrowedBalance[msg.sender] <=\n                    (daiStakingBalance[msg.sender] - _amount),\n                \"Staking balance must be larger than amount and you should not be staking less than borrowed amounts\"\n            );\n\n            uint256 yieldTransfer = calculateEarningYield(msg.sender, _tok);\n            earnedTimeDai[msg.sender] = block.timestamp;\n            uint256 balanceTransfer = _amount;\n            _amount = 0;\n            //decrease staking balance by amount\n            daiStakingBalance[msg.sender] -= balanceTransfer;\n            //unstake dai tokens from farm to investor\n            daiToken.transfer(msg.sender, balanceTransfer);\n\n            daiEarnedBalance[msg.sender] += yieldTransfer;\n            // is he still staking?\n            //update staking status\n            if (daiStakingBalance[msg.sender] == 0) {\n                isStakingDai[msg.sender] = false;\n            }\n            emit Unstake(\n                msg.sender,\n                _amount,\n                daiStakingBalance[msg.sender],\n                daiEarnedBalance[msg.sender],\n                tegToken.balanceOf(msg.sender),\n                daiToken.balanceOf(msg.sender)\n            );\n            return daiStakingBalance[msg.sender];\n        } else if (StringUtils.equal(_tok, \"eth\")) {\n            //require amount > 0\n            require(\n                ethStakingBalance[msg.sender] >= _amount &&\n                    isStakingEth[msg.sender] == true &&\n                    ethBorrowedBalance[msg.sender] <=\n                    (ethStakingBalance[msg.sender] - _amount),\n                \"Staking balance must be larger than amount and you should not be staking less than borrowed amounts\"\n            );\n\n            uint256 yieldTransfer = calculateEarningYield(msg.sender, _tok);\n            earnedTimeEth[msg.sender] = block.timestamp;\n            uint256 balanceTransfer = _amount;\n            _amount = 0;\n            //decrease staking balance by amount\n            ethStakingBalance[msg.sender] -= balanceTransfer;\n            //unstake eth tokens from farm to investor\n            ethToken.transfer(msg.sender, balanceTransfer);\n\n            ethEarnedBalance[msg.sender] += yieldTransfer;\n            // is he still staking?\n            //update staking status\n            if (ethStakingBalance[msg.sender] == 0) {\n                isStakingEth[msg.sender] = false;\n            }\n            emit Unstake(\n                msg.sender,\n                _amount,\n                ethStakingBalance[msg.sender],\n                ethEarnedBalance[msg.sender],\n                tegToken.balanceOf(msg.sender),\n                ethToken.balanceOf(msg.sender)\n            );\n            return ethStakingBalance[msg.sender];\n        } else {\n            //require amount > 0\n            require(\n                usdtStakingBalance[msg.sender] >= _amount &&\n                    isStakingUsdt[msg.sender] == true &&\n                    usdtBorrowedBalance[msg.sender] <=\n                    (usdtStakingBalance[msg.sender] - _amount),\n                \"Staking balance must be larger than amount and you should not be staking less than borrowed amounts\"\n            );\n\n            uint256 yieldTransfer = calculateEarningYield(msg.sender, _tok);\n            earnedTimeUsdt[msg.sender] = block.timestamp;\n            uint256 balanceTransfer = _amount;\n            _amount = 0;\n            //decrease staking balance by amount\n            usdtStakingBalance[msg.sender] -= balanceTransfer;\n            //unstake usdt tokens from farm to investor\n            usdtToken.transfer(msg.sender, balanceTransfer);\n\n            usdtEarnedBalance[msg.sender] += yieldTransfer;\n            // is he still staking?\n            //update staking status\n            if (usdtStakingBalance[msg.sender] == 0) {\n                isStakingUsdt[msg.sender] = false;\n            }\n            emit Unstake(\n                msg.sender,\n                _amount,\n                usdtStakingBalance[msg.sender],\n                usdtEarnedBalance[msg.sender],\n                tegToken.balanceOf(msg.sender),\n                usdtToken.balanceOf(msg.sender)\n            );\n            return usdtStakingBalance[msg.sender];\n        }\n    }\n\n    //5. withdraw earned yield\n    function withdrawYield(string memory _tok) public {\n        uint256 toTransferEarned = calculateEarningYield(msg.sender, _tok);\n        uint256 toTransferLost = calculateLossYield(msg.sender, _tok);\n\n        if (StringUtils.equal(_tok, \"dai\")) {\n            require(\n                toTransferEarned > 0 ||\n                    daiEarnedBalance[msg.sender] > 0 ||\n                    toTransferLost > 0 ||\n                    daiLossBalance[msg.sender] > 0,\n                \"Nothing to withdraw\"\n            );\n\n            if (daiEarnedBalance[msg.sender] != 0) {\n                uint256 oldBalanceEarned = daiEarnedBalance[msg.sender];\n                daiEarnedBalance[msg.sender] = 0;\n                toTransferEarned += oldBalanceEarned;\n            }\n\n            if (daiLossBalance[msg.sender] != 0) {\n                uint256 oldBalanceLost = daiLossBalance[msg.sender];\n                daiLossBalance[msg.sender] = 0;\n                toTransferLost += oldBalanceLost;\n            }\n\n            earnedTimeDai[msg.sender] = block.timestamp;\n            borrowedTimeDai[msg.sender] = block.timestamp;\n\n            tegToken.transfer(msg.sender, toTransferEarned - toTransferLost);\n            emit YieldWithdraw(\n                msg.sender,\n                toTransferEarned,\n                toTransferLost,\n                daiStakingBalance[msg.sender],\n                daiEarnedBalance[msg.sender],\n                daiBorrowedBalance[msg.sender],\n                daiLossBalance[msg.sender],\n                tegToken.balanceOf(msg.sender),\n                daiToken.balanceOf(msg.sender)\n            );\n        } else if (StringUtils.equal(_tok, \"dai\")) {\n            require(\n                toTransferEarned > 0 ||\n                    ethEarnedBalance[msg.sender] > 0 ||\n                    toTransferLost > 0 ||\n                    ethLossBalance[msg.sender] > 0,\n                \"Nothing to withdraw\"\n            );\n\n            if (ethEarnedBalance[msg.sender] != 0) {\n                uint256 oldBalanceEarned = ethEarnedBalance[msg.sender];\n                ethEarnedBalance[msg.sender] = 0;\n                toTransferEarned += oldBalanceEarned;\n            }\n\n            if (ethLossBalance[msg.sender] != 0) {\n                uint256 oldBalanceLost = ethLossBalance[msg.sender];\n                ethLossBalance[msg.sender] = 0;\n                toTransferLost += oldBalanceLost;\n            }\n\n            earnedTimeEth[msg.sender] = block.timestamp;\n            borrowedTimeEth[msg.sender] = block.timestamp;\n\n            tegToken.transfer(msg.sender, toTransferEarned - toTransferLost);\n            emit YieldWithdraw(\n                msg.sender,\n                toTransferEarned,\n                toTransferLost,\n                ethStakingBalance[msg.sender],\n                ethEarnedBalance[msg.sender],\n                ethBorrowedBalance[msg.sender],\n                ethLossBalance[msg.sender],\n                tegToken.balanceOf(msg.sender),\n                ethToken.balanceOf(msg.sender)\n            );\n        } else {\n            require(\n                toTransferEarned > 0 ||\n                    usdtEarnedBalance[msg.sender] > 0 ||\n                    toTransferLost > 0 ||\n                    usdtLossBalance[msg.sender] > 0,\n                \"Nothing to withdraw\"\n            );\n\n            if (usdtEarnedBalance[msg.sender] != 0) {\n                uint256 oldBalanceEarned = usdtEarnedBalance[msg.sender];\n                usdtEarnedBalance[msg.sender] = 0;\n                toTransferEarned += oldBalanceEarned;\n            }\n\n            if (usdtLossBalance[msg.sender] != 0) {\n                uint256 oldBalanceLost = usdtLossBalance[msg.sender];\n                usdtLossBalance[msg.sender] = 0;\n                toTransferLost += oldBalanceLost;\n            }\n\n            earnedTimeUsdt[msg.sender] = block.timestamp;\n            borrowedTimeUsdt[msg.sender] = block.timestamp;\n\n            tegToken.transfer(msg.sender, toTransferEarned - toTransferLost);\n            emit YieldWithdraw(\n                msg.sender,\n                toTransferEarned,\n                toTransferLost,\n                usdtStakingBalance[msg.sender],\n                usdtEarnedBalance[msg.sender],\n                usdtBorrowedBalance[msg.sender],\n                usdtLossBalance[msg.sender],\n                tegToken.balanceOf(msg.sender),\n                usdtToken.balanceOf(msg.sender)\n            );\n        }\n    }\n}\n",
  "sourcePath": "/home/frankperler/Development/Codeworks/projects/blockchain/tegridyfarm/client/src/contracts/TokenFarm.sol",
  "compiler": {
    "name": "solc",
    "version": "0.8.6+commit.11564f7e.Emscripten.clang"
  },
  "schemaVersion": "3.4.2",
  "updatedAt": "2021-07-30T14:18:09.773Z",
  "devdoc": {
    "kind": "dev",
    "methods": {},
    "version": 1
  },
  "userdoc": {
    "kind": "user",
    "methods": {},
    "version": 1
  }
}