{
  "contractName": "TokenFarm",
  "abi": [
    {
      "inputs": [
        {
          "internalType": "contract TegToken",
          "name": "_tegToken",
          "type": "address"
        },
        {
          "internalType": "contract DaiToken",
          "name": "_daiToken",
          "type": "address"
        },
        {
          "internalType": "contract EthToken",
          "name": "_ethToken",
          "type": "address"
        },
        {
          "internalType": "contract UsdtToken",
          "name": "_usdtToken",
          "type": "address"
        }
      ],
      "stateMutability": "nonpayable",
      "type": "constructor"
    },
    {
      "anonymous": false,
      "inputs": [
        {
          "indexed": true,
          "internalType": "address",
          "name": "from",
          "type": "address"
        },
        {
          "indexed": false,
          "internalType": "uint256",
          "name": "amount",
          "type": "uint256"
        },
        {
          "indexed": false,
          "internalType": "string",
          "name": "tok",
          "type": "string"
        },
        {
          "indexed": false,
          "internalType": "uint256",
          "name": "borrowBal",
          "type": "uint256"
        },
        {
          "indexed": false,
          "internalType": "uint256",
          "name": "lossBal",
          "type": "uint256"
        },
        {
          "indexed": false,
          "internalType": "uint256",
          "name": "tegBal",
          "type": "uint256"
        },
        {
          "indexed": false,
          "internalType": "uint256",
          "name": "daiBal",
          "type": "uint256"
        },
        {
          "indexed": false,
          "internalType": "uint256",
          "name": "ethBal",
          "type": "uint256"
        },
        {
          "indexed": false,
          "internalType": "uint256",
          "name": "usdtBal",
          "type": "uint256"
        }
      ],
      "name": "Borrow",
      "type": "event"
    },
    {
      "anonymous": false,
      "inputs": [
        {
          "indexed": true,
          "internalType": "address",
          "name": "from",
          "type": "address"
        },
        {
          "indexed": false,
          "internalType": "uint256",
          "name": "repayAmount",
          "type": "uint256"
        },
        {
          "indexed": false,
          "internalType": "uint256",
          "name": "yieldAmount",
          "type": "uint256"
        },
        {
          "indexed": false,
          "internalType": "string",
          "name": "tok",
          "type": "string"
        },
        {
          "indexed": false,
          "internalType": "uint256",
          "name": "borrowBal",
          "type": "uint256"
        },
        {
          "indexed": false,
          "internalType": "uint256",
          "name": "lossBal",
          "type": "uint256"
        },
        {
          "indexed": false,
          "internalType": "uint256",
          "name": "tegBal",
          "type": "uint256"
        },
        {
          "indexed": false,
          "internalType": "uint256",
          "name": "daiBal",
          "type": "uint256"
        },
        {
          "indexed": false,
          "internalType": "uint256",
          "name": "ethBal",
          "type": "uint256"
        },
        {
          "indexed": false,
          "internalType": "uint256",
          "name": "usdtBal",
          "type": "uint256"
        }
      ],
      "name": "Repay",
      "type": "event"
    },
    {
      "anonymous": false,
      "inputs": [
        {
          "indexed": true,
          "internalType": "address",
          "name": "from",
          "type": "address"
        },
        {
          "indexed": false,
          "internalType": "uint256",
          "name": "amount",
          "type": "uint256"
        },
        {
          "indexed": false,
          "internalType": "string",
          "name": "tok",
          "type": "string"
        },
        {
          "indexed": false,
          "internalType": "uint256",
          "name": "stakingBal",
          "type": "uint256"
        },
        {
          "indexed": false,
          "internalType": "uint256",
          "name": "intBal",
          "type": "uint256"
        },
        {
          "indexed": false,
          "internalType": "uint256",
          "name": "intTime",
          "type": "uint256"
        },
        {
          "indexed": false,
          "internalType": "uint256",
          "name": "tegBal",
          "type": "uint256"
        },
        {
          "indexed": false,
          "internalType": "uint256",
          "name": "daiBal",
          "type": "uint256"
        },
        {
          "indexed": false,
          "internalType": "uint256",
          "name": "ethBal",
          "type": "uint256"
        },
        {
          "indexed": false,
          "internalType": "uint256",
          "name": "usdtBal",
          "type": "uint256"
        }
      ],
      "name": "Stake",
      "type": "event"
    },
    {
      "anonymous": false,
      "inputs": [
        {
          "indexed": true,
          "internalType": "address",
          "name": "from",
          "type": "address"
        },
        {
          "indexed": false,
          "internalType": "uint256",
          "name": "unstakeAmount",
          "type": "uint256"
        },
        {
          "indexed": false,
          "internalType": "uint256",
          "name": "yieldAmount",
          "type": "uint256"
        },
        {
          "indexed": false,
          "internalType": "string",
          "name": "tok",
          "type": "string"
        },
        {
          "indexed": false,
          "internalType": "uint256",
          "name": "stakingBal",
          "type": "uint256"
        },
        {
          "indexed": false,
          "internalType": "uint256",
          "name": "intBal",
          "type": "uint256"
        },
        {
          "indexed": false,
          "internalType": "uint256",
          "name": "tegBal",
          "type": "uint256"
        },
        {
          "indexed": false,
          "internalType": "uint256",
          "name": "daiBal",
          "type": "uint256"
        },
        {
          "indexed": false,
          "internalType": "uint256",
          "name": "ethBal",
          "type": "uint256"
        },
        {
          "indexed": false,
          "internalType": "uint256",
          "name": "usdtBal",
          "type": "uint256"
        }
      ],
      "name": "Unstake",
      "type": "event"
    },
    {
      "anonymous": false,
      "inputs": [
        {
          "indexed": true,
          "internalType": "address",
          "name": "to",
          "type": "address"
        },
        {
          "indexed": false,
          "internalType": "string",
          "name": "tok",
          "type": "string"
        },
        {
          "indexed": false,
          "internalType": "uint256",
          "name": "amountEarned",
          "type": "uint256"
        },
        {
          "indexed": false,
          "internalType": "uint256",
          "name": "amountLost",
          "type": "uint256"
        },
        {
          "indexed": false,
          "internalType": "uint256",
          "name": "stakingBal",
          "type": "uint256"
        },
        {
          "indexed": false,
          "internalType": "uint256",
          "name": "intBal",
          "type": "uint256"
        },
        {
          "indexed": false,
          "internalType": "uint256",
          "name": "borrowBal",
          "type": "uint256"
        },
        {
          "indexed": false,
          "internalType": "uint256",
          "name": "lossBal",
          "type": "uint256"
        },
        {
          "indexed": false,
          "internalType": "uint256",
          "name": "tegBal",
          "type": "uint256"
        },
        {
          "indexed": false,
          "internalType": "uint256",
          "name": "daiBal",
          "type": "uint256"
        },
        {
          "indexed": false,
          "internalType": "uint256",
          "name": "ethBal",
          "type": "uint256"
        },
        {
          "indexed": false,
          "internalType": "uint256",
          "name": "usdtBal",
          "type": "uint256"
        }
      ],
      "name": "YieldWithdraw",
      "type": "event"
    },
    {
      "inputs": [
        {
          "internalType": "address",
          "name": "",
          "type": "address"
        },
        {
          "internalType": "string",
          "name": "",
          "type": "string"
        }
      ],
      "name": "borrowedBalance",
      "outputs": [
        {
          "internalType": "uint256",
          "name": "",
          "type": "uint256"
        }
      ],
      "stateMutability": "view",
      "type": "function",
      "constant": true
    },
    {
      "inputs": [
        {
          "internalType": "address",
          "name": "",
          "type": "address"
        },
        {
          "internalType": "string",
          "name": "",
          "type": "string"
        }
      ],
      "name": "borrowedTime",
      "outputs": [
        {
          "internalType": "uint256",
          "name": "",
          "type": "uint256"
        }
      ],
      "stateMutability": "view",
      "type": "function",
      "constant": true
    },
    {
      "inputs": [],
      "name": "daiToken",
      "outputs": [
        {
          "internalType": "contract DaiToken",
          "name": "",
          "type": "address"
        }
      ],
      "stateMutability": "view",
      "type": "function",
      "constant": true
    },
    {
      "inputs": [
        {
          "internalType": "address",
          "name": "",
          "type": "address"
        },
        {
          "internalType": "string",
          "name": "",
          "type": "string"
        }
      ],
      "name": "earnedBalance",
      "outputs": [
        {
          "internalType": "uint256",
          "name": "",
          "type": "uint256"
        }
      ],
      "stateMutability": "view",
      "type": "function",
      "constant": true
    },
    {
      "inputs": [
        {
          "internalType": "address",
          "name": "",
          "type": "address"
        },
        {
          "internalType": "string",
          "name": "",
          "type": "string"
        }
      ],
      "name": "earnedTime",
      "outputs": [
        {
          "internalType": "uint256",
          "name": "",
          "type": "uint256"
        }
      ],
      "stateMutability": "view",
      "type": "function",
      "constant": true
    },
    {
      "inputs": [],
      "name": "ethToken",
      "outputs": [
        {
          "internalType": "contract EthToken",
          "name": "",
          "type": "address"
        }
      ],
      "stateMutability": "view",
      "type": "function",
      "constant": true
    },
    {
      "inputs": [
        {
          "internalType": "address",
          "name": "",
          "type": "address"
        },
        {
          "internalType": "string",
          "name": "",
          "type": "string"
        }
      ],
      "name": "isBorrowing",
      "outputs": [
        {
          "internalType": "bool",
          "name": "",
          "type": "bool"
        }
      ],
      "stateMutability": "view",
      "type": "function",
      "constant": true
    },
    {
      "inputs": [
        {
          "internalType": "address",
          "name": "",
          "type": "address"
        },
        {
          "internalType": "string",
          "name": "",
          "type": "string"
        }
      ],
      "name": "isStaking",
      "outputs": [
        {
          "internalType": "bool",
          "name": "",
          "type": "bool"
        }
      ],
      "stateMutability": "view",
      "type": "function",
      "constant": true
    },
    {
      "inputs": [
        {
          "internalType": "address",
          "name": "",
          "type": "address"
        },
        {
          "internalType": "string",
          "name": "",
          "type": "string"
        }
      ],
      "name": "lossBalance",
      "outputs": [
        {
          "internalType": "uint256",
          "name": "",
          "type": "uint256"
        }
      ],
      "stateMutability": "view",
      "type": "function",
      "constant": true
    },
    {
      "inputs": [],
      "name": "name",
      "outputs": [
        {
          "internalType": "string",
          "name": "",
          "type": "string"
        }
      ],
      "stateMutability": "view",
      "type": "function",
      "constant": true
    },
    {
      "inputs": [],
      "name": "owner",
      "outputs": [
        {
          "internalType": "address",
          "name": "",
          "type": "address"
        }
      ],
      "stateMutability": "view",
      "type": "function",
      "constant": true
    },
    {
      "inputs": [
        {
          "internalType": "address",
          "name": "",
          "type": "address"
        },
        {
          "internalType": "string",
          "name": "",
          "type": "string"
        }
      ],
      "name": "stakingBalance",
      "outputs": [
        {
          "internalType": "uint256",
          "name": "",
          "type": "uint256"
        }
      ],
      "stateMutability": "view",
      "type": "function",
      "constant": true
    },
    {
      "inputs": [],
      "name": "tegToken",
      "outputs": [
        {
          "internalType": "contract TegToken",
          "name": "",
          "type": "address"
        }
      ],
      "stateMutability": "view",
      "type": "function",
      "constant": true
    },
    {
      "inputs": [],
      "name": "usdtToken",
      "outputs": [
        {
          "internalType": "contract UsdtToken",
          "name": "",
          "type": "address"
        }
      ],
      "stateMutability": "view",
      "type": "function",
      "constant": true
    },
    {
      "inputs": [
        {
          "internalType": "uint256",
          "name": "_amount",
          "type": "uint256"
        },
        {
          "internalType": "string",
          "name": "_tok",
          "type": "string"
        }
      ],
      "name": "stakeTokens",
      "outputs": [],
      "stateMutability": "nonpayable",
      "type": "function"
    },
    {
      "inputs": [
        {
          "internalType": "uint256",
          "name": "_amount",
          "type": "uint256"
        },
        {
          "internalType": "string",
          "name": "_tok",
          "type": "string"
        }
      ],
      "name": "unstakeTokens",
      "outputs": [],
      "stateMutability": "nonpayable",
      "type": "function"
    },
    {
      "inputs": [
        {
          "internalType": "uint256",
          "name": "_amount",
          "type": "uint256"
        },
        {
          "internalType": "string",
          "name": "_tok",
          "type": "string"
        }
      ],
      "name": "borrowTokens",
      "outputs": [],
      "stateMutability": "nonpayable",
      "type": "function"
    },
    {
      "inputs": [
        {
          "internalType": "uint256",
          "name": "_amount",
          "type": "uint256"
        },
        {
          "internalType": "string",
          "name": "_tok",
          "type": "string"
        }
      ],
      "name": "repayTokens",
      "outputs": [],
      "stateMutability": "nonpayable",
      "type": "function"
    },
    {
      "inputs": [
        {
          "internalType": "string",
          "name": "_tok",
          "type": "string"
        }
      ],
      "name": "withdrawYield",
      "outputs": [],
      "stateMutability": "nonpayable",
      "type": "function"
    }
  ],
  "bytecode": "0x60806040526040518060400160405280601281526020017f5465677269647920546f6b656e204661726d00000000000000000000000000008152506000908051906020019062000051929190620001d4565b503480156200005f57600080fd5b5060405162005416380380620054168339818101604052810190620000859190620002e0565b83600260006101000a81548173ffffffffffffffffffffffffffffffffffffffff021916908373ffffffffffffffffffffffffffffffffffffffff16021790555082600360006101000a81548173ffffffffffffffffffffffffffffffffffffffff021916908373ffffffffffffffffffffffffffffffffffffffff16021790555081600460006101000a81548173ffffffffffffffffffffffffffffffffffffffff021916908373ffffffffffffffffffffffffffffffffffffffff16021790555080600560006101000a81548173ffffffffffffffffffffffffffffffffffffffff021916908373ffffffffffffffffffffffffffffffffffffffff16021790555033600160006101000a81548173ffffffffffffffffffffffffffffffffffffffff021916908373ffffffffffffffffffffffffffffffffffffffff16021790555050505050620004a8565b828054620001e290620003d6565b90600052602060002090601f01602090048101928262000206576000855562000252565b82601f106200022157805160ff191683800117855562000252565b8280016001018555821562000252579182015b828111156200025157825182559160200191906001019062000234565b5b50905062000261919062000265565b5090565b5b808211156200028057600081600090555060010162000266565b5090565b600081519050620002958162000440565b92915050565b600081519050620002ac816200045a565b92915050565b600081519050620002c38162000474565b92915050565b600081519050620002da816200048e565b92915050565b60008060008060808587031215620002fd57620002fc6200043b565b5b60006200030d87828801620002b2565b9450506020620003208782880162000284565b935050604062000333878288016200029b565b92505060606200034687828801620002c9565b91505092959194509250565b60006200035f82620003b6565b9050919050565b6000620003738262000352565b9050919050565b6000620003878262000352565b9050919050565b60006200039b8262000352565b9050919050565b6000620003af8262000352565b9050919050565b600073ffffffffffffffffffffffffffffffffffffffff82169050919050565b60006002820490506001821680620003ef57607f821691505b602082108114156200040657620004056200040c565b5b50919050565b7f4e487b7100000000000000000000000000000000000000000000000000000000600052602260045260246000fd5b600080fd5b6200044b8162000366565b81146200045757600080fd5b50565b62000465816200037a565b81146200047157600080fd5b50565b6200047f816200038e565b81146200048b57600080fd5b50565b6200049981620003a2565b8114620004a557600080fd5b50565b614f5e80620004b86000396000f3fe608060405234801561001057600080fd5b50600436106101215760003560e01c80639085b4ba116100ad578063be28969f11610071578063be28969f1461031e578063c0fe19291461033a578063d44920cb1461036a578063f5a3f6d11461039a578063ff33e294146103ca57610121565b80639085b4ba1461026657806394ebf4f114610282578063a4aa6e13146102b2578063a98ad46c146102e2578063be22f5461461030057610121565b80635400a834116100f45780635400a834146101ac57806366df2db0146101ca5780637bf1a627146101fa57806386672bcf146102185780638da5cb5b1461024857610121565b8063014253e81461012657806306fdde03146101425780630d9a9411146101605780632cf100941461017c575b600080fd5b610140600480360381019061013b9190614619565b6103e6565b005b61014a610ea6565b6040516101579190614870565b60405180910390f35b61017a60048036038101906101759190614619565b610f34565b005b6101966004803603810190610191919061451a565b611b9d565b6040516101a39190614944565b60405180910390f35b6101b4611bd8565b6040516101c1919061483a565b60405180910390f35b6101e460048036038101906101df919061451a565b611bfe565b6040516101f19190614944565b60405180910390f35b610202611c39565b60405161020f919061481f565b60405180910390f35b610232600480360381019061022d919061451a565b611c5f565b60405161023f9190614944565b60405180910390f35b610250611c9a565b60405161025d919061476e565b60405180910390f35b610280600480360381019061027b91906145a3565b611cc0565b005b61029c6004803603810190610297919061451a565b612887565b6040516102a99190614944565b60405180910390f35b6102cc60048036038101906102c7919061451a565b6128c2565b6040516102d99190614944565b60405180910390f35b6102ea6128fd565b6040516102f79190614855565b60405180910390f35b610308612923565b6040516103159190614804565b60405180910390f35b61033860048036038101906103339190614619565b612949565b005b610354600480360381019061034f919061451a565b613623565b60405161036191906147e9565b60405180910390f35b610384600480360381019061037f919061451a565b613668565b60405161039191906147e9565b60405180910390f35b6103b460048036038101906103af919061451a565b6136ad565b6040516103c19190614944565b60405180910390f35b6103e460048036038101906103df9190614619565b6136e8565b005b600082118015610462575060011515600a60003373ffffffffffffffffffffffffffffffffffffffff1673ffffffffffffffffffffffffffffffffffffffff168152602001908152602001600020826040516104429190614757565b908152602001604051809103902060009054906101000a900460ff161515145b80156104c9575081600660003373ffffffffffffffffffffffffffffffffffffffff1673ffffffffffffffffffffffffffffffffffffffff168152602001908152602001600020826040516104b79190614757565b90815260200160405180910390205410155b6104d257600080fd5b60011515600b60003373ffffffffffffffffffffffffffffffffffffffff1673ffffffffffffffffffffffffffffffffffffffff168152602001908152602001600020826040516105239190614757565b908152602001604051809103902060009054906101000a900460ff16151514156106fe57600073__Helpers_______________________________6305620b61600d60003373ffffffffffffffffffffffffffffffffffffffff1673ffffffffffffffffffffffffffffffffffffffff168152602001908152602001600020846040516105b09190614757565b908152602001604051809103902054600960003373ffffffffffffffffffffffffffffffffffffffff1673ffffffffffffffffffffffffffffffffffffffff1681526020019081526020016000208560405161060c9190614757565b9081526020016040518091039020546040518363ffffffff1660e01b8152600401610638929190614a78565b60206040518083038186803b15801561065057600080fd5b505af4158015610664573d6000803e3d6000fd5b505050506040513d601f19601f8201168201806040525081019061068891906145ec565b905080600760003373ffffffffffffffffffffffffffffffffffffffff1673ffffffffffffffffffffffffffffffffffffffff168152602001908152602001600020836040516106d89190614757565b908152602001604051809103902060008282546106f59190614bb2565b92505081905550505b61073d816040518060400160405280600381526020017f6461690000000000000000000000000000000000000000000000000000000000815250614264565b156107f757600360009054906101000a900473ffffffffffffffffffffffffffffffffffffffff1673ffffffffffffffffffffffffffffffffffffffff1663a9059cbb33846040518363ffffffff1660e01b815260040161079f9291906147c0565b602060405180830381600087803b1580156107b957600080fd5b505af11580156107cd573d6000803e3d6000fd5b505050506040513d601f19601f820116820180604052508101906107f19190614576565b506109a2565b610836816040518060400160405280600381526020017f6574680000000000000000000000000000000000000000000000000000000000815250614264565b156108f057600460009054906101000a900473ffffffffffffffffffffffffffffffffffffffff1673ffffffffffffffffffffffffffffffffffffffff1663a9059cbb33846040518363ffffffff1660e01b81526004016108989291906147c0565b602060405180830381600087803b1580156108b257600080fd5b505af11580156108c6573d6000803e3d6000fd5b505050506040513d601f19601f820116820180604052508101906108ea9190614576565b506109a1565b600560009054906101000a900473ffffffffffffffffffffffffffffffffffffffff1673ffffffffffffffffffffffffffffffffffffffff1663a9059cbb33846040518363ffffffff1660e01b815260040161094d9291906147c0565b602060405180830381600087803b15801561096757600080fd5b505af115801561097b573d6000803e3d6000fd5b505050506040513d601f19601f8201168201806040525081019061099f9190614576565b505b5b42600d60003373ffffffffffffffffffffffffffffffffffffffff1673ffffffffffffffffffffffffffffffffffffffff168152602001908152602001600020826040516109f09190614757565b90815260200160405180910390208190555081600960003373ffffffffffffffffffffffffffffffffffffffff1673ffffffffffffffffffffffffffffffffffffffff16815260200190815260200160002082604051610a509190614757565b90815260200160405180910390206000828254610a6d9190614bb2565b925050819055506001600b60003373ffffffffffffffffffffffffffffffffffffffff1673ffffffffffffffffffffffffffffffffffffffff16815260200190815260200160002082604051610ac39190614757565b908152602001604051809103902060006101000a81548160ff0219169083151502179055503373ffffffffffffffffffffffffffffffffffffffff167f4290c7ad8e9222020fe8da92ca4da5c12427e8a870cfbe6e102f0904da1673888383600960003373ffffffffffffffffffffffffffffffffffffffff1673ffffffffffffffffffffffffffffffffffffffff16815260200190815260200160002085604051610b6f9190614757565b908152602001604051809103902054600760003373ffffffffffffffffffffffffffffffffffffffff1673ffffffffffffffffffffffffffffffffffffffff16815260200190815260200160002086604051610bcb9190614757565b908152602001604051809103902054600260009054906101000a900473ffffffffffffffffffffffffffffffffffffffff1673ffffffffffffffffffffffffffffffffffffffff166370a08231336040518263ffffffff1660e01b8152600401610c35919061476e565b60206040518083038186803b158015610c4d57600080fd5b505afa158015610c61573d6000803e3d6000fd5b505050506040513d601f19601f82011682018060405250810190610c8591906145ec565b600360009054906101000a900473ffffffffffffffffffffffffffffffffffffffff1673ffffffffffffffffffffffffffffffffffffffff166370a08231336040518263ffffffff1660e01b8152600401610ce0919061476e565b60206040518083038186803b158015610cf857600080fd5b505afa158015610d0c573d6000803e3d6000fd5b505050506040513d601f19601f82011682018060405250810190610d3091906145ec565b600460009054906101000a900473ffffffffffffffffffffffffffffffffffffffff1673ffffffffffffffffffffffffffffffffffffffff166370a08231336040518263ffffffff1660e01b8152600401610d8b919061476e565b60206040518083038186803b158015610da357600080fd5b505afa158015610db7573d6000803e3d6000fd5b505050506040513d601f19601f82011682018060405250810190610ddb91906145ec565b600560009054906101000a900473ffffffffffffffffffffffffffffffffffffffff1673ffffffffffffffffffffffffffffffffffffffff166370a08231336040518263ffffffff1660e01b8152600401610e36919061476e565b60206040518083038186803b158015610e4e57600080fd5b505afa158015610e62573d6000803e3d6000fd5b505050506040513d601f19601f82011682018060405250810190610e8691906145ec565b604051610e9a98979695949392919061495f565b60405180910390a25050565b60008054610eb390614d56565b80601f0160208091040260200160405190810160405280929190818152602001828054610edf90614d56565b8015610f2c5780601f10610f0157610100808354040283529160200191610f2c565b820191906000526020600020905b815481529060010190602001808311610f0f57829003601f168201915b505050505081565b60008211610f4157600080fd5b60011515600a60003373ffffffffffffffffffffffffffffffffffffffff1673ffffffffffffffffffffffffffffffffffffffff16815260200190815260200160002082604051610f929190614757565b908152602001604051809103902060009054906101000a900460ff161515141561116d57600073__Helpers_______________________________63ad9abb52600c60003373ffffffffffffffffffffffffffffffffffffffff1673ffffffffffffffffffffffffffffffffffffffff1681526020019081526020016000208460405161101f9190614757565b908152602001604051809103902054600660003373ffffffffffffffffffffffffffffffffffffffff1673ffffffffffffffffffffffffffffffffffffffff1681526020019081526020016000208560405161107b9190614757565b9081526020016040518091039020546040518363ffffffff1660e01b81526004016110a7929190614a78565b60206040518083038186803b1580156110bf57600080fd5b505af41580156110d3573d6000803e3d6000fd5b505050506040513d601f19601f820116820180604052508101906110f791906145ec565b905080600860003373ffffffffffffffffffffffffffffffffffffffff1673ffffffffffffffffffffffffffffffffffffffff168152602001908152602001600020836040516111479190614757565b908152602001604051809103902060008282546111649190614bb2565b92505081905550505b6111ac816040518060400160405280600381526020017f6461690000000000000000000000000000000000000000000000000000000000815250614264565b1561131f576000600360009054906101000a900473ffffffffffffffffffffffffffffffffffffffff1673ffffffffffffffffffffffffffffffffffffffff166370a08231336040518263ffffffff1660e01b815260040161120e919061476e565b60206040518083038186803b15801561122657600080fd5b505afa15801561123a573d6000803e3d6000fd5b505050506040513d601f19601f8201168201806040525081019061125e91906145ec565b1161126857600080fd5b600360009054906101000a900473ffffffffffffffffffffffffffffffffffffffff1673ffffffffffffffffffffffffffffffffffffffff166323b872dd3330856040518463ffffffff1660e01b81526004016112c793929190614789565b602060405180830381600087803b1580156112e157600080fd5b505af11580156112f5573d6000803e3d6000fd5b505050506040513d601f19601f820116820180604052508101906113199190614576565b5061163c565b61135e816040518060400160405280600381526020017f6574680000000000000000000000000000000000000000000000000000000000815250614264565b156114d1576000600460009054906101000a900473ffffffffffffffffffffffffffffffffffffffff1673ffffffffffffffffffffffffffffffffffffffff166370a08231336040518263ffffffff1660e01b81526004016113c0919061476e565b60206040518083038186803b1580156113d857600080fd5b505afa1580156113ec573d6000803e3d6000fd5b505050506040513d601f19601f8201168201806040525081019061141091906145ec565b1161141a57600080fd5b600460009054906101000a900473ffffffffffffffffffffffffffffffffffffffff1673ffffffffffffffffffffffffffffffffffffffff166323b872dd3330856040518463ffffffff1660e01b815260040161147993929190614789565b602060405180830381600087803b15801561149357600080fd5b505af11580156114a7573d6000803e3d6000fd5b505050506040513d601f19601f820116820180604052508101906114cb9190614576565b5061163b565b6000600560009054906101000a900473ffffffffffffffffffffffffffffffffffffffff1673ffffffffffffffffffffffffffffffffffffffff166370a08231336040518263ffffffff1660e01b815260040161152e919061476e565b60206040518083038186803b15801561154657600080fd5b505afa15801561155a573d6000803e3d6000fd5b505050506040513d601f19601f8201168201806040525081019061157e91906145ec565b1161158857600080fd5b600560009054906101000a900473ffffffffffffffffffffffffffffffffffffffff1673ffffffffffffffffffffffffffffffffffffffff166323b872dd3330856040518463ffffffff1660e01b81526004016115e793929190614789565b602060405180830381600087803b15801561160157600080fd5b505af1158015611615573d6000803e3d6000fd5b505050506040513d601f19601f820116820180604052508101906116399190614576565b505b5b42600c60003373ffffffffffffffffffffffffffffffffffffffff1673ffffffffffffffffffffffffffffffffffffffff1681526020019081526020016000208260405161168a9190614757565b90815260200160405180910390208190555081600660003373ffffffffffffffffffffffffffffffffffffffff1673ffffffffffffffffffffffffffffffffffffffff168152602001908152602001600020826040516116ea9190614757565b908152602001604051809103902060008282546117079190614bb2565b925050819055506001600a60003373ffffffffffffffffffffffffffffffffffffffff1673ffffffffffffffffffffffffffffffffffffffff1681526020019081526020016000208260405161175d9190614757565b908152602001604051809103902060006101000a81548160ff0219169083151502179055503373ffffffffffffffffffffffffffffffffffffffff167fa734c7025c97be190bd6d91e26ef468a0779e13faa896311a2e3e9e12c5fcc7c8383600660003373ffffffffffffffffffffffffffffffffffffffff1673ffffffffffffffffffffffffffffffffffffffff168152602001908152602001600020856040516118099190614757565b908152602001604051809103902054600860003373ffffffffffffffffffffffffffffffffffffffff1673ffffffffffffffffffffffffffffffffffffffff168152602001908152602001600020866040516118659190614757565b908152602001604051809103902054600c60003373ffffffffffffffffffffffffffffffffffffffff1673ffffffffffffffffffffffffffffffffffffffff168152602001908152602001600020876040516118c19190614757565b908152602001604051809103902054600260009054906101000a900473ffffffffffffffffffffffffffffffffffffffff1673ffffffffffffffffffffffffffffffffffffffff166370a08231336040518263ffffffff1660e01b815260040161192b919061476e565b60206040518083038186803b15801561194357600080fd5b505afa158015611957573d6000803e3d6000fd5b505050506040513d601f19601f8201168201806040525081019061197b91906145ec565b600360009054906101000a900473ffffffffffffffffffffffffffffffffffffffff1673ffffffffffffffffffffffffffffffffffffffff166370a08231336040518263ffffffff1660e01b81526004016119d6919061476e565b60206040518083038186803b1580156119ee57600080fd5b505afa158015611a02573d6000803e3d6000fd5b505050506040513d601f19601f82011682018060405250810190611a2691906145ec565b600460009054906101000a900473ffffffffffffffffffffffffffffffffffffffff1673ffffffffffffffffffffffffffffffffffffffff166370a08231336040518263ffffffff1660e01b8152600401611a81919061476e565b60206040518083038186803b158015611a9957600080fd5b505afa158015611aad573d6000803e3d6000fd5b505050506040513d601f19601f82011682018060405250810190611ad191906145ec565b600560009054906101000a900473ffffffffffffffffffffffffffffffffffffffff1673ffffffffffffffffffffffffffffffffffffffff166370a08231336040518263ffffffff1660e01b8152600401611b2c919061476e565b60206040518083038186803b158015611b4457600080fd5b505afa158015611b58573d6000803e3d6000fd5b505050506040513d601f19601f82011682018060405250810190611b7c91906145ec565b604051611b91999897969594939291906149e4565b60405180910390a25050565b600760205281600052604060002081805160208101820180518482526020830160208501208183528095505050505050600091509150505481565b600260009054906101000a900473ffffffffffffffffffffffffffffffffffffffff1681565b600660205281600052604060002081805160208101820180518482526020830160208501208183528095505050505050600091509150505481565b600460009054906101000a900473ffffffffffffffffffffffffffffffffffffffff1681565b600860205281600052604060002081805160208101820180518482526020830160208501208183528095505050505050600091509150505481565b600160009054906101000a900473ffffffffffffffffffffffffffffffffffffffff1681565b60008073__Helpers_______________________________63ad9abb52600c60003373ffffffffffffffffffffffffffffffffffffffff1673ffffffffffffffffffffffffffffffffffffffff16815260200190815260200160002085604051611d2a9190614757565b908152602001604051809103902054600860003373ffffffffffffffffffffffffffffffffffffffff1673ffffffffffffffffffffffffffffffffffffffff16815260200190815260200160002086604051611d869190614757565b9081526020016040518091039020546040518363ffffffff1660e01b8152600401611db2929190614a78565b60206040518083038186803b158015611dca57600080fd5b505af4158015611dde573d6000803e3d6000fd5b505050506040513d601f19601f82011682018060405250810190611e0291906145ec565b915073__Helpers_______________________________6305620b61600d60003373ffffffffffffffffffffffffffffffffffffffff1673ffffffffffffffffffffffffffffffffffffffff16815260200190815260200160002085604051611e6b9190614757565b908152602001604051809103902054600960003373ffffffffffffffffffffffffffffffffffffffff1673ffffffffffffffffffffffffffffffffffffffff16815260200190815260200160002086604051611ec79190614757565b9081526020016040518091039020546040518363ffffffff1660e01b8152600401611ef3929190614a78565b60206040518083038186803b158015611f0b57600080fd5b505af4158015611f1f573d6000803e3d6000fd5b505050506040513d601f19601f82011682018060405250810190611f4391906145ec565b90506000821180611faf57506000600860003373ffffffffffffffffffffffffffffffffffffffff1673ffffffffffffffffffffffffffffffffffffffff16815260200190815260200160002084604051611f9e9190614757565b908152602001604051809103902054115b80611fba5750600081115b8061202057506000600760003373ffffffffffffffffffffffffffffffffffffffff1673ffffffffffffffffffffffffffffffffffffffff1681526020019081526020016000208460405161200f9190614757565b908152602001604051809103902054115b61202957600080fd5b6000600860003373ffffffffffffffffffffffffffffffffffffffff1673ffffffffffffffffffffffffffffffffffffffff168152602001908152602001600020846040516120789190614757565b9081526020016040518091039020541461215d576000600860003373ffffffffffffffffffffffffffffffffffffffff1673ffffffffffffffffffffffffffffffffffffffff168152602001908152602001600020846040516120db9190614757565b90815260200160405180910390205490506000600860003373ffffffffffffffffffffffffffffffffffffffff1673ffffffffffffffffffffffffffffffffffffffff1681526020019081526020016000208560405161213b9190614757565b90815260200160405180910390208190555080836121599190614bb2565b9250505b6000600760003373ffffffffffffffffffffffffffffffffffffffff1673ffffffffffffffffffffffffffffffffffffffff168152602001908152602001600020846040516121ac9190614757565b90815260200160405180910390205414612291576000600760003373ffffffffffffffffffffffffffffffffffffffff1673ffffffffffffffffffffffffffffffffffffffff1681526020019081526020016000208460405161220f9190614757565b90815260200160405180910390205490506000600760003373ffffffffffffffffffffffffffffffffffffffff1673ffffffffffffffffffffffffffffffffffffffff1681526020019081526020016000208560405161226f9190614757565b908152602001604051809103902081905550808261228d9190614bb2565b9150505b42600c60003373ffffffffffffffffffffffffffffffffffffffff1673ffffffffffffffffffffffffffffffffffffffff168152602001908152602001600020846040516122df9190614757565b90815260200160405180910390208190555042600d60003373ffffffffffffffffffffffffffffffffffffffff1673ffffffffffffffffffffffffffffffffffffffff1681526020019081526020016000208460405161233f9190614757565b908152602001604051809103902081905550600260009054906101000a900473ffffffffffffffffffffffffffffffffffffffff1673ffffffffffffffffffffffffffffffffffffffff1663a9059cbb33838561239c9190614c08565b6040518363ffffffff1660e01b81526004016123b99291906147c0565b602060405180830381600087803b1580156123d357600080fd5b505af11580156123e7573d6000803e3d6000fd5b505050506040513d601f19601f8201168201806040525081019061240b9190614576565b503373ffffffffffffffffffffffffffffffffffffffff167f8cf6d000dcc6c7832ef2199002a11697bae64cac143960ef8cddbca61c3f7e0c848484600660003373ffffffffffffffffffffffffffffffffffffffff1673ffffffffffffffffffffffffffffffffffffffff168152602001908152602001600020886040516124949190614757565b908152602001604051809103902054600860003373ffffffffffffffffffffffffffffffffffffffff1673ffffffffffffffffffffffffffffffffffffffff168152602001908152602001600020896040516124f09190614757565b908152602001604051809103902054600960003373ffffffffffffffffffffffffffffffffffffffff1673ffffffffffffffffffffffffffffffffffffffff1681526020019081526020016000208a60405161254c9190614757565b908152602001604051809103902054600760003373ffffffffffffffffffffffffffffffffffffffff1673ffffffffffffffffffffffffffffffffffffffff1681526020019081526020016000208b6040516125a89190614757565b908152602001604051809103902054600260009054906101000a900473ffffffffffffffffffffffffffffffffffffffff1673ffffffffffffffffffffffffffffffffffffffff166370a08231336040518263ffffffff1660e01b8152600401612612919061476e565b60206040518083038186803b15801561262a57600080fd5b505afa15801561263e573d6000803e3d6000fd5b505050506040513d601f19601f8201168201806040525081019061266291906145ec565b600360009054906101000a900473ffffffffffffffffffffffffffffffffffffffff1673ffffffffffffffffffffffffffffffffffffffff166370a08231336040518263ffffffff1660e01b81526004016126bd919061476e565b60206040518083038186803b1580156126d557600080fd5b505afa1580156126e9573d6000803e3d6000fd5b505050506040513d601f19601f8201168201806040525081019061270d91906145ec565b600460009054906101000a900473ffffffffffffffffffffffffffffffffffffffff1673ffffffffffffffffffffffffffffffffffffffff166370a08231336040518263ffffffff1660e01b8152600401612768919061476e565b60206040518083038186803b15801561278057600080fd5b505afa158015612794573d6000803e3d6000fd5b505050506040513d601f19601f820116820180604052508101906127b891906145ec565b600560009054906101000a900473ffffffffffffffffffffffffffffffffffffffff1673ffffffffffffffffffffffffffffffffffffffff166370a08231336040518263ffffffff1660e01b8152600401612813919061476e565b60206040518083038186803b15801561282b57600080fd5b505afa15801561283f573d6000803e3d6000fd5b505050506040513d601f19601f8201168201806040525081019061286391906145ec565b60405161287a9b9a99989796959493929190614892565b60405180910390a2505050565b600960205281600052604060002081805160208101820180518482526020830160208501208183528095505050505050600091509150505481565b600d60205281600052604060002081805160208101820180518482526020830160208501208183528095505050505050600091509150505481565b600560009054906101000a900473ffffffffffffffffffffffffffffffffffffffff1681565b600360009054906101000a900473ffffffffffffffffffffffffffffffffffffffff1681565b81600960003373ffffffffffffffffffffffffffffffffffffffff1673ffffffffffffffffffffffffffffffffffffffff168152602001908152602001600020826040516129979190614757565b90815260200160405180910390205410158015612a20575060011515600b60003373ffffffffffffffffffffffffffffffffffffffff1673ffffffffffffffffffffffffffffffffffffffff16815260200190815260200160002082604051612a009190614757565b908152602001604051809103902060009054906101000a900460ff161515145b612a2957600080fd5b600073__Helpers_______________________________6305620b61600d60003373ffffffffffffffffffffffffffffffffffffffff1673ffffffffffffffffffffffffffffffffffffffff16815260200190815260200160002084604051612a929190614757565b908152602001604051809103902054600960003373ffffffffffffffffffffffffffffffffffffffff1673ffffffffffffffffffffffffffffffffffffffff16815260200190815260200160002085604051612aee9190614757565b9081526020016040518091039020546040518363ffffffff1660e01b8152600401612b1a929190614a78565b60206040518083038186803b158015612b3257600080fd5b505af4158015612b46573d6000803e3d6000fd5b505050506040513d601f19601f82011682018060405250810190612b6a91906145ec565b905042600d60003373ffffffffffffffffffffffffffffffffffffffff1673ffffffffffffffffffffffffffffffffffffffff16815260200190815260200160002083604051612bba9190614757565b90815260200160405180910390208190555060008390506000935080600960003373ffffffffffffffffffffffffffffffffffffffff1673ffffffffffffffffffffffffffffffffffffffff16815260200190815260200160002084604051612c239190614757565b90815260200160405180910390206000828254612c409190614c08565b92505081905550612c86836040518060400160405280600381526020017f6461690000000000000000000000000000000000000000000000000000000000815250614264565b15612df9576000600360009054906101000a900473ffffffffffffffffffffffffffffffffffffffff1673ffffffffffffffffffffffffffffffffffffffff166370a08231336040518263ffffffff1660e01b8152600401612ce8919061476e565b60206040518083038186803b158015612d0057600080fd5b505afa158015612d14573d6000803e3d6000fd5b505050506040513d601f19601f82011682018060405250810190612d3891906145ec565b11612d4257600080fd5b600360009054906101000a900473ffffffffffffffffffffffffffffffffffffffff1673ffffffffffffffffffffffffffffffffffffffff166323b872dd3330846040518463ffffffff1660e01b8152600401612da193929190614789565b602060405180830381600087803b158015612dbb57600080fd5b505af1158015612dcf573d6000803e3d6000fd5b505050506040513d601f19601f82011682018060405250810190612df39190614576565b50613116565b612e38836040518060400160405280600381526020017f6574680000000000000000000000000000000000000000000000000000000000815250614264565b15612fab576000600460009054906101000a900473ffffffffffffffffffffffffffffffffffffffff1673ffffffffffffffffffffffffffffffffffffffff166370a08231336040518263ffffffff1660e01b8152600401612e9a919061476e565b60206040518083038186803b158015612eb257600080fd5b505afa158015612ec6573d6000803e3d6000fd5b505050506040513d601f19601f82011682018060405250810190612eea91906145ec565b11612ef457600080fd5b600460009054906101000a900473ffffffffffffffffffffffffffffffffffffffff1673ffffffffffffffffffffffffffffffffffffffff166323b872dd3330846040518463ffffffff1660e01b8152600401612f5393929190614789565b602060405180830381600087803b158015612f6d57600080fd5b505af1158015612f81573d6000803e3d6000fd5b505050506040513d601f19601f82011682018060405250810190612fa59190614576565b50613115565b6000600560009054906101000a900473ffffffffffffffffffffffffffffffffffffffff1673ffffffffffffffffffffffffffffffffffffffff166370a08231336040518263ffffffff1660e01b8152600401613008919061476e565b60206040518083038186803b15801561302057600080fd5b505afa158015613034573d6000803e3d6000fd5b505050506040513d601f19601f8201168201806040525081019061305891906145ec565b1161306257600080fd5b600560009054906101000a900473ffffffffffffffffffffffffffffffffffffffff1673ffffffffffffffffffffffffffffffffffffffff166323b872dd3330846040518463ffffffff1660e01b81526004016130c193929190614789565b602060405180830381600087803b1580156130db57600080fd5b505af11580156130ef573d6000803e3d6000fd5b505050506040513d601f19601f820116820180604052508101906131139190614576565b505b5b81600760003373ffffffffffffffffffffffffffffffffffffffff1673ffffffffffffffffffffffffffffffffffffffff168152602001908152602001600020846040516131649190614757565b908152602001604051809103902060008282546131819190614bb2565b925050819055506000600960003373ffffffffffffffffffffffffffffffffffffffff1673ffffffffffffffffffffffffffffffffffffffff168152602001908152602001600020846040516131d79190614757565b9081526020016040518091039020541415613261576000600b60003373ffffffffffffffffffffffffffffffffffffffff1673ffffffffffffffffffffffffffffffffffffffff1681526020019081526020016000208460405161323b9190614757565b908152602001604051809103902060006101000a81548160ff0219169083151502179055505b3373ffffffffffffffffffffffffffffffffffffffff167f1ad03dcf20f4c8a179fbcdf9ba66e76e8b8e34efb8edb0e3f04d18387a0a8fca828486600960003373ffffffffffffffffffffffffffffffffffffffff1673ffffffffffffffffffffffffffffffffffffffff168152602001908152602001600020886040516132e99190614757565b908152602001604051809103902054600760003373ffffffffffffffffffffffffffffffffffffffff1673ffffffffffffffffffffffffffffffffffffffff168152602001908152602001600020896040516133459190614757565b908152602001604051809103902054600260009054906101000a900473ffffffffffffffffffffffffffffffffffffffff1673ffffffffffffffffffffffffffffffffffffffff166370a08231336040518263ffffffff1660e01b81526004016133af919061476e565b60206040518083038186803b1580156133c757600080fd5b505afa1580156133db573d6000803e3d6000fd5b505050506040513d601f19601f820116820180604052508101906133ff91906145ec565b600360009054906101000a900473ffffffffffffffffffffffffffffffffffffffff1673ffffffffffffffffffffffffffffffffffffffff166370a08231336040518263ffffffff1660e01b815260040161345a919061476e565b60206040518083038186803b15801561347257600080fd5b505afa158015613486573d6000803e3d6000fd5b505050506040513d601f19601f820116820180604052508101906134aa91906145ec565b600460009054906101000a900473ffffffffffffffffffffffffffffffffffffffff1673ffffffffffffffffffffffffffffffffffffffff166370a08231336040518263ffffffff1660e01b8152600401613505919061476e565b60206040518083038186803b15801561351d57600080fd5b505afa158015613531573d6000803e3d6000fd5b505050506040513d601f19601f8201168201806040525081019061355591906145ec565b600560009054906101000a900473ffffffffffffffffffffffffffffffffffffffff1673ffffffffffffffffffffffffffffffffffffffff166370a08231336040518263ffffffff1660e01b81526004016135b0919061476e565b60206040518083038186803b1580156135c857600080fd5b505afa1580156135dc573d6000803e3d6000fd5b505050506040513d601f19601f8201168201806040525081019061360091906145ec565b60405161361599989796959493929190614aa1565b60405180910390a250505050565b600a602052816000526040600020818051602081018201805184825260208301602085012081835280955050505050506000915091509054906101000a900460ff1681565b600b602052816000526040600020818051602081018201805184825260208301602085012081835280955050505050506000915091509054906101000a900460ff1681565b600c60205281600052604060002081805160208101820180518482526020830160208501208183528095505050505050600091509150505481565b81600660003373ffffffffffffffffffffffffffffffffffffffff1673ffffffffffffffffffffffffffffffffffffffff168152602001908152602001600020826040516137369190614757565b908152602001604051809103902054101580156137bf575060011515600a60003373ffffffffffffffffffffffffffffffffffffffff1673ffffffffffffffffffffffffffffffffffffffff1681526020019081526020016000208260405161379f9190614757565b908152602001604051809103902060009054906101000a900460ff161515145b801561388c575081600660003373ffffffffffffffffffffffffffffffffffffffff1673ffffffffffffffffffffffffffffffffffffffff168152602001908152602001600020826040516138149190614757565b90815260200160405180910390205461382d9190614c08565b600960003373ffffffffffffffffffffffffffffffffffffffff1673ffffffffffffffffffffffffffffffffffffffff1681526020019081526020016000208260405161387a9190614757565b90815260200160405180910390205411155b61389557600080fd5b600073__Helpers_______________________________63ad9abb52600c60003373ffffffffffffffffffffffffffffffffffffffff1673ffffffffffffffffffffffffffffffffffffffff168152602001908152602001600020846040516138fe9190614757565b908152602001604051809103902054600660003373ffffffffffffffffffffffffffffffffffffffff1673ffffffffffffffffffffffffffffffffffffffff1681526020019081526020016000208560405161395a9190614757565b9081526020016040518091039020546040518363ffffffff1660e01b8152600401613986929190614a78565b60206040518083038186803b15801561399e57600080fd5b505af41580156139b2573d6000803e3d6000fd5b505050506040513d601f19601f820116820180604052508101906139d691906145ec565b905080600860003373ffffffffffffffffffffffffffffffffffffffff1673ffffffffffffffffffffffffffffffffffffffff16815260200190815260200160002083604051613a269190614757565b90815260200160405180910390206000828254613a439190614bb2565b9250508190555042600c60003373ffffffffffffffffffffffffffffffffffffffff1673ffffffffffffffffffffffffffffffffffffffff16815260200190815260200160002083604051613a989190614757565b90815260200160405180910390208190555060008390506000935080600660003373ffffffffffffffffffffffffffffffffffffffff1673ffffffffffffffffffffffffffffffffffffffff16815260200190815260200160002084604051613b019190614757565b90815260200160405180910390206000828254613b1e9190614c08565b92505081905550613b64836040518060400160405280600381526020017f6461690000000000000000000000000000000000000000000000000000000000815250614264565b15613c1e57600360009054906101000a900473ffffffffffffffffffffffffffffffffffffffff1673ffffffffffffffffffffffffffffffffffffffff1663a9059cbb33836040518363ffffffff1660e01b8152600401613bc69291906147c0565b602060405180830381600087803b158015613be057600080fd5b505af1158015613bf4573d6000803e3d6000fd5b505050506040513d601f19601f82011682018060405250810190613c189190614576565b50613dc9565b613c5d836040518060400160405280600381526020017f6574680000000000000000000000000000000000000000000000000000000000815250614264565b15613d1757600460009054906101000a900473ffffffffffffffffffffffffffffffffffffffff1673ffffffffffffffffffffffffffffffffffffffff1663a9059cbb33836040518363ffffffff1660e01b8152600401613cbf9291906147c0565b602060405180830381600087803b158015613cd957600080fd5b505af1158015613ced573d6000803e3d6000fd5b505050506040513d601f19601f82011682018060405250810190613d119190614576565b50613dc8565b600560009054906101000a900473ffffffffffffffffffffffffffffffffffffffff1673ffffffffffffffffffffffffffffffffffffffff1663a9059cbb33836040518363ffffffff1660e01b8152600401613d749291906147c0565b602060405180830381600087803b158015613d8e57600080fd5b505af1158015613da2573d6000803e3d6000fd5b505050506040513d601f19601f82011682018060405250810190613dc69190614576565b505b5b6000600660003373ffffffffffffffffffffffffffffffffffffffff1673ffffffffffffffffffffffffffffffffffffffff16815260200190815260200160002084604051613e189190614757565b9081526020016040518091039020541415613ea2576000600a60003373ffffffffffffffffffffffffffffffffffffffff1673ffffffffffffffffffffffffffffffffffffffff16815260200190815260200160002084604051613e7c9190614757565b908152602001604051809103902060006101000a81548160ff0219169083151502179055505b3373ffffffffffffffffffffffffffffffffffffffff167f4249536aaa3c6ec39a4d2699cb972539051cc55f516382b2a7f36dc7bc57ffec828486600660003373ffffffffffffffffffffffffffffffffffffffff1673ffffffffffffffffffffffffffffffffffffffff16815260200190815260200160002088604051613f2a9190614757565b908152602001604051809103902054600860003373ffffffffffffffffffffffffffffffffffffffff1673ffffffffffffffffffffffffffffffffffffffff16815260200190815260200160002089604051613f869190614757565b908152602001604051809103902054600260009054906101000a900473ffffffffffffffffffffffffffffffffffffffff1673ffffffffffffffffffffffffffffffffffffffff166370a08231336040518263ffffffff1660e01b8152600401613ff0919061476e565b60206040518083038186803b15801561400857600080fd5b505afa15801561401c573d6000803e3d6000fd5b505050506040513d601f19601f8201168201806040525081019061404091906145ec565b600360009054906101000a900473ffffffffffffffffffffffffffffffffffffffff1673ffffffffffffffffffffffffffffffffffffffff166370a08231336040518263ffffffff1660e01b815260040161409b919061476e565b60206040518083038186803b1580156140b357600080fd5b505afa1580156140c7573d6000803e3d6000fd5b505050506040513d601f19601f820116820180604052508101906140eb91906145ec565b600460009054906101000a900473ffffffffffffffffffffffffffffffffffffffff1673ffffffffffffffffffffffffffffffffffffffff166370a08231336040518263ffffffff1660e01b8152600401614146919061476e565b60206040518083038186803b15801561415e57600080fd5b505afa158015614172573d6000803e3d6000fd5b505050506040513d601f19601f8201168201806040525081019061419691906145ec565b600560009054906101000a900473ffffffffffffffffffffffffffffffffffffffff1673ffffffffffffffffffffffffffffffffffffffff166370a08231336040518263ffffffff1660e01b81526004016141f1919061476e565b60206040518083038186803b15801561420957600080fd5b505afa15801561421d573d6000803e3d6000fd5b505050506040513d601f19601f8201168201806040525081019061424191906145ec565b60405161425699989796959493929190614aa1565b60405180910390a250505050565b600080614271848461427a565b14905092915050565b6000808390506000839050600082519050808251101561429957815190505b60005b818110156143fc578281815181106142b7576142b6614e60565b5b602001015160f81c60f81b7effffffffffffffffffffffffffffffffffffffffffffffffffffffffffffff19168482815181106142f7576142f6614e60565b5b602001015160f81c60f81b7effffffffffffffffffffffffffffffffffffffffffffffffffffffffffffff19161015614356577fffffffffffffffffffffffffffffffffffffffffffffffffffffffffffffffff945050505050614450565b82818151811061436957614368614e60565b5b602001015160f81c60f81b7effffffffffffffffffffffffffffffffffffffffffffffffffffffffffffff19168482815181106143a9576143a8614e60565b5b602001015160f81c60f81b7effffffffffffffffffffffffffffffffffffffffffffffffffffffffffffff191611156143e9576001945050505050614450565b80806143f490614db9565b91505061429c565b50815183511015614432577fffffffffffffffffffffffffffffffffffffffffffffffffffffffffffffffff9350505050614450565b8151835111156144485760019350505050614450565b600093505050505b92915050565b600061446961446484614b5a565b614b35565b90508281526020810184848401111561448557614484614ec3565b5b614490848285614d14565b509392505050565b6000813590506144a781614ee3565b92915050565b6000815190506144bc81614efa565b92915050565b600082601f8301126144d7576144d6614ebe565b5b81356144e7848260208601614456565b91505092915050565b6000813590506144ff81614f11565b92915050565b60008151905061451481614f11565b92915050565b6000806040838503121561453157614530614ecd565b5b600061453f85828601614498565b925050602083013567ffffffffffffffff8111156145605761455f614ec8565b5b61456c858286016144c2565b9150509250929050565b60006020828403121561458c5761458b614ecd565b5b600061459a848285016144ad565b91505092915050565b6000602082840312156145b9576145b8614ecd565b5b600082013567ffffffffffffffff8111156145d7576145d6614ec8565b5b6145e3848285016144c2565b91505092915050565b60006020828403121561460257614601614ecd565b5b600061461084828501614505565b91505092915050565b600080604083850312156146305761462f614ecd565b5b600061463e858286016144f0565b925050602083013567ffffffffffffffff81111561465f5761465e614ec8565b5b61466b858286016144c2565b9150509250929050565b61467e81614c3c565b82525050565b61468d81614c4e565b82525050565b61469c81614c84565b82525050565b6146ab81614ca8565b82525050565b6146ba81614ccc565b82525050565b6146c981614cf0565b82525050565b60006146da82614b8b565b6146e48185614b96565b93506146f4818560208601614d23565b6146fd81614ed2565b840191505092915050565b600061471382614b8b565b61471d8185614ba7565b935061472d818560208601614d23565b80840191505092915050565b61474281614c7a565b82525050565b61475181614c7a565b82525050565b60006147638284614708565b915081905092915050565b60006020820190506147836000830184614675565b92915050565b600060608201905061479e6000830186614675565b6147ab6020830185614675565b6147b86040830184614739565b949350505050565b60006040820190506147d56000830185614675565b6147e26020830184614739565b9392505050565b60006020820190506147fe6000830184614684565b92915050565b60006020820190506148196000830184614693565b92915050565b600060208201905061483460008301846146a2565b92915050565b600060208201905061484f60008301846146b1565b92915050565b600060208201905061486a60008301846146c0565b92915050565b6000602082019050818103600083015261488a81846146cf565b905092915050565b60006101608201905081810360008301526148ad818e6146cf565b90506148bc602083018d614739565b6148c9604083018c614739565b6148d6606083018b614739565b6148e3608083018a614739565b6148f060a0830189614739565b6148fd60c0830188614739565b61490a60e0830187614739565b614918610100830186614739565b614926610120830185614739565b614934610140830184614739565b9c9b505050505050505050505050565b60006020820190506149596000830184614739565b92915050565b600061010082019050614975600083018b614739565b8181036020830152614987818a6146cf565b90506149966040830189614739565b6149a36060830188614739565b6149b06080830187614739565b6149bd60a0830186614739565b6149ca60c0830185614739565b6149d760e0830184614739565b9998505050505050505050565b6000610120820190506149fa600083018c614739565b8181036020830152614a0c818b6146cf565b9050614a1b604083018a614739565b614a286060830189614739565b614a356080830188614739565b614a4260a0830187614739565b614a4f60c0830186614739565b614a5c60e0830185614739565b614a6a610100830184614739565b9a9950505050505050505050565b6000604082019050614a8d6000830185614748565b614a9a6020830184614748565b9392505050565b600061012082019050614ab7600083018c614739565b614ac4602083018b614739565b8181036040830152614ad6818a6146cf565b9050614ae56060830189614739565b614af26080830188614739565b614aff60a0830187614739565b614b0c60c0830186614739565b614b1960e0830185614739565b614b27610100830184614739565b9a9950505050505050505050565b6000614b3f614b50565b9050614b4b8282614d88565b919050565b6000604051905090565b600067ffffffffffffffff821115614b7557614b74614e8f565b5b614b7e82614ed2565b9050602081019050919050565b600081519050919050565b600082825260208201905092915050565b600081905092915050565b6000614bbd82614c7a565b9150614bc883614c7a565b9250827fffffffffffffffffffffffffffffffffffffffffffffffffffffffffffffffff03821115614bfd57614bfc614e02565b5b828201905092915050565b6000614c1382614c7a565b9150614c1e83614c7a565b925082821015614c3157614c30614e02565b5b828203905092915050565b6000614c4782614c5a565b9050919050565b60008115159050919050565b600073ffffffffffffffffffffffffffffffffffffffff82169050919050565b6000819050919050565b6000614c8f82614c96565b9050919050565b6000614ca182614c5a565b9050919050565b6000614cb382614cba565b9050919050565b6000614cc582614c5a565b9050919050565b6000614cd782614cde565b9050919050565b6000614ce982614c5a565b9050919050565b6000614cfb82614d02565b9050919050565b6000614d0d82614c5a565b9050919050565b82818337600083830152505050565b60005b83811015614d41578082015181840152602081019050614d26565b83811115614d50576000848401525b50505050565b60006002820490506001821680614d6e57607f821691505b60208210811415614d8257614d81614e31565b5b50919050565b614d9182614ed2565b810181811067ffffffffffffffff82111715614db057614daf614e8f565b5b80604052505050565b6000614dc482614c7a565b91507fffffffffffffffffffffffffffffffffffffffffffffffffffffffffffffffff821415614df757614df6614e02565b5b600182019050919050565b7f4e487b7100000000000000000000000000000000000000000000000000000000600052601160045260246000fd5b7f4e487b7100000000000000000000000000000000000000000000000000000000600052602260045260246000fd5b7f4e487b7100000000000000000000000000000000000000000000000000000000600052603260045260246000fd5b7f4e487b7100000000000000000000000000000000000000000000000000000000600052604160045260246000fd5b600080fd5b600080fd5b600080fd5b600080fd5b6000601f19601f8301169050919050565b614eec81614c3c565b8114614ef757600080fd5b50565b614f0381614c4e565b8114614f0e57600080fd5b50565b614f1a81614c7a565b8114614f2557600080fd5b5056fea264697066735822122047803e3fd04128ac6e071e0070c780d5930cdaf3017ee08e48def247f42d9b4e64736f6c63430008060033",
  "immutableReferences": {},
  "source": "//\"SPDX-License-Identifier: UNLICENSED\"\npragma solidity ^0.8.6;\n\nimport \"./DaiToken.sol\";\nimport \"./EthToken.sol\";\nimport \"./UsdtToken.sol\";\nimport \"./TegToken.sol\";\n\nimport \"./stringUtils.sol\";\nimport \"./Helpers.sol\";\n\ncontract TokenFarm {\n    string public name = \"Tegridy Token Farm\";\n\n    address public owner;\n    TegToken public tegToken;\n    DaiToken public daiToken;\n    EthToken public ethToken;\n    UsdtToken public usdtToken;\n\n    mapping(address => mapping(string => uint256)) public stakingBalance;\n    mapping(address => mapping(string => uint256)) public lossBalance;\n    mapping(address => mapping(string => uint256)) public earnedBalance;\n    mapping(address => mapping(string => uint256)) public borrowedBalance;\n    mapping(address => mapping(string => bool)) public isStaking;\n    mapping(address => mapping(string => bool)) public isBorrowing;\n    mapping(address => mapping(string => uint256)) public earnedTime;\n    mapping(address => mapping(string => uint256)) public borrowedTime;\n\n    event Stake(\n        address indexed from,\n        uint256 amount,\n        string tok,\n        uint256 stakingBal,\n        uint256 intBal,\n        uint256 intTime,\n        uint256 tegBal,\n        uint256 daiBal,\n        uint256 ethBal,\n        uint256 usdtBal\n    );\n    event Unstake(\n        address indexed from,\n        uint256 unstakeAmount,\n        uint256 yieldAmount,\n        string tok,\n        uint256 stakingBal,\n        uint256 intBal,\n        uint256 tegBal,\n        uint256 daiBal,\n        uint256 ethBal,\n        uint256 usdtBal\n    );\n\n    event Borrow(\n        address indexed from,\n        uint256 amount,\n        string tok,\n        uint256 borrowBal,\n        uint256 lossBal,\n        uint256 tegBal,\n        uint256 daiBal,\n        uint256 ethBal,\n        uint256 usdtBal\n    );\n\n    event Repay(\n        address indexed from,\n        uint256 repayAmount,\n        uint256 yieldAmount,\n        string tok,\n        uint256 borrowBal,\n        uint256 lossBal,\n        uint256 tegBal,\n        uint256 daiBal,\n        uint256 ethBal,\n        uint256 usdtBal\n    );\n\n    event YieldWithdraw(\n        address indexed to,\n        string tok,\n        uint256 amountEarned,\n        uint256 amountLost,\n        uint256 stakingBal,\n        uint256 intBal,\n        uint256 borrowBal,\n        uint256 lossBal,\n        uint256 tegBal,\n        uint256 daiBal,\n        uint256 ethBal,\n        uint256 usdtBal\n    );\n\n    constructor(\n        TegToken _tegToken,\n        DaiToken _daiToken,\n        EthToken _ethToken,\n        UsdtToken _usdtToken\n    ) {\n        tegToken = _tegToken;\n        daiToken = _daiToken;\n        ethToken = _ethToken;\n        usdtToken = _usdtToken;\n        owner = msg.sender;\n    }\n\n    //1. Stake Tokens (deposit)\n    function stakeTokens(uint256 _amount, string memory _tok) public {\n        //Amount staked cannot be smaller than 0\n        require(_amount > 0);\n\n        if (isStaking[msg.sender][_tok] == true) {\n            uint256 toTransfer = Helpers.calculateEarningYield(\n                earnedTime[msg.sender][_tok],\n                stakingBalance[msg.sender][_tok]\n            );\n            \n            earnedBalance[msg.sender][_tok] += toTransfer;\n        }\n        // Transfer to contract for staking\n        if (StringUtils.equal(_tok, \"dai\")) {\n            require(daiToken.balanceOf(msg.sender) > 0);\n            daiToken.transferFrom(msg.sender, address(this), _amount);\n        } else if (StringUtils.equal(_tok, \"eth\")) {\n            require(ethToken.balanceOf(msg.sender) > 0);\n            ethToken.transferFrom(msg.sender, address(this), _amount);\n        } else {\n            require(usdtToken.balanceOf(msg.sender) > 0);\n            usdtToken.transferFrom(msg.sender, address(this), _amount);\n        }\n\n        //update start time\n        earnedTime[msg.sender][_tok] = block.timestamp;\n        //update staking balance\n        stakingBalance[msg.sender][_tok] += _amount;\n        //update staking status\n        isStaking[msg.sender][_tok] = true;\n        emit Stake(\n            msg.sender,\n            _amount,\n            _tok,\n            stakingBalance[msg.sender][_tok],\n            earnedBalance[msg.sender][_tok],\n            earnedTime[msg.sender][_tok],\n            tegToken.balanceOf(msg.sender),\n            daiToken.balanceOf(msg.sender),\n            ethToken.balanceOf(msg.sender),\n            usdtToken.balanceOf(msg.sender)\n        );\n    }\n\n    //2. Unstaking Tokens (withdraw)\n    function unstakeTokens(uint256 _amount, string memory _tok) public {\n        //require amount > 0\n        require(\n            stakingBalance[msg.sender][_tok] >= _amount &&\n                isStaking[msg.sender][_tok] == true &&\n                borrowedBalance[msg.sender][_tok] <=\n                (stakingBalance[msg.sender][_tok] - _amount)\n        );\n\n        uint256 yieldTransfer = Helpers.calculateEarningYield(\n            earnedTime[msg.sender][_tok],\n            stakingBalance[msg.sender][_tok]\n        );\n\n        earnedBalance[msg.sender][_tok] += yieldTransfer;\n        earnedTime[msg.sender][_tok] = block.timestamp;\n        uint256 balanceTransfer = _amount;\n        _amount = 0;\n        //decrease staking balance by amount\n        stakingBalance[msg.sender][_tok] -= balanceTransfer;\n        //unstake dai tokens from farm to investor\n        // Transfer to contract for staking\n        if (StringUtils.equal(_tok, \"dai\")) {\n            daiToken.transfer(msg.sender, balanceTransfer);\n        } else if (StringUtils.equal(_tok, \"eth\")) {\n            ethToken.transfer(msg.sender, balanceTransfer);\n        } else {\n            usdtToken.transfer(msg.sender, balanceTransfer);\n        }\n\n        // is he still staking?\n        //update staking status\n        if (stakingBalance[msg.sender][_tok] == 0) {\n            isStaking[msg.sender][_tok] = false;\n        }\n        emit Unstake(\n            msg.sender,\n            balanceTransfer,\n            yieldTransfer,\n            _tok,\n            stakingBalance[msg.sender][_tok],\n            earnedBalance[msg.sender][_tok],\n            tegToken.balanceOf(msg.sender),\n            daiToken.balanceOf(msg.sender),\n            ethToken.balanceOf(msg.sender),\n            usdtToken.balanceOf(msg.sender)\n        );\n    }\n\n    //3. Borrow Tokens\n    function borrowTokens(uint256 _amount, string memory _tok) public {\n        //Amount staked cannot be smaller than 0,\n        //Borrower should be staking\n        //His staking balance should always be larger than borrowed amount (overcollateralized)\n        //Balance of TEG tokens should not be 0 or lower\n        require(\n            _amount > 0 &&\n                isStaking[msg.sender][_tok] == true &&\n                stakingBalance[msg.sender][_tok] >= _amount\n        );\n\n        if (isBorrowing[msg.sender][_tok] == true) {\n            uint256 toTransfer = Helpers.calculateLossYield(\n                borrowedTime[msg.sender][_tok],\n                borrowedBalance[msg.sender][_tok]\n            );\n            lossBalance[msg.sender][_tok] += toTransfer;\n        }\n        // Transfer Mock Dai to borrower\n        // daiToken.approve(address(this), _amount);\n        if (StringUtils.equal(_tok, \"dai\")) {\n            daiToken.transfer(msg.sender, _amount);\n        } else if (StringUtils.equal(_tok, \"eth\")) {\n            ethToken.transfer(msg.sender, _amount);\n        } else {\n            usdtToken.transfer(msg.sender, _amount);\n        }\n        //update start time\n        borrowedTime[msg.sender][_tok] = block.timestamp;\n        //update borrowed balance\n        borrowedBalance[msg.sender][_tok] += _amount;\n        //update borrowing status\n        isBorrowing[msg.sender][_tok] = true;\n        emit Borrow(\n            msg.sender,\n            _amount,\n            _tok,\n            borrowedBalance[msg.sender][_tok],\n            lossBalance[msg.sender][_tok],\n            tegToken.balanceOf(msg.sender),\n            daiToken.balanceOf(msg.sender),\n            ethToken.balanceOf(msg.sender),\n            usdtToken.balanceOf(msg.sender)\n        );\n    }\n\n    //4. Repay Tokens\n    function repayTokens(uint256 _amount, string memory _tok) public {\n        require(\n            borrowedBalance[msg.sender][_tok] >= _amount &&\n                isBorrowing[msg.sender][_tok] == true\n        );\n\n        uint256 yieldTransfer = Helpers.calculateLossYield(\n            borrowedTime[msg.sender][_tok],\n            borrowedBalance[msg.sender][_tok]\n        );\n\n        borrowedTime[msg.sender][_tok] = block.timestamp;\n        uint256 balanceTransfer = _amount;\n        _amount = 0;\n        //decrease borrowed balance by amount\n        borrowedBalance[msg.sender][_tok] -= balanceTransfer;\n        //repay dai tokens to farm\n        if (StringUtils.equal(_tok, \"dai\")) {\n            require(daiToken.balanceOf(msg.sender) > 0);\n            daiToken.transferFrom(msg.sender, address(this), balanceTransfer);\n        } else if (StringUtils.equal(_tok, \"eth\")) {\n            require(ethToken.balanceOf(msg.sender) > 0);\n            ethToken.transferFrom(msg.sender, address(this), balanceTransfer);\n        } else {\n            require(usdtToken.balanceOf(msg.sender) > 0);\n            usdtToken.transferFrom(msg.sender, address(this), balanceTransfer);\n        }\n\n        lossBalance[msg.sender][_tok] += yieldTransfer;\n        // is he still staking?\n        //update staking status\n        if (borrowedBalance[msg.sender][_tok] == 0) {\n            isBorrowing[msg.sender][_tok] = false;\n        }\n        emit Repay(\n            msg.sender,\n            balanceTransfer,\n            yieldTransfer,\n            _tok,\n            borrowedBalance[msg.sender][_tok],\n            lossBalance[msg.sender][_tok],\n            tegToken.balanceOf(msg.sender),\n            daiToken.balanceOf(msg.sender),\n            ethToken.balanceOf(msg.sender),\n            usdtToken.balanceOf(msg.sender)\n        );\n    }\n\n    //5. withdraw earned yield\n    function withdrawYield(string memory _tok) public {\n        uint256 toTransferEarned;\n        uint256 toTransferLost;\n\n        toTransferEarned = Helpers.calculateEarningYield(\n            earnedTime[msg.sender][_tok],\n            earnedBalance[msg.sender][_tok]\n        );\n        toTransferLost = Helpers.calculateLossYield(\n            borrowedTime[msg.sender][_tok],\n            borrowedBalance[msg.sender][_tok]\n        );\n\n        require(\n            toTransferEarned > 0 ||\n                earnedBalance[msg.sender][_tok] > 0 ||\n                toTransferLost > 0 ||\n                lossBalance[msg.sender][_tok] > 0\n        );\n\n        if (earnedBalance[msg.sender][_tok] != 0) {\n            uint256 oldBalanceEarned = earnedBalance[msg.sender][_tok];\n            earnedBalance[msg.sender][_tok] = 0;\n            toTransferEarned += oldBalanceEarned;\n        }\n\n        if (lossBalance[msg.sender][_tok] != 0) {\n            uint256 oldBalanceLost = lossBalance[msg.sender][_tok];\n            lossBalance[msg.sender][_tok] = 0;\n            toTransferLost += oldBalanceLost;\n        }\n\n        earnedTime[msg.sender][_tok] = block.timestamp;\n        borrowedTime[msg.sender][_tok] = block.timestamp;\n\n        tegToken.transfer(msg.sender, toTransferEarned - toTransferLost);\n        emit YieldWithdraw(\n            msg.sender,\n            _tok,\n            toTransferEarned,\n            toTransferLost,\n            stakingBalance[msg.sender][_tok],\n            earnedBalance[msg.sender][_tok],\n            borrowedBalance[msg.sender][_tok],\n            lossBalance[msg.sender][_tok],\n            tegToken.balanceOf(msg.sender),\n            daiToken.balanceOf(msg.sender),\n            ethToken.balanceOf(msg.sender),\n            usdtToken.balanceOf(msg.sender)\n        );\n    }\n}\n",
  "sourcePath": "/home/frankperler/Development/Codeworks/projects/blockchain/tegridyfarm/client/src/contracts/TokenFarm.sol",
  "compiler": {
    "name": "solc",
    "version": "0.8.6+commit.11564f7e.Emscripten.clang"
  },
  "schemaVersion": "3.4.2",
  "updatedAt": "2021-08-01T06:44:10.892Z",
  "networkType": "ethereum",
  "devdoc": {
    "kind": "dev",
    "methods": {},
    "version": 1
  },
  "userdoc": {
    "kind": "user",
    "methods": {},
    "version": 1
  }
}