{
  "contractName": "TokenFarm",
  "abi": [
    {
      "inputs": [
        {
          "internalType": "contract TegToken",
          "name": "_tegToken",
          "type": "address"
        },
        {
          "internalType": "contract DaiToken",
          "name": "_daiToken",
          "type": "address"
        }
      ],
      "stateMutability": "nonpayable",
      "type": "constructor"
    },
    {
      "anonymous": false,
      "inputs": [
        {
          "indexed": true,
          "internalType": "address",
          "name": "from",
          "type": "address"
        },
        {
          "indexed": false,
          "internalType": "uint256",
          "name": "amount",
          "type": "uint256"
        },
        {
          "indexed": false,
          "internalType": "uint256",
          "name": "stakingBal",
          "type": "uint256"
        },
        {
          "indexed": false,
          "internalType": "uint256",
          "name": "intBal",
          "type": "uint256"
        },
        {
          "indexed": false,
          "internalType": "uint256",
          "name": "tegBal",
          "type": "uint256"
        },
        {
          "indexed": false,
          "internalType": "uint256",
          "name": "daiBal",
          "type": "uint256"
        }
      ],
      "name": "Stake",
      "type": "event"
    },
    {
      "anonymous": false,
      "inputs": [
        {
          "indexed": true,
          "internalType": "address",
          "name": "from",
          "type": "address"
        },
        {
          "indexed": false,
          "internalType": "uint256",
          "name": "amount",
          "type": "uint256"
        },
        {
          "indexed": false,
          "internalType": "uint256",
          "name": "stakingBal",
          "type": "uint256"
        },
        {
          "indexed": false,
          "internalType": "uint256",
          "name": "intBal",
          "type": "uint256"
        },
        {
          "indexed": false,
          "internalType": "uint256",
          "name": "tegBal",
          "type": "uint256"
        },
        {
          "indexed": false,
          "internalType": "uint256",
          "name": "daiBal",
          "type": "uint256"
        }
      ],
      "name": "Unstake",
      "type": "event"
    },
    {
      "anonymous": false,
      "inputs": [
        {
          "indexed": true,
          "internalType": "address",
          "name": "to",
          "type": "address"
        },
        {
          "indexed": false,
          "internalType": "uint256",
          "name": "amount",
          "type": "uint256"
        },
        {
          "indexed": false,
          "internalType": "uint256",
          "name": "stakingBal",
          "type": "uint256"
        },
        {
          "indexed": false,
          "internalType": "uint256",
          "name": "intBal",
          "type": "uint256"
        },
        {
          "indexed": false,
          "internalType": "uint256",
          "name": "tegBal",
          "type": "uint256"
        },
        {
          "indexed": false,
          "internalType": "uint256",
          "name": "daiBal",
          "type": "uint256"
        }
      ],
      "name": "YieldWithdraw",
      "type": "event"
    },
    {
      "inputs": [],
      "name": "daiToken",
      "outputs": [
        {
          "internalType": "contract DaiToken",
          "name": "",
          "type": "address"
        }
      ],
      "stateMutability": "view",
      "type": "function",
      "constant": true
    },
    {
      "inputs": [
        {
          "internalType": "address",
          "name": "",
          "type": "address"
        }
      ],
      "name": "hasStaked",
      "outputs": [
        {
          "internalType": "bool",
          "name": "",
          "type": "bool"
        }
      ],
      "stateMutability": "view",
      "type": "function",
      "constant": true
    },
    {
      "inputs": [
        {
          "internalType": "address",
          "name": "",
          "type": "address"
        }
      ],
      "name": "isStaking",
      "outputs": [
        {
          "internalType": "bool",
          "name": "",
          "type": "bool"
        }
      ],
      "stateMutability": "view",
      "type": "function",
      "constant": true
    },
    {
      "inputs": [],
      "name": "name",
      "outputs": [
        {
          "internalType": "string",
          "name": "",
          "type": "string"
        }
      ],
      "stateMutability": "view",
      "type": "function",
      "constant": true
    },
    {
      "inputs": [],
      "name": "owner",
      "outputs": [
        {
          "internalType": "address",
          "name": "",
          "type": "address"
        }
      ],
      "stateMutability": "view",
      "type": "function",
      "constant": true
    },
    {
      "inputs": [
        {
          "internalType": "uint256",
          "name": "",
          "type": "uint256"
        }
      ],
      "name": "stakers",
      "outputs": [
        {
          "internalType": "address",
          "name": "",
          "type": "address"
        }
      ],
      "stateMutability": "view",
      "type": "function",
      "constant": true
    },
    {
      "inputs": [
        {
          "internalType": "address",
          "name": "",
          "type": "address"
        }
      ],
      "name": "stakingBalance",
      "outputs": [
        {
          "internalType": "uint256",
          "name": "",
          "type": "uint256"
        }
      ],
      "stateMutability": "view",
      "type": "function",
      "constant": true
    },
    {
      "inputs": [
        {
          "internalType": "address",
          "name": "",
          "type": "address"
        }
      ],
      "name": "startTime",
      "outputs": [
        {
          "internalType": "uint256",
          "name": "",
          "type": "uint256"
        }
      ],
      "stateMutability": "view",
      "type": "function",
      "constant": true
    },
    {
      "inputs": [
        {
          "internalType": "address",
          "name": "",
          "type": "address"
        }
      ],
      "name": "tegBalance",
      "outputs": [
        {
          "internalType": "uint256",
          "name": "",
          "type": "uint256"
        }
      ],
      "stateMutability": "view",
      "type": "function",
      "constant": true
    },
    {
      "inputs": [],
      "name": "tegToken",
      "outputs": [
        {
          "internalType": "contract TegToken",
          "name": "",
          "type": "address"
        }
      ],
      "stateMutability": "view",
      "type": "function",
      "constant": true
    },
    {
      "inputs": [
        {
          "internalType": "uint256",
          "name": "_amount",
          "type": "uint256"
        }
      ],
      "name": "stakeTokens",
      "outputs": [
        {
          "internalType": "uint256",
          "name": "balance",
          "type": "uint256"
        }
      ],
      "stateMutability": "nonpayable",
      "type": "function"
    },
    {
      "inputs": [
        {
          "internalType": "uint256",
          "name": "_amount",
          "type": "uint256"
        }
      ],
      "name": "unstakeTokens",
      "outputs": [
        {
          "internalType": "uint256",
          "name": "balance",
          "type": "uint256"
        }
      ],
      "stateMutability": "nonpayable",
      "type": "function"
    },
    {
      "inputs": [],
      "name": "withdrawYield",
      "outputs": [],
      "stateMutability": "nonpayable",
      "type": "function"
    },
    {
      "inputs": [
        {
          "internalType": "address",
          "name": "user",
          "type": "address"
        }
      ],
      "name": "calculateYieldTime",
      "outputs": [
        {
          "internalType": "uint256",
          "name": "",
          "type": "uint256"
        }
      ],
      "stateMutability": "view",
      "type": "function",
      "constant": true
    },
    {
      "inputs": [
        {
          "internalType": "address",
          "name": "user",
          "type": "address"
        }
      ],
      "name": "calculateYieldTotal",
      "outputs": [
        {
          "internalType": "uint256",
          "name": "",
          "type": "uint256"
        }
      ],
      "stateMutability": "view",
      "type": "function",
      "constant": true
    }
  ],
  "bytecode": "0x60806040526040518060400160405280601281526020017f5465677269647920546f6b656e204661726d0000000000000000000000000000815250600090805190602001906200005192919062000150565b503480156200005f57600080fd5b50604051620022573803806200225783398181016040528101906200008591906200022e565b81600260006101000a81548173ffffffffffffffffffffffffffffffffffffffff021916908373ffffffffffffffffffffffffffffffffffffffff16021790555080600360006101000a81548173ffffffffffffffffffffffffffffffffffffffff021916908373ffffffffffffffffffffffffffffffffffffffff16021790555033600160006101000a81548173ffffffffffffffffffffffffffffffffffffffff021916908373ffffffffffffffffffffffffffffffffffffffff16021790555050506200036f565b8280546200015e90620002d1565b90600052602060002090601f016020900481019282620001825760008555620001ce565b82601f106200019d57805160ff1916838001178555620001ce565b82800160010185558215620001ce579182015b82811115620001cd578251825591602001919060010190620001b0565b5b509050620001dd9190620001e1565b5090565b5b80821115620001fc576000816000905550600101620001e2565b5090565b60008151905062000211816200033b565b92915050565b600081519050620002288162000355565b92915050565b6000806040838503121562000248576200024762000336565b5b6000620002588582860162000217565b92505060206200026b8582860162000200565b9150509250929050565b60006200028282620002b1565b9050919050565b6000620002968262000275565b9050919050565b6000620002aa8262000275565b9050919050565b600073ffffffffffffffffffffffffffffffffffffffff82169050919050565b60006002820490506001821680620002ea57607f821691505b6020821081141562000301576200030062000307565b5b50919050565b7f4e487b7100000000000000000000000000000000000000000000000000000000600052602260045260246000fd5b600080fd5b620003468162000289565b81146200035257600080fd5b50565b62000360816200029d565b81146200036c57600080fd5b50565b611ed8806200037f6000396000f3fe608060405234801561001057600080fd5b50600436106100f55760003560e01c80637547c7a311610097578063c93c8f3411610066578063c93c8f34146102c2578063c95715b0146102f2578063e507a8a414610322578063fd5e6dd11461032c576100f5565b80637547c7a3146102265780638da5cb5b14610256578063980d611614610274578063be22f546146102a4576100f5565b80635400a834116100d35780635400a83414610178578063608e4dd0146101965780636e1dc66e146101c65780636f49712b146101f6576100f5565b806306872661146100fa57806306fdde031461012a57806345bc78ab14610148575b600080fd5b610114600480360381019061010f9190611796565b61035c565b6040516101219190611a85565b60405180910390f35b610132610403565b60405161013f9190611a03565b60405180910390f35b610162600480360381019061015d9190611796565b610491565b60405161016f9190611a85565b60405180910390f35b6101806104a9565b60405161018d91906119e8565b60405180910390f35b6101b060048036038101906101ab91906117f0565b6104cf565b6040516101bd9190611a85565b60405180910390f35b6101e060048036038101906101db9190611796565b610a77565b6040516101ed9190611a85565b60405180910390f35b610210600480360381019061020b9190611796565b610a8f565b60405161021d91906119b2565b60405180910390f35b610240600480360381019061023b91906117f0565b610aaf565b60405161024d9190611a85565b60405180910390f35b61025e611187565b60405161026b9190611937565b60405180910390f35b61028e60048036038101906102899190611796565b6111ad565b60405161029b9190611a85565b60405180910390f35b6102ac61120c565b6040516102b991906119cd565b60405180910390f35b6102dc60048036038101906102d79190611796565b611232565b6040516102e991906119b2565b60405180910390f35b61030c60048036038101906103079190611796565b611252565b6040516103199190611a85565b60405180910390f35b61032a61126a565b005b610346600480360381019061034191906117f0565b611703565b6040516103539190611937565b60405180910390f35b600080670de0b6b3a7640000610371846111ad565b61037b9190611b96565b90506000620151809050600081836103939190611b65565b90506000670de0b6b3a764000082600560008973ffffffffffffffffffffffffffffffffffffffff1673ffffffffffffffffffffffffffffffffffffffff168152602001908152602001600020546103eb9190611b96565b6103f59190611b65565b905080945050505050919050565b6000805461041090611ce7565b80601f016020809104026020016040519081016040528092919081815260200182805461043c90611ce7565b80156104895780601f1061045e57610100808354040283529160200191610489565b820191906000526020600020905b81548152906001019060200180831161046c57829003601f168201915b505050505081565b60056020528060005260406000206000915090505481565b600260009054906101000a900473ffffffffffffffffffffffffffffffffffffffff1681565b600081600560003373ffffffffffffffffffffffffffffffffffffffff1673ffffffffffffffffffffffffffffffffffffffff1681526020019081526020016000205410158015610570575060011515600760003373ffffffffffffffffffffffffffffffffffffffff1673ffffffffffffffffffffffffffffffffffffffff16815260200190815260200160002060009054906101000a900460ff161515145b6105af576040517f08c379a00000000000000000000000000000000000000000000000000000000081526004016105a690611a65565b60405180910390fd5b60006105ba3361035c565b905042600860003373ffffffffffffffffffffffffffffffffffffffff1673ffffffffffffffffffffffffffffffffffffffff1681526020019081526020016000208190555060008390506000935080600560003373ffffffffffffffffffffffffffffffffffffffff1673ffffffffffffffffffffffffffffffffffffffff16815260200190815260200160002060008282546106589190611bf0565b92505081905550600360009054906101000a900473ffffffffffffffffffffffffffffffffffffffff1673ffffffffffffffffffffffffffffffffffffffff1663a9059cbb33836040518363ffffffff1660e01b81526004016106bc929190611989565b602060405180830381600087803b1580156106d657600080fd5b505af11580156106ea573d6000803e3d6000fd5b505050506040513d601f19601f8201168201806040525081019061070e91906117c3565b5081600960003373ffffffffffffffffffffffffffffffffffffffff1673ffffffffffffffffffffffffffffffffffffffff168152602001908152602001600020600082825461075e9190611b0f565b925050819055506000600560003373ffffffffffffffffffffffffffffffffffffffff1673ffffffffffffffffffffffffffffffffffffffff168152602001908152602001600020541415610806576000600760003373ffffffffffffffffffffffffffffffffffffffff1673ffffffffffffffffffffffffffffffffffffffff16815260200190815260200160002060006101000a81548160ff0219169083151502179055505b3373ffffffffffffffffffffffffffffffffffffffff167f2ae77851d374757c0aeee19fd5d8f75edac9f1f52043fb96992607c29373144185600560003373ffffffffffffffffffffffffffffffffffffffff1673ffffffffffffffffffffffffffffffffffffffff16815260200190815260200160002054600960003373ffffffffffffffffffffffffffffffffffffffff1673ffffffffffffffffffffffffffffffffffffffff16815260200190815260200160002054600260009054906101000a900473ffffffffffffffffffffffffffffffffffffffff1673ffffffffffffffffffffffffffffffffffffffff166370a08231336040518263ffffffff1660e01b815260040161091a9190611937565b60206040518083038186803b15801561093257600080fd5b505afa158015610946573d6000803e3d6000fd5b505050506040513d601f19601f8201168201806040525081019061096a919061181d565b600360009054906101000a900473ffffffffffffffffffffffffffffffffffffffff1673ffffffffffffffffffffffffffffffffffffffff166370a08231336040518263ffffffff1660e01b81526004016109c59190611937565b60206040518083038186803b1580156109dd57600080fd5b505afa1580156109f1573d6000803e3d6000fd5b505050506040513d601f19601f82011682018060405250810190610a15919061181d565b604051610a26959493929190611aa0565b60405180910390a2600560003373ffffffffffffffffffffffffffffffffffffffff1673ffffffffffffffffffffffffffffffffffffffff1681526020019081526020016000205492505050919050565b60086020528060005260406000206000915090505481565b60076020528060005260406000206000915054906101000a900460ff1681565b60008082118015610b6a575081600360009054906101000a900473ffffffffffffffffffffffffffffffffffffffff1673ffffffffffffffffffffffffffffffffffffffff166370a08231336040518263ffffffff1660e01b8152600401610b179190611937565b60206040518083038186803b158015610b2f57600080fd5b505afa158015610b43573d6000803e3d6000fd5b505050506040513d601f19601f82011682018060405250810190610b67919061181d565b10155b610ba9576040517f08c379a0000000000000000000000000000000000000000000000000000000008152600401610ba090611a45565b60405180910390fd5b60011515600760003373ffffffffffffffffffffffffffffffffffffffff1673ffffffffffffffffffffffffffffffffffffffff16815260200190815260200160002060009054906101000a900460ff1615151415610c67576000610c0d3361035c565b905080600960003373ffffffffffffffffffffffffffffffffffffffff1673ffffffffffffffffffffffffffffffffffffffff1681526020019081526020016000206000828254610c5e9190611b0f565b92505081905550505b600360009054906101000a900473ffffffffffffffffffffffffffffffffffffffff1673ffffffffffffffffffffffffffffffffffffffff166323b872dd3330856040518463ffffffff1660e01b8152600401610cc693929190611952565b602060405180830381600087803b158015610ce057600080fd5b505af1158015610cf4573d6000803e3d6000fd5b505050506040513d601f19601f82011682018060405250810190610d1891906117c3565b5042600860003373ffffffffffffffffffffffffffffffffffffffff1673ffffffffffffffffffffffffffffffffffffffff1681526020019081526020016000208190555081600560003373ffffffffffffffffffffffffffffffffffffffff1673ffffffffffffffffffffffffffffffffffffffff1681526020019081526020016000206000828254610dac9190611b0f565b92505081905550600660003373ffffffffffffffffffffffffffffffffffffffff1673ffffffffffffffffffffffffffffffffffffffff16815260200190815260200160002060009054906101000a900460ff16610e68576004339080600181540180825580915050600190039060005260206000200160009091909190916101000a81548173ffffffffffffffffffffffffffffffffffffffff021916908373ffffffffffffffffffffffffffffffffffffffff1602179055505b6001600760003373ffffffffffffffffffffffffffffffffffffffff1673ffffffffffffffffffffffffffffffffffffffff16815260200190815260200160002060006101000a81548160ff0219169083151502179055506001600660003373ffffffffffffffffffffffffffffffffffffffff1673ffffffffffffffffffffffffffffffffffffffff16815260200190815260200160002060006101000a81548160ff0219169083151502179055503373ffffffffffffffffffffffffffffffffffffffff167fc6f8dbf1fa0a0918d52df74fa2b529a0a4da7011a24f263a28678e7504444cd683600560003373ffffffffffffffffffffffffffffffffffffffff1673ffffffffffffffffffffffffffffffffffffffff16815260200190815260200160002054600960003373ffffffffffffffffffffffffffffffffffffffff1673ffffffffffffffffffffffffffffffffffffffff16815260200190815260200160002054600260009054906101000a900473ffffffffffffffffffffffffffffffffffffffff1673ffffffffffffffffffffffffffffffffffffffff166370a08231336040518263ffffffff1660e01b815260040161102c9190611937565b60206040518083038186803b15801561104457600080fd5b505afa158015611058573d6000803e3d6000fd5b505050506040513d601f19601f8201168201806040525081019061107c919061181d565b600360009054906101000a900473ffffffffffffffffffffffffffffffffffffffff1673ffffffffffffffffffffffffffffffffffffffff166370a08231336040518263ffffffff1660e01b81526004016110d79190611937565b60206040518083038186803b1580156110ef57600080fd5b505afa158015611103573d6000803e3d6000fd5b505050506040513d601f19601f82011682018060405250810190611127919061181d565b604051611138959493929190611aa0565b60405180910390a2600560003373ffffffffffffffffffffffffffffffffffffffff1673ffffffffffffffffffffffffffffffffffffffff168152602001908152602001600020549050919050565b600160009054906101000a900473ffffffffffffffffffffffffffffffffffffffff1681565b6000804290506000600860008573ffffffffffffffffffffffffffffffffffffffff1673ffffffffffffffffffffffffffffffffffffffff16815260200190815260200160002054826112009190611bf0565b90508092505050919050565b600360009054906101000a900473ffffffffffffffffffffffffffffffffffffffff1681565b60066020528060005260406000206000915054906101000a900460ff1681565b60096020528060005260406000206000915090505481565b60006112753361035c565b905060008111806112c557506000600960003373ffffffffffffffffffffffffffffffffffffffff1673ffffffffffffffffffffffffffffffffffffffff16815260200190815260200160002054115b611304576040517f08c379a00000000000000000000000000000000000000000000000000000000081526004016112fb90611a25565b60405180910390fd5b6000600960003373ffffffffffffffffffffffffffffffffffffffff1673ffffffffffffffffffffffffffffffffffffffff16815260200190815260200160002054146113e4576000600960003373ffffffffffffffffffffffffffffffffffffffff1673ffffffffffffffffffffffffffffffffffffffff1681526020019081526020016000205490506000600960003373ffffffffffffffffffffffffffffffffffffffff1673ffffffffffffffffffffffffffffffffffffffff1681526020019081526020016000208190555080826113e09190611b0f565b9150505b42600860003373ffffffffffffffffffffffffffffffffffffffff1673ffffffffffffffffffffffffffffffffffffffff16815260200190815260200160002081905550600260009054906101000a900473ffffffffffffffffffffffffffffffffffffffff1673ffffffffffffffffffffffffffffffffffffffff1663a9059cbb33836040518363ffffffff1660e01b8152600401611485929190611989565b602060405180830381600087803b15801561149f57600080fd5b505af11580156114b3573d6000803e3d6000fd5b505050506040513d601f19601f820116820180604052508101906114d791906117c3565b503373ffffffffffffffffffffffffffffffffffffffff167f0523eb7cd4447067608d14ecfc8316cadef1ba0da456cd44686903ae52116aed82600560003373ffffffffffffffffffffffffffffffffffffffff1673ffffffffffffffffffffffffffffffffffffffff16815260200190815260200160002054600960003373ffffffffffffffffffffffffffffffffffffffff1673ffffffffffffffffffffffffffffffffffffffff16815260200190815260200160002054600260009054906101000a900473ffffffffffffffffffffffffffffffffffffffff1673ffffffffffffffffffffffffffffffffffffffff166370a08231336040518263ffffffff1660e01b81526004016115ec9190611937565b60206040518083038186803b15801561160457600080fd5b505afa158015611618573d6000803e3d6000fd5b505050506040513d601f19601f8201168201806040525081019061163c919061181d565b600360009054906101000a900473ffffffffffffffffffffffffffffffffffffffff1673ffffffffffffffffffffffffffffffffffffffff166370a08231336040518263ffffffff1660e01b81526004016116979190611937565b60206040518083038186803b1580156116af57600080fd5b505afa1580156116c3573d6000803e3d6000fd5b505050506040513d601f19601f820116820180604052508101906116e7919061181d565b6040516116f8959493929190611aa0565b60405180910390a250565b6004818154811061171357600080fd5b906000526020600020016000915054906101000a900473ffffffffffffffffffffffffffffffffffffffff1681565b60008135905061175181611e5d565b92915050565b60008151905061176681611e74565b92915050565b60008135905061177b81611e8b565b92915050565b60008151905061179081611e8b565b92915050565b6000602082840312156117ac576117ab611da6565b5b60006117ba84828501611742565b91505092915050565b6000602082840312156117d9576117d8611da6565b5b60006117e784828501611757565b91505092915050565b60006020828403121561180657611805611da6565b5b60006118148482850161176c565b91505092915050565b60006020828403121561183357611832611da6565b5b600061184184828501611781565b91505092915050565b61185381611c24565b82525050565b61186281611c36565b82525050565b61187181611c6c565b82525050565b61188081611c90565b82525050565b600061189182611af3565b61189b8185611afe565b93506118ab818560208601611cb4565b6118b481611dab565b840191505092915050565b60006118cc601383611afe565b91506118d782611dbc565b602082019050919050565b60006118ef601c83611afe565b91506118fa82611de5565b602082019050919050565b6000611912602483611afe565b915061191d82611e0e565b604082019050919050565b61193181611c62565b82525050565b600060208201905061194c600083018461184a565b92915050565b6000606082019050611967600083018661184a565b611974602083018561184a565b6119816040830184611928565b949350505050565b600060408201905061199e600083018561184a565b6119ab6020830184611928565b9392505050565b60006020820190506119c76000830184611859565b92915050565b60006020820190506119e26000830184611868565b92915050565b60006020820190506119fd6000830184611877565b92915050565b60006020820190508181036000830152611a1d8184611886565b905092915050565b60006020820190508181036000830152611a3e816118bf565b9050919050565b60006020820190508181036000830152611a5e816118e2565b9050919050565b60006020820190508181036000830152611a7e81611905565b9050919050565b6000602082019050611a9a6000830184611928565b92915050565b600060a082019050611ab56000830188611928565b611ac26020830187611928565b611acf6040830186611928565b611adc6060830185611928565b611ae96080830184611928565b9695505050505050565b600081519050919050565b600082825260208201905092915050565b6000611b1a82611c62565b9150611b2583611c62565b9250827fffffffffffffffffffffffffffffffffffffffffffffffffffffffffffffffff03821115611b5a57611b59611d19565b5b828201905092915050565b6000611b7082611c62565b9150611b7b83611c62565b925082611b8b57611b8a611d48565b5b828204905092915050565b6000611ba182611c62565b9150611bac83611c62565b9250817fffffffffffffffffffffffffffffffffffffffffffffffffffffffffffffffff0483118215151615611be557611be4611d19565b5b828202905092915050565b6000611bfb82611c62565b9150611c0683611c62565b925082821015611c1957611c18611d19565b5b828203905092915050565b6000611c2f82611c42565b9050919050565b60008115159050919050565b600073ffffffffffffffffffffffffffffffffffffffff82169050919050565b6000819050919050565b6000611c7782611c7e565b9050919050565b6000611c8982611c42565b9050919050565b6000611c9b82611ca2565b9050919050565b6000611cad82611c42565b9050919050565b60005b83811015611cd2578082015181840152602081019050611cb7565b83811115611ce1576000848401525b50505050565b60006002820490506001821680611cff57607f821691505b60208210811415611d1357611d12611d77565b5b50919050565b7f4e487b7100000000000000000000000000000000000000000000000000000000600052601160045260246000fd5b7f4e487b7100000000000000000000000000000000000000000000000000000000600052601260045260246000fd5b7f4e487b7100000000000000000000000000000000000000000000000000000000600052602260045260246000fd5b600080fd5b6000601f19601f8301169050919050565b7f4e6f7468696e6720746f20776974686472617700000000000000000000000000600082015250565b7f596f752063616e6e6f74207374616b65207a65726f20746f6b656e7300000000600082015250565b7f5374616b696e672062616c616e63652063616e6e6f742062652030206f72206c60008201527f6f77657200000000000000000000000000000000000000000000000000000000602082015250565b611e6681611c24565b8114611e7157600080fd5b50565b611e7d81611c36565b8114611e8857600080fd5b50565b611e9481611c62565b8114611e9f57600080fd5b5056fea26469706673582212204f5a8e34bdf174a018e05d745fd72422d42008e63e0fc094bdfab7b6760c48ef64736f6c63430008060033",
  "immutableReferences": {},
  "source": "//\"SPDX-License-Identifier: UNLICENSED\"\npragma solidity ^0.8.6;\n\nimport \"./DaiToken.sol\";\nimport \"./TegToken.sol\";\n\ncontract TokenFarm {\n    string public name = \"Tegridy Token Farm\";\n\n    address public owner;\n    TegToken public tegToken;\n    DaiToken public daiToken;\n\n    address[] public stakers;\n    mapping(address => uint256) public stakingBalance;\n    mapping(address => bool) public hasStaked;\n    mapping(address => bool) public isStaking;\n    mapping(address => uint256) public startTime;\n    mapping(address => uint256) public tegBalance;\n\n    event Stake(address indexed from, uint256 amount, uint256 stakingBal, uint256 intBal, uint256 tegBal, uint256 daiBal);\n    event Unstake(address indexed from, uint256 amount, uint256 stakingBal, uint256 intBal, uint256 tegBal, uint256 daiBal);\n    event YieldWithdraw(address indexed to, uint256 amount, uint256 stakingBal, uint256 intBal, uint256 tegBal, uint256 daiBal);\n\n    constructor(TegToken _tegToken, DaiToken _daiToken) {\n        tegToken = _tegToken;\n        daiToken = _daiToken;\n        owner = msg.sender;\n    }\n\n    //1. Stake Tokens (deposit)\n    function stakeTokens(uint256 _amount) public returns (uint256 balance) {\n        //Amount staked cannot be smaller than 0\n        require(\n            _amount > 0 && daiToken.balanceOf(msg.sender) >= _amount,\n            \"You cannot stake zero tokens\"\n        );\n\n        if (isStaking[msg.sender] == true) {\n            uint256 toTransfer = calculateYieldTotal(msg.sender);\n            tegBalance[msg.sender] += toTransfer;\n        }\n        // Transfer Mock Dai to this contract for staking\n        daiToken.transferFrom(msg.sender, address(this), _amount);\n        //update start time\n        startTime[msg.sender] = block.timestamp;\n        //update staking balance\n        stakingBalance[msg.sender] += _amount;\n        // add user to stakers array \"only\" if they have not yet staked\n        if (!hasStaked[msg.sender]) {\n            stakers.push(msg.sender);\n        }\n        //update staking status\n        isStaking[msg.sender] = true;\n        hasStaked[msg.sender] = true;\n        emit Stake(msg.sender, _amount, stakingBalance[msg.sender], tegBalance[msg.sender], tegToken.balanceOf(msg.sender), daiToken.balanceOf(msg.sender));\n        return stakingBalance[msg.sender];\n    }\n\n    //2. Unstaking Tokens (withdraw)\n    function unstakeTokens(uint256 _amount) public returns (uint256 balance) {\n        //require amounnt > 0\n        require(\n            stakingBalance[msg.sender] >= _amount &&\n            isStaking[msg.sender] == true,\n            \"Staking balance cannot be 0 or lower\"\n        );\n\n        //fetch staking balance\n        // uint256 balance = stakingBalance[msg.sender];\n\n        uint256 yieldTransfer = calculateYieldTotal(msg.sender);\n        startTime[msg.sender] = block.timestamp;\n        uint256 balanceTransfer = _amount;\n        _amount = 0;\n        //decrease staking balance by amount\n        stakingBalance[msg.sender] -= balanceTransfer;\n        //unstake dai tokens from farm to investor\n        daiToken.transfer(msg.sender, balanceTransfer);\n\n        tegBalance[msg.sender] += yieldTransfer;\n        // is he still staking?\n        //update staking status\n        if(stakingBalance[msg.sender] == 0){\n            isStaking[msg.sender] = false;\n        }\n        emit Unstake(msg.sender, _amount, stakingBalance[msg.sender], tegBalance[msg.sender], tegToken.balanceOf(msg.sender), daiToken.balanceOf(msg.sender));\n        return stakingBalance[msg.sender];\n    }\n\n    // //3. Issuing Teg Tokens to investor on a regular basis\n    // function issueTokens() public {\n    //     require(msg.sender == owner, \"only owner can call this function\");\n    //     for (uint256 i = 0; i < stakers.length; i++) {\n    //         address recipient = stakers[i];\n    //         uint256 balance = stakingBalance[recipient];\n    //         if (balance > 0) {\n    //             tegToken.transfer(recipient, balance); // send exactly the same amount of tegToken than dai Token deposited\n    //         }\n    //     }\n    // }\n\n    function withdrawYield() public {\n        uint256 toTransfer = calculateYieldTotal(msg.sender);\n\n        require(\n            toTransfer > 0 ||\n            tegBalance[msg.sender] > 0,\n            \"Nothing to withdraw\"\n        );\n            \n        if(tegBalance[msg.sender] != 0){\n            uint256 oldBalance = tegBalance[msg.sender];\n            tegBalance[msg.sender] = 0;\n            toTransfer += oldBalance;\n        }\n\n        startTime[msg.sender] = block.timestamp;\n        tegToken.transfer(msg.sender, toTransfer);\n        emit YieldWithdraw(msg.sender, toTransfer, stakingBalance[msg.sender], tegBalance[msg.sender], tegToken.balanceOf(msg.sender), daiToken.balanceOf(msg.sender));\n    }\n\n    function calculateYieldTime(address user) public view returns(uint256){\n        uint256 end = block.timestamp;\n        uint256 totalTime = end - startTime[user];\n        return totalTime;\n    }\n\n    function calculateYieldTotal(address user) public view returns(uint256) {\n        uint256 time = calculateYieldTime(user) * 10**18;\n        uint256 rate = 86400;\n        uint256 timeRate = time / rate;\n        uint256 rawYield = (stakingBalance[user] * timeRate) / 10**18;\n        return rawYield;\n    }\n}\n",
  "sourcePath": "/home/frankperler/Development/Codeworks/projects/blockchain/tegridyfarm/client/src/contracts/TokenFarm.sol",
  "compiler": {
    "name": "solc",
    "version": "0.8.6+commit.11564f7e.Emscripten.clang"
  },
  "schemaVersion": "3.4.2",
  "updatedAt": "2021-07-29T08:42:49.070Z",
  "networkType": "ethereum",
  "devdoc": {
    "kind": "dev",
    "methods": {},
    "version": 1
  },
  "userdoc": {
    "kind": "user",
    "methods": {},
    "version": 1
  }
}