{
  "contractName": "TokenFarm",
  "abi": [
    {
      "inputs": [
        {
          "internalType": "contract TegToken",
          "name": "_tegToken",
          "type": "address"
        },
        {
          "internalType": "contract DaiToken",
          "name": "_daiToken",
          "type": "address"
        }
      ],
      "stateMutability": "nonpayable",
      "type": "constructor"
    },
    {
      "anonymous": false,
      "inputs": [
        {
          "indexed": true,
          "internalType": "address",
          "name": "from",
          "type": "address"
        },
        {
          "indexed": false,
          "internalType": "uint256",
          "name": "amount",
          "type": "uint256"
        },
        {
          "indexed": false,
          "internalType": "uint256",
          "name": "borrowBal",
          "type": "uint256"
        },
        {
          "indexed": false,
          "internalType": "uint256",
          "name": "lossBal",
          "type": "uint256"
        },
        {
          "indexed": false,
          "internalType": "uint256",
          "name": "tegBal",
          "type": "uint256"
        },
        {
          "indexed": false,
          "internalType": "uint256",
          "name": "daiBal",
          "type": "uint256"
        }
      ],
      "name": "Borrow",
      "type": "event"
    },
    {
      "anonymous": false,
      "inputs": [
        {
          "indexed": true,
          "internalType": "address",
          "name": "from",
          "type": "address"
        },
        {
          "indexed": false,
          "internalType": "uint256",
          "name": "amount",
          "type": "uint256"
        },
        {
          "indexed": false,
          "internalType": "uint256",
          "name": "borrowBal",
          "type": "uint256"
        },
        {
          "indexed": false,
          "internalType": "uint256",
          "name": "lossBal",
          "type": "uint256"
        },
        {
          "indexed": false,
          "internalType": "uint256",
          "name": "tegBal",
          "type": "uint256"
        },
        {
          "indexed": false,
          "internalType": "uint256",
          "name": "daiBal",
          "type": "uint256"
        }
      ],
      "name": "Repay",
      "type": "event"
    },
    {
      "anonymous": false,
      "inputs": [
        {
          "indexed": true,
          "internalType": "address",
          "name": "from",
          "type": "address"
        },
        {
          "indexed": false,
          "internalType": "uint256",
          "name": "amount",
          "type": "uint256"
        },
        {
          "indexed": false,
          "internalType": "uint256",
          "name": "stakingBal",
          "type": "uint256"
        },
        {
          "indexed": false,
          "internalType": "uint256",
          "name": "intBal",
          "type": "uint256"
        },
        {
          "indexed": false,
          "internalType": "uint256",
          "name": "tegBal",
          "type": "uint256"
        },
        {
          "indexed": false,
          "internalType": "uint256",
          "name": "daiBal",
          "type": "uint256"
        }
      ],
      "name": "Stake",
      "type": "event"
    },
    {
      "anonymous": false,
      "inputs": [
        {
          "indexed": true,
          "internalType": "address",
          "name": "from",
          "type": "address"
        },
        {
          "indexed": false,
          "internalType": "uint256",
          "name": "amount",
          "type": "uint256"
        },
        {
          "indexed": false,
          "internalType": "uint256",
          "name": "stakingBal",
          "type": "uint256"
        },
        {
          "indexed": false,
          "internalType": "uint256",
          "name": "intBal",
          "type": "uint256"
        },
        {
          "indexed": false,
          "internalType": "uint256",
          "name": "tegBal",
          "type": "uint256"
        },
        {
          "indexed": false,
          "internalType": "uint256",
          "name": "daiBal",
          "type": "uint256"
        }
      ],
      "name": "Unstake",
      "type": "event"
    },
    {
      "anonymous": false,
      "inputs": [
        {
          "indexed": true,
          "internalType": "address",
          "name": "to",
          "type": "address"
        },
        {
          "indexed": false,
          "internalType": "uint256",
          "name": "amount",
          "type": "uint256"
        },
        {
          "indexed": false,
          "internalType": "uint256",
          "name": "borrowBal",
          "type": "uint256"
        },
        {
          "indexed": false,
          "internalType": "uint256",
          "name": "lossBal",
          "type": "uint256"
        },
        {
          "indexed": false,
          "internalType": "uint256",
          "name": "tegBal",
          "type": "uint256"
        },
        {
          "indexed": false,
          "internalType": "uint256",
          "name": "daiBal",
          "type": "uint256"
        }
      ],
      "name": "YieldLossWithdraw",
      "type": "event"
    },
    {
      "anonymous": false,
      "inputs": [
        {
          "indexed": true,
          "internalType": "address",
          "name": "to",
          "type": "address"
        },
        {
          "indexed": false,
          "internalType": "uint256",
          "name": "amountEarned",
          "type": "uint256"
        },
        {
          "indexed": false,
          "internalType": "uint256",
          "name": "amountLost",
          "type": "uint256"
        },
        {
          "indexed": false,
          "internalType": "uint256",
          "name": "stakingBal",
          "type": "uint256"
        },
        {
          "indexed": false,
          "internalType": "uint256",
          "name": "intBal",
          "type": "uint256"
        },
        {
          "indexed": false,
          "internalType": "uint256",
          "name": "borrowBal",
          "type": "uint256"
        },
        {
          "indexed": false,
          "internalType": "uint256",
          "name": "lossBal",
          "type": "uint256"
        },
        {
          "indexed": false,
          "internalType": "uint256",
          "name": "tegBal",
          "type": "uint256"
        },
        {
          "indexed": false,
          "internalType": "uint256",
          "name": "daiBal",
          "type": "uint256"
        }
      ],
      "name": "YieldWithdraw",
      "type": "event"
    },
    {
      "inputs": [
        {
          "internalType": "address",
          "name": "",
          "type": "address"
        }
      ],
      "name": "borrowedBalance",
      "outputs": [
        {
          "internalType": "uint256",
          "name": "",
          "type": "uint256"
        }
      ],
      "stateMutability": "view",
      "type": "function",
      "constant": true
    },
    {
      "inputs": [
        {
          "internalType": "address",
          "name": "",
          "type": "address"
        }
      ],
      "name": "borrowedTime",
      "outputs": [
        {
          "internalType": "uint256",
          "name": "",
          "type": "uint256"
        }
      ],
      "stateMutability": "view",
      "type": "function",
      "constant": true
    },
    {
      "inputs": [],
      "name": "daiToken",
      "outputs": [
        {
          "internalType": "contract DaiToken",
          "name": "",
          "type": "address"
        }
      ],
      "stateMutability": "view",
      "type": "function",
      "constant": true
    },
    {
      "inputs": [
        {
          "internalType": "address",
          "name": "",
          "type": "address"
        }
      ],
      "name": "earnedBalance",
      "outputs": [
        {
          "internalType": "uint256",
          "name": "",
          "type": "uint256"
        }
      ],
      "stateMutability": "view",
      "type": "function",
      "constant": true
    },
    {
      "inputs": [
        {
          "internalType": "address",
          "name": "",
          "type": "address"
        }
      ],
      "name": "earnedTime",
      "outputs": [
        {
          "internalType": "uint256",
          "name": "",
          "type": "uint256"
        }
      ],
      "stateMutability": "view",
      "type": "function",
      "constant": true
    },
    {
      "inputs": [
        {
          "internalType": "address",
          "name": "",
          "type": "address"
        }
      ],
      "name": "isBorrowing",
      "outputs": [
        {
          "internalType": "bool",
          "name": "",
          "type": "bool"
        }
      ],
      "stateMutability": "view",
      "type": "function",
      "constant": true
    },
    {
      "inputs": [
        {
          "internalType": "address",
          "name": "",
          "type": "address"
        }
      ],
      "name": "isStaking",
      "outputs": [
        {
          "internalType": "bool",
          "name": "",
          "type": "bool"
        }
      ],
      "stateMutability": "view",
      "type": "function",
      "constant": true
    },
    {
      "inputs": [
        {
          "internalType": "address",
          "name": "",
          "type": "address"
        }
      ],
      "name": "lossBalance",
      "outputs": [
        {
          "internalType": "uint256",
          "name": "",
          "type": "uint256"
        }
      ],
      "stateMutability": "view",
      "type": "function",
      "constant": true
    },
    {
      "inputs": [],
      "name": "name",
      "outputs": [
        {
          "internalType": "string",
          "name": "",
          "type": "string"
        }
      ],
      "stateMutability": "view",
      "type": "function",
      "constant": true
    },
    {
      "inputs": [],
      "name": "owner",
      "outputs": [
        {
          "internalType": "address",
          "name": "",
          "type": "address"
        }
      ],
      "stateMutability": "view",
      "type": "function",
      "constant": true
    },
    {
      "inputs": [
        {
          "internalType": "address",
          "name": "",
          "type": "address"
        }
      ],
      "name": "stakingBalance",
      "outputs": [
        {
          "internalType": "uint256",
          "name": "",
          "type": "uint256"
        }
      ],
      "stateMutability": "view",
      "type": "function",
      "constant": true
    },
    {
      "inputs": [],
      "name": "tegToken",
      "outputs": [
        {
          "internalType": "contract TegToken",
          "name": "",
          "type": "address"
        }
      ],
      "stateMutability": "view",
      "type": "function",
      "constant": true
    },
    {
      "inputs": [
        {
          "internalType": "uint256",
          "name": "_amount",
          "type": "uint256"
        }
      ],
      "name": "stakeTokens",
      "outputs": [
        {
          "internalType": "uint256",
          "name": "balance",
          "type": "uint256"
        }
      ],
      "stateMutability": "nonpayable",
      "type": "function"
    },
    {
      "inputs": [
        {
          "internalType": "uint256",
          "name": "_amount",
          "type": "uint256"
        }
      ],
      "name": "unstakeTokens",
      "outputs": [
        {
          "internalType": "uint256",
          "name": "balance",
          "type": "uint256"
        }
      ],
      "stateMutability": "nonpayable",
      "type": "function"
    },
    {
      "inputs": [],
      "name": "withdrawYield",
      "outputs": [],
      "stateMutability": "nonpayable",
      "type": "function"
    },
    {
      "inputs": [
        {
          "internalType": "address",
          "name": "user",
          "type": "address"
        }
      ],
      "name": "calculateEarningTime",
      "outputs": [
        {
          "internalType": "uint256",
          "name": "",
          "type": "uint256"
        }
      ],
      "stateMutability": "view",
      "type": "function",
      "constant": true
    },
    {
      "inputs": [
        {
          "internalType": "address",
          "name": "user",
          "type": "address"
        }
      ],
      "name": "calculateEarningYield",
      "outputs": [
        {
          "internalType": "uint256",
          "name": "",
          "type": "uint256"
        }
      ],
      "stateMutability": "view",
      "type": "function",
      "constant": true
    },
    {
      "inputs": [
        {
          "internalType": "uint256",
          "name": "_amount",
          "type": "uint256"
        }
      ],
      "name": "borrowTokens",
      "outputs": [
        {
          "internalType": "uint256",
          "name": "balance",
          "type": "uint256"
        }
      ],
      "stateMutability": "nonpayable",
      "type": "function"
    },
    {
      "inputs": [
        {
          "internalType": "uint256",
          "name": "_amount",
          "type": "uint256"
        }
      ],
      "name": "repayTokens",
      "outputs": [
        {
          "internalType": "uint256",
          "name": "balance",
          "type": "uint256"
        }
      ],
      "stateMutability": "nonpayable",
      "type": "function"
    },
    {
      "inputs": [
        {
          "internalType": "address",
          "name": "user",
          "type": "address"
        }
      ],
      "name": "calculateBorrowTime",
      "outputs": [
        {
          "internalType": "uint256",
          "name": "",
          "type": "uint256"
        }
      ],
      "stateMutability": "view",
      "type": "function",
      "constant": true
    },
    {
      "inputs": [
        {
          "internalType": "address",
          "name": "user",
          "type": "address"
        }
      ],
      "name": "calculateLossYield",
      "outputs": [
        {
          "internalType": "uint256",
          "name": "",
          "type": "uint256"
        }
      ],
      "stateMutability": "view",
      "type": "function",
      "constant": true
    }
  ],
  "bytecode": "0x60806040526040518060400160405280601281526020017f5465677269647920546f6b656e204661726d0000000000000000000000000000815250600090805190602001906200005192919062000150565b503480156200005f57600080fd5b50604051620033943803806200339483398181016040528101906200008591906200022e565b81600260006101000a81548173ffffffffffffffffffffffffffffffffffffffff021916908373ffffffffffffffffffffffffffffffffffffffff16021790555080600360006101000a81548173ffffffffffffffffffffffffffffffffffffffff021916908373ffffffffffffffffffffffffffffffffffffffff16021790555033600160006101000a81548173ffffffffffffffffffffffffffffffffffffffff021916908373ffffffffffffffffffffffffffffffffffffffff16021790555050506200036f565b8280546200015e90620002d1565b90600052602060002090601f016020900481019282620001825760008555620001ce565b82601f106200019d57805160ff1916838001178555620001ce565b82800160010185558215620001ce579182015b82811115620001cd578251825591602001919060010190620001b0565b5b509050620001dd9190620001e1565b5090565b5b80821115620001fc576000816000905550600101620001e2565b5090565b60008151905062000211816200033b565b92915050565b600081519050620002288162000355565b92915050565b6000806040838503121562000248576200024762000336565b5b6000620002588582860162000217565b92505060206200026b8582860162000200565b9150509250929050565b60006200028282620002b1565b9050919050565b6000620002968262000275565b9050919050565b6000620002aa8262000275565b9050919050565b600073ffffffffffffffffffffffffffffffffffffffff82169050919050565b60006002820490506001821680620002ea57607f821691505b6020821081141562000301576200030062000307565b5b50919050565b7f4e487b7100000000000000000000000000000000000000000000000000000000600052602260045260246000fd5b600080fd5b620003468162000289565b81146200035257600080fd5b50565b62000360816200029d565b81146200036c57600080fd5b50565b613015806200037f6000396000f3fe608060405234801561001057600080fd5b50600436106101375760003560e01c80636f49712b116100b8578063b0ed7af41161007c578063b0ed7af4146103d6578063be22f54614610406578063c728667814610424578063e507a8a414610454578063e91e59681461045e578063ecf4911f1461048e57610137565b80636f49712b146102f85780637547c7a3146103285780638a76a112146103585780638da5cb5b14610388578063aed4730b146103a657610137565b806345bc78ab116100ff57806345bc78ab1461021a57806350711be91461024a5780635400a8341461027a5780635890e14914610298578063608e4dd0146102c857610137565b806302b28d4b1461013c57806306fdde031461016c57806308bf91481461018a5780630b059048146101ba5780631e55f76d146101ea575b600080fd5b6101566004803603810190610151919061270b565b6104be565b6040516101639190612a80565b60405180910390f35b6101746104d6565b60405161018191906129be565b60405180910390f35b6101a4600480360381019061019f919061270b565b610564565b6040516101b19190612a80565b60405180910390f35b6101d460048036038101906101cf919061270b565b6105c3565b6040516101e19190612a80565b60405180910390f35b61020460048036038101906101ff919061270b565b6105db565b6040516102119190612a80565b60405180910390f35b610234600480360381019061022f919061270b565b610683565b6040516102419190612a80565b60405180910390f35b610264600480360381019061025f919061270b565b61069b565b604051610271919061296d565b60405180910390f35b6102826106bb565b60405161028f91906129a3565b60405180910390f35b6102b260048036038101906102ad919061270b565b6106e1565b6040516102bf9190612a80565b60405180910390f35b6102e260048036038101906102dd9190612765565b6106f9565b6040516102ef9190612a80565b60405180910390f35b610312600480360381019061030d919061270b565b610d36565b60405161031f919061296d565b60405180910390f35b610342600480360381019061033d9190612765565b610d56565b60405161034f9190612a80565b60405180910390f35b610372600480360381019061036d919061270b565b611321565b60405161037f9190612a80565b60405180910390f35b610390611339565b60405161039d91906128f2565b60405180910390f35b6103c060048036038101906103bb919061270b565b61135f565b6040516103cd9190612a80565b60405180910390f35b6103f060048036038101906103eb919061270b565b611377565b6040516103fd9190612a80565b60405180910390f35b61040e61141f565b60405161041b9190612988565b60405180910390f35b61043e60048036038101906104399190612765565b611445565b60405161044b9190612a80565b60405180910390f35b61045c6119ff565b005b6104786004803603810190610473919061270b565b6120ae565b6040516104859190612a80565b60405180910390f35b6104a860048036038101906104a39190612765565b61210d565b6040516104b59190612a80565b60405180910390f35b60086020528060005260406000206000915090505481565b600080546104e390612d60565b80601f016020809104026020016040519081016040528092919081815260200182805461050f90612d60565b801561055c5780601f106105315761010080835404028352916020019161055c565b820191906000526020600020905b81548152906001019060200180831161053f57829003601f168201915b505050505081565b6000804290506000600b60008573ffffffffffffffffffffffffffffffffffffffff1673ffffffffffffffffffffffffffffffffffffffff16815260200190815260200160002054826105b79190612c69565b90508092505050919050565b60096020528060005260406000206000915090505481565b600080670de0b6b3a76400006105f084610564565b6105fa9190612c0f565b905060006301b574a29050600081836106139190612bde565b90506000670de0b6b3a764000082600860008973ffffffffffffffffffffffffffffffffffffffff1673ffffffffffffffffffffffffffffffffffffffff1681526020019081526020016000205461066b9190612c0f565b6106759190612bde565b905080945050505050919050565b60046020528060005260406000206000915090505481565b600a6020528060005260406000206000915054906101000a900460ff1681565b600260009054906101000a900473ffffffffffffffffffffffffffffffffffffffff1681565b60076020528060005260406000206000915090505481565b600081600460003373ffffffffffffffffffffffffffffffffffffffff1673ffffffffffffffffffffffffffffffffffffffff168152602001908152602001600020541015801561079a575060011515600660003373ffffffffffffffffffffffffffffffffffffffff1673ffffffffffffffffffffffffffffffffffffffff16815260200190815260200160002060009054906101000a900460ff161515145b801561082f575081600460003373ffffffffffffffffffffffffffffffffffffffff1673ffffffffffffffffffffffffffffffffffffffff168152602001908152602001600020546107ec9190612c69565b600860003373ffffffffffffffffffffffffffffffffffffffff1673ffffffffffffffffffffffffffffffffffffffff1681526020019081526020016000205411155b61086e576040517f08c379a000000000000000000000000000000000000000000000000000000000815260040161086590612a60565b60405180910390fd5b600061087933611377565b905042600760003373ffffffffffffffffffffffffffffffffffffffff1673ffffffffffffffffffffffffffffffffffffffff1681526020019081526020016000208190555060008390506000935080600460003373ffffffffffffffffffffffffffffffffffffffff1673ffffffffffffffffffffffffffffffffffffffff16815260200190815260200160002060008282546109179190612c69565b92505081905550600360009054906101000a900473ffffffffffffffffffffffffffffffffffffffff1673ffffffffffffffffffffffffffffffffffffffff1663a9059cbb33836040518363ffffffff1660e01b815260040161097b929190612944565b602060405180830381600087803b15801561099557600080fd5b505af11580156109a9573d6000803e3d6000fd5b505050506040513d601f19601f820116820180604052508101906109cd9190612738565b5081600560003373ffffffffffffffffffffffffffffffffffffffff1673ffffffffffffffffffffffffffffffffffffffff1681526020019081526020016000206000828254610a1d9190612b88565b925050819055506000600460003373ffffffffffffffffffffffffffffffffffffffff1673ffffffffffffffffffffffffffffffffffffffff168152602001908152602001600020541415610ac5576000600660003373ffffffffffffffffffffffffffffffffffffffff1673ffffffffffffffffffffffffffffffffffffffff16815260200190815260200160002060006101000a81548160ff0219169083151502179055505b3373ffffffffffffffffffffffffffffffffffffffff167f2ae77851d374757c0aeee19fd5d8f75edac9f1f52043fb96992607c29373144185600460003373ffffffffffffffffffffffffffffffffffffffff1673ffffffffffffffffffffffffffffffffffffffff16815260200190815260200160002054600560003373ffffffffffffffffffffffffffffffffffffffff1673ffffffffffffffffffffffffffffffffffffffff16815260200190815260200160002054600260009054906101000a900473ffffffffffffffffffffffffffffffffffffffff1673ffffffffffffffffffffffffffffffffffffffff166370a08231336040518263ffffffff1660e01b8152600401610bd991906128f2565b60206040518083038186803b158015610bf157600080fd5b505afa158015610c05573d6000803e3d6000fd5b505050506040513d601f19601f82011682018060405250810190610c299190612792565b600360009054906101000a900473ffffffffffffffffffffffffffffffffffffffff1673ffffffffffffffffffffffffffffffffffffffff166370a08231336040518263ffffffff1660e01b8152600401610c8491906128f2565b60206040518083038186803b158015610c9c57600080fd5b505afa158015610cb0573d6000803e3d6000fd5b505050506040513d601f19601f82011682018060405250810190610cd49190612792565b604051610ce5959493929190612a9b565b60405180910390a2600460003373ffffffffffffffffffffffffffffffffffffffff1673ffffffffffffffffffffffffffffffffffffffff1681526020019081526020016000205492505050919050565b60066020528060005260406000206000915054906101000a900460ff1681565b60008082118015610e11575081600360009054906101000a900473ffffffffffffffffffffffffffffffffffffffff1673ffffffffffffffffffffffffffffffffffffffff166370a08231336040518263ffffffff1660e01b8152600401610dbe91906128f2565b60206040518083038186803b158015610dd657600080fd5b505afa158015610dea573d6000803e3d6000fd5b505050506040513d601f19601f82011682018060405250810190610e0e9190612792565b10155b610e50576040517f08c379a0000000000000000000000000000000000000000000000000000000008152600401610e4790612a40565b60405180910390fd5b60011515600660003373ffffffffffffffffffffffffffffffffffffffff1673ffffffffffffffffffffffffffffffffffffffff16815260200190815260200160002060009054906101000a900460ff1615151415610f0e576000610eb433611377565b905080600560003373ffffffffffffffffffffffffffffffffffffffff1673ffffffffffffffffffffffffffffffffffffffff1681526020019081526020016000206000828254610f059190612b88565b92505081905550505b600360009054906101000a900473ffffffffffffffffffffffffffffffffffffffff1673ffffffffffffffffffffffffffffffffffffffff166323b872dd3330856040518463ffffffff1660e01b8152600401610f6d9392919061290d565b602060405180830381600087803b158015610f8757600080fd5b505af1158015610f9b573d6000803e3d6000fd5b505050506040513d601f19601f82011682018060405250810190610fbf9190612738565b5042600760003373ffffffffffffffffffffffffffffffffffffffff1673ffffffffffffffffffffffffffffffffffffffff1681526020019081526020016000208190555081600460003373ffffffffffffffffffffffffffffffffffffffff1673ffffffffffffffffffffffffffffffffffffffff16815260200190815260200160002060008282546110539190612b88565b925050819055506001600660003373ffffffffffffffffffffffffffffffffffffffff1673ffffffffffffffffffffffffffffffffffffffff16815260200190815260200160002060006101000a81548160ff0219169083151502179055503373ffffffffffffffffffffffffffffffffffffffff167fc6f8dbf1fa0a0918d52df74fa2b529a0a4da7011a24f263a28678e7504444cd683600460003373ffffffffffffffffffffffffffffffffffffffff1673ffffffffffffffffffffffffffffffffffffffff16815260200190815260200160002054600560003373ffffffffffffffffffffffffffffffffffffffff1673ffffffffffffffffffffffffffffffffffffffff16815260200190815260200160002054600260009054906101000a900473ffffffffffffffffffffffffffffffffffffffff1673ffffffffffffffffffffffffffffffffffffffff166370a08231336040518263ffffffff1660e01b81526004016111c691906128f2565b60206040518083038186803b1580156111de57600080fd5b505afa1580156111f2573d6000803e3d6000fd5b505050506040513d601f19601f820116820180604052508101906112169190612792565b600360009054906101000a900473ffffffffffffffffffffffffffffffffffffffff1673ffffffffffffffffffffffffffffffffffffffff166370a08231336040518263ffffffff1660e01b815260040161127191906128f2565b60206040518083038186803b15801561128957600080fd5b505afa15801561129d573d6000803e3d6000fd5b505050506040513d601f19601f820116820180604052508101906112c19190612792565b6040516112d2959493929190612a9b565b60405180910390a2600460003373ffffffffffffffffffffffffffffffffffffffff1673ffffffffffffffffffffffffffffffffffffffff168152602001908152602001600020549050919050565b600b6020528060005260406000206000915090505481565b600160009054906101000a900473ffffffffffffffffffffffffffffffffffffffff1681565b60056020528060005260406000206000915090505481565b600080670de0b6b3a764000061138c846120ae565b6113969190612c0f565b905060006301e133809050600081836113af9190612bde565b90506000670de0b6b3a764000082600460008973ffffffffffffffffffffffffffffffffffffffff1673ffffffffffffffffffffffffffffffffffffffff168152602001908152602001600020546114079190612c0f565b6114119190612bde565b905080945050505050919050565b600360009054906101000a900473ffffffffffffffffffffffffffffffffffffffff1681565b600080821180156114a6575060011515600660003373ffffffffffffffffffffffffffffffffffffffff1673ffffffffffffffffffffffffffffffffffffffff16815260200190815260200160002060009054906101000a900460ff161515145b80156114f1575081600460003373ffffffffffffffffffffffffffffffffffffffff1673ffffffffffffffffffffffffffffffffffffffff1681526020019081526020016000205410155b611530576040517f08c379a000000000000000000000000000000000000000000000000000000000815260040161152790612a20565b60405180910390fd5b60011515600a60003373ffffffffffffffffffffffffffffffffffffffff1673ffffffffffffffffffffffffffffffffffffffff16815260200190815260200160002060009054906101000a900460ff16151514156115ee576000611594336105db565b905080600960003373ffffffffffffffffffffffffffffffffffffffff1673ffffffffffffffffffffffffffffffffffffffff16815260200190815260200160002060008282546115e59190612b88565b92505081905550505b600360009054906101000a900473ffffffffffffffffffffffffffffffffffffffff1673ffffffffffffffffffffffffffffffffffffffff1663a9059cbb33846040518363ffffffff1660e01b815260040161164b929190612944565b602060405180830381600087803b15801561166557600080fd5b505af1158015611679573d6000803e3d6000fd5b505050506040513d601f19601f8201168201806040525081019061169d9190612738565b5042600b60003373ffffffffffffffffffffffffffffffffffffffff1673ffffffffffffffffffffffffffffffffffffffff1681526020019081526020016000208190555081600860003373ffffffffffffffffffffffffffffffffffffffff1673ffffffffffffffffffffffffffffffffffffffff16815260200190815260200160002060008282546117319190612b88565b925050819055506001600a60003373ffffffffffffffffffffffffffffffffffffffff1673ffffffffffffffffffffffffffffffffffffffff16815260200190815260200160002060006101000a81548160ff0219169083151502179055503373ffffffffffffffffffffffffffffffffffffffff167f212a25b7e6d62ca82a704bf5f0513e2d0840e89914c62639dceabfb40a34491a83600860003373ffffffffffffffffffffffffffffffffffffffff1673ffffffffffffffffffffffffffffffffffffffff16815260200190815260200160002054600960003373ffffffffffffffffffffffffffffffffffffffff1673ffffffffffffffffffffffffffffffffffffffff16815260200190815260200160002054600260009054906101000a900473ffffffffffffffffffffffffffffffffffffffff1673ffffffffffffffffffffffffffffffffffffffff166370a08231336040518263ffffffff1660e01b81526004016118a491906128f2565b60206040518083038186803b1580156118bc57600080fd5b505afa1580156118d0573d6000803e3d6000fd5b505050506040513d601f19601f820116820180604052508101906118f49190612792565b600360009054906101000a900473ffffffffffffffffffffffffffffffffffffffff1673ffffffffffffffffffffffffffffffffffffffff166370a08231336040518263ffffffff1660e01b815260040161194f91906128f2565b60206040518083038186803b15801561196757600080fd5b505afa15801561197b573d6000803e3d6000fd5b505050506040513d601f19601f8201168201806040525081019061199f9190612792565b6040516119b0959493929190612a9b565b60405180910390a2600860003373ffffffffffffffffffffffffffffffffffffffff1673ffffffffffffffffffffffffffffffffffffffff168152602001908152602001600020549050919050565b6000611a0a33611377565b90506000611a17336105db565b90506000821180611a6757506000600560003373ffffffffffffffffffffffffffffffffffffffff1673ffffffffffffffffffffffffffffffffffffffff16815260200190815260200160002054115b80611a725750600081115b80611abc57506000600960003373ffffffffffffffffffffffffffffffffffffffff1673ffffffffffffffffffffffffffffffffffffffff16815260200190815260200160002054115b611afb576040517f08c379a0000000000000000000000000000000000000000000000000000000008152600401611af2906129e0565b60405180910390fd5b6000600560003373ffffffffffffffffffffffffffffffffffffffff1673ffffffffffffffffffffffffffffffffffffffff1681526020019081526020016000205414611bdb576000600560003373ffffffffffffffffffffffffffffffffffffffff1673ffffffffffffffffffffffffffffffffffffffff1681526020019081526020016000205490506000600560003373ffffffffffffffffffffffffffffffffffffffff1673ffffffffffffffffffffffffffffffffffffffff168152602001908152602001600020819055508083611bd79190612b88565b9250505b6000600960003373ffffffffffffffffffffffffffffffffffffffff1673ffffffffffffffffffffffffffffffffffffffff1681526020019081526020016000205414611cbb576000600960003373ffffffffffffffffffffffffffffffffffffffff1673ffffffffffffffffffffffffffffffffffffffff1681526020019081526020016000205490506000600960003373ffffffffffffffffffffffffffffffffffffffff1673ffffffffffffffffffffffffffffffffffffffff168152602001908152602001600020819055508082611cb79190612b88565b9150505b42600760003373ffffffffffffffffffffffffffffffffffffffff1673ffffffffffffffffffffffffffffffffffffffff1681526020019081526020016000208190555042600b60003373ffffffffffffffffffffffffffffffffffffffff1673ffffffffffffffffffffffffffffffffffffffff16815260200190815260200160002081905550600260009054906101000a900473ffffffffffffffffffffffffffffffffffffffff1673ffffffffffffffffffffffffffffffffffffffff1663a9059cbb338385611d8e9190612c69565b6040518363ffffffff1660e01b8152600401611dab929190612944565b602060405180830381600087803b158015611dc557600080fd5b505af1158015611dd9573d6000803e3d6000fd5b505050506040513d601f19601f82011682018060405250810190611dfd9190612738565b503373ffffffffffffffffffffffffffffffffffffffff167fc62728ffc77cb9d3e5ddecc13bd771e4b3510013e9d2c5c18df7b874af32ba8f8383600460003373ffffffffffffffffffffffffffffffffffffffff1673ffffffffffffffffffffffffffffffffffffffff16815260200190815260200160002054600560003373ffffffffffffffffffffffffffffffffffffffff1673ffffffffffffffffffffffffffffffffffffffff16815260200190815260200160002054600860003373ffffffffffffffffffffffffffffffffffffffff1673ffffffffffffffffffffffffffffffffffffffff16815260200190815260200160002054600960003373ffffffffffffffffffffffffffffffffffffffff1673ffffffffffffffffffffffffffffffffffffffff16815260200190815260200160002054600260009054906101000a900473ffffffffffffffffffffffffffffffffffffffff1673ffffffffffffffffffffffffffffffffffffffff166370a08231336040518263ffffffff1660e01b8152600401611f9391906128f2565b60206040518083038186803b158015611fab57600080fd5b505afa158015611fbf573d6000803e3d6000fd5b505050506040513d601f19601f82011682018060405250810190611fe39190612792565b600360009054906101000a900473ffffffffffffffffffffffffffffffffffffffff1673ffffffffffffffffffffffffffffffffffffffff166370a08231336040518263ffffffff1660e01b815260040161203e91906128f2565b60206040518083038186803b15801561205657600080fd5b505afa15801561206a573d6000803e3d6000fd5b505050506040513d601f19601f8201168201806040525081019061208e9190612792565b6040516120a2989796959493929190612aee565b60405180910390a25050565b6000804290506000600760008573ffffffffffffffffffffffffffffffffffffffff1673ffffffffffffffffffffffffffffffffffffffff16815260200190815260200160002054826121019190612c69565b90508092505050919050565b600081600860003373ffffffffffffffffffffffffffffffffffffffff1673ffffffffffffffffffffffffffffffffffffffff16815260200190815260200160002054101580156121ae575060011515600a60003373ffffffffffffffffffffffffffffffffffffffff1673ffffffffffffffffffffffffffffffffffffffff16815260200190815260200160002060009054906101000a900460ff161515145b6121ed576040517f08c379a00000000000000000000000000000000000000000000000000000000081526004016121e490612a00565b60405180910390fd5b60006121f8336105db565b905042600b60003373ffffffffffffffffffffffffffffffffffffffff1673ffffffffffffffffffffffffffffffffffffffff1681526020019081526020016000208190555060008390506000935080600860003373ffffffffffffffffffffffffffffffffffffffff1673ffffffffffffffffffffffffffffffffffffffff16815260200190815260200160002060008282546122969190612c69565b92505081905550600360009054906101000a900473ffffffffffffffffffffffffffffffffffffffff1673ffffffffffffffffffffffffffffffffffffffff166323b872dd3330846040518463ffffffff1660e01b81526004016122fc9392919061290d565b602060405180830381600087803b15801561231657600080fd5b505af115801561232a573d6000803e3d6000fd5b505050506040513d601f19601f8201168201806040525081019061234e9190612738565b5081600960003373ffffffffffffffffffffffffffffffffffffffff1673ffffffffffffffffffffffffffffffffffffffff168152602001908152602001600020600082825461239e9190612b88565b925050819055506000600860003373ffffffffffffffffffffffffffffffffffffffff1673ffffffffffffffffffffffffffffffffffffffff168152602001908152602001600020541415612446576000600a60003373ffffffffffffffffffffffffffffffffffffffff1673ffffffffffffffffffffffffffffffffffffffff16815260200190815260200160002060006101000a81548160ff0219169083151502179055505b3373ffffffffffffffffffffffffffffffffffffffff167ff8d50c6057e24414caf5becd2c1db2b04030072f04629ef793e79845601341c585600860003373ffffffffffffffffffffffffffffffffffffffff1673ffffffffffffffffffffffffffffffffffffffff16815260200190815260200160002054600960003373ffffffffffffffffffffffffffffffffffffffff1673ffffffffffffffffffffffffffffffffffffffff16815260200190815260200160002054600260009054906101000a900473ffffffffffffffffffffffffffffffffffffffff1673ffffffffffffffffffffffffffffffffffffffff166370a08231336040518263ffffffff1660e01b815260040161255a91906128f2565b60206040518083038186803b15801561257257600080fd5b505afa158015612586573d6000803e3d6000fd5b505050506040513d601f19601f820116820180604052508101906125aa9190612792565b600360009054906101000a900473ffffffffffffffffffffffffffffffffffffffff1673ffffffffffffffffffffffffffffffffffffffff166370a08231336040518263ffffffff1660e01b815260040161260591906128f2565b60206040518083038186803b15801561261d57600080fd5b505afa158015612631573d6000803e3d6000fd5b505050506040513d601f19601f820116820180604052508101906126559190612792565b604051612666959493929190612a9b565b60405180910390a2600860003373ffffffffffffffffffffffffffffffffffffffff1673ffffffffffffffffffffffffffffffffffffffff1681526020019081526020016000205492505050919050565b6000813590506126c681612f9a565b92915050565b6000815190506126db81612fb1565b92915050565b6000813590506126f081612fc8565b92915050565b60008151905061270581612fc8565b92915050565b60006020828403121561272157612720612e1f565b5b600061272f848285016126b7565b91505092915050565b60006020828403121561274e5761274d612e1f565b5b600061275c848285016126cc565b91505092915050565b60006020828403121561277b5761277a612e1f565b5b6000612789848285016126e1565b91505092915050565b6000602082840312156127a8576127a7612e1f565b5b60006127b6848285016126f6565b91505092915050565b6127c881612c9d565b82525050565b6127d781612caf565b82525050565b6127e681612ce5565b82525050565b6127f581612d09565b82525050565b600061280682612b6c565b6128108185612b77565b9350612820818560208601612d2d565b61282981612e24565b840191505092915050565b6000612841601383612b77565b915061284c82612e35565b602082019050919050565b6000612864602b83612b77565b915061286f82612e5e565b604082019050919050565b6000612887601d83612b77565b915061289282612ead565b602082019050919050565b60006128aa601c83612b77565b91506128b582612ed6565b602082019050919050565b60006128cd606383612b77565b91506128d882612eff565b608082019050919050565b6128ec81612cdb565b82525050565b600060208201905061290760008301846127bf565b92915050565b600060608201905061292260008301866127bf565b61292f60208301856127bf565b61293c60408301846128e3565b949350505050565b600060408201905061295960008301856127bf565b61296660208301846128e3565b9392505050565b600060208201905061298260008301846127ce565b92915050565b600060208201905061299d60008301846127dd565b92915050565b60006020820190506129b860008301846127ec565b92915050565b600060208201905081810360008301526129d881846127fb565b905092915050565b600060208201905081810360008301526129f981612834565b9050919050565b60006020820190508181036000830152612a1981612857565b9050919050565b60006020820190508181036000830152612a398161287a565b9050919050565b60006020820190508181036000830152612a598161289d565b9050919050565b60006020820190508181036000830152612a79816128c0565b9050919050565b6000602082019050612a9560008301846128e3565b92915050565b600060a082019050612ab060008301886128e3565b612abd60208301876128e3565b612aca60408301866128e3565b612ad760608301856128e3565b612ae460808301846128e3565b9695505050505050565b600061010082019050612b04600083018b6128e3565b612b11602083018a6128e3565b612b1e60408301896128e3565b612b2b60608301886128e3565b612b3860808301876128e3565b612b4560a08301866128e3565b612b5260c08301856128e3565b612b5f60e08301846128e3565b9998505050505050505050565b600081519050919050565b600082825260208201905092915050565b6000612b9382612cdb565b9150612b9e83612cdb565b9250827fffffffffffffffffffffffffffffffffffffffffffffffffffffffffffffffff03821115612bd357612bd2612d92565b5b828201905092915050565b6000612be982612cdb565b9150612bf483612cdb565b925082612c0457612c03612dc1565b5b828204905092915050565b6000612c1a82612cdb565b9150612c2583612cdb565b9250817fffffffffffffffffffffffffffffffffffffffffffffffffffffffffffffffff0483118215151615612c5e57612c5d612d92565b5b828202905092915050565b6000612c7482612cdb565b9150612c7f83612cdb565b925082821015612c9257612c91612d92565b5b828203905092915050565b6000612ca882612cbb565b9050919050565b60008115159050919050565b600073ffffffffffffffffffffffffffffffffffffffff82169050919050565b6000819050919050565b6000612cf082612cf7565b9050919050565b6000612d0282612cbb565b9050919050565b6000612d1482612d1b565b9050919050565b6000612d2682612cbb565b9050919050565b60005b83811015612d4b578082015181840152602081019050612d30565b83811115612d5a576000848401525b50505050565b60006002820490506001821680612d7857607f821691505b60208210811415612d8c57612d8b612df0565b5b50919050565b7f4e487b7100000000000000000000000000000000000000000000000000000000600052601160045260246000fd5b7f4e487b7100000000000000000000000000000000000000000000000000000000600052601260045260246000fd5b7f4e487b7100000000000000000000000000000000000000000000000000000000600052602260045260246000fd5b600080fd5b6000601f19601f8301169050919050565b7f4e6f7468696e6720746f20776974686472617700000000000000000000000000600082015250565b7f426f72726f7765642062616c616e6365206d757374206265206c61726765722060008201527f7468616e20616d6f756e74000000000000000000000000000000000000000000602082015250565b7f596f752063616e6e6f7420626f72726f77207a65726f20746f6b656e73000000600082015250565b7f596f752063616e6e6f74207374616b65207a65726f20746f6b656e7300000000600082015250565b7f5374616b696e672062616c616e6365206d757374206265206c6172676572207460008201527f68616e20616d6f756e7420616e6420796f752073686f756c64206e6f7420626560208201527f207374616b696e67206c657373207468616e20626f72726f77656420616d6f7560408201527f6e74730000000000000000000000000000000000000000000000000000000000606082015250565b612fa381612c9d565b8114612fae57600080fd5b50565b612fba81612caf565b8114612fc557600080fd5b50565b612fd181612cdb565b8114612fdc57600080fd5b5056fea26469706673582212203c477eefff933f2dba9b98a2f198efd3fb1f638a566ed702fa1b37578dd3e2d964736f6c63430008060033",
  "immutableReferences": {},
  "source": "//\"SPDX-License-Identifier: UNLICENSED\"\npragma solidity ^0.8.6;\n\nimport \"./DaiToken.sol\";\nimport \"./TegToken.sol\";\n\ncontract TokenFarm {\n    string public name = \"Tegridy Token Farm\";\n\n    address public owner;\n    TegToken public tegToken;\n    DaiToken public daiToken;\n\n    mapping(address => uint256) public stakingBalance;\n    mapping(address => uint256) public earnedBalance;\n    mapping(address => bool) public isStaking;\n    mapping(address => uint256) public earnedTime;\n\n    mapping(address => uint256) public borrowedBalance;\n    mapping(address => uint256) public lossBalance;\n    mapping(address => bool) public isBorrowing;\n    mapping(address => uint256) public borrowedTime;\n\n    event Stake(\n        address indexed from,\n        uint256 amount,\n        uint256 stakingBal,\n        uint256 intBal,\n        uint256 tegBal,\n        uint256 daiBal\n    );\n    event Unstake(\n        address indexed from,\n        uint256 amount,\n        uint256 stakingBal,\n        uint256 intBal,\n        uint256 tegBal,\n        uint256 daiBal\n    );\n\n    event YieldWithdraw(\n        address indexed to,\n        uint256 amountEarned,\n        uint256 amountLost,\n        uint256 stakingBal,\n        uint256 intBal,\n        uint256 borrowBal,\n        uint256 lossBal,\n        uint256 tegBal,\n        uint256 daiBal\n    );\n\n    event Borrow(\n        address indexed from,\n        uint256 amount,\n        uint256 borrowBal,\n        uint256 lossBal,\n        uint256 tegBal,\n        uint256 daiBal\n    );\n\n    event Repay(\n        address indexed from,\n        uint256 amount,\n        uint256 borrowBal,\n        uint256 lossBal,\n        uint256 tegBal,\n        uint256 daiBal\n    );\n    event YieldLossWithdraw(\n        address indexed to,\n        uint256 amount,\n        uint256 borrowBal,\n        uint256 lossBal,\n        uint256 tegBal,\n        uint256 daiBal\n    );\n\n    constructor(TegToken _tegToken, DaiToken _daiToken) {\n        tegToken = _tegToken;\n        daiToken = _daiToken;\n        owner = msg.sender;\n    }\n\n    //1. Stake Tokens (deposit)\n    function stakeTokens(uint256 _amount) public returns (uint256 balance) {\n        //Amount staked cannot be smaller than 0\n        require(\n            _amount > 0 && daiToken.balanceOf(msg.sender) >= _amount,\n            \"You cannot stake zero tokens\"\n        );\n\n        if (isStaking[msg.sender] == true) {\n            uint256 toTransfer = calculateEarningYield(msg.sender);\n            earnedBalance[msg.sender] += toTransfer;\n        }\n        // Transfer Mock Dai to this contract for staking\n        daiToken.transferFrom(msg.sender, address(this), _amount);\n        //update start time\n        earnedTime[msg.sender] = block.timestamp;\n        //update staking balance\n        stakingBalance[msg.sender] += _amount;\n        // add user to stakers array \"only\" if they have not yet staked\n        // if (!hasStaked[msg.sender]) {\n        //     stakers.push(msg.sender);\n        // }\n        //update staking status\n        isStaking[msg.sender] = true;\n        // hasStaked[msg.sender] = true;\n        emit Stake(\n            msg.sender,\n            _amount,\n            stakingBalance[msg.sender],\n            earnedBalance[msg.sender],\n            tegToken.balanceOf(msg.sender),\n            daiToken.balanceOf(msg.sender)\n        );\n        return stakingBalance[msg.sender];\n    }\n\n    //2. Unstaking Tokens (withdraw)\n    function unstakeTokens(uint256 _amount) public returns (uint256 balance) {\n        //require amounnt > 0\n        require(\n            stakingBalance[msg.sender] >= _amount &&\n                isStaking[msg.sender] == true &&\n                borrowedBalance[msg.sender] <= (stakingBalance[msg.sender]-_amount),\n            \"Staking balance must be larger than amount and you should not be staking less than borrowed amounts\"\n        );\n\n        //fetch staking balance\n        // uint256 balance = stakingBalance[msg.sender];\n\n        uint256 yieldTransfer = calculateEarningYield(msg.sender);\n        earnedTime[msg.sender] = block.timestamp;\n        uint256 balanceTransfer = _amount;\n        _amount = 0;\n        //decrease staking balance by amount\n        stakingBalance[msg.sender] -= balanceTransfer;\n        //unstake dai tokens from farm to investor\n        daiToken.transfer(msg.sender, balanceTransfer);\n\n        earnedBalance[msg.sender] += yieldTransfer;\n        // is he still staking?\n        //update staking status\n        if (stakingBalance[msg.sender] == 0) {\n            isStaking[msg.sender] = false;\n        }\n        emit Unstake(\n            msg.sender,\n            _amount,\n            stakingBalance[msg.sender],\n            earnedBalance[msg.sender],\n            tegToken.balanceOf(msg.sender),\n            daiToken.balanceOf(msg.sender)\n        );\n        return stakingBalance[msg.sender];\n    }\n\n    //3. withdraw earned yield\n    function withdrawYield() public {\n        uint256 toTransferEarned = calculateEarningYield(msg.sender);\n        uint256 toTransferLost = calculateLossYield(msg.sender);\n\n        require(\n            toTransferEarned > 0 ||\n            earnedBalance[msg.sender] > 0 ||\n            toTransferLost > 0 ||\n            lossBalance[msg.sender] > 0,\n            \"Nothing to withdraw\"\n        );\n\n        if (earnedBalance[msg.sender] != 0) {\n            uint256 oldBalanceEarned = earnedBalance[msg.sender];\n            earnedBalance[msg.sender] = 0;\n            toTransferEarned += oldBalanceEarned;\n        }\n\n        if (lossBalance[msg.sender] != 0) {\n            uint256 oldBalanceLost = lossBalance[msg.sender];\n            lossBalance[msg.sender] = 0;\n            toTransferLost += oldBalanceLost;\n        }\n\n        earnedTime[msg.sender] = block.timestamp;\n        borrowedTime[msg.sender] = block.timestamp;\n\n        tegToken.transfer(msg.sender, toTransferEarned-toTransferLost);\n        emit YieldWithdraw(\n            msg.sender,\n            toTransferEarned,\n            toTransferLost,\n            stakingBalance[msg.sender],\n            earnedBalance[msg.sender],\n            borrowedBalance[msg.sender],\n            lossBalance[msg.sender],\n            tegToken.balanceOf(msg.sender),\n            daiToken.balanceOf(msg.sender)\n        );\n    }\n\n    function calculateEarningTime(address user) public view returns (uint256) {\n        uint256 end = block.timestamp;\n        uint256 totalTime = end - earnedTime[user];\n        return totalTime;\n    }\n\n    function calculateEarningYield(address user) public view returns (uint256) {\n        uint256 time = calculateEarningTime(user) * 10**18;\n        uint256 rate = 31536000; // 100%\n        uint256 timeRate = time / rate;\n        uint256 rawYield = (stakingBalance[user] * timeRate) / 10**18;\n        return rawYield;\n    }\n\n    //4. Borrow Tokens\n    function borrowTokens(uint256 _amount) public returns (uint256 balance) {\n        //Amount staked cannot be smaller than 0,\n        //Borrower should be staking\n        //His staking balance should always be larger than borrowed amount (overcollateralized)\n        //Balance of TEG tokens should not be 0 or lower\n        require(\n            _amount > 0 &&\n                isStaking[msg.sender] == true &&\n                stakingBalance[msg.sender] >= _amount,\n            // tegToken.balanceOf(msg.sender) >= 0,\n            \"You cannot borrow zero tokens\"\n        );\n\n        if (isBorrowing[msg.sender] == true) {\n            uint256 toTransfer = calculateLossYield(msg.sender);\n            lossBalance[msg.sender] += toTransfer;\n        }\n        // Transfer Mock Dai to borrower\n        // daiToken.approve(address(this), _amount);\n        daiToken.transfer(msg.sender, _amount);\n        //update start time\n        borrowedTime[msg.sender] = block.timestamp;\n        //update borrowed balance\n        borrowedBalance[msg.sender] += _amount;\n        //update borrowing status\n        isBorrowing[msg.sender] = true;\n        emit Borrow(\n            msg.sender,\n            _amount,\n            borrowedBalance[msg.sender],\n            lossBalance[msg.sender],\n            tegToken.balanceOf(msg.sender),\n            daiToken.balanceOf(msg.sender)\n        );\n        return borrowedBalance[msg.sender];\n    }\n\n    //5. Repay Tokens\n    function repayTokens(uint256 _amount) public returns (uint256 balance) {\n        //require amount > 0\n        require(\n            borrowedBalance[msg.sender] >= _amount &&\n                isBorrowing[msg.sender] == true,\n            \"Borrowed balance must be larger than amount\"\n        );\n\n        uint256 yieldTransfer = calculateLossYield(msg.sender);\n        borrowedTime[msg.sender] = block.timestamp;\n        uint256 balanceTransfer = _amount;\n        _amount = 0;\n        //decrease borrowed balance by amount\n        borrowedBalance[msg.sender] -= balanceTransfer;\n        //repay dai tokens to farm\n        daiToken.transferFrom(msg.sender, address(this), balanceTransfer);\n\n        lossBalance[msg.sender] += yieldTransfer;\n        // is he still staking?\n        //update staking status\n        if (borrowedBalance[msg.sender] == 0) {\n            isBorrowing[msg.sender] = false;\n        }\n        emit Repay(\n            msg.sender,\n            _amount,\n            borrowedBalance[msg.sender],\n            lossBalance[msg.sender],\n            tegToken.balanceOf(msg.sender),\n            daiToken.balanceOf(msg.sender)\n        );\n        return borrowedBalance[msg.sender];\n    }\n\n    // //3. withdraw loss yield\n    // function withdrawLossYield() public {\n    //     uint256 toTransfer = calculateLossYield(msg.sender);\n\n    //     require(\n    //         toTransfer > 0 || lossBalance[msg.sender] > 0,\n    //         \"Nothing to withdraw\"\n    //     );\n\n    //     if (lossBalance[msg.sender] != 0) {\n    //         uint256 oldBalance = lossBalance[msg.sender];\n    //         lossBalance[msg.sender] = 0;\n    //         toTransfer += oldBalance;\n    //     }\n\n    //     borrowedTime[msg.sender] = block.timestamp;\n    //     tegToken.transfer(msg.sender, toTransfer);\n    //     emit YieldLossWithdraw(\n    //         msg.sender,\n    //         toTransfer,\n    //         borrowedBalance[msg.sender],\n    //         lossBalance[msg.sender],\n    //         tegToken.balanceOf(msg.sender),\n    //         daiToken.balanceOf(msg.sender)\n    //     );\n    // }\n\n    function calculateBorrowTime(address user) public view returns (uint256) {\n        uint256 end = block.timestamp;\n        uint256 totalTime = end - borrowedTime[user];\n        return totalTime;\n    }\n\n    function calculateLossYield(address user) public view returns (uint256) {\n        uint256 time = calculateBorrowTime(user) * 10**18;\n        uint256 rate = 28669090; // 110%\n        uint256 timeRate = time / rate;\n        uint256 rawYield = (borrowedBalance[user] * timeRate) / 10**18;\n        return rawYield;\n    }\n}\n",
  "sourcePath": "/home/frankperler/Development/Codeworks/projects/blockchain/tegridyfarm/client/src/contracts/TokenFarm.sol",
  "compiler": {
    "name": "solc",
    "version": "0.8.6+commit.11564f7e.Emscripten.clang"
  },
  "schemaVersion": "3.4.2",
  "updatedAt": "2021-07-29T17:58:15.345Z",
  "networkType": "ethereum",
  "devdoc": {
    "kind": "dev",
    "methods": {},
    "version": 1
  },
  "userdoc": {
    "kind": "user",
    "methods": {},
    "version": 1
  }
}