{
  "contractName": "TokenFarm",
  "abi": [
    {
      "inputs": [
        {
          "internalType": "contract TegToken",
          "name": "_tegToken",
          "type": "address"
        },
        {
          "internalType": "contract DaiToken",
          "name": "_daiToken",
          "type": "address"
        }
      ],
      "stateMutability": "nonpayable",
      "type": "constructor"
    },
    {
      "inputs": [],
      "name": "daiToken",
      "outputs": [
        {
          "internalType": "contract DaiToken",
          "name": "",
          "type": "address"
        }
      ],
      "stateMutability": "view",
      "type": "function",
      "constant": true
    },
    {
      "inputs": [
        {
          "internalType": "address",
          "name": "",
          "type": "address"
        }
      ],
      "name": "hasStaked",
      "outputs": [
        {
          "internalType": "bool",
          "name": "",
          "type": "bool"
        }
      ],
      "stateMutability": "view",
      "type": "function",
      "constant": true
    },
    {
      "inputs": [
        {
          "internalType": "address",
          "name": "",
          "type": "address"
        }
      ],
      "name": "isStaking",
      "outputs": [
        {
          "internalType": "bool",
          "name": "",
          "type": "bool"
        }
      ],
      "stateMutability": "view",
      "type": "function",
      "constant": true
    },
    {
      "inputs": [],
      "name": "name",
      "outputs": [
        {
          "internalType": "string",
          "name": "",
          "type": "string"
        }
      ],
      "stateMutability": "view",
      "type": "function",
      "constant": true
    },
    {
      "inputs": [],
      "name": "owner",
      "outputs": [
        {
          "internalType": "address",
          "name": "",
          "type": "address"
        }
      ],
      "stateMutability": "view",
      "type": "function",
      "constant": true
    },
    {
      "inputs": [
        {
          "internalType": "uint256",
          "name": "",
          "type": "uint256"
        }
      ],
      "name": "stakers",
      "outputs": [
        {
          "internalType": "address",
          "name": "",
          "type": "address"
        }
      ],
      "stateMutability": "view",
      "type": "function",
      "constant": true
    },
    {
      "inputs": [
        {
          "internalType": "address",
          "name": "",
          "type": "address"
        }
      ],
      "name": "stakingBalance",
      "outputs": [
        {
          "internalType": "uint256",
          "name": "",
          "type": "uint256"
        }
      ],
      "stateMutability": "view",
      "type": "function",
      "constant": true
    },
    {
      "inputs": [],
      "name": "tegToken",
      "outputs": [
        {
          "internalType": "contract TegToken",
          "name": "",
          "type": "address"
        }
      ],
      "stateMutability": "view",
      "type": "function",
      "constant": true
    },
    {
      "inputs": [
        {
          "internalType": "uint256",
          "name": "_amount",
          "type": "uint256"
        }
      ],
      "name": "stakeTokens",
      "outputs": [],
      "stateMutability": "nonpayable",
      "type": "function"
    },
    {
      "inputs": [],
      "name": "unstakeTokens",
      "outputs": [],
      "stateMutability": "nonpayable",
      "type": "function"
    },
    {
      "inputs": [],
      "name": "issueTokens",
      "outputs": [],
      "stateMutability": "nonpayable",
      "type": "function"
    }
  ],
  "bytecode": "0x60806040526040518060400160405280601281526020017f5465677269747920546f6b656e204661726d0000000000000000000000000000815250600090805190602001906200005192919062000150565b503480156200005f57600080fd5b50604051620014983803806200149883398181016040528101906200008591906200022e565b81600260006101000a81548173ffffffffffffffffffffffffffffffffffffffff021916908373ffffffffffffffffffffffffffffffffffffffff16021790555080600360006101000a81548173ffffffffffffffffffffffffffffffffffffffff021916908373ffffffffffffffffffffffffffffffffffffffff16021790555033600160006101000a81548173ffffffffffffffffffffffffffffffffffffffff021916908373ffffffffffffffffffffffffffffffffffffffff16021790555050506200036f565b8280546200015e90620002d1565b90600052602060002090601f016020900481019282620001825760008555620001ce565b82601f106200019d57805160ff1916838001178555620001ce565b82800160010185558215620001ce579182015b82811115620001cd578251825591602001919060010190620001b0565b5b509050620001dd9190620001e1565b5090565b5b80821115620001fc576000816000905550600101620001e2565b5090565b60008151905062000211816200033b565b92915050565b600081519050620002288162000355565b92915050565b6000806040838503121562000248576200024762000336565b5b6000620002588582860162000217565b92505060206200026b8582860162000200565b9150509250929050565b60006200028282620002b1565b9050919050565b6000620002968262000275565b9050919050565b6000620002aa8262000275565b9050919050565b600073ffffffffffffffffffffffffffffffffffffffff82169050919050565b60006002820490506001821680620002ea57607f821691505b6020821081141562000301576200030062000307565b5b50919050565b7f4e487b7100000000000000000000000000000000000000000000000000000000600052602260045260246000fd5b600080fd5b620003468162000289565b81146200035257600080fd5b50565b62000360816200029d565b81146200036c57600080fd5b50565b611119806200037f6000396000f3fe608060405234801561001057600080fd5b50600436106100a95760003560e01c80637547c7a3116100715780637547c7a3146101545780638da5cb5b14610170578063a5ce413b1461018e578063be22f54614610198578063c93c8f34146101b6578063fd5e6dd1146101e6576100a9565b806306fdde03146100ae57806345bc78ab146100cc5780635400a834146100fc57806360ab58521461011a5780636f49712b14610124575b600080fd5b6100b6610216565b6040516100c39190610ce7565b60405180910390f35b6100e660048036038101906100e19190610aa7565b6102a4565b6040516100f39190610d69565b60405180910390f35b6101046102bc565b6040516101119190610ccc565b60405180910390f35b6101226102e2565b005b61013e60048036038101906101399190610aa7565b6104db565b60405161014b9190610c96565b60405180910390f35b61016e60048036038101906101699190610b01565b6104fb565b005b6101786107e6565b6040516101859190610c1b565b60405180910390f35b61019661080c565b005b6101a06109e3565b6040516101ad9190610cb1565b60405180910390f35b6101d060048036038101906101cb9190610aa7565b610a09565b6040516101dd9190610c96565b60405180910390f35b61020060048036038101906101fb9190610b01565b610a29565b60405161020d9190610c1b565b60405180910390f35b6000805461022390610eb9565b80601f016020809104026020016040519081016040528092919081815260200182805461024f90610eb9565b801561029c5780601f106102715761010080835404028352916020019161029c565b820191906000526020600020905b81548152906001019060200180831161027f57829003601f168201915b505050505081565b60056020528060005260406000206000915090505481565b600260009054906101000a900473ffffffffffffffffffffffffffffffffffffffff1681565b600160009054906101000a900473ffffffffffffffffffffffffffffffffffffffff1673ffffffffffffffffffffffffffffffffffffffff163373ffffffffffffffffffffffffffffffffffffffff1614610372576040517f08c379a000000000000000000000000000000000000000000000000000000000815260040161036990610d09565b60405180910390fd5b60005b6004805490508110156104d85760006004828154811061039857610397610f92565b5b9060005260206000200160009054906101000a900473ffffffffffffffffffffffffffffffffffffffff1690506000600560008373ffffffffffffffffffffffffffffffffffffffff1673ffffffffffffffffffffffffffffffffffffffff16815260200190815260200160002054905060008111156104c357600260009054906101000a900473ffffffffffffffffffffffffffffffffffffffff1673ffffffffffffffffffffffffffffffffffffffff1663a9059cbb83836040518363ffffffff1660e01b815260040161046f929190610c6d565b602060405180830381600087803b15801561048957600080fd5b505af115801561049d573d6000803e3d6000fd5b505050506040513d601f19601f820116820180604052508101906104c19190610ad4565b505b505080806104d090610eeb565b915050610375565b50565b60076020528060005260406000206000915054906101000a900460ff1681565b6000811161053e576040517f08c379a000000000000000000000000000000000000000000000000000000000815260040161053590610d49565b60405180910390fd5b600360009054906101000a900473ffffffffffffffffffffffffffffffffffffffff1673ffffffffffffffffffffffffffffffffffffffff166323b872dd3330846040518463ffffffff1660e01b815260040161059d93929190610c36565b602060405180830381600087803b1580156105b757600080fd5b505af11580156105cb573d6000803e3d6000fd5b505050506040513d601f19601f820116820180604052508101906105ef9190610ad4565b5080600560003373ffffffffffffffffffffffffffffffffffffffff1673ffffffffffffffffffffffffffffffffffffffff1681526020019081526020016000205461063b9190610da0565b600560003373ffffffffffffffffffffffffffffffffffffffff1673ffffffffffffffffffffffffffffffffffffffff16815260200190815260200160002081905550600660003373ffffffffffffffffffffffffffffffffffffffff1673ffffffffffffffffffffffffffffffffffffffff16815260200190815260200160002060009054906101000a900460ff16610733576004339080600181540180825580915050600190039060005260206000200160009091909190916101000a81548173ffffffffffffffffffffffffffffffffffffffff021916908373ffffffffffffffffffffffffffffffffffffffff1602179055505b6001600760003373ffffffffffffffffffffffffffffffffffffffff1673ffffffffffffffffffffffffffffffffffffffff16815260200190815260200160002060006101000a81548160ff0219169083151502179055506001600660003373ffffffffffffffffffffffffffffffffffffffff1673ffffffffffffffffffffffffffffffffffffffff16815260200190815260200160002060006101000a81548160ff02191690831515021790555050565b600160009054906101000a900473ffffffffffffffffffffffffffffffffffffffff1681565b6000600560003373ffffffffffffffffffffffffffffffffffffffff1673ffffffffffffffffffffffffffffffffffffffff16815260200190815260200160002054905060008111610893576040517f08c379a000000000000000000000000000000000000000000000000000000000815260040161088a90610d29565b60405180910390fd5b600360009054906101000a900473ffffffffffffffffffffffffffffffffffffffff1673ffffffffffffffffffffffffffffffffffffffff1663a9059cbb33836040518363ffffffff1660e01b81526004016108f0929190610c6d565b602060405180830381600087803b15801561090a57600080fd5b505af115801561091e573d6000803e3d6000fd5b505050506040513d601f19601f820116820180604052508101906109429190610ad4565b506000600560003373ffffffffffffffffffffffffffffffffffffffff1673ffffffffffffffffffffffffffffffffffffffff168152602001908152602001600020819055506000600760003373ffffffffffffffffffffffffffffffffffffffff1673ffffffffffffffffffffffffffffffffffffffff16815260200190815260200160002060006101000a81548160ff02191690831515021790555050565b600360009054906101000a900473ffffffffffffffffffffffffffffffffffffffff1681565b60066020528060005260406000206000915054906101000a900460ff1681565b60048181548110610a3957600080fd5b906000526020600020016000915054906101000a900473ffffffffffffffffffffffffffffffffffffffff1681565b600081359050610a778161109e565b92915050565b600081519050610a8c816110b5565b92915050565b600081359050610aa1816110cc565b92915050565b600060208284031215610abd57610abc610fc1565b5b6000610acb84828501610a68565b91505092915050565b600060208284031215610aea57610ae9610fc1565b5b6000610af884828501610a7d565b91505092915050565b600060208284031215610b1757610b16610fc1565b5b6000610b2584828501610a92565b91505092915050565b610b3781610df6565b82525050565b610b4681610e08565b82525050565b610b5581610e3e565b82525050565b610b6481610e62565b82525050565b6000610b7582610d84565b610b7f8185610d8f565b9350610b8f818560208601610e86565b610b9881610fc6565b840191505092915050565b6000610bb0602183610d8f565b9150610bbb82610fd7565b604082019050919050565b6000610bd3602483610d8f565b9150610bde82611026565b604082019050919050565b6000610bf6601283610d8f565b9150610c0182611075565b602082019050919050565b610c1581610e34565b82525050565b6000602082019050610c306000830184610b2e565b92915050565b6000606082019050610c4b6000830186610b2e565b610c586020830185610b2e565b610c656040830184610c0c565b949350505050565b6000604082019050610c826000830185610b2e565b610c8f6020830184610c0c565b9392505050565b6000602082019050610cab6000830184610b3d565b92915050565b6000602082019050610cc66000830184610b4c565b92915050565b6000602082019050610ce16000830184610b5b565b92915050565b60006020820190508181036000830152610d018184610b6a565b905092915050565b60006020820190508181036000830152610d2281610ba3565b9050919050565b60006020820190508181036000830152610d4281610bc6565b9050919050565b60006020820190508181036000830152610d6281610be9565b9050919050565b6000602082019050610d7e6000830184610c0c565b92915050565b600081519050919050565b600082825260208201905092915050565b6000610dab82610e34565b9150610db683610e34565b9250827fffffffffffffffffffffffffffffffffffffffffffffffffffffffffffffffff03821115610deb57610dea610f34565b5b828201905092915050565b6000610e0182610e14565b9050919050565b60008115159050919050565b600073ffffffffffffffffffffffffffffffffffffffff82169050919050565b6000819050919050565b6000610e4982610e50565b9050919050565b6000610e5b82610e14565b9050919050565b6000610e6d82610e74565b9050919050565b6000610e7f82610e14565b9050919050565b60005b83811015610ea4578082015181840152602081019050610e89565b83811115610eb3576000848401525b50505050565b60006002820490506001821680610ed157607f821691505b60208210811415610ee557610ee4610f63565b5b50919050565b6000610ef682610e34565b91507fffffffffffffffffffffffffffffffffffffffffffffffffffffffffffffffff821415610f2957610f28610f34565b5b600182019050919050565b7f4e487b7100000000000000000000000000000000000000000000000000000000600052601160045260246000fd5b7f4e487b7100000000000000000000000000000000000000000000000000000000600052602260045260246000fd5b7f4e487b7100000000000000000000000000000000000000000000000000000000600052603260045260246000fd5b600080fd5b6000601f19601f8301169050919050565b7f6f6e6c79206f776e65722063616e2063616c6c20746869732066756e6374696f60008201527f6e00000000000000000000000000000000000000000000000000000000000000602082015250565b7f7374616b696e672062616c616e63652063616e6e6f742062652030206f72206c60008201527f6f77657200000000000000000000000000000000000000000000000000000000602082015250565b7f616d6f756e742063616e6e6f7420626520300000000000000000000000000000600082015250565b6110a781610df6565b81146110b257600080fd5b50565b6110be81610e08565b81146110c957600080fd5b50565b6110d581610e34565b81146110e057600080fd5b5056fea2646970667358221220e2e7650446cb679e2b62f4ca99d6e89f0932bd197adc7c3d8930431ac105165164736f6c63430008060033",
  "immutableReferences": {},
  "source": "// \"SPDX-License-Identifier: UNLICENSED\"\npragma solidity ^0.8.6;\n\nimport \"./DaiToken.sol\";\nimport \"./TegToken.sol\";\n\ncontract TokenFarm {\n\n    string public name = \"Tegrity Token Farm\";\n\n    address public owner;\n    TegToken public tegToken;\n    DaiToken public daiToken;\n\n    address[] public stakers;\n    mapping(address => uint) public stakingBalance;\n    mapping(address => bool) public hasStaked;\n    mapping(address => bool) public isStaking;\n\n    constructor (TegToken _tegToken, DaiToken _daiToken) {\n        tegToken = _tegToken;\n        daiToken = _daiToken;\n        owner = msg.sender;\n    }\n\n    //1. Stake Tokens (deposit)\n    function stakeTokens(uint256 _amount) public {\n      //Amount staked cannot be smaller than 0\n      require(_amount > 0, 'amount cannot be 0');\n      // Transfer Mock Dai to this contract for staking\n      daiToken.transferFrom(msg.sender, address(this), _amount);\n      //update staking balance\n      stakingBalance[msg.sender] = stakingBalance[msg.sender] + _amount; \n      // add user to stakers array \"only\" if they have not yet staked\n      if(!hasStaked[msg.sender]) {\n        stakers.push(msg.sender);\n      }\n      //update staking status\n      isStaking[msg.sender] = true;\n      hasStaked[msg.sender] = true;\n    }\n\n    //2. Unstaking Tokens (withdraw)\n    function unstakeTokens() public {\n      //fetch staking balance\n      uint balance = stakingBalance[msg.sender];\n      //require amounnt > 0\n      require(balance>0, 'staking balance cannot be 0 or lower');\n      //unstake dai tokens from farm to investor\n      daiToken.transfer(msg.sender, balance);\n      //reset staking balance\n      stakingBalance[msg.sender] = 0;\n      //update staking status\n      isStaking[msg.sender] = false;\n    }\n\n    //3. Issuing Teg Tokens to investor on a regular basis\n    function issueTokens() public {\n      require(msg.sender==owner, 'only owner can call this function');\n      for (uint i=0; i<stakers.length; i++) {\n        address recipient = stakers[i];\n        uint balance = stakingBalance[recipient];\n        if (balance > 0) {\n          tegToken.transfer(recipient, balance); // send exactly the same amount of tegToken than dai Token deposited\n        }\n      }\n    }\n}\n",
  "sourcePath": "/home/frankperler/Development/Codeworks/projects/blockchain/tegridyfarm/client/src/contracts/TokenFarm.sol",
  "compiler": {
    "name": "solc",
    "version": "0.8.6+commit.11564f7e.Emscripten.clang"
  },
  "schemaVersion": "3.4.2",
  "updatedAt": "2021-07-27T17:17:13.081Z",
  "networkType": "ethereum",
  "devdoc": {
    "kind": "dev",
    "methods": {},
    "version": 1
  },
  "userdoc": {
    "kind": "user",
    "methods": {},
    "version": 1
  }
}