{
  "contractName": "TokenFarm",
  "abi": [
    {
      "inputs": [
        {
          "internalType": "contract TegToken",
          "name": "_tegToken",
          "type": "address"
        },
        {
          "internalType": "contract DaiToken",
          "name": "_daiToken",
          "type": "address"
        },
        {
          "internalType": "contract EthToken",
          "name": "_ethToken",
          "type": "address"
        },
        {
          "internalType": "contract UsdtToken",
          "name": "_usdtToken",
          "type": "address"
        }
      ],
      "stateMutability": "nonpayable",
      "type": "constructor"
    },
    {
      "anonymous": false,
      "inputs": [
        {
          "indexed": true,
          "internalType": "address",
          "name": "from",
          "type": "address"
        },
        {
          "indexed": false,
          "internalType": "uint256",
          "name": "amount",
          "type": "uint256"
        },
        {
          "indexed": false,
          "internalType": "uint256",
          "name": "borrowBal",
          "type": "uint256"
        },
        {
          "indexed": false,
          "internalType": "uint256",
          "name": "lossBal",
          "type": "uint256"
        },
        {
          "indexed": false,
          "internalType": "uint256",
          "name": "tegBal",
          "type": "uint256"
        },
        {
          "indexed": false,
          "internalType": "uint256",
          "name": "daiBal",
          "type": "uint256"
        },
        {
          "indexed": false,
          "internalType": "uint256",
          "name": "ethBal",
          "type": "uint256"
        },
        {
          "indexed": false,
          "internalType": "uint256",
          "name": "usdtBal",
          "type": "uint256"
        }
      ],
      "name": "Borrow",
      "type": "event"
    },
    {
      "anonymous": false,
      "inputs": [
        {
          "indexed": true,
          "internalType": "address",
          "name": "from",
          "type": "address"
        },
        {
          "indexed": false,
          "internalType": "uint256",
          "name": "amount",
          "type": "uint256"
        },
        {
          "indexed": false,
          "internalType": "uint256",
          "name": "borrowBal",
          "type": "uint256"
        },
        {
          "indexed": false,
          "internalType": "uint256",
          "name": "lossBal",
          "type": "uint256"
        },
        {
          "indexed": false,
          "internalType": "uint256",
          "name": "tegBal",
          "type": "uint256"
        },
        {
          "indexed": false,
          "internalType": "uint256",
          "name": "daiBal",
          "type": "uint256"
        },
        {
          "indexed": false,
          "internalType": "uint256",
          "name": "ethBal",
          "type": "uint256"
        },
        {
          "indexed": false,
          "internalType": "uint256",
          "name": "usdtBal",
          "type": "uint256"
        }
      ],
      "name": "Repay",
      "type": "event"
    },
    {
      "anonymous": false,
      "inputs": [
        {
          "indexed": true,
          "internalType": "address",
          "name": "from",
          "type": "address"
        },
        {
          "indexed": false,
          "internalType": "uint256",
          "name": "amount",
          "type": "uint256"
        },
        {
          "indexed": false,
          "internalType": "uint256",
          "name": "stakingBal",
          "type": "uint256"
        },
        {
          "indexed": false,
          "internalType": "uint256",
          "name": "intBal",
          "type": "uint256"
        },
        {
          "indexed": false,
          "internalType": "uint256",
          "name": "tegBal",
          "type": "uint256"
        },
        {
          "indexed": false,
          "internalType": "uint256",
          "name": "daiBal",
          "type": "uint256"
        },
        {
          "indexed": false,
          "internalType": "uint256",
          "name": "ethBal",
          "type": "uint256"
        },
        {
          "indexed": false,
          "internalType": "uint256",
          "name": "usdtBal",
          "type": "uint256"
        }
      ],
      "name": "Stake",
      "type": "event"
    },
    {
      "anonymous": false,
      "inputs": [
        {
          "indexed": true,
          "internalType": "address",
          "name": "from",
          "type": "address"
        },
        {
          "indexed": false,
          "internalType": "uint256",
          "name": "amount",
          "type": "uint256"
        },
        {
          "indexed": false,
          "internalType": "uint256",
          "name": "stakingBal",
          "type": "uint256"
        },
        {
          "indexed": false,
          "internalType": "uint256",
          "name": "intBal",
          "type": "uint256"
        },
        {
          "indexed": false,
          "internalType": "uint256",
          "name": "tegBal",
          "type": "uint256"
        },
        {
          "indexed": false,
          "internalType": "uint256",
          "name": "daiBal",
          "type": "uint256"
        },
        {
          "indexed": false,
          "internalType": "uint256",
          "name": "ethBal",
          "type": "uint256"
        },
        {
          "indexed": false,
          "internalType": "uint256",
          "name": "usdtBal",
          "type": "uint256"
        }
      ],
      "name": "Unstake",
      "type": "event"
    },
    {
      "anonymous": false,
      "inputs": [
        {
          "indexed": true,
          "internalType": "address",
          "name": "to",
          "type": "address"
        },
        {
          "indexed": false,
          "internalType": "uint256",
          "name": "amountEarned",
          "type": "uint256"
        },
        {
          "indexed": false,
          "internalType": "uint256",
          "name": "amountLost",
          "type": "uint256"
        },
        {
          "indexed": false,
          "internalType": "uint256",
          "name": "stakingBal",
          "type": "uint256"
        },
        {
          "indexed": false,
          "internalType": "uint256",
          "name": "intBal",
          "type": "uint256"
        },
        {
          "indexed": false,
          "internalType": "uint256",
          "name": "borrowBal",
          "type": "uint256"
        },
        {
          "indexed": false,
          "internalType": "uint256",
          "name": "lossBal",
          "type": "uint256"
        },
        {
          "indexed": false,
          "internalType": "uint256",
          "name": "tegBal",
          "type": "uint256"
        },
        {
          "indexed": false,
          "internalType": "uint256",
          "name": "daiBal",
          "type": "uint256"
        },
        {
          "indexed": false,
          "internalType": "uint256",
          "name": "ethBal",
          "type": "uint256"
        },
        {
          "indexed": false,
          "internalType": "uint256",
          "name": "usdtBal",
          "type": "uint256"
        }
      ],
      "name": "YieldWithdraw",
      "type": "event"
    },
    {
      "inputs": [
        {
          "internalType": "address",
          "name": "",
          "type": "address"
        },
        {
          "internalType": "string",
          "name": "",
          "type": "string"
        }
      ],
      "name": "borrowedBalance",
      "outputs": [
        {
          "internalType": "uint256",
          "name": "",
          "type": "uint256"
        }
      ],
      "stateMutability": "view",
      "type": "function",
      "constant": true
    },
    {
      "inputs": [
        {
          "internalType": "address",
          "name": "",
          "type": "address"
        },
        {
          "internalType": "string",
          "name": "",
          "type": "string"
        }
      ],
      "name": "borrowedTime",
      "outputs": [
        {
          "internalType": "uint256",
          "name": "",
          "type": "uint256"
        }
      ],
      "stateMutability": "view",
      "type": "function",
      "constant": true
    },
    {
      "inputs": [],
      "name": "daiToken",
      "outputs": [
        {
          "internalType": "contract DaiToken",
          "name": "",
          "type": "address"
        }
      ],
      "stateMutability": "view",
      "type": "function",
      "constant": true
    },
    {
      "inputs": [
        {
          "internalType": "address",
          "name": "",
          "type": "address"
        },
        {
          "internalType": "string",
          "name": "",
          "type": "string"
        }
      ],
      "name": "earnedBalance",
      "outputs": [
        {
          "internalType": "uint256",
          "name": "",
          "type": "uint256"
        }
      ],
      "stateMutability": "view",
      "type": "function",
      "constant": true
    },
    {
      "inputs": [
        {
          "internalType": "address",
          "name": "",
          "type": "address"
        },
        {
          "internalType": "string",
          "name": "",
          "type": "string"
        }
      ],
      "name": "earnedTime",
      "outputs": [
        {
          "internalType": "uint256",
          "name": "",
          "type": "uint256"
        }
      ],
      "stateMutability": "view",
      "type": "function",
      "constant": true
    },
    {
      "inputs": [],
      "name": "ethToken",
      "outputs": [
        {
          "internalType": "contract EthToken",
          "name": "",
          "type": "address"
        }
      ],
      "stateMutability": "view",
      "type": "function",
      "constant": true
    },
    {
      "inputs": [
        {
          "internalType": "address",
          "name": "",
          "type": "address"
        },
        {
          "internalType": "string",
          "name": "",
          "type": "string"
        }
      ],
      "name": "isBorrowing",
      "outputs": [
        {
          "internalType": "bool",
          "name": "",
          "type": "bool"
        }
      ],
      "stateMutability": "view",
      "type": "function",
      "constant": true
    },
    {
      "inputs": [
        {
          "internalType": "address",
          "name": "",
          "type": "address"
        },
        {
          "internalType": "string",
          "name": "",
          "type": "string"
        }
      ],
      "name": "isStaking",
      "outputs": [
        {
          "internalType": "bool",
          "name": "",
          "type": "bool"
        }
      ],
      "stateMutability": "view",
      "type": "function",
      "constant": true
    },
    {
      "inputs": [
        {
          "internalType": "address",
          "name": "",
          "type": "address"
        },
        {
          "internalType": "string",
          "name": "",
          "type": "string"
        }
      ],
      "name": "lossBalance",
      "outputs": [
        {
          "internalType": "uint256",
          "name": "",
          "type": "uint256"
        }
      ],
      "stateMutability": "view",
      "type": "function",
      "constant": true
    },
    {
      "inputs": [],
      "name": "name",
      "outputs": [
        {
          "internalType": "string",
          "name": "",
          "type": "string"
        }
      ],
      "stateMutability": "view",
      "type": "function",
      "constant": true
    },
    {
      "inputs": [],
      "name": "owner",
      "outputs": [
        {
          "internalType": "address",
          "name": "",
          "type": "address"
        }
      ],
      "stateMutability": "view",
      "type": "function",
      "constant": true
    },
    {
      "inputs": [
        {
          "internalType": "address",
          "name": "",
          "type": "address"
        },
        {
          "internalType": "string",
          "name": "",
          "type": "string"
        }
      ],
      "name": "stakingBalance",
      "outputs": [
        {
          "internalType": "uint256",
          "name": "",
          "type": "uint256"
        }
      ],
      "stateMutability": "view",
      "type": "function",
      "constant": true
    },
    {
      "inputs": [],
      "name": "tegToken",
      "outputs": [
        {
          "internalType": "contract TegToken",
          "name": "",
          "type": "address"
        }
      ],
      "stateMutability": "view",
      "type": "function",
      "constant": true
    },
    {
      "inputs": [],
      "name": "usdtToken",
      "outputs": [
        {
          "internalType": "contract UsdtToken",
          "name": "",
          "type": "address"
        }
      ],
      "stateMutability": "view",
      "type": "function",
      "constant": true
    },
    {
      "inputs": [
        {
          "internalType": "uint256",
          "name": "_amount",
          "type": "uint256"
        },
        {
          "internalType": "string",
          "name": "_tok",
          "type": "string"
        }
      ],
      "name": "stakeTokens",
      "outputs": [],
      "stateMutability": "nonpayable",
      "type": "function"
    },
    {
      "inputs": [
        {
          "internalType": "uint256",
          "name": "_amount",
          "type": "uint256"
        },
        {
          "internalType": "string",
          "name": "_tok",
          "type": "string"
        }
      ],
      "name": "unstakeTokens",
      "outputs": [],
      "stateMutability": "nonpayable",
      "type": "function"
    },
    {
      "inputs": [
        {
          "internalType": "uint256",
          "name": "_amount",
          "type": "uint256"
        },
        {
          "internalType": "string",
          "name": "_tok",
          "type": "string"
        }
      ],
      "name": "borrowTokens",
      "outputs": [],
      "stateMutability": "nonpayable",
      "type": "function"
    },
    {
      "inputs": [
        {
          "internalType": "uint256",
          "name": "_amount",
          "type": "uint256"
        },
        {
          "internalType": "string",
          "name": "_tok",
          "type": "string"
        }
      ],
      "name": "repayTokens",
      "outputs": [],
      "stateMutability": "nonpayable",
      "type": "function"
    },
    {
      "inputs": [
        {
          "internalType": "string",
          "name": "_tok",
          "type": "string"
        }
      ],
      "name": "withdrawYield",
      "outputs": [],
      "stateMutability": "nonpayable",
      "type": "function"
    }
  ],
  "bytecode": "0x60806040526040518060400160405280601281526020017f5465677269647920546f6b656e204661726d00000000000000000000000000008152506000908051906020019062000051929190620001d4565b503480156200005f57600080fd5b5060405162005257380380620052578339818101604052810190620000859190620002e0565b83600260006101000a81548173ffffffffffffffffffffffffffffffffffffffff021916908373ffffffffffffffffffffffffffffffffffffffff16021790555082600360006101000a81548173ffffffffffffffffffffffffffffffffffffffff021916908373ffffffffffffffffffffffffffffffffffffffff16021790555081600460006101000a81548173ffffffffffffffffffffffffffffffffffffffff021916908373ffffffffffffffffffffffffffffffffffffffff16021790555080600560006101000a81548173ffffffffffffffffffffffffffffffffffffffff021916908373ffffffffffffffffffffffffffffffffffffffff16021790555033600160006101000a81548173ffffffffffffffffffffffffffffffffffffffff021916908373ffffffffffffffffffffffffffffffffffffffff16021790555050505050620004a8565b828054620001e290620003d6565b90600052602060002090601f01602090048101928262000206576000855562000252565b82601f106200022157805160ff191683800117855562000252565b8280016001018555821562000252579182015b828111156200025157825182559160200191906001019062000234565b5b50905062000261919062000265565b5090565b5b808211156200028057600081600090555060010162000266565b5090565b600081519050620002958162000440565b92915050565b600081519050620002ac816200045a565b92915050565b600081519050620002c38162000474565b92915050565b600081519050620002da816200048e565b92915050565b60008060008060808587031215620002fd57620002fc6200043b565b5b60006200030d87828801620002b2565b9450506020620003208782880162000284565b935050604062000333878288016200029b565b92505060606200034687828801620002c9565b91505092959194509250565b60006200035f82620003b6565b9050919050565b6000620003738262000352565b9050919050565b6000620003878262000352565b9050919050565b60006200039b8262000352565b9050919050565b6000620003af8262000352565b9050919050565b600073ffffffffffffffffffffffffffffffffffffffff82169050919050565b60006002820490506001821680620003ef57607f821691505b602082108114156200040657620004056200040c565b5b50919050565b7f4e487b7100000000000000000000000000000000000000000000000000000000600052602260045260246000fd5b600080fd5b6200044b8162000366565b81146200045757600080fd5b50565b62000465816200037a565b81146200047157600080fd5b50565b6200047f816200038e565b81146200048b57600080fd5b50565b6200049981620003a2565b8114620004a557600080fd5b50565b614d9f80620004b86000396000f3fe608060405234801561001057600080fd5b50600436106101215760003560e01c80639085b4ba116100ad578063be28969f11610071578063be28969f1461031e578063c0fe19291461033a578063d44920cb1461036a578063f5a3f6d11461039a578063ff33e294146103ca57610121565b80639085b4ba1461026657806394ebf4f114610282578063a4aa6e13146102b2578063a98ad46c146102e2578063be22f5461461030057610121565b80635400a834116100f45780635400a834146101ac57806366df2db0146101ca5780637bf1a627146101fa57806386672bcf146102185780638da5cb5b1461024857610121565b8063014253e81461012657806306fdde03146101425780630d9a9411146101605780632cf100941461017c575b600080fd5b610140600480360381019061013b91906145ae565b6103e6565b005b61014a610ea4565b6040516101579190614805565b60405180910390f35b61017a600480360381019061017591906145ae565b610f32565b005b610196600480360381019061019191906144af565b611b3c565b6040516101a39190614827565b60405180910390f35b6101b4611b77565b6040516101c191906147cf565b60405180910390f35b6101e460048036038101906101df91906144af565b611b9d565b6040516101f19190614827565b60405180910390f35b610202611bd8565b60405161020f91906147b4565b60405180910390f35b610232600480360381019061022d91906144af565b611bfe565b60405161023f9190614827565b60405180910390f35b610250611c39565b60405161025d9190614703565b60405180910390f35b610280600480360381019061027b9190614538565b611c5f565b005b61029c600480360381019061029791906144af565b612824565b6040516102a99190614827565b60405180910390f35b6102cc60048036038101906102c791906144af565b61285f565b6040516102d99190614827565b60405180910390f35b6102ea61289a565b6040516102f791906147ea565b60405180910390f35b6103086128c0565b6040516103159190614799565b60405180910390f35b610338600480360381019061033391906145ae565b6128e6565b005b610354600480360381019061034f91906144af565b6135bc565b604051610361919061477e565b60405180910390f35b610384600480360381019061037f91906144af565b613601565b604051610391919061477e565b60405180910390f35b6103b460048036038101906103af91906144af565b613646565b6040516103c19190614827565b60405180910390f35b6103e460048036038101906103df91906145ae565b613681565b005b600082118015610462575060011515600a60003373ffffffffffffffffffffffffffffffffffffffff1673ffffffffffffffffffffffffffffffffffffffff1681526020019081526020016000208260405161044291906146ec565b908152602001604051809103902060009054906101000a900460ff161515145b80156104c9575081600660003373ffffffffffffffffffffffffffffffffffffffff1673ffffffffffffffffffffffffffffffffffffffff168152602001908152602001600020826040516104b791906146ec565b90815260200160405180910390205410155b6104d257600080fd5b60011515600b60003373ffffffffffffffffffffffffffffffffffffffff1673ffffffffffffffffffffffffffffffffffffffff1681526020019081526020016000208260405161052391906146ec565b908152602001604051809103902060009054906101000a900460ff16151514156106fe57600073__Helpers_______________________________6305620b61600d60003373ffffffffffffffffffffffffffffffffffffffff1673ffffffffffffffffffffffffffffffffffffffff168152602001908152602001600020846040516105b091906146ec565b908152602001604051809103902054600960003373ffffffffffffffffffffffffffffffffffffffff1673ffffffffffffffffffffffffffffffffffffffff1681526020019081526020016000208560405161060c91906146ec565b9081526020016040518091039020546040518363ffffffff1660e01b8152600401610638929190614842565b60206040518083038186803b15801561065057600080fd5b505af4158015610664573d6000803e3d6000fd5b505050506040513d601f19601f820116820180604052508101906106889190614581565b905080600760003373ffffffffffffffffffffffffffffffffffffffff1673ffffffffffffffffffffffffffffffffffffffff168152602001908152602001600020836040516106d891906146ec565b908152602001604051809103902060008282546106f591906149f3565b92505081905550505b61073d816040518060400160405280600381526020017f64616900000000000000000000000000000000000000000000000000000000008152506141f9565b156107f757600360009054906101000a900473ffffffffffffffffffffffffffffffffffffffff1673ffffffffffffffffffffffffffffffffffffffff1663a9059cbb33846040518363ffffffff1660e01b815260040161079f929190614755565b602060405180830381600087803b1580156107b957600080fd5b505af11580156107cd573d6000803e3d6000fd5b505050506040513d601f19601f820116820180604052508101906107f1919061450b565b506109a2565b610836816040518060400160405280600381526020017f65746800000000000000000000000000000000000000000000000000000000008152506141f9565b156108f057600460009054906101000a900473ffffffffffffffffffffffffffffffffffffffff1673ffffffffffffffffffffffffffffffffffffffff1663a9059cbb33846040518363ffffffff1660e01b8152600401610898929190614755565b602060405180830381600087803b1580156108b257600080fd5b505af11580156108c6573d6000803e3d6000fd5b505050506040513d601f19601f820116820180604052508101906108ea919061450b565b506109a1565b600560009054906101000a900473ffffffffffffffffffffffffffffffffffffffff1673ffffffffffffffffffffffffffffffffffffffff1663a9059cbb33846040518363ffffffff1660e01b815260040161094d929190614755565b602060405180830381600087803b15801561096757600080fd5b505af115801561097b573d6000803e3d6000fd5b505050506040513d601f19601f8201168201806040525081019061099f919061450b565b505b5b42600d60003373ffffffffffffffffffffffffffffffffffffffff1673ffffffffffffffffffffffffffffffffffffffff168152602001908152602001600020826040516109f091906146ec565b90815260200160405180910390208190555081600960003373ffffffffffffffffffffffffffffffffffffffff1673ffffffffffffffffffffffffffffffffffffffff16815260200190815260200160002082604051610a5091906146ec565b90815260200160405180910390206000828254610a6d91906149f3565b925050819055506001600b60003373ffffffffffffffffffffffffffffffffffffffff1673ffffffffffffffffffffffffffffffffffffffff16815260200190815260200160002082604051610ac391906146ec565b908152602001604051809103902060006101000a81548160ff0219169083151502179055503373ffffffffffffffffffffffffffffffffffffffff167fd9af768ebb1f2bf198aecf8516ef44beb78a0f2ba8bb693bc9f9633c87cea40083600960003373ffffffffffffffffffffffffffffffffffffffff1673ffffffffffffffffffffffffffffffffffffffff16815260200190815260200160002084604051610b6e91906146ec565b908152602001604051809103902054600760003373ffffffffffffffffffffffffffffffffffffffff1673ffffffffffffffffffffffffffffffffffffffff16815260200190815260200160002085604051610bca91906146ec565b908152602001604051809103902054600260009054906101000a900473ffffffffffffffffffffffffffffffffffffffff1673ffffffffffffffffffffffffffffffffffffffff166370a08231336040518263ffffffff1660e01b8152600401610c349190614703565b60206040518083038186803b158015610c4c57600080fd5b505afa158015610c60573d6000803e3d6000fd5b505050506040513d601f19601f82011682018060405250810190610c849190614581565b600360009054906101000a900473ffffffffffffffffffffffffffffffffffffffff1673ffffffffffffffffffffffffffffffffffffffff166370a08231336040518263ffffffff1660e01b8152600401610cdf9190614703565b60206040518083038186803b158015610cf757600080fd5b505afa158015610d0b573d6000803e3d6000fd5b505050506040513d601f19601f82011682018060405250810190610d2f9190614581565b600460009054906101000a900473ffffffffffffffffffffffffffffffffffffffff1673ffffffffffffffffffffffffffffffffffffffff166370a08231336040518263ffffffff1660e01b8152600401610d8a9190614703565b60206040518083038186803b158015610da257600080fd5b505afa158015610db6573d6000803e3d6000fd5b505050506040513d601f19601f82011682018060405250810190610dda9190614581565b600560009054906101000a900473ffffffffffffffffffffffffffffffffffffffff1673ffffffffffffffffffffffffffffffffffffffff166370a08231336040518263ffffffff1660e01b8152600401610e359190614703565b60206040518083038186803b158015610e4d57600080fd5b505afa158015610e61573d6000803e3d6000fd5b505050506040513d601f19601f82011682018060405250810190610e859190614581565b604051610e98979695949392919061486b565b60405180910390a25050565b60008054610eb190614b97565b80601f0160208091040260200160405190810160405280929190818152602001828054610edd90614b97565b8015610f2a5780601f10610eff57610100808354040283529160200191610f2a565b820191906000526020600020905b815481529060010190602001808311610f0d57829003601f168201915b505050505081565b60008211610f3f57600080fd5b60011515600a60003373ffffffffffffffffffffffffffffffffffffffff1673ffffffffffffffffffffffffffffffffffffffff16815260200190815260200160002082604051610f9091906146ec565b908152602001604051809103902060009054906101000a900460ff161515141561116b57600073__Helpers_______________________________63ad9abb52600c60003373ffffffffffffffffffffffffffffffffffffffff1673ffffffffffffffffffffffffffffffffffffffff1681526020019081526020016000208460405161101d91906146ec565b908152602001604051809103902054600860003373ffffffffffffffffffffffffffffffffffffffff1673ffffffffffffffffffffffffffffffffffffffff1681526020019081526020016000208560405161107991906146ec565b9081526020016040518091039020546040518363ffffffff1660e01b81526004016110a5929190614842565b60206040518083038186803b1580156110bd57600080fd5b505af41580156110d1573d6000803e3d6000fd5b505050506040513d601f19601f820116820180604052508101906110f59190614581565b905080600860003373ffffffffffffffffffffffffffffffffffffffff1673ffffffffffffffffffffffffffffffffffffffff1681526020019081526020016000208360405161114591906146ec565b9081526020016040518091039020600082825461116291906149f3565b92505081905550505b6111aa816040518060400160405280600381526020017f64616900000000000000000000000000000000000000000000000000000000008152506141f9565b1561131d576000600360009054906101000a900473ffffffffffffffffffffffffffffffffffffffff1673ffffffffffffffffffffffffffffffffffffffff166370a08231336040518263ffffffff1660e01b815260040161120c9190614703565b60206040518083038186803b15801561122457600080fd5b505afa158015611238573d6000803e3d6000fd5b505050506040513d601f19601f8201168201806040525081019061125c9190614581565b1161126657600080fd5b600360009054906101000a900473ffffffffffffffffffffffffffffffffffffffff1673ffffffffffffffffffffffffffffffffffffffff166323b872dd3330856040518463ffffffff1660e01b81526004016112c59392919061471e565b602060405180830381600087803b1580156112df57600080fd5b505af11580156112f3573d6000803e3d6000fd5b505050506040513d601f19601f82011682018060405250810190611317919061450b565b5061163a565b61135c816040518060400160405280600381526020017f65746800000000000000000000000000000000000000000000000000000000008152506141f9565b156114cf576000600460009054906101000a900473ffffffffffffffffffffffffffffffffffffffff1673ffffffffffffffffffffffffffffffffffffffff166370a08231336040518263ffffffff1660e01b81526004016113be9190614703565b60206040518083038186803b1580156113d657600080fd5b505afa1580156113ea573d6000803e3d6000fd5b505050506040513d601f19601f8201168201806040525081019061140e9190614581565b1161141857600080fd5b600460009054906101000a900473ffffffffffffffffffffffffffffffffffffffff1673ffffffffffffffffffffffffffffffffffffffff166323b872dd3330856040518463ffffffff1660e01b81526004016114779392919061471e565b602060405180830381600087803b15801561149157600080fd5b505af11580156114a5573d6000803e3d6000fd5b505050506040513d601f19601f820116820180604052508101906114c9919061450b565b50611639565b6000600560009054906101000a900473ffffffffffffffffffffffffffffffffffffffff1673ffffffffffffffffffffffffffffffffffffffff166370a08231336040518263ffffffff1660e01b815260040161152c9190614703565b60206040518083038186803b15801561154457600080fd5b505afa158015611558573d6000803e3d6000fd5b505050506040513d601f19601f8201168201806040525081019061157c9190614581565b1161158657600080fd5b600560009054906101000a900473ffffffffffffffffffffffffffffffffffffffff1673ffffffffffffffffffffffffffffffffffffffff166323b872dd3330856040518463ffffffff1660e01b81526004016115e59392919061471e565b602060405180830381600087803b1580156115ff57600080fd5b505af1158015611613573d6000803e3d6000fd5b505050506040513d601f19601f82011682018060405250810190611637919061450b565b505b5b42600c60003373ffffffffffffffffffffffffffffffffffffffff1673ffffffffffffffffffffffffffffffffffffffff1681526020019081526020016000208260405161168891906146ec565b90815260200160405180910390208190555081600660003373ffffffffffffffffffffffffffffffffffffffff1673ffffffffffffffffffffffffffffffffffffffff168152602001908152602001600020826040516116e891906146ec565b9081526020016040518091039020600082825461170591906149f3565b925050819055506001600a60003373ffffffffffffffffffffffffffffffffffffffff1673ffffffffffffffffffffffffffffffffffffffff1681526020019081526020016000208260405161175b91906146ec565b908152602001604051809103902060006101000a81548160ff0219169083151502179055503373ffffffffffffffffffffffffffffffffffffffff167f24f5f6d5269c12080b5e892c86862fad5b9961c07ac1c9935ed3e1133ac7678483600660003373ffffffffffffffffffffffffffffffffffffffff1673ffffffffffffffffffffffffffffffffffffffff1681526020019081526020016000208460405161180691906146ec565b908152602001604051809103902054600860003373ffffffffffffffffffffffffffffffffffffffff1673ffffffffffffffffffffffffffffffffffffffff1681526020019081526020016000208560405161186291906146ec565b908152602001604051809103902054600260009054906101000a900473ffffffffffffffffffffffffffffffffffffffff1673ffffffffffffffffffffffffffffffffffffffff166370a08231336040518263ffffffff1660e01b81526004016118cc9190614703565b60206040518083038186803b1580156118e457600080fd5b505afa1580156118f8573d6000803e3d6000fd5b505050506040513d601f19601f8201168201806040525081019061191c9190614581565b600360009054906101000a900473ffffffffffffffffffffffffffffffffffffffff1673ffffffffffffffffffffffffffffffffffffffff166370a08231336040518263ffffffff1660e01b81526004016119779190614703565b60206040518083038186803b15801561198f57600080fd5b505afa1580156119a3573d6000803e3d6000fd5b505050506040513d601f19601f820116820180604052508101906119c79190614581565b600460009054906101000a900473ffffffffffffffffffffffffffffffffffffffff1673ffffffffffffffffffffffffffffffffffffffff166370a08231336040518263ffffffff1660e01b8152600401611a229190614703565b60206040518083038186803b158015611a3a57600080fd5b505afa158015611a4e573d6000803e3d6000fd5b505050506040513d601f19601f82011682018060405250810190611a729190614581565b600560009054906101000a900473ffffffffffffffffffffffffffffffffffffffff1673ffffffffffffffffffffffffffffffffffffffff166370a08231336040518263ffffffff1660e01b8152600401611acd9190614703565b60206040518083038186803b158015611ae557600080fd5b505afa158015611af9573d6000803e3d6000fd5b505050506040513d601f19601f82011682018060405250810190611b1d9190614581565b604051611b30979695949392919061486b565b60405180910390a25050565b600760205281600052604060002081805160208101820180518482526020830160208501208183528095505050505050600091509150505481565b600260009054906101000a900473ffffffffffffffffffffffffffffffffffffffff1681565b600660205281600052604060002081805160208101820180518482526020830160208501208183528095505050505050600091509150505481565b600460009054906101000a900473ffffffffffffffffffffffffffffffffffffffff1681565b600860205281600052604060002081805160208101820180518482526020830160208501208183528095505050505050600091509150505481565b600160009054906101000a900473ffffffffffffffffffffffffffffffffffffffff1681565b60008073__Helpers_______________________________63ad9abb52600c60003373ffffffffffffffffffffffffffffffffffffffff1673ffffffffffffffffffffffffffffffffffffffff16815260200190815260200160002085604051611cc991906146ec565b908152602001604051809103902054600860003373ffffffffffffffffffffffffffffffffffffffff1673ffffffffffffffffffffffffffffffffffffffff16815260200190815260200160002086604051611d2591906146ec565b9081526020016040518091039020546040518363ffffffff1660e01b8152600401611d51929190614842565b60206040518083038186803b158015611d6957600080fd5b505af4158015611d7d573d6000803e3d6000fd5b505050506040513d601f19601f82011682018060405250810190611da19190614581565b915073__Helpers_______________________________6305620b61600d60003373ffffffffffffffffffffffffffffffffffffffff1673ffffffffffffffffffffffffffffffffffffffff16815260200190815260200160002085604051611e0a91906146ec565b908152602001604051809103902054600960003373ffffffffffffffffffffffffffffffffffffffff1673ffffffffffffffffffffffffffffffffffffffff16815260200190815260200160002086604051611e6691906146ec565b9081526020016040518091039020546040518363ffffffff1660e01b8152600401611e92929190614842565b60206040518083038186803b158015611eaa57600080fd5b505af4158015611ebe573d6000803e3d6000fd5b505050506040513d601f19601f82011682018060405250810190611ee29190614581565b90506000821180611f4e57506000600860003373ffffffffffffffffffffffffffffffffffffffff1673ffffffffffffffffffffffffffffffffffffffff16815260200190815260200160002084604051611f3d91906146ec565b908152602001604051809103902054115b80611f595750600081115b80611fbf57506000600760003373ffffffffffffffffffffffffffffffffffffffff1673ffffffffffffffffffffffffffffffffffffffff16815260200190815260200160002084604051611fae91906146ec565b908152602001604051809103902054115b611fc857600080fd5b6000600860003373ffffffffffffffffffffffffffffffffffffffff1673ffffffffffffffffffffffffffffffffffffffff1681526020019081526020016000208460405161201791906146ec565b908152602001604051809103902054146120fc576000600860003373ffffffffffffffffffffffffffffffffffffffff1673ffffffffffffffffffffffffffffffffffffffff1681526020019081526020016000208460405161207a91906146ec565b90815260200160405180910390205490506000600860003373ffffffffffffffffffffffffffffffffffffffff1673ffffffffffffffffffffffffffffffffffffffff168152602001908152602001600020856040516120da91906146ec565b90815260200160405180910390208190555080836120f891906149f3565b9250505b6000600760003373ffffffffffffffffffffffffffffffffffffffff1673ffffffffffffffffffffffffffffffffffffffff1681526020019081526020016000208460405161214b91906146ec565b90815260200160405180910390205414612230576000600760003373ffffffffffffffffffffffffffffffffffffffff1673ffffffffffffffffffffffffffffffffffffffff168152602001908152602001600020846040516121ae91906146ec565b90815260200160405180910390205490506000600760003373ffffffffffffffffffffffffffffffffffffffff1673ffffffffffffffffffffffffffffffffffffffff1681526020019081526020016000208560405161220e91906146ec565b908152602001604051809103902081905550808261222c91906149f3565b9150505b42600c60003373ffffffffffffffffffffffffffffffffffffffff1673ffffffffffffffffffffffffffffffffffffffff1681526020019081526020016000208460405161227e91906146ec565b90815260200160405180910390208190555042600d60003373ffffffffffffffffffffffffffffffffffffffff1673ffffffffffffffffffffffffffffffffffffffff168152602001908152602001600020846040516122de91906146ec565b908152602001604051809103902081905550600260009054906101000a900473ffffffffffffffffffffffffffffffffffffffff1673ffffffffffffffffffffffffffffffffffffffff1663a9059cbb33838561233b9190614a49565b6040518363ffffffff1660e01b8152600401612358929190614755565b602060405180830381600087803b15801561237257600080fd5b505af1158015612386573d6000803e3d6000fd5b505050506040513d601f19601f820116820180604052508101906123aa919061450b565b503373ffffffffffffffffffffffffffffffffffffffff167f1afd49a8036d08e40d6170d505a40286c7519e92088e7c579432d89cc0dd058c8383600660003373ffffffffffffffffffffffffffffffffffffffff1673ffffffffffffffffffffffffffffffffffffffff1681526020019081526020016000208760405161243291906146ec565b908152602001604051809103902054600860003373ffffffffffffffffffffffffffffffffffffffff1673ffffffffffffffffffffffffffffffffffffffff1681526020019081526020016000208860405161248e91906146ec565b908152602001604051809103902054600960003373ffffffffffffffffffffffffffffffffffffffff1673ffffffffffffffffffffffffffffffffffffffff168152602001908152602001600020896040516124ea91906146ec565b908152602001604051809103902054600760003373ffffffffffffffffffffffffffffffffffffffff1673ffffffffffffffffffffffffffffffffffffffff1681526020019081526020016000208a60405161254691906146ec565b908152602001604051809103902054600260009054906101000a900473ffffffffffffffffffffffffffffffffffffffff1673ffffffffffffffffffffffffffffffffffffffff166370a08231336040518263ffffffff1660e01b81526004016125b09190614703565b60206040518083038186803b1580156125c857600080fd5b505afa1580156125dc573d6000803e3d6000fd5b505050506040513d601f19601f820116820180604052508101906126009190614581565b600360009054906101000a900473ffffffffffffffffffffffffffffffffffffffff1673ffffffffffffffffffffffffffffffffffffffff166370a08231336040518263ffffffff1660e01b815260040161265b9190614703565b60206040518083038186803b15801561267357600080fd5b505afa158015612687573d6000803e3d6000fd5b505050506040513d601f19601f820116820180604052508101906126ab9190614581565b600460009054906101000a900473ffffffffffffffffffffffffffffffffffffffff1673ffffffffffffffffffffffffffffffffffffffff166370a08231336040518263ffffffff1660e01b81526004016127069190614703565b60206040518083038186803b15801561271e57600080fd5b505afa158015612732573d6000803e3d6000fd5b505050506040513d601f19601f820116820180604052508101906127569190614581565b600560009054906101000a900473ffffffffffffffffffffffffffffffffffffffff1673ffffffffffffffffffffffffffffffffffffffff166370a08231336040518263ffffffff1660e01b81526004016127b19190614703565b60206040518083038186803b1580156127c957600080fd5b505afa1580156127dd573d6000803e3d6000fd5b505050506040513d601f19601f820116820180604052508101906128019190614581565b6040516128179a999897969594939291906148da565b60405180910390a2505050565b600960205281600052604060002081805160208101820180518482526020830160208501208183528095505050505050600091509150505481565b600d60205281600052604060002081805160208101820180518482526020830160208501208183528095505050505050600091509150505481565b600560009054906101000a900473ffffffffffffffffffffffffffffffffffffffff1681565b600360009054906101000a900473ffffffffffffffffffffffffffffffffffffffff1681565b81600960003373ffffffffffffffffffffffffffffffffffffffff1673ffffffffffffffffffffffffffffffffffffffff1681526020019081526020016000208260405161293491906146ec565b908152602001604051809103902054101580156129bd575060011515600b60003373ffffffffffffffffffffffffffffffffffffffff1673ffffffffffffffffffffffffffffffffffffffff1681526020019081526020016000208260405161299d91906146ec565b908152602001604051809103902060009054906101000a900460ff161515145b6129c657600080fd5b600073__Helpers_______________________________6305620b61600d60003373ffffffffffffffffffffffffffffffffffffffff1673ffffffffffffffffffffffffffffffffffffffff16815260200190815260200160002084604051612a2f91906146ec565b908152602001604051809103902054600960003373ffffffffffffffffffffffffffffffffffffffff1673ffffffffffffffffffffffffffffffffffffffff16815260200190815260200160002085604051612a8b91906146ec565b9081526020016040518091039020546040518363ffffffff1660e01b8152600401612ab7929190614842565b60206040518083038186803b158015612acf57600080fd5b505af4158015612ae3573d6000803e3d6000fd5b505050506040513d601f19601f82011682018060405250810190612b079190614581565b905042600d60003373ffffffffffffffffffffffffffffffffffffffff1673ffffffffffffffffffffffffffffffffffffffff16815260200190815260200160002083604051612b5791906146ec565b90815260200160405180910390208190555060008390506000935080600960003373ffffffffffffffffffffffffffffffffffffffff1673ffffffffffffffffffffffffffffffffffffffff16815260200190815260200160002084604051612bc091906146ec565b90815260200160405180910390206000828254612bdd9190614a49565b92505081905550612c23836040518060400160405280600381526020017f64616900000000000000000000000000000000000000000000000000000000008152506141f9565b15612d96576000600360009054906101000a900473ffffffffffffffffffffffffffffffffffffffff1673ffffffffffffffffffffffffffffffffffffffff166370a08231336040518263ffffffff1660e01b8152600401612c859190614703565b60206040518083038186803b158015612c9d57600080fd5b505afa158015612cb1573d6000803e3d6000fd5b505050506040513d601f19601f82011682018060405250810190612cd59190614581565b11612cdf57600080fd5b600360009054906101000a900473ffffffffffffffffffffffffffffffffffffffff1673ffffffffffffffffffffffffffffffffffffffff166323b872dd3330846040518463ffffffff1660e01b8152600401612d3e9392919061471e565b602060405180830381600087803b158015612d5857600080fd5b505af1158015612d6c573d6000803e3d6000fd5b505050506040513d601f19601f82011682018060405250810190612d90919061450b565b506130b3565b612dd5836040518060400160405280600381526020017f65746800000000000000000000000000000000000000000000000000000000008152506141f9565b15612f48576000600460009054906101000a900473ffffffffffffffffffffffffffffffffffffffff1673ffffffffffffffffffffffffffffffffffffffff166370a08231336040518263ffffffff1660e01b8152600401612e379190614703565b60206040518083038186803b158015612e4f57600080fd5b505afa158015612e63573d6000803e3d6000fd5b505050506040513d601f19601f82011682018060405250810190612e879190614581565b11612e9157600080fd5b600460009054906101000a900473ffffffffffffffffffffffffffffffffffffffff1673ffffffffffffffffffffffffffffffffffffffff166323b872dd3330846040518463ffffffff1660e01b8152600401612ef09392919061471e565b602060405180830381600087803b158015612f0a57600080fd5b505af1158015612f1e573d6000803e3d6000fd5b505050506040513d601f19601f82011682018060405250810190612f42919061450b565b506130b2565b6000600560009054906101000a900473ffffffffffffffffffffffffffffffffffffffff1673ffffffffffffffffffffffffffffffffffffffff166370a08231336040518263ffffffff1660e01b8152600401612fa59190614703565b60206040518083038186803b158015612fbd57600080fd5b505afa158015612fd1573d6000803e3d6000fd5b505050506040513d601f19601f82011682018060405250810190612ff59190614581565b11612fff57600080fd5b600560009054906101000a900473ffffffffffffffffffffffffffffffffffffffff1673ffffffffffffffffffffffffffffffffffffffff166323b872dd3330846040518463ffffffff1660e01b815260040161305e9392919061471e565b602060405180830381600087803b15801561307857600080fd5b505af115801561308c573d6000803e3d6000fd5b505050506040513d601f19601f820116820180604052508101906130b0919061450b565b505b5b81600760003373ffffffffffffffffffffffffffffffffffffffff1673ffffffffffffffffffffffffffffffffffffffff1681526020019081526020016000208460405161310191906146ec565b9081526020016040518091039020600082825461311e91906149f3565b925050819055506000600960003373ffffffffffffffffffffffffffffffffffffffff1673ffffffffffffffffffffffffffffffffffffffff1681526020019081526020016000208460405161317491906146ec565b90815260200160405180910390205414156131fe576000600b60003373ffffffffffffffffffffffffffffffffffffffff1673ffffffffffffffffffffffffffffffffffffffff168152602001908152602001600020846040516131d891906146ec565b908152602001604051809103902060006101000a81548160ff0219169083151502179055505b3373ffffffffffffffffffffffffffffffffffffffff167fb9b09e1e97a1231f857c5ef26995d44d06ad0adbc6c51ee321c7d2b9d7454d4c85600960003373ffffffffffffffffffffffffffffffffffffffff1673ffffffffffffffffffffffffffffffffffffffff1681526020019081526020016000208660405161328491906146ec565b908152602001604051809103902054600760003373ffffffffffffffffffffffffffffffffffffffff1673ffffffffffffffffffffffffffffffffffffffff168152602001908152602001600020876040516132e091906146ec565b908152602001604051809103902054600260009054906101000a900473ffffffffffffffffffffffffffffffffffffffff1673ffffffffffffffffffffffffffffffffffffffff166370a08231336040518263ffffffff1660e01b815260040161334a9190614703565b60206040518083038186803b15801561336257600080fd5b505afa158015613376573d6000803e3d6000fd5b505050506040513d601f19601f8201168201806040525081019061339a9190614581565b600360009054906101000a900473ffffffffffffffffffffffffffffffffffffffff1673ffffffffffffffffffffffffffffffffffffffff166370a08231336040518263ffffffff1660e01b81526004016133f59190614703565b60206040518083038186803b15801561340d57600080fd5b505afa158015613421573d6000803e3d6000fd5b505050506040513d601f19601f820116820180604052508101906134459190614581565b600460009054906101000a900473ffffffffffffffffffffffffffffffffffffffff1673ffffffffffffffffffffffffffffffffffffffff166370a08231336040518263ffffffff1660e01b81526004016134a09190614703565b60206040518083038186803b1580156134b857600080fd5b505afa1580156134cc573d6000803e3d6000fd5b505050506040513d601f19601f820116820180604052508101906134f09190614581565b600560009054906101000a900473ffffffffffffffffffffffffffffffffffffffff1673ffffffffffffffffffffffffffffffffffffffff166370a08231336040518263ffffffff1660e01b815260040161354b9190614703565b60206040518083038186803b15801561356357600080fd5b505afa158015613577573d6000803e3d6000fd5b505050506040513d601f19601f8201168201806040525081019061359b9190614581565b6040516135ae979695949392919061486b565b60405180910390a250505050565b600a602052816000526040600020818051602081018201805184825260208301602085012081835280955050505050506000915091509054906101000a900460ff1681565b600b602052816000526040600020818051602081018201805184825260208301602085012081835280955050505050506000915091509054906101000a900460ff1681565b600c60205281600052604060002081805160208101820180518482526020830160208501208183528095505050505050600091509150505481565b81600660003373ffffffffffffffffffffffffffffffffffffffff1673ffffffffffffffffffffffffffffffffffffffff168152602001908152602001600020826040516136cf91906146ec565b90815260200160405180910390205410158015613758575060011515600a60003373ffffffffffffffffffffffffffffffffffffffff1673ffffffffffffffffffffffffffffffffffffffff1681526020019081526020016000208260405161373891906146ec565b908152602001604051809103902060009054906101000a900460ff161515145b8015613825575081600660003373ffffffffffffffffffffffffffffffffffffffff1673ffffffffffffffffffffffffffffffffffffffff168152602001908152602001600020826040516137ad91906146ec565b9081526020016040518091039020546137c69190614a49565b600960003373ffffffffffffffffffffffffffffffffffffffff1673ffffffffffffffffffffffffffffffffffffffff1681526020019081526020016000208260405161381391906146ec565b90815260200160405180910390205411155b61382e57600080fd5b600073__Helpers_______________________________63ad9abb52600c60003373ffffffffffffffffffffffffffffffffffffffff1673ffffffffffffffffffffffffffffffffffffffff1681526020019081526020016000208460405161389791906146ec565b908152602001604051809103902054600860003373ffffffffffffffffffffffffffffffffffffffff1673ffffffffffffffffffffffffffffffffffffffff168152602001908152602001600020856040516138f391906146ec565b9081526020016040518091039020546040518363ffffffff1660e01b815260040161391f929190614842565b60206040518083038186803b15801561393757600080fd5b505af415801561394b573d6000803e3d6000fd5b505050506040513d601f19601f8201168201806040525081019061396f9190614581565b905042600c60003373ffffffffffffffffffffffffffffffffffffffff1673ffffffffffffffffffffffffffffffffffffffff168152602001908152602001600020836040516139bf91906146ec565b90815260200160405180910390208190555060008390506000935080600660003373ffffffffffffffffffffffffffffffffffffffff1673ffffffffffffffffffffffffffffffffffffffff16815260200190815260200160002084604051613a2891906146ec565b90815260200160405180910390206000828254613a459190614a49565b92505081905550613a8b836040518060400160405280600381526020017f64616900000000000000000000000000000000000000000000000000000000008152506141f9565b15613b4557600360009054906101000a900473ffffffffffffffffffffffffffffffffffffffff1673ffffffffffffffffffffffffffffffffffffffff1663a9059cbb33836040518363ffffffff1660e01b8152600401613aed929190614755565b602060405180830381600087803b158015613b0757600080fd5b505af1158015613b1b573d6000803e3d6000fd5b505050506040513d601f19601f82011682018060405250810190613b3f919061450b565b50613cf0565b613b84836040518060400160405280600381526020017f65746800000000000000000000000000000000000000000000000000000000008152506141f9565b15613c3e57600460009054906101000a900473ffffffffffffffffffffffffffffffffffffffff1673ffffffffffffffffffffffffffffffffffffffff1663a9059cbb33836040518363ffffffff1660e01b8152600401613be6929190614755565b602060405180830381600087803b158015613c0057600080fd5b505af1158015613c14573d6000803e3d6000fd5b505050506040513d601f19601f82011682018060405250810190613c38919061450b565b50613cef565b600560009054906101000a900473ffffffffffffffffffffffffffffffffffffffff1673ffffffffffffffffffffffffffffffffffffffff1663a9059cbb33836040518363ffffffff1660e01b8152600401613c9b929190614755565b602060405180830381600087803b158015613cb557600080fd5b505af1158015613cc9573d6000803e3d6000fd5b505050506040513d601f19601f82011682018060405250810190613ced919061450b565b505b5b81600860003373ffffffffffffffffffffffffffffffffffffffff1673ffffffffffffffffffffffffffffffffffffffff16815260200190815260200160002084604051613d3e91906146ec565b90815260200160405180910390206000828254613d5b91906149f3565b925050819055506000600660003373ffffffffffffffffffffffffffffffffffffffff1673ffffffffffffffffffffffffffffffffffffffff16815260200190815260200160002084604051613db191906146ec565b9081526020016040518091039020541415613e3b576000600a60003373ffffffffffffffffffffffffffffffffffffffff1673ffffffffffffffffffffffffffffffffffffffff16815260200190815260200160002084604051613e1591906146ec565b908152602001604051809103902060006101000a81548160ff0219169083151502179055505b3373ffffffffffffffffffffffffffffffffffffffff167fe674256fb9f145948c9bbcb6dda82b66ae3e261aaba131ea1827702293807b9e85600660003373ffffffffffffffffffffffffffffffffffffffff1673ffffffffffffffffffffffffffffffffffffffff16815260200190815260200160002086604051613ec191906146ec565b908152602001604051809103902054600860003373ffffffffffffffffffffffffffffffffffffffff1673ffffffffffffffffffffffffffffffffffffffff16815260200190815260200160002087604051613f1d91906146ec565b908152602001604051809103902054600260009054906101000a900473ffffffffffffffffffffffffffffffffffffffff1673ffffffffffffffffffffffffffffffffffffffff166370a08231336040518263ffffffff1660e01b8152600401613f879190614703565b60206040518083038186803b158015613f9f57600080fd5b505afa158015613fb3573d6000803e3d6000fd5b505050506040513d601f19601f82011682018060405250810190613fd79190614581565b600360009054906101000a900473ffffffffffffffffffffffffffffffffffffffff1673ffffffffffffffffffffffffffffffffffffffff166370a08231336040518263ffffffff1660e01b81526004016140329190614703565b60206040518083038186803b15801561404a57600080fd5b505afa15801561405e573d6000803e3d6000fd5b505050506040513d601f19601f820116820180604052508101906140829190614581565b600460009054906101000a900473ffffffffffffffffffffffffffffffffffffffff1673ffffffffffffffffffffffffffffffffffffffff166370a08231336040518263ffffffff1660e01b81526004016140dd9190614703565b60206040518083038186803b1580156140f557600080fd5b505afa158015614109573d6000803e3d6000fd5b505050506040513d601f19601f8201168201806040525081019061412d9190614581565b600560009054906101000a900473ffffffffffffffffffffffffffffffffffffffff1673ffffffffffffffffffffffffffffffffffffffff166370a08231336040518263ffffffff1660e01b81526004016141889190614703565b60206040518083038186803b1580156141a057600080fd5b505afa1580156141b4573d6000803e3d6000fd5b505050506040513d601f19601f820116820180604052508101906141d89190614581565b6040516141eb979695949392919061486b565b60405180910390a250505050565b600080614206848461420f565b14905092915050565b6000808390506000839050600082519050808251101561422e57815190505b60005b818110156143915782818151811061424c5761424b614ca1565b5b602001015160f81c60f81b7effffffffffffffffffffffffffffffffffffffffffffffffffffffffffffff191684828151811061428c5761428b614ca1565b5b602001015160f81c60f81b7effffffffffffffffffffffffffffffffffffffffffffffffffffffffffffff191610156142eb577fffffffffffffffffffffffffffffffffffffffffffffffffffffffffffffffff9450505050506143e5565b8281815181106142fe576142fd614ca1565b5b602001015160f81c60f81b7effffffffffffffffffffffffffffffffffffffffffffffffffffffffffffff191684828151811061433e5761433d614ca1565b5b602001015160f81c60f81b7effffffffffffffffffffffffffffffffffffffffffffffffffffffffffffff1916111561437e5760019450505050506143e5565b808061438990614bfa565b915050614231565b508151835110156143c7577fffffffffffffffffffffffffffffffffffffffffffffffffffffffffffffffff93505050506143e5565b8151835111156143dd57600193505050506143e5565b600093505050505b92915050565b60006143fe6143f98461499b565b614976565b90508281526020810184848401111561441a57614419614d04565b5b614425848285614b55565b509392505050565b60008135905061443c81614d24565b92915050565b60008151905061445181614d3b565b92915050565b600082601f83011261446c5761446b614cff565b5b813561447c8482602086016143eb565b91505092915050565b60008135905061449481614d52565b92915050565b6000815190506144a981614d52565b92915050565b600080604083850312156144c6576144c5614d0e565b5b60006144d48582860161442d565b925050602083013567ffffffffffffffff8111156144f5576144f4614d09565b5b61450185828601614457565b9150509250929050565b60006020828403121561452157614520614d0e565b5b600061452f84828501614442565b91505092915050565b60006020828403121561454e5761454d614d0e565b5b600082013567ffffffffffffffff81111561456c5761456b614d09565b5b61457884828501614457565b91505092915050565b60006020828403121561459757614596614d0e565b5b60006145a58482850161449a565b91505092915050565b600080604083850312156145c5576145c4614d0e565b5b60006145d385828601614485565b925050602083013567ffffffffffffffff8111156145f4576145f3614d09565b5b61460085828601614457565b9150509250929050565b61461381614a7d565b82525050565b61462281614a8f565b82525050565b61463181614ac5565b82525050565b61464081614ae9565b82525050565b61464f81614b0d565b82525050565b61465e81614b31565b82525050565b600061466f826149cc565b61467981856149d7565b9350614689818560208601614b64565b61469281614d13565b840191505092915050565b60006146a8826149cc565b6146b281856149e8565b93506146c2818560208601614b64565b80840191505092915050565b6146d781614abb565b82525050565b6146e681614abb565b82525050565b60006146f8828461469d565b915081905092915050565b6000602082019050614718600083018461460a565b92915050565b6000606082019050614733600083018661460a565b614740602083018561460a565b61474d60408301846146ce565b949350505050565b600060408201905061476a600083018561460a565b61477760208301846146ce565b9392505050565b60006020820190506147936000830184614619565b92915050565b60006020820190506147ae6000830184614628565b92915050565b60006020820190506147c96000830184614637565b92915050565b60006020820190506147e46000830184614646565b92915050565b60006020820190506147ff6000830184614655565b92915050565b6000602082019050818103600083015261481f8184614664565b905092915050565b600060208201905061483c60008301846146ce565b92915050565b600060408201905061485760008301856146dd565b61486460208301846146dd565b9392505050565b600060e082019050614880600083018a6146ce565b61488d60208301896146ce565b61489a60408301886146ce565b6148a760608301876146ce565b6148b460808301866146ce565b6148c160a08301856146ce565b6148ce60c08301846146ce565b98975050505050505050565b6000610140820190506148f0600083018d6146ce565b6148fd602083018c6146ce565b61490a604083018b6146ce565b614917606083018a6146ce565b61492460808301896146ce565b61493160a08301886146ce565b61493e60c08301876146ce565b61494b60e08301866146ce565b6149596101008301856146ce565b6149676101208301846146ce565b9b9a5050505050505050505050565b6000614980614991565b905061498c8282614bc9565b919050565b6000604051905090565b600067ffffffffffffffff8211156149b6576149b5614cd0565b5b6149bf82614d13565b9050602081019050919050565b600081519050919050565b600082825260208201905092915050565b600081905092915050565b60006149fe82614abb565b9150614a0983614abb565b9250827fffffffffffffffffffffffffffffffffffffffffffffffffffffffffffffffff03821115614a3e57614a3d614c43565b5b828201905092915050565b6000614a5482614abb565b9150614a5f83614abb565b925082821015614a7257614a71614c43565b5b828203905092915050565b6000614a8882614a9b565b9050919050565b60008115159050919050565b600073ffffffffffffffffffffffffffffffffffffffff82169050919050565b6000819050919050565b6000614ad082614ad7565b9050919050565b6000614ae282614a9b565b9050919050565b6000614af482614afb565b9050919050565b6000614b0682614a9b565b9050919050565b6000614b1882614b1f565b9050919050565b6000614b2a82614a9b565b9050919050565b6000614b3c82614b43565b9050919050565b6000614b4e82614a9b565b9050919050565b82818337600083830152505050565b60005b83811015614b82578082015181840152602081019050614b67565b83811115614b91576000848401525b50505050565b60006002820490506001821680614baf57607f821691505b60208210811415614bc357614bc2614c72565b5b50919050565b614bd282614d13565b810181811067ffffffffffffffff82111715614bf157614bf0614cd0565b5b80604052505050565b6000614c0582614abb565b91507fffffffffffffffffffffffffffffffffffffffffffffffffffffffffffffffff821415614c3857614c37614c43565b5b600182019050919050565b7f4e487b7100000000000000000000000000000000000000000000000000000000600052601160045260246000fd5b7f4e487b7100000000000000000000000000000000000000000000000000000000600052602260045260246000fd5b7f4e487b7100000000000000000000000000000000000000000000000000000000600052603260045260246000fd5b7f4e487b7100000000000000000000000000000000000000000000000000000000600052604160045260246000fd5b600080fd5b600080fd5b600080fd5b600080fd5b6000601f19601f8301169050919050565b614d2d81614a7d565b8114614d3857600080fd5b50565b614d4481614a8f565b8114614d4f57600080fd5b50565b614d5b81614abb565b8114614d6657600080fd5b5056fea264697066735822122084f241045ca60020a7bcaaba28a22244f4130d2c237ebe2e3438933704834fd264736f6c63430008060033",
  "immutableReferences": {},
  "source": "//\"SPDX-License-Identifier: UNLICENSED\"\npragma solidity ^0.8.6;\n\nimport \"./DaiToken.sol\";\nimport \"./EthToken.sol\";\nimport \"./UsdtToken.sol\";\nimport \"./TegToken.sol\";\n\nimport \"./stringUtils.sol\";\nimport \"./Helpers.sol\";\n\ncontract TokenFarm {\n    string public name = \"Tegridy Token Farm\";\n\n    address public owner;\n    TegToken public tegToken;\n    DaiToken public daiToken;\n    EthToken public ethToken;\n    UsdtToken public usdtToken;\n\n    mapping(address => mapping(string => uint256)) public stakingBalance;\n    mapping(address => mapping(string => uint256)) public lossBalance;\n    mapping(address => mapping(string => uint256)) public earnedBalance;\n    mapping(address => mapping(string => uint256)) public borrowedBalance;\n    mapping(address => mapping(string => bool)) public isStaking;\n    mapping(address => mapping(string => bool)) public isBorrowing;\n    mapping(address => mapping(string => uint256)) public earnedTime;\n    mapping(address => mapping(string => uint256)) public borrowedTime;\n\n    // //eth\n    // mapping(address => uint256) public ethStakingBalance;\n    // mapping(address => uint256) public ethLossBalance;\n    // mapping(address => uint256) public ethEarnedBalance;\n    // mapping(address => uint256) public ethBorrowedBalance;\n    // mapping(address => bool) public isStakingEth;\n    // mapping(address => bool) public isBorrowingEth;\n    // mapping(address => uint256) public earnedTimeEth;\n    // mapping(address => uint256) public borrowedTimeEth;\n\n    // //usdt\n    // mapping(address => uint256) public usdtStakingBalance;\n    // mapping(address => uint256) public usdtLossBalance;\n    // mapping(address => uint256) public usdtEarnedBalance;\n    // mapping(address => uint256) public usdtBorrowedBalance;\n    // mapping(address => bool) public isStakingUsdt;\n    // mapping(address => bool) public isBorrowingUsdt;\n    // mapping(address => uint256) public earnedTimeUsdt;\n    // mapping(address => uint256) public borrowedTimeUsdt;\n\n    event Stake(\n        address indexed from,\n        uint256 amount,\n        uint256 stakingBal,\n        uint256 intBal,\n        uint256 tegBal,\n        uint256 daiBal,\n        uint256 ethBal,\n        uint256 usdtBal\n    );\n    event Unstake(\n        address indexed from,\n        uint256 amount,\n        uint256 stakingBal,\n        uint256 intBal,\n        uint256 tegBal,\n        uint256 daiBal,\n        uint256 ethBal,\n        uint256 usdtBal\n    );\n\n    event YieldWithdraw(\n        address indexed to,\n        uint256 amountEarned,\n        uint256 amountLost,\n        uint256 stakingBal,\n        uint256 intBal,\n        uint256 borrowBal,\n        uint256 lossBal,\n        uint256 tegBal,\n        uint256 daiBal,\n        uint256 ethBal,\n        uint256 usdtBal\n    );\n\n    event Borrow(\n        address indexed from,\n        uint256 amount,\n        uint256 borrowBal,\n        uint256 lossBal,\n        uint256 tegBal,\n        uint256 daiBal,\n        uint256 ethBal,\n        uint256 usdtBal\n    );\n\n    event Repay(\n        address indexed from,\n        uint256 amount,\n        uint256 borrowBal,\n        uint256 lossBal,\n        uint256 tegBal,\n        uint256 daiBal,\n        uint256 ethBal,\n        uint256 usdtBal\n    );\n\n    constructor(\n        TegToken _tegToken,\n        DaiToken _daiToken,\n        EthToken _ethToken,\n        UsdtToken _usdtToken\n    ) {\n        tegToken = _tegToken;\n        daiToken = _daiToken;\n        ethToken = _ethToken;\n        usdtToken = _usdtToken;\n        owner = msg.sender;\n    }\n\n    //1. Stake Tokens (deposit)\n    function stakeTokens(uint256 _amount, string memory _tok) public {\n        //Amount staked cannot be smaller than 0\n        require(_amount > 0);\n\n        if (isStaking[msg.sender][_tok] == true) {\n            uint256 toTransfer = Helpers.calculateEarningYield(\n                earnedTime[msg.sender][_tok],\n                earnedBalance[msg.sender][_tok]\n            );\n            earnedBalance[msg.sender][_tok] += toTransfer;\n        }\n        // Transfer to contract for staking\n        if (StringUtils.equal(_tok, \"dai\")) {\n            require(daiToken.balanceOf(msg.sender) > 0);\n            daiToken.transferFrom(msg.sender, address(this), _amount);\n        } else if (StringUtils.equal(_tok, \"eth\")) {\n            require(ethToken.balanceOf(msg.sender) > 0);\n            ethToken.transferFrom(msg.sender, address(this), _amount);\n        } else {\n            require(usdtToken.balanceOf(msg.sender) > 0);\n            usdtToken.transferFrom(msg.sender, address(this), _amount);\n        }\n\n        //update start time\n        earnedTime[msg.sender][_tok] = block.timestamp;\n        //update staking balance\n        stakingBalance[msg.sender][_tok] += _amount;\n        //update staking status\n        isStaking[msg.sender][_tok] = true;\n        emit Stake(\n            msg.sender,\n            _amount,\n            stakingBalance[msg.sender][_tok],\n            earnedBalance[msg.sender][_tok],\n            tegToken.balanceOf(msg.sender),\n            daiToken.balanceOf(msg.sender),\n            ethToken.balanceOf(msg.sender),\n            usdtToken.balanceOf(msg.sender)\n        );\n    }\n\n    //2. Unstaking Tokens (withdraw)\n    function unstakeTokens(uint256 _amount, string memory _tok) public {\n        //require amount > 0\n        require(\n            stakingBalance[msg.sender][_tok] >= _amount &&\n                isStaking[msg.sender][_tok] == true &&\n                borrowedBalance[msg.sender][_tok] <=\n                (stakingBalance[msg.sender][_tok] - _amount)\n        );\n\n        uint256 yieldTransfer = Helpers.calculateEarningYield(\n            earnedTime[msg.sender][_tok],\n            earnedBalance[msg.sender][_tok]\n        );\n        earnedTime[msg.sender][_tok] = block.timestamp;\n        uint256 balanceTransfer = _amount;\n        _amount = 0;\n        //decrease staking balance by amount\n        stakingBalance[msg.sender][_tok] -= balanceTransfer;\n        //unstake dai tokens from farm to investor\n        // Transfer to contract for staking\n        if (StringUtils.equal(_tok, \"dai\")) {\n            daiToken.transfer(msg.sender, balanceTransfer);\n        } else if (StringUtils.equal(_tok, \"eth\")) {\n            ethToken.transfer(msg.sender, balanceTransfer);\n        } else {\n            usdtToken.transfer(msg.sender, balanceTransfer);\n        }\n\n        earnedBalance[msg.sender][_tok] += yieldTransfer;\n        // is he still staking?\n        //update staking status\n        if (stakingBalance[msg.sender][_tok] == 0) {\n            isStaking[msg.sender][_tok] = false;\n        }\n        emit Unstake(\n            msg.sender,\n            _amount,\n            stakingBalance[msg.sender][_tok],\n            earnedBalance[msg.sender][_tok],\n            tegToken.balanceOf(msg.sender),\n            daiToken.balanceOf(msg.sender),\n            ethToken.balanceOf(msg.sender),\n            usdtToken.balanceOf(msg.sender)\n        );\n    }\n\n    //3. Borrow Tokens\n    function borrowTokens(uint256 _amount, string memory _tok) public {\n        //Amount staked cannot be smaller than 0,\n        //Borrower should be staking\n        //His staking balance should always be larger than borrowed amount (overcollateralized)\n        //Balance of TEG tokens should not be 0 or lower\n        require(\n            _amount > 0 &&\n                isStaking[msg.sender][_tok] == true &&\n                stakingBalance[msg.sender][_tok] >= _amount\n        );\n\n        if (isBorrowing[msg.sender][_tok] == true) {\n            uint256 toTransfer = Helpers.calculateLossYield(\n                borrowedTime[msg.sender][_tok],\n                borrowedBalance[msg.sender][_tok]\n            );\n            lossBalance[msg.sender][_tok] += toTransfer;\n        }\n        // Transfer Mock Dai to borrower\n        // daiToken.approve(address(this), _amount);\n        if (StringUtils.equal(_tok, \"dai\")) {\n            daiToken.transfer(msg.sender, _amount);\n        } else if (StringUtils.equal(_tok, \"eth\")) {\n            ethToken.transfer(msg.sender, _amount);\n        } else {\n            usdtToken.transfer(msg.sender, _amount);\n        }\n        //update start time\n        borrowedTime[msg.sender][_tok] = block.timestamp;\n        //update borrowed balance\n        borrowedBalance[msg.sender][_tok] += _amount;\n        //update borrowing status\n        isBorrowing[msg.sender][_tok] = true;\n        emit Borrow(\n            msg.sender,\n            _amount,\n            borrowedBalance[msg.sender][_tok],\n            lossBalance[msg.sender][_tok],\n            tegToken.balanceOf(msg.sender),\n            daiToken.balanceOf(msg.sender),\n            ethToken.balanceOf(msg.sender),\n            usdtToken.balanceOf(msg.sender)\n        );\n    }\n\n    //4. Repay Tokens\n    function repayTokens(uint256 _amount, string memory _tok) public {\n        require(\n            borrowedBalance[msg.sender][_tok] >= _amount &&\n                isBorrowing[msg.sender][_tok] == true\n        );\n\n        uint256 yieldTransfer = Helpers.calculateLossYield(\n            borrowedTime[msg.sender][_tok],\n            borrowedBalance[msg.sender][_tok]\n        );\n        borrowedTime[msg.sender][_tok] = block.timestamp;\n        uint256 balanceTransfer = _amount;\n        _amount = 0;\n        //decrease borrowed balance by amount\n        borrowedBalance[msg.sender][_tok] -= balanceTransfer;\n        //repay dai tokens to farm\n        if (StringUtils.equal(_tok, \"dai\")) {\n            require(daiToken.balanceOf(msg.sender) > 0);\n            daiToken.transferFrom(msg.sender, address(this), balanceTransfer);\n        } else if (StringUtils.equal(_tok, \"eth\")) {\n            require(ethToken.balanceOf(msg.sender) > 0);\n            ethToken.transferFrom(msg.sender, address(this), balanceTransfer);\n        } else {\n            require(usdtToken.balanceOf(msg.sender) > 0);\n            usdtToken.transferFrom(msg.sender, address(this), balanceTransfer);\n        }\n\n        lossBalance[msg.sender][_tok] += yieldTransfer;\n        // is he still staking?\n        //update staking status\n        if (borrowedBalance[msg.sender][_tok] == 0) {\n            isBorrowing[msg.sender][_tok] = false;\n        }\n        emit Repay(\n            msg.sender,\n            _amount,\n            borrowedBalance[msg.sender][_tok],\n            lossBalance[msg.sender][_tok],\n            tegToken.balanceOf(msg.sender),\n            daiToken.balanceOf(msg.sender),\n            ethToken.balanceOf(msg.sender),\n            usdtToken.balanceOf(msg.sender)\n        );\n    }\n\n    //5. withdraw earned yield\n    function withdrawYield(string memory _tok) public {\n        uint256 toTransferEarned;\n        uint256 toTransferLost;\n\n        toTransferEarned = Helpers.calculateEarningYield(\n            earnedTime[msg.sender][_tok],\n            earnedBalance[msg.sender][_tok]\n        );\n        toTransferLost = Helpers.calculateLossYield(\n            borrowedTime[msg.sender][_tok],\n            borrowedBalance[msg.sender][_tok]\n        );\n\n        require(\n            toTransferEarned > 0 ||\n                earnedBalance[msg.sender][_tok] > 0 ||\n                toTransferLost > 0 ||\n                lossBalance[msg.sender][_tok] > 0\n        );\n\n        if (earnedBalance[msg.sender][_tok] != 0) {\n            uint256 oldBalanceEarned = earnedBalance[msg.sender][_tok];\n            earnedBalance[msg.sender][_tok] = 0;\n            toTransferEarned += oldBalanceEarned;\n        }\n\n        if (lossBalance[msg.sender][_tok] != 0) {\n            uint256 oldBalanceLost = lossBalance[msg.sender][_tok];\n            lossBalance[msg.sender][_tok] = 0;\n            toTransferLost += oldBalanceLost;\n        }\n\n        earnedTime[msg.sender][_tok] = block.timestamp;\n        borrowedTime[msg.sender][_tok] = block.timestamp;\n\n        tegToken.transfer(msg.sender, toTransferEarned - toTransferLost);\n        emit YieldWithdraw(\n            msg.sender,\n            toTransferEarned,\n            toTransferLost,\n            stakingBalance[msg.sender][_tok],\n            earnedBalance[msg.sender][_tok],\n            borrowedBalance[msg.sender][_tok],\n            lossBalance[msg.sender][_tok],\n            tegToken.balanceOf(msg.sender),\n            daiToken.balanceOf(msg.sender),\n            ethToken.balanceOf(msg.sender),\n            usdtToken.balanceOf(msg.sender)\n        );\n    }\n}\n",
  "sourcePath": "/home/frankperler/Development/Codeworks/projects/blockchain/tegridyfarm/client/src/contracts/TokenFarm.sol",
  "compiler": {
    "name": "solc",
    "version": "0.8.6+commit.11564f7e.Emscripten.clang"
  },
  "schemaVersion": "3.4.2",
  "updatedAt": "2021-07-30T21:01:00.963Z",
  "networkType": "ethereum",
  "devdoc": {
    "kind": "dev",
    "methods": {},
    "version": 1
  },
  "userdoc": {
    "kind": "user",
    "methods": {},
    "version": 1
  }
}