{
  "contractName": "TokenFarm",
  "abi": [
    {
      "inputs": [
        {
          "internalType": "contract TegToken",
          "name": "_tegToken",
          "type": "address"
        },
        {
          "internalType": "contract DaiToken",
          "name": "_daiToken",
          "type": "address"
        }
      ],
      "stateMutability": "nonpayable",
      "type": "constructor"
    },
    {
      "anonymous": false,
      "inputs": [
        {
          "indexed": true,
          "internalType": "address",
          "name": "from",
          "type": "address"
        },
        {
          "indexed": false,
          "internalType": "uint256",
          "name": "amount",
          "type": "uint256"
        }
      ],
      "name": "Stake",
      "type": "event"
    },
    {
      "anonymous": false,
      "inputs": [
        {
          "indexed": true,
          "internalType": "address",
          "name": "from",
          "type": "address"
        },
        {
          "indexed": false,
          "internalType": "uint256",
          "name": "amount",
          "type": "uint256"
        }
      ],
      "name": "Unstake",
      "type": "event"
    },
    {
      "anonymous": false,
      "inputs": [
        {
          "indexed": true,
          "internalType": "address",
          "name": "to",
          "type": "address"
        },
        {
          "indexed": false,
          "internalType": "uint256",
          "name": "amount",
          "type": "uint256"
        }
      ],
      "name": "YieldWithdraw",
      "type": "event"
    },
    {
      "inputs": [],
      "name": "daiToken",
      "outputs": [
        {
          "internalType": "contract DaiToken",
          "name": "",
          "type": "address"
        }
      ],
      "stateMutability": "view",
      "type": "function",
      "constant": true
    },
    {
      "inputs": [
        {
          "internalType": "address",
          "name": "",
          "type": "address"
        }
      ],
      "name": "hasStaked",
      "outputs": [
        {
          "internalType": "bool",
          "name": "",
          "type": "bool"
        }
      ],
      "stateMutability": "view",
      "type": "function",
      "constant": true
    },
    {
      "inputs": [
        {
          "internalType": "address",
          "name": "",
          "type": "address"
        }
      ],
      "name": "isStaking",
      "outputs": [
        {
          "internalType": "bool",
          "name": "",
          "type": "bool"
        }
      ],
      "stateMutability": "view",
      "type": "function",
      "constant": true
    },
    {
      "inputs": [],
      "name": "name",
      "outputs": [
        {
          "internalType": "string",
          "name": "",
          "type": "string"
        }
      ],
      "stateMutability": "view",
      "type": "function",
      "constant": true
    },
    {
      "inputs": [],
      "name": "owner",
      "outputs": [
        {
          "internalType": "address",
          "name": "",
          "type": "address"
        }
      ],
      "stateMutability": "view",
      "type": "function",
      "constant": true
    },
    {
      "inputs": [
        {
          "internalType": "uint256",
          "name": "",
          "type": "uint256"
        }
      ],
      "name": "stakers",
      "outputs": [
        {
          "internalType": "address",
          "name": "",
          "type": "address"
        }
      ],
      "stateMutability": "view",
      "type": "function",
      "constant": true
    },
    {
      "inputs": [
        {
          "internalType": "address",
          "name": "",
          "type": "address"
        }
      ],
      "name": "stakingBalance",
      "outputs": [
        {
          "internalType": "uint256",
          "name": "",
          "type": "uint256"
        }
      ],
      "stateMutability": "view",
      "type": "function",
      "constant": true
    },
    {
      "inputs": [
        {
          "internalType": "address",
          "name": "",
          "type": "address"
        }
      ],
      "name": "startTime",
      "outputs": [
        {
          "internalType": "uint256",
          "name": "",
          "type": "uint256"
        }
      ],
      "stateMutability": "view",
      "type": "function",
      "constant": true
    },
    {
      "inputs": [
        {
          "internalType": "address",
          "name": "",
          "type": "address"
        }
      ],
      "name": "tegBalance",
      "outputs": [
        {
          "internalType": "uint256",
          "name": "",
          "type": "uint256"
        }
      ],
      "stateMutability": "view",
      "type": "function",
      "constant": true
    },
    {
      "inputs": [],
      "name": "tegToken",
      "outputs": [
        {
          "internalType": "contract TegToken",
          "name": "",
          "type": "address"
        }
      ],
      "stateMutability": "view",
      "type": "function",
      "constant": true
    },
    {
      "inputs": [
        {
          "internalType": "uint256",
          "name": "_amount",
          "type": "uint256"
        }
      ],
      "name": "stakeTokens",
      "outputs": [],
      "stateMutability": "nonpayable",
      "type": "function"
    },
    {
      "inputs": [
        {
          "internalType": "uint256",
          "name": "_amount",
          "type": "uint256"
        }
      ],
      "name": "unstakeTokens",
      "outputs": [],
      "stateMutability": "nonpayable",
      "type": "function"
    },
    {
      "inputs": [],
      "name": "issueTokens",
      "outputs": [],
      "stateMutability": "nonpayable",
      "type": "function"
    },
    {
      "inputs": [],
      "name": "withdrawYield",
      "outputs": [],
      "stateMutability": "nonpayable",
      "type": "function"
    },
    {
      "inputs": [
        {
          "internalType": "address",
          "name": "user",
          "type": "address"
        }
      ],
      "name": "calculateYieldTime",
      "outputs": [
        {
          "internalType": "uint256",
          "name": "",
          "type": "uint256"
        }
      ],
      "stateMutability": "view",
      "type": "function",
      "constant": true
    },
    {
      "inputs": [
        {
          "internalType": "address",
          "name": "user",
          "type": "address"
        }
      ],
      "name": "calculateYieldTotal",
      "outputs": [
        {
          "internalType": "uint256",
          "name": "",
          "type": "uint256"
        }
      ],
      "stateMutability": "view",
      "type": "function",
      "constant": true
    }
  ],
  "bytecode": "0x60806040526040518060400160405280601281526020017f5465677269647920546f6b656e204661726d0000000000000000000000000000815250600090805190602001906200005192919062000150565b503480156200005f57600080fd5b5060405162001edb38038062001edb83398181016040528101906200008591906200022e565b81600260006101000a81548173ffffffffffffffffffffffffffffffffffffffff021916908373ffffffffffffffffffffffffffffffffffffffff16021790555080600360006101000a81548173ffffffffffffffffffffffffffffffffffffffff021916908373ffffffffffffffffffffffffffffffffffffffff16021790555033600160006101000a81548173ffffffffffffffffffffffffffffffffffffffff021916908373ffffffffffffffffffffffffffffffffffffffff16021790555050506200036f565b8280546200015e90620002d1565b90600052602060002090601f016020900481019282620001825760008555620001ce565b82601f106200019d57805160ff1916838001178555620001ce565b82800160010185558215620001ce579182015b82811115620001cd578251825591602001919060010190620001b0565b5b509050620001dd9190620001e1565b5090565b5b80821115620001fc576000816000905550600101620001e2565b5090565b60008151905062000211816200033b565b92915050565b600081519050620002288162000355565b92915050565b6000806040838503121562000248576200024762000336565b5b6000620002588582860162000217565b92505060206200026b8582860162000200565b9150509250929050565b60006200028282620002b1565b9050919050565b6000620002968262000275565b9050919050565b6000620002aa8262000275565b9050919050565b600073ffffffffffffffffffffffffffffffffffffffff82169050919050565b60006002820490506001821680620002ea57607f821691505b6020821081141562000301576200030062000307565b5b50919050565b7f4e487b7100000000000000000000000000000000000000000000000000000000600052602260045260246000fd5b600080fd5b620003468162000289565b81146200035257600080fd5b50565b62000360816200029d565b81146200036c57600080fd5b50565b611b5c806200037f6000396000f3fe608060405234801561001057600080fd5b50600436106101005760003560e01c80637547c7a311610097578063c93c8f3411610066578063c93c8f34146102af578063c95715b0146102df578063e507a8a41461030f578063fd5e6dd11461031957610100565b80637547c7a3146102275780638da5cb5b14610243578063980d611614610261578063be22f5461461029157610100565b8063608e4dd0116100d3578063608e4dd0146101a157806360ab5852146101bd5780636e1dc66e146101c75780636f49712b146101f757610100565b8063068726611461010557806306fdde031461013557806345bc78ab146101535780635400a83414610183575b600080fd5b61011f600480360381019061011a9190611363565b610349565b60405161012c9190611695565b60405180910390f35b61013d6103f0565b60405161014a91906115f3565b60405180910390f35b61016d60048036038101906101689190611363565b61047e565b60405161017a9190611695565b60405180910390f35b61018b610496565b60405161019891906115d8565b60405180910390f35b6101bb60048036038101906101b691906113bd565b6104bc565b005b6101c5610844565b005b6101e160048036038101906101dc9190611363565b610a3d565b6040516101ee9190611695565b60405180910390f35b610211600480360381019061020c9190611363565b610a55565b60405161021e91906115a2565b60405180910390f35b610241600480360381019061023c91906113bd565b610a75565b005b61024b610f2e565b6040516102589190611527565b60405180910390f35b61027b60048036038101906102769190611363565b610f54565b6040516102889190611695565b60405180910390f35b610299610fb3565b6040516102a691906115bd565b60405180910390f35b6102c960048036038101906102c49190611363565b610fd9565b6040516102d691906115a2565b60405180910390f35b6102f960048036038101906102f49190611363565b610ff9565b6040516103069190611695565b60405180910390f35b610317611011565b005b610333600480360381019061032e91906113bd565b6112d0565b6040516103409190611527565b60405180910390f35b600080670de0b6b3a764000061035e84610f54565b6103689190611753565b90506000620151809050600081836103809190611722565b90506000670de0b6b3a764000082600560008973ffffffffffffffffffffffffffffffffffffffff1673ffffffffffffffffffffffffffffffffffffffff168152602001908152602001600020546103d89190611753565b6103e29190611722565b905080945050505050919050565b600080546103fd906118a4565b80601f0160208091040260200160405190810160405280929190818152602001828054610429906118a4565b80156104765780601f1061044b57610100808354040283529160200191610476565b820191906000526020600020905b81548152906001019060200180831161045957829003601f168201915b505050505081565b60056020528060005260406000206000915090505481565b600260009054906101000a900473ffffffffffffffffffffffffffffffffffffffff1681565b80600560003373ffffffffffffffffffffffffffffffffffffffff1673ffffffffffffffffffffffffffffffffffffffff168152602001908152602001600020541015801561055b575060011515600760003373ffffffffffffffffffffffffffffffffffffffff1673ffffffffffffffffffffffffffffffffffffffff16815260200190815260200160002060009054906101000a900460ff161515145b61059a576040517f08c379a000000000000000000000000000000000000000000000000000000000815260040161059190611675565b60405180910390fd5b60006105a533610349565b905042600860003373ffffffffffffffffffffffffffffffffffffffff1673ffffffffffffffffffffffffffffffffffffffff1681526020019081526020016000208190555060008290506000925082600560003373ffffffffffffffffffffffffffffffffffffffff1673ffffffffffffffffffffffffffffffffffffffff168152602001908152602001600020600082825461064391906117ad565b92505081905550600360009054906101000a900473ffffffffffffffffffffffffffffffffffffffff1673ffffffffffffffffffffffffffffffffffffffff1663a9059cbb33836040518363ffffffff1660e01b81526004016106a7929190611579565b602060405180830381600087803b1580156106c157600080fd5b505af11580156106d5573d6000803e3d6000fd5b505050506040513d601f19601f820116820180604052508101906106f99190611390565b5081600960003373ffffffffffffffffffffffffffffffffffffffff1673ffffffffffffffffffffffffffffffffffffffff168152602001908152602001600020600082825461074991906116cc565b925050819055506000600560003373ffffffffffffffffffffffffffffffffffffffff1673ffffffffffffffffffffffffffffffffffffffff1681526020019081526020016000205414156107f1576000600760003373ffffffffffffffffffffffffffffffffffffffff1673ffffffffffffffffffffffffffffffffffffffff16815260200190815260200160002060006101000a81548160ff0219169083151502179055505b3373ffffffffffffffffffffffffffffffffffffffff167f85082129d87b2fe11527cb1b3b7a520aeb5aa6913f88a3d8757fe40d1db02fdd846040516108379190611695565b60405180910390a2505050565b600160009054906101000a900473ffffffffffffffffffffffffffffffffffffffff1673ffffffffffffffffffffffffffffffffffffffff163373ffffffffffffffffffffffffffffffffffffffff16146108d4576040517f08c379a00000000000000000000000000000000000000000000000000000000081526004016108cb90611615565b60405180910390fd5b60005b600480549050811015610a3a576000600482815481106108fa576108f96119ac565b5b9060005260206000200160009054906101000a900473ffffffffffffffffffffffffffffffffffffffff1690506000600560008373ffffffffffffffffffffffffffffffffffffffff1673ffffffffffffffffffffffffffffffffffffffff1681526020019081526020016000205490506000811115610a2557600260009054906101000a900473ffffffffffffffffffffffffffffffffffffffff1673ffffffffffffffffffffffffffffffffffffffff1663a9059cbb83836040518363ffffffff1660e01b81526004016109d1929190611579565b602060405180830381600087803b1580156109eb57600080fd5b505af11580156109ff573d6000803e3d6000fd5b505050506040513d601f19601f82011682018060405250810190610a239190611390565b505b50508080610a32906118d6565b9150506108d7565b50565b60086020528060005260406000206000915090505481565b60076020528060005260406000206000915054906101000a900460ff1681565b600081118015610b2f575080600360009054906101000a900473ffffffffffffffffffffffffffffffffffffffff1673ffffffffffffffffffffffffffffffffffffffff166370a08231336040518263ffffffff1660e01b8152600401610adc9190611527565b60206040518083038186803b158015610af457600080fd5b505afa158015610b08573d6000803e3d6000fd5b505050506040513d601f19601f82011682018060405250810190610b2c91906113ea565b10155b610b6e576040517f08c379a0000000000000000000000000000000000000000000000000000000008152600401610b6590611655565b60405180910390fd5b60011515600760003373ffffffffffffffffffffffffffffffffffffffff1673ffffffffffffffffffffffffffffffffffffffff16815260200190815260200160002060009054906101000a900460ff1615151415610c2c576000610bd233610349565b905080600960003373ffffffffffffffffffffffffffffffffffffffff1673ffffffffffffffffffffffffffffffffffffffff1681526020019081526020016000206000828254610c2391906116cc565b92505081905550505b600360009054906101000a900473ffffffffffffffffffffffffffffffffffffffff1673ffffffffffffffffffffffffffffffffffffffff166323b872dd3330846040518463ffffffff1660e01b8152600401610c8b93929190611542565b602060405180830381600087803b158015610ca557600080fd5b505af1158015610cb9573d6000803e3d6000fd5b505050506040513d601f19601f82011682018060405250810190610cdd9190611390565b5042600860003373ffffffffffffffffffffffffffffffffffffffff1673ffffffffffffffffffffffffffffffffffffffff1681526020019081526020016000208190555080600560003373ffffffffffffffffffffffffffffffffffffffff1673ffffffffffffffffffffffffffffffffffffffff1681526020019081526020016000206000828254610d7191906116cc565b92505081905550600660003373ffffffffffffffffffffffffffffffffffffffff1673ffffffffffffffffffffffffffffffffffffffff16815260200190815260200160002060009054906101000a900460ff16610e2d576004339080600181540180825580915050600190039060005260206000200160009091909190916101000a81548173ffffffffffffffffffffffffffffffffffffffff021916908373ffffffffffffffffffffffffffffffffffffffff1602179055505b6001600760003373ffffffffffffffffffffffffffffffffffffffff1673ffffffffffffffffffffffffffffffffffffffff16815260200190815260200160002060006101000a81548160ff0219169083151502179055506001600660003373ffffffffffffffffffffffffffffffffffffffff1673ffffffffffffffffffffffffffffffffffffffff16815260200190815260200160002060006101000a81548160ff0219169083151502179055503373ffffffffffffffffffffffffffffffffffffffff167febedb8b3c678666e7f36970bc8f57abf6d8fa2e828c0da91ea5b75bf68ed101a82604051610f239190611695565b60405180910390a250565b600160009054906101000a900473ffffffffffffffffffffffffffffffffffffffff1681565b6000804290506000600860008573ffffffffffffffffffffffffffffffffffffffff1673ffffffffffffffffffffffffffffffffffffffff1681526020019081526020016000205482610fa791906117ad565b90508092505050919050565b600360009054906101000a900473ffffffffffffffffffffffffffffffffffffffff1681565b60066020528060005260406000206000915054906101000a900460ff1681565b60096020528060005260406000206000915090505481565b600061101c33610349565b9050600081118061106c57506000600960003373ffffffffffffffffffffffffffffffffffffffff1673ffffffffffffffffffffffffffffffffffffffff16815260200190815260200160002054115b6110ab576040517f08c379a00000000000000000000000000000000000000000000000000000000081526004016110a290611635565b60405180910390fd5b6000600960003373ffffffffffffffffffffffffffffffffffffffff1673ffffffffffffffffffffffffffffffffffffffff168152602001908152602001600020541461118b576000600960003373ffffffffffffffffffffffffffffffffffffffff1673ffffffffffffffffffffffffffffffffffffffff1681526020019081526020016000205490506000600960003373ffffffffffffffffffffffffffffffffffffffff1673ffffffffffffffffffffffffffffffffffffffff16815260200190815260200160002081905550808261118791906116cc565b9150505b42600860003373ffffffffffffffffffffffffffffffffffffffff1673ffffffffffffffffffffffffffffffffffffffff16815260200190815260200160002081905550600260009054906101000a900473ffffffffffffffffffffffffffffffffffffffff1673ffffffffffffffffffffffffffffffffffffffff1663a9059cbb33836040518363ffffffff1660e01b815260040161122c929190611579565b602060405180830381600087803b15801561124657600080fd5b505af115801561125a573d6000803e3d6000fd5b505050506040513d601f19601f8201168201806040525081019061127e9190611390565b503373ffffffffffffffffffffffffffffffffffffffff167f92044e3943309ee5950e21bc7421d02c1df75f0df33c0d97c1143687b49a4c57826040516112c59190611695565b60405180910390a250565b600481815481106112e057600080fd5b906000526020600020016000915054906101000a900473ffffffffffffffffffffffffffffffffffffffff1681565b60008135905061131e81611ae1565b92915050565b60008151905061133381611af8565b92915050565b60008135905061134881611b0f565b92915050565b60008151905061135d81611b0f565b92915050565b600060208284031215611379576113786119db565b5b60006113878482850161130f565b91505092915050565b6000602082840312156113a6576113a56119db565b5b60006113b484828501611324565b91505092915050565b6000602082840312156113d3576113d26119db565b5b60006113e184828501611339565b91505092915050565b600060208284031215611400576113ff6119db565b5b600061140e8482850161134e565b91505092915050565b611420816117e1565b82525050565b61142f816117f3565b82525050565b61143e81611829565b82525050565b61144d8161184d565b82525050565b600061145e826116b0565b61146881856116bb565b9350611478818560208601611871565b611481816119e0565b840191505092915050565b60006114996021836116bb565b91506114a4826119f1565b604082019050919050565b60006114bc6013836116bb565b91506114c782611a40565b602082019050919050565b60006114df601c836116bb565b91506114ea82611a69565b602082019050919050565b60006115026024836116bb565b915061150d82611a92565b604082019050919050565b6115218161181f565b82525050565b600060208201905061153c6000830184611417565b92915050565b60006060820190506115576000830186611417565b6115646020830185611417565b6115716040830184611518565b949350505050565b600060408201905061158e6000830185611417565b61159b6020830184611518565b9392505050565b60006020820190506115b76000830184611426565b92915050565b60006020820190506115d26000830184611435565b92915050565b60006020820190506115ed6000830184611444565b92915050565b6000602082019050818103600083015261160d8184611453565b905092915050565b6000602082019050818103600083015261162e8161148c565b9050919050565b6000602082019050818103600083015261164e816114af565b9050919050565b6000602082019050818103600083015261166e816114d2565b9050919050565b6000602082019050818103600083015261168e816114f5565b9050919050565b60006020820190506116aa6000830184611518565b92915050565b600081519050919050565b600082825260208201905092915050565b60006116d78261181f565b91506116e28361181f565b9250827fffffffffffffffffffffffffffffffffffffffffffffffffffffffffffffffff038211156117175761171661191f565b5b828201905092915050565b600061172d8261181f565b91506117388361181f565b9250826117485761174761194e565b5b828204905092915050565b600061175e8261181f565b91506117698361181f565b9250817fffffffffffffffffffffffffffffffffffffffffffffffffffffffffffffffff04831182151516156117a2576117a161191f565b5b828202905092915050565b60006117b88261181f565b91506117c38361181f565b9250828210156117d6576117d561191f565b5b828203905092915050565b60006117ec826117ff565b9050919050565b60008115159050919050565b600073ffffffffffffffffffffffffffffffffffffffff82169050919050565b6000819050919050565b60006118348261183b565b9050919050565b6000611846826117ff565b9050919050565b60006118588261185f565b9050919050565b600061186a826117ff565b9050919050565b60005b8381101561188f578082015181840152602081019050611874565b8381111561189e576000848401525b50505050565b600060028204905060018216806118bc57607f821691505b602082108114156118d0576118cf61197d565b5b50919050565b60006118e18261181f565b91507fffffffffffffffffffffffffffffffffffffffffffffffffffffffffffffffff8214156119145761191361191f565b5b600182019050919050565b7f4e487b7100000000000000000000000000000000000000000000000000000000600052601160045260246000fd5b7f4e487b7100000000000000000000000000000000000000000000000000000000600052601260045260246000fd5b7f4e487b7100000000000000000000000000000000000000000000000000000000600052602260045260246000fd5b7f4e487b7100000000000000000000000000000000000000000000000000000000600052603260045260246000fd5b600080fd5b6000601f19601f8301169050919050565b7f6f6e6c79206f776e65722063616e2063616c6c20746869732066756e6374696f60008201527f6e00000000000000000000000000000000000000000000000000000000000000602082015250565b7f4e6f7468696e6720746f20776974686472617700000000000000000000000000600082015250565b7f596f752063616e6e6f74207374616b65207a65726f20746f6b656e7300000000600082015250565b7f5374616b696e672062616c616e63652063616e6e6f742062652030206f72206c60008201527f6f77657200000000000000000000000000000000000000000000000000000000602082015250565b611aea816117e1565b8114611af557600080fd5b50565b611b01816117f3565b8114611b0c57600080fd5b50565b611b188161181f565b8114611b2357600080fd5b5056fea2646970667358221220c22f221e2d62f5638afe3e8aea1362c20fc64a01e18d77519d9ed212ed5b326d64736f6c63430008060033",
  "immutableReferences": {},
  "source": "//\"SPDX-License-Identifier: UNLICENSED\"\npragma solidity ^0.8.6;\n\nimport \"./DaiToken.sol\";\nimport \"./TegToken.sol\";\n\ncontract TokenFarm {\n    string public name = \"Tegridy Token Farm\";\n\n    address public owner;\n    TegToken public tegToken;\n    DaiToken public daiToken;\n\n    address[] public stakers;\n    mapping(address => uint256) public stakingBalance;\n    mapping(address => bool) public hasStaked;\n    mapping(address => bool) public isStaking;\n    mapping(address => uint256) public startTime;\n    mapping(address => uint256) public tegBalance;\n\n    event Stake(address indexed from, uint256 amount);\n    event Unstake(address indexed from, uint256 amount);\n    event YieldWithdraw(address indexed to, uint256 amount);\n\n    constructor(TegToken _tegToken, DaiToken _daiToken) {\n        tegToken = _tegToken;\n        daiToken = _daiToken;\n        owner = msg.sender;\n    }\n\n    //1. Stake Tokens (deposit)\n    function stakeTokens(uint256 _amount) public {\n        //Amount staked cannot be smaller than 0\n        require(\n            _amount > 0 && daiToken.balanceOf(msg.sender) >= _amount,\n            \"You cannot stake zero tokens\"\n        );\n\n        if (isStaking[msg.sender] == true) {\n            uint256 toTransfer = calculateYieldTotal(msg.sender);\n            tegBalance[msg.sender] += toTransfer;\n        }\n        // Transfer Mock Dai to this contract for staking\n        daiToken.transferFrom(msg.sender, address(this), _amount);\n        //update start time\n        startTime[msg.sender] = block.timestamp;\n        //update staking balance\n        stakingBalance[msg.sender] += _amount;\n        // add user to stakers array \"only\" if they have not yet staked\n        if (!hasStaked[msg.sender]) {\n            stakers.push(msg.sender);\n        }\n        //update staking status\n        isStaking[msg.sender] = true;\n        hasStaked[msg.sender] = true;\n        emit Stake(msg.sender, _amount);\n    }\n\n    //2. Unstaking Tokens (withdraw)\n    function unstakeTokens(uint256 _amount) public {\n        //require amounnt > 0\n        require(\n            stakingBalance[msg.sender] >= _amount &&\n            isStaking[msg.sender] == true,\n            \"Staking balance cannot be 0 or lower\"\n        );\n\n        //fetch staking balance\n        // uint256 balance = stakingBalance[msg.sender];\n\n        uint256 yieldTransfer = calculateYieldTotal(msg.sender);\n        startTime[msg.sender] = block.timestamp;\n        uint256 balanceTransfer = _amount;\n        _amount = 0;\n        //decrease staking balance by amount\n        stakingBalance[msg.sender] -= _amount;\n        //unstake dai tokens from farm to investor\n        daiToken.transfer(msg.sender, balanceTransfer);\n\n        tegBalance[msg.sender] += yieldTransfer;\n        // is he still staking?\n        //update staking status\n        if(stakingBalance[msg.sender] == 0){\n            isStaking[msg.sender] = false;\n        }\n        emit Unstake(msg.sender, _amount);\n    }\n\n    //3. Issuing Teg Tokens to investor on a regular basis\n    function issueTokens() public {\n        require(msg.sender == owner, \"only owner can call this function\");\n        for (uint256 i = 0; i < stakers.length; i++) {\n            address recipient = stakers[i];\n            uint256 balance = stakingBalance[recipient];\n            if (balance > 0) {\n                tegToken.transfer(recipient, balance); // send exactly the same amount of tegToken than dai Token deposited\n            }\n        }\n    }\n\n    function withdrawYield() public {\n        uint256 toTransfer = calculateYieldTotal(msg.sender);\n\n        require(\n            toTransfer > 0 ||\n            tegBalance[msg.sender] > 0,\n            \"Nothing to withdraw\"\n            );\n            \n        if(tegBalance[msg.sender] != 0){\n            uint256 oldBalance = tegBalance[msg.sender];\n            tegBalance[msg.sender] = 0;\n            toTransfer += oldBalance;\n        }\n\n        startTime[msg.sender] = block.timestamp;\n        tegToken.transfer(msg.sender, toTransfer);\n        emit YieldWithdraw(msg.sender, toTransfer);\n    }\n\n    function calculateYieldTime(address user) public view returns(uint256){\n        uint256 end = block.timestamp;\n        uint256 totalTime = end - startTime[user];\n        return totalTime;\n    }\n\n    function calculateYieldTotal(address user) public view returns(uint256) {\n        uint256 time = calculateYieldTime(user) * 10**18;\n        uint256 rate = 86400;\n        uint256 timeRate = time / rate;\n        uint256 rawYield = (stakingBalance[user] * timeRate) / 10**18;\n        return rawYield;\n    } \n}\n",
  "sourcePath": "/home/frankperler/Development/Codeworks/projects/blockchain/tegridyfarm/client/src/contracts/TokenFarm.sol",
  "compiler": {
    "name": "solc",
    "version": "0.8.6+commit.11564f7e.Emscripten.clang"
  },
  "schemaVersion": "3.4.2",
  "updatedAt": "2021-07-28T14:00:57.780Z",
  "networkType": "ethereum",
  "devdoc": {
    "kind": "dev",
    "methods": {},
    "version": 1
  },
  "userdoc": {
    "kind": "user",
    "methods": {},
    "version": 1
  }
}