{
  "contractName": "TokenFarm",
  "abi": [
    {
      "inputs": [
        {
          "internalType": "contract TegToken",
          "name": "_tegToken",
          "type": "address"
        },
        {
          "internalType": "contract DaiToken",
          "name": "_daiToken",
          "type": "address"
        }
      ],
      "stateMutability": "nonpayable",
      "type": "constructor"
    },
    {
      "anonymous": false,
      "inputs": [
        {
          "indexed": true,
          "internalType": "address",
          "name": "from",
          "type": "address"
        },
        {
          "indexed": false,
          "internalType": "uint256",
          "name": "amount",
          "type": "uint256"
        },
        {
          "indexed": false,
          "internalType": "uint256",
          "name": "stakingBal",
          "type": "uint256"
        },
        {
          "indexed": false,
          "internalType": "uint256",
          "name": "intBal",
          "type": "uint256"
        },
        {
          "indexed": false,
          "internalType": "uint256",
          "name": "tegBal",
          "type": "uint256"
        },
        {
          "indexed": false,
          "internalType": "uint256",
          "name": "daiBal",
          "type": "uint256"
        }
      ],
      "name": "Stake",
      "type": "event"
    },
    {
      "anonymous": false,
      "inputs": [
        {
          "indexed": true,
          "internalType": "address",
          "name": "from",
          "type": "address"
        },
        {
          "indexed": false,
          "internalType": "uint256",
          "name": "amount",
          "type": "uint256"
        },
        {
          "indexed": false,
          "internalType": "uint256",
          "name": "stakingBal",
          "type": "uint256"
        },
        {
          "indexed": false,
          "internalType": "uint256",
          "name": "intBal",
          "type": "uint256"
        },
        {
          "indexed": false,
          "internalType": "uint256",
          "name": "tegBal",
          "type": "uint256"
        },
        {
          "indexed": false,
          "internalType": "uint256",
          "name": "daiBal",
          "type": "uint256"
        }
      ],
      "name": "Unstake",
      "type": "event"
    },
    {
      "anonymous": false,
      "inputs": [
        {
          "indexed": true,
          "internalType": "address",
          "name": "to",
          "type": "address"
        },
        {
          "indexed": false,
          "internalType": "uint256",
          "name": "amount",
          "type": "uint256"
        },
        {
          "indexed": false,
          "internalType": "uint256",
          "name": "stakingBal",
          "type": "uint256"
        },
        {
          "indexed": false,
          "internalType": "uint256",
          "name": "intBal",
          "type": "uint256"
        },
        {
          "indexed": false,
          "internalType": "uint256",
          "name": "tegBal",
          "type": "uint256"
        },
        {
          "indexed": false,
          "internalType": "uint256",
          "name": "daiBal",
          "type": "uint256"
        }
      ],
      "name": "YieldWithdraw",
      "type": "event"
    },
    {
      "inputs": [
        {
          "internalType": "address",
          "name": "",
          "type": "address"
        }
      ],
      "name": "borrowedBalance",
      "outputs": [
        {
          "internalType": "uint256",
          "name": "",
          "type": "uint256"
        }
      ],
      "stateMutability": "view",
      "type": "function",
      "constant": true
    },
    {
      "inputs": [],
      "name": "daiToken",
      "outputs": [
        {
          "internalType": "contract DaiToken",
          "name": "",
          "type": "address"
        }
      ],
      "stateMutability": "view",
      "type": "function",
      "constant": true
    },
    {
      "inputs": [
        {
          "internalType": "address",
          "name": "",
          "type": "address"
        }
      ],
      "name": "earnedBalance",
      "outputs": [
        {
          "internalType": "uint256",
          "name": "",
          "type": "uint256"
        }
      ],
      "stateMutability": "view",
      "type": "function",
      "constant": true
    },
    {
      "inputs": [
        {
          "internalType": "address",
          "name": "",
          "type": "address"
        }
      ],
      "name": "hasStaked",
      "outputs": [
        {
          "internalType": "bool",
          "name": "",
          "type": "bool"
        }
      ],
      "stateMutability": "view",
      "type": "function",
      "constant": true
    },
    {
      "inputs": [
        {
          "internalType": "address",
          "name": "",
          "type": "address"
        }
      ],
      "name": "isBorrowing",
      "outputs": [
        {
          "internalType": "bool",
          "name": "",
          "type": "bool"
        }
      ],
      "stateMutability": "view",
      "type": "function",
      "constant": true
    },
    {
      "inputs": [
        {
          "internalType": "address",
          "name": "",
          "type": "address"
        }
      ],
      "name": "isStaking",
      "outputs": [
        {
          "internalType": "bool",
          "name": "",
          "type": "bool"
        }
      ],
      "stateMutability": "view",
      "type": "function",
      "constant": true
    },
    {
      "inputs": [
        {
          "internalType": "address",
          "name": "",
          "type": "address"
        }
      ],
      "name": "lossBalance",
      "outputs": [
        {
          "internalType": "uint256",
          "name": "",
          "type": "uint256"
        }
      ],
      "stateMutability": "view",
      "type": "function",
      "constant": true
    },
    {
      "inputs": [],
      "name": "name",
      "outputs": [
        {
          "internalType": "string",
          "name": "",
          "type": "string"
        }
      ],
      "stateMutability": "view",
      "type": "function",
      "constant": true
    },
    {
      "inputs": [],
      "name": "owner",
      "outputs": [
        {
          "internalType": "address",
          "name": "",
          "type": "address"
        }
      ],
      "stateMutability": "view",
      "type": "function",
      "constant": true
    },
    {
      "inputs": [
        {
          "internalType": "uint256",
          "name": "",
          "type": "uint256"
        }
      ],
      "name": "stakers",
      "outputs": [
        {
          "internalType": "address",
          "name": "",
          "type": "address"
        }
      ],
      "stateMutability": "view",
      "type": "function",
      "constant": true
    },
    {
      "inputs": [
        {
          "internalType": "address",
          "name": "",
          "type": "address"
        }
      ],
      "name": "stakingBalance",
      "outputs": [
        {
          "internalType": "uint256",
          "name": "",
          "type": "uint256"
        }
      ],
      "stateMutability": "view",
      "type": "function",
      "constant": true
    },
    {
      "inputs": [
        {
          "internalType": "address",
          "name": "",
          "type": "address"
        }
      ],
      "name": "startTime",
      "outputs": [
        {
          "internalType": "uint256",
          "name": "",
          "type": "uint256"
        }
      ],
      "stateMutability": "view",
      "type": "function",
      "constant": true
    },
    {
      "inputs": [],
      "name": "tegToken",
      "outputs": [
        {
          "internalType": "contract TegToken",
          "name": "",
          "type": "address"
        }
      ],
      "stateMutability": "view",
      "type": "function",
      "constant": true
    },
    {
      "inputs": [
        {
          "internalType": "uint256",
          "name": "_amount",
          "type": "uint256"
        }
      ],
      "name": "stakeTokens",
      "outputs": [
        {
          "internalType": "uint256",
          "name": "balance",
          "type": "uint256"
        }
      ],
      "stateMutability": "nonpayable",
      "type": "function"
    },
    {
      "inputs": [
        {
          "internalType": "uint256",
          "name": "_amount",
          "type": "uint256"
        }
      ],
      "name": "unstakeTokens",
      "outputs": [
        {
          "internalType": "uint256",
          "name": "balance",
          "type": "uint256"
        }
      ],
      "stateMutability": "nonpayable",
      "type": "function"
    },
    {
      "inputs": [],
      "name": "withdrawYield",
      "outputs": [],
      "stateMutability": "nonpayable",
      "type": "function"
    },
    {
      "inputs": [
        {
          "internalType": "address",
          "name": "user",
          "type": "address"
        }
      ],
      "name": "calculateYieldTime",
      "outputs": [
        {
          "internalType": "uint256",
          "name": "",
          "type": "uint256"
        }
      ],
      "stateMutability": "view",
      "type": "function",
      "constant": true
    },
    {
      "inputs": [
        {
          "internalType": "address",
          "name": "user",
          "type": "address"
        }
      ],
      "name": "calculateYieldTotal",
      "outputs": [
        {
          "internalType": "uint256",
          "name": "",
          "type": "uint256"
        }
      ],
      "stateMutability": "view",
      "type": "function",
      "constant": true
    }
  ],
  "bytecode": "0x60806040526040518060400160405280601281526020017f5465677269647920546f6b656e204661726d0000000000000000000000000000815250600090805190602001906200005192919062000150565b503480156200005f57600080fd5b50604051620023593803806200235983398181016040528101906200008591906200022e565b81600260006101000a81548173ffffffffffffffffffffffffffffffffffffffff021916908373ffffffffffffffffffffffffffffffffffffffff16021790555080600360006101000a81548173ffffffffffffffffffffffffffffffffffffffff021916908373ffffffffffffffffffffffffffffffffffffffff16021790555033600160006101000a81548173ffffffffffffffffffffffffffffffffffffffff021916908373ffffffffffffffffffffffffffffffffffffffff16021790555050506200036f565b8280546200015e90620002d1565b90600052602060002090601f016020900481019282620001825760008555620001ce565b82601f106200019d57805160ff1916838001178555620001ce565b82800160010185558215620001ce579182015b82811115620001cd578251825591602001919060010190620001b0565b5b509050620001dd9190620001e1565b5090565b5b80821115620001fc576000816000905550600101620001e2565b5090565b60008151905062000211816200033b565b92915050565b600081519050620002288162000355565b92915050565b6000806040838503121562000248576200024762000336565b5b6000620002588582860162000217565b92505060206200026b8582860162000200565b9150509250929050565b60006200028282620002b1565b9050919050565b6000620002968262000275565b9050919050565b6000620002aa8262000275565b9050919050565b600073ffffffffffffffffffffffffffffffffffffffff82169050919050565b60006002820490506001821680620002ea57607f821691505b6020821081141562000301576200030062000307565b5b50919050565b7f4e487b7100000000000000000000000000000000000000000000000000000000600052602260045260246000fd5b600080fd5b620003468162000289565b81146200035257600080fd5b50565b62000360816200029d565b81146200036c57600080fd5b50565b611fda806200037f6000396000f3fe608060405234801561001057600080fd5b50600436106101165760003560e01c80636f49712b116100a2578063aed4730b11610071578063aed4730b14610355578063be22f54614610385578063c93c8f34146103a3578063e507a8a4146103d3578063fd5e6dd1146103dd57610116565b80636f49712b146102a75780637547c7a3146102d75780638da5cb5b14610307578063980d61161461032557610116565b806345bc78ab116100e957806345bc78ab146101c957806350711be9146101f95780635400a83414610229578063608e4dd0146102475780636e1dc66e1461027757610116565b806302b28d4b1461011b578063068726611461014b57806306fdde031461017b5780630b05904814610199575b600080fd5b61013560048036038101906101309190611898565b61040d565b6040516101429190611b87565b60405180910390f35b61016560048036038101906101609190611898565b610425565b6040516101729190611b87565b60405180910390f35b6101836104cd565b6040516101909190611b05565b60405180910390f35b6101b360048036038101906101ae9190611898565b61055b565b6040516101c09190611b87565b60405180910390f35b6101e360048036038101906101de9190611898565b610573565b6040516101f09190611b87565b60405180910390f35b610213600480360381019061020e9190611898565b61058b565b6040516102209190611ab4565b60405180910390f35b6102316105ab565b60405161023e9190611aea565b60405180910390f35b610261600480360381019061025c91906118f2565b6105d1565b60405161026e9190611b87565b60405180910390f35b610291600480360381019061028c9190611898565b610b79565b60405161029e9190611b87565b60405180910390f35b6102c160048036038101906102bc9190611898565b610b91565b6040516102ce9190611ab4565b60405180910390f35b6102f160048036038101906102ec91906118f2565b610bb1565b6040516102fe9190611b87565b60405180910390f35b61030f611289565b60405161031c9190611a39565b60405180910390f35b61033f600480360381019061033a9190611898565b6112af565b60405161034c9190611b87565b60405180910390f35b61036f600480360381019061036a9190611898565b61130e565b60405161037c9190611b87565b60405180910390f35b61038d611326565b60405161039a9190611acf565b60405180910390f35b6103bd60048036038101906103b89190611898565b61134c565b6040516103ca9190611ab4565b60405180910390f35b6103db61136c565b005b6103f760048036038101906103f291906118f2565b611805565b6040516104049190611a39565b60405180910390f35b60086020528060005260406000206000915090505481565b600080670de0b6b3a764000061043a846112af565b6104449190611c98565b905060006301e1338090506000818361045d9190611c67565b90506000670de0b6b3a764000082600560008973ffffffffffffffffffffffffffffffffffffffff1673ffffffffffffffffffffffffffffffffffffffff168152602001908152602001600020546104b59190611c98565b6104bf9190611c67565b905080945050505050919050565b600080546104da90611de9565b80601f016020809104026020016040519081016040528092919081815260200182805461050690611de9565b80156105535780601f1061052857610100808354040283529160200191610553565b820191906000526020600020905b81548152906001019060200180831161053657829003601f168201915b505050505081565b60096020528060005260406000206000915090505481565b60056020528060005260406000206000915090505481565b600a6020528060005260406000206000915054906101000a900460ff1681565b600260009054906101000a900473ffffffffffffffffffffffffffffffffffffffff1681565b600081600560003373ffffffffffffffffffffffffffffffffffffffff1673ffffffffffffffffffffffffffffffffffffffff1681526020019081526020016000205410158015610672575060011515600760003373ffffffffffffffffffffffffffffffffffffffff1673ffffffffffffffffffffffffffffffffffffffff16815260200190815260200160002060009054906101000a900460ff161515145b6106b1576040517f08c379a00000000000000000000000000000000000000000000000000000000081526004016106a890611b67565b60405180910390fd5b60006106bc33610425565b905042600c60003373ffffffffffffffffffffffffffffffffffffffff1673ffffffffffffffffffffffffffffffffffffffff1681526020019081526020016000208190555060008390506000935080600560003373ffffffffffffffffffffffffffffffffffffffff1673ffffffffffffffffffffffffffffffffffffffff168152602001908152602001600020600082825461075a9190611cf2565b92505081905550600360009054906101000a900473ffffffffffffffffffffffffffffffffffffffff1673ffffffffffffffffffffffffffffffffffffffff1663a9059cbb33836040518363ffffffff1660e01b81526004016107be929190611a8b565b602060405180830381600087803b1580156107d857600080fd5b505af11580156107ec573d6000803e3d6000fd5b505050506040513d601f19601f8201168201806040525081019061081091906118c5565b5081600660003373ffffffffffffffffffffffffffffffffffffffff1673ffffffffffffffffffffffffffffffffffffffff16815260200190815260200160002060008282546108609190611c11565b925050819055506000600560003373ffffffffffffffffffffffffffffffffffffffff1673ffffffffffffffffffffffffffffffffffffffff168152602001908152602001600020541415610908576000600760003373ffffffffffffffffffffffffffffffffffffffff1673ffffffffffffffffffffffffffffffffffffffff16815260200190815260200160002060006101000a81548160ff0219169083151502179055505b3373ffffffffffffffffffffffffffffffffffffffff167f2ae77851d374757c0aeee19fd5d8f75edac9f1f52043fb96992607c29373144185600560003373ffffffffffffffffffffffffffffffffffffffff1673ffffffffffffffffffffffffffffffffffffffff16815260200190815260200160002054600660003373ffffffffffffffffffffffffffffffffffffffff1673ffffffffffffffffffffffffffffffffffffffff16815260200190815260200160002054600260009054906101000a900473ffffffffffffffffffffffffffffffffffffffff1673ffffffffffffffffffffffffffffffffffffffff166370a08231336040518263ffffffff1660e01b8152600401610a1c9190611a39565b60206040518083038186803b158015610a3457600080fd5b505afa158015610a48573d6000803e3d6000fd5b505050506040513d601f19601f82011682018060405250810190610a6c919061191f565b600360009054906101000a900473ffffffffffffffffffffffffffffffffffffffff1673ffffffffffffffffffffffffffffffffffffffff166370a08231336040518263ffffffff1660e01b8152600401610ac79190611a39565b60206040518083038186803b158015610adf57600080fd5b505afa158015610af3573d6000803e3d6000fd5b505050506040513d601f19601f82011682018060405250810190610b17919061191f565b604051610b28959493929190611ba2565b60405180910390a2600560003373ffffffffffffffffffffffffffffffffffffffff1673ffffffffffffffffffffffffffffffffffffffff1681526020019081526020016000205492505050919050565b600c6020528060005260406000206000915090505481565b60076020528060005260406000206000915054906101000a900460ff1681565b60008082118015610c6c575081600360009054906101000a900473ffffffffffffffffffffffffffffffffffffffff1673ffffffffffffffffffffffffffffffffffffffff166370a08231336040518263ffffffff1660e01b8152600401610c199190611a39565b60206040518083038186803b158015610c3157600080fd5b505afa158015610c45573d6000803e3d6000fd5b505050506040513d601f19601f82011682018060405250810190610c69919061191f565b10155b610cab576040517f08c379a0000000000000000000000000000000000000000000000000000000008152600401610ca290611b47565b60405180910390fd5b60011515600760003373ffffffffffffffffffffffffffffffffffffffff1673ffffffffffffffffffffffffffffffffffffffff16815260200190815260200160002060009054906101000a900460ff1615151415610d69576000610d0f33610425565b905080600660003373ffffffffffffffffffffffffffffffffffffffff1673ffffffffffffffffffffffffffffffffffffffff1681526020019081526020016000206000828254610d609190611c11565b92505081905550505b600360009054906101000a900473ffffffffffffffffffffffffffffffffffffffff1673ffffffffffffffffffffffffffffffffffffffff166323b872dd3330856040518463ffffffff1660e01b8152600401610dc893929190611a54565b602060405180830381600087803b158015610de257600080fd5b505af1158015610df6573d6000803e3d6000fd5b505050506040513d601f19601f82011682018060405250810190610e1a91906118c5565b5042600c60003373ffffffffffffffffffffffffffffffffffffffff1673ffffffffffffffffffffffffffffffffffffffff1681526020019081526020016000208190555081600560003373ffffffffffffffffffffffffffffffffffffffff1673ffffffffffffffffffffffffffffffffffffffff1681526020019081526020016000206000828254610eae9190611c11565b92505081905550600b60003373ffffffffffffffffffffffffffffffffffffffff1673ffffffffffffffffffffffffffffffffffffffff16815260200190815260200160002060009054906101000a900460ff16610f6a576004339080600181540180825580915050600190039060005260206000200160009091909190916101000a81548173ffffffffffffffffffffffffffffffffffffffff021916908373ffffffffffffffffffffffffffffffffffffffff1602179055505b6001600760003373ffffffffffffffffffffffffffffffffffffffff1673ffffffffffffffffffffffffffffffffffffffff16815260200190815260200160002060006101000a81548160ff0219169083151502179055506001600b60003373ffffffffffffffffffffffffffffffffffffffff1673ffffffffffffffffffffffffffffffffffffffff16815260200190815260200160002060006101000a81548160ff0219169083151502179055503373ffffffffffffffffffffffffffffffffffffffff167fc6f8dbf1fa0a0918d52df74fa2b529a0a4da7011a24f263a28678e7504444cd683600560003373ffffffffffffffffffffffffffffffffffffffff1673ffffffffffffffffffffffffffffffffffffffff16815260200190815260200160002054600660003373ffffffffffffffffffffffffffffffffffffffff1673ffffffffffffffffffffffffffffffffffffffff16815260200190815260200160002054600260009054906101000a900473ffffffffffffffffffffffffffffffffffffffff1673ffffffffffffffffffffffffffffffffffffffff166370a08231336040518263ffffffff1660e01b815260040161112e9190611a39565b60206040518083038186803b15801561114657600080fd5b505afa15801561115a573d6000803e3d6000fd5b505050506040513d601f19601f8201168201806040525081019061117e919061191f565b600360009054906101000a900473ffffffffffffffffffffffffffffffffffffffff1673ffffffffffffffffffffffffffffffffffffffff166370a08231336040518263ffffffff1660e01b81526004016111d99190611a39565b60206040518083038186803b1580156111f157600080fd5b505afa158015611205573d6000803e3d6000fd5b505050506040513d601f19601f82011682018060405250810190611229919061191f565b60405161123a959493929190611ba2565b60405180910390a2600560003373ffffffffffffffffffffffffffffffffffffffff1673ffffffffffffffffffffffffffffffffffffffff168152602001908152602001600020549050919050565b600160009054906101000a900473ffffffffffffffffffffffffffffffffffffffff1681565b6000804290506000600c60008573ffffffffffffffffffffffffffffffffffffffff1673ffffffffffffffffffffffffffffffffffffffff16815260200190815260200160002054826113029190611cf2565b90508092505050919050565b60066020528060005260406000206000915090505481565b600360009054906101000a900473ffffffffffffffffffffffffffffffffffffffff1681565b600b6020528060005260406000206000915054906101000a900460ff1681565b600061137733610425565b905060008111806113c757506000600660003373ffffffffffffffffffffffffffffffffffffffff1673ffffffffffffffffffffffffffffffffffffffff16815260200190815260200160002054115b611406576040517f08c379a00000000000000000000000000000000000000000000000000000000081526004016113fd90611b27565b60405180910390fd5b6000600660003373ffffffffffffffffffffffffffffffffffffffff1673ffffffffffffffffffffffffffffffffffffffff16815260200190815260200160002054146114e6576000600660003373ffffffffffffffffffffffffffffffffffffffff1673ffffffffffffffffffffffffffffffffffffffff1681526020019081526020016000205490506000600660003373ffffffffffffffffffffffffffffffffffffffff1673ffffffffffffffffffffffffffffffffffffffff1681526020019081526020016000208190555080826114e29190611c11565b9150505b42600c60003373ffffffffffffffffffffffffffffffffffffffff1673ffffffffffffffffffffffffffffffffffffffff16815260200190815260200160002081905550600260009054906101000a900473ffffffffffffffffffffffffffffffffffffffff1673ffffffffffffffffffffffffffffffffffffffff1663a9059cbb33836040518363ffffffff1660e01b8152600401611587929190611a8b565b602060405180830381600087803b1580156115a157600080fd5b505af11580156115b5573d6000803e3d6000fd5b505050506040513d601f19601f820116820180604052508101906115d991906118c5565b503373ffffffffffffffffffffffffffffffffffffffff167f0523eb7cd4447067608d14ecfc8316cadef1ba0da456cd44686903ae52116aed82600560003373ffffffffffffffffffffffffffffffffffffffff1673ffffffffffffffffffffffffffffffffffffffff16815260200190815260200160002054600660003373ffffffffffffffffffffffffffffffffffffffff1673ffffffffffffffffffffffffffffffffffffffff16815260200190815260200160002054600260009054906101000a900473ffffffffffffffffffffffffffffffffffffffff1673ffffffffffffffffffffffffffffffffffffffff166370a08231336040518263ffffffff1660e01b81526004016116ee9190611a39565b60206040518083038186803b15801561170657600080fd5b505afa15801561171a573d6000803e3d6000fd5b505050506040513d601f19601f8201168201806040525081019061173e919061191f565b600360009054906101000a900473ffffffffffffffffffffffffffffffffffffffff1673ffffffffffffffffffffffffffffffffffffffff166370a08231336040518263ffffffff1660e01b81526004016117999190611a39565b60206040518083038186803b1580156117b157600080fd5b505afa1580156117c5573d6000803e3d6000fd5b505050506040513d601f19601f820116820180604052508101906117e9919061191f565b6040516117fa959493929190611ba2565b60405180910390a250565b6004818154811061181557600080fd5b906000526020600020016000915054906101000a900473ffffffffffffffffffffffffffffffffffffffff1681565b60008135905061185381611f5f565b92915050565b60008151905061186881611f76565b92915050565b60008135905061187d81611f8d565b92915050565b60008151905061189281611f8d565b92915050565b6000602082840312156118ae576118ad611ea8565b5b60006118bc84828501611844565b91505092915050565b6000602082840312156118db576118da611ea8565b5b60006118e984828501611859565b91505092915050565b60006020828403121561190857611907611ea8565b5b60006119168482850161186e565b91505092915050565b60006020828403121561193557611934611ea8565b5b600061194384828501611883565b91505092915050565b61195581611d26565b82525050565b61196481611d38565b82525050565b61197381611d6e565b82525050565b61198281611d92565b82525050565b600061199382611bf5565b61199d8185611c00565b93506119ad818560208601611db6565b6119b681611ead565b840191505092915050565b60006119ce601383611c00565b91506119d982611ebe565b602082019050919050565b60006119f1601c83611c00565b91506119fc82611ee7565b602082019050919050565b6000611a14602483611c00565b9150611a1f82611f10565b604082019050919050565b611a3381611d64565b82525050565b6000602082019050611a4e600083018461194c565b92915050565b6000606082019050611a69600083018661194c565b611a76602083018561194c565b611a836040830184611a2a565b949350505050565b6000604082019050611aa0600083018561194c565b611aad6020830184611a2a565b9392505050565b6000602082019050611ac9600083018461195b565b92915050565b6000602082019050611ae4600083018461196a565b92915050565b6000602082019050611aff6000830184611979565b92915050565b60006020820190508181036000830152611b1f8184611988565b905092915050565b60006020820190508181036000830152611b40816119c1565b9050919050565b60006020820190508181036000830152611b60816119e4565b9050919050565b60006020820190508181036000830152611b8081611a07565b9050919050565b6000602082019050611b9c6000830184611a2a565b92915050565b600060a082019050611bb76000830188611a2a565b611bc46020830187611a2a565b611bd16040830186611a2a565b611bde6060830185611a2a565b611beb6080830184611a2a565b9695505050505050565b600081519050919050565b600082825260208201905092915050565b6000611c1c82611d64565b9150611c2783611d64565b9250827fffffffffffffffffffffffffffffffffffffffffffffffffffffffffffffffff03821115611c5c57611c5b611e1b565b5b828201905092915050565b6000611c7282611d64565b9150611c7d83611d64565b925082611c8d57611c8c611e4a565b5b828204905092915050565b6000611ca382611d64565b9150611cae83611d64565b9250817fffffffffffffffffffffffffffffffffffffffffffffffffffffffffffffffff0483118215151615611ce757611ce6611e1b565b5b828202905092915050565b6000611cfd82611d64565b9150611d0883611d64565b925082821015611d1b57611d1a611e1b565b5b828203905092915050565b6000611d3182611d44565b9050919050565b60008115159050919050565b600073ffffffffffffffffffffffffffffffffffffffff82169050919050565b6000819050919050565b6000611d7982611d80565b9050919050565b6000611d8b82611d44565b9050919050565b6000611d9d82611da4565b9050919050565b6000611daf82611d44565b9050919050565b60005b83811015611dd4578082015181840152602081019050611db9565b83811115611de3576000848401525b50505050565b60006002820490506001821680611e0157607f821691505b60208210811415611e1557611e14611e79565b5b50919050565b7f4e487b7100000000000000000000000000000000000000000000000000000000600052601160045260246000fd5b7f4e487b7100000000000000000000000000000000000000000000000000000000600052601260045260246000fd5b7f4e487b7100000000000000000000000000000000000000000000000000000000600052602260045260246000fd5b600080fd5b6000601f19601f8301169050919050565b7f4e6f7468696e6720746f20776974686472617700000000000000000000000000600082015250565b7f596f752063616e6e6f74207374616b65207a65726f20746f6b656e7300000000600082015250565b7f5374616b696e672062616c616e63652063616e6e6f742062652030206f72206c60008201527f6f77657200000000000000000000000000000000000000000000000000000000602082015250565b611f6881611d26565b8114611f7357600080fd5b50565b611f7f81611d38565b8114611f8a57600080fd5b50565b611f9681611d64565b8114611fa157600080fd5b5056fea2646970667358221220c4587fc61243194d7333ede1552e121afa3fb258839b2088ae1ef59c7121ca7164736f6c63430008060033",
  "immutableReferences": {},
  "source": "//\"SPDX-License-Identifier: UNLICENSED\"\npragma solidity ^0.8.6;\n\nimport \"./DaiToken.sol\";\nimport \"./TegToken.sol\";\n\ncontract TokenFarm {\n    string public name = \"Tegridy Token Farm\";\n\n    address public owner;\n    TegToken public tegToken;\n    DaiToken public daiToken;\n\n    address[] public stakers;\n    mapping(address => uint256) public stakingBalance;\n    mapping(address => uint256) public earnedBalance;\n    mapping(address => bool) public isStaking;\n    mapping(address => uint256) public borrowedBalance;\n    mapping(address => uint256) public lossBalance;\n    mapping(address => bool) public isBorrowing;\n    mapping(address => bool) public hasStaked;\n    mapping(address => uint256) public startTime;\n\n    event Stake(address indexed from, uint256 amount, uint256 stakingBal, uint256 intBal, uint256 tegBal, uint256 daiBal);\n    event Unstake(address indexed from, uint256 amount, uint256 stakingBal, uint256 intBal, uint256 tegBal, uint256 daiBal);\n    event YieldWithdraw(address indexed to, uint256 amount, uint256 stakingBal, uint256 intBal, uint256 tegBal, uint256 daiBal);\n\n    constructor(TegToken _tegToken, DaiToken _daiToken) {\n        tegToken = _tegToken;\n        daiToken = _daiToken;\n        owner = msg.sender;\n    }\n\n    //1. Stake Tokens (deposit)\n    function stakeTokens(uint256 _amount) public returns (uint256 balance) {\n        //Amount staked cannot be smaller than 0\n        require(\n            _amount > 0 && daiToken.balanceOf(msg.sender) >= _amount,\n            \"You cannot stake zero tokens\"\n        );\n\n        if (isStaking[msg.sender] == true) {\n            uint256 toTransfer = calculateYieldTotal(msg.sender);\n            earnedBalance[msg.sender] += toTransfer;\n        }\n        // Transfer Mock Dai to this contract for staking\n        daiToken.transferFrom(msg.sender, address(this), _amount);\n        //update start time\n        startTime[msg.sender] = block.timestamp;\n        //update staking balance\n        stakingBalance[msg.sender] += _amount;\n        // add user to stakers array \"only\" if they have not yet staked\n        if (!hasStaked[msg.sender]) {\n            stakers.push(msg.sender);\n        }\n        //update staking status\n        isStaking[msg.sender] = true;\n        hasStaked[msg.sender] = true;\n        emit Stake(msg.sender, _amount, stakingBalance[msg.sender], earnedBalance[msg.sender], tegToken.balanceOf(msg.sender), daiToken.balanceOf(msg.sender));\n        return stakingBalance[msg.sender];\n    }\n\n    //2. Unstaking Tokens (withdraw)\n    function unstakeTokens(uint256 _amount) public returns (uint256 balance) {\n        //require amounnt > 0\n        require(\n            stakingBalance[msg.sender] >= _amount &&\n            isStaking[msg.sender] == true,\n            \"Staking balance cannot be 0 or lower\"\n        );\n\n        //fetch staking balance\n        // uint256 balance = stakingBalance[msg.sender];\n\n        uint256 yieldTransfer = calculateYieldTotal(msg.sender);\n        startTime[msg.sender] = block.timestamp;\n        uint256 balanceTransfer = _amount;\n        _amount = 0;\n        //decrease staking balance by amount\n        stakingBalance[msg.sender] -= balanceTransfer;\n        //unstake dai tokens from farm to investor\n        daiToken.transfer(msg.sender, balanceTransfer);\n\n        earnedBalance[msg.sender] += yieldTransfer;\n        // is he still staking?\n        //update staking status\n        if(stakingBalance[msg.sender] == 0){\n            isStaking[msg.sender] = false;\n        }\n        emit Unstake(msg.sender, _amount, stakingBalance[msg.sender], earnedBalance[msg.sender], tegToken.balanceOf(msg.sender), daiToken.balanceOf(msg.sender));\n        return stakingBalance[msg.sender];\n    }\n\n    //withdraw Yield\n    function withdrawYield() public {\n        uint256 toTransfer = calculateYieldTotal(msg.sender);\n\n        require(\n            toTransfer > 0 ||\n            earnedBalance[msg.sender] > 0,\n            \"Nothing to withdraw\"\n        );\n            \n        if(earnedBalance[msg.sender] != 0){\n            uint256 oldBalance = earnedBalance[msg.sender];\n            earnedBalance[msg.sender] = 0;\n            toTransfer += oldBalance;\n        }\n\n        startTime[msg.sender] = block.timestamp;\n        tegToken.transfer(msg.sender, toTransfer);\n        emit YieldWithdraw(msg.sender, toTransfer, stakingBalance[msg.sender], earnedBalance[msg.sender], tegToken.balanceOf(msg.sender), daiToken.balanceOf(msg.sender));\n    }\n\n    function calculateYieldTime(address user) public view returns(uint256){\n        uint256 end = block.timestamp;\n        uint256 totalTime = end - startTime[user];\n        return totalTime;\n    }\n\n    function calculateYieldTotal(address user) public view returns(uint256) {\n        uint256 time = calculateYieldTime(user) * 10**18;\n        uint256 rate = 31536000;\n        uint256 timeRate = time / rate;\n        uint256 rawYield = (stakingBalance[user] * timeRate) / 10**18;\n        return rawYield;\n    }\n}\n",
  "sourcePath": "/home/frankperler/Development/Codeworks/projects/blockchain/tegridyfarm/client/src/contracts/TokenFarm.sol",
  "compiler": {
    "name": "solc",
    "version": "0.8.6+commit.11564f7e.Emscripten.clang"
  },
  "schemaVersion": "3.4.2",
  "updatedAt": "2021-07-29T09:10:53.707Z",
  "networkType": "ethereum",
  "devdoc": {
    "kind": "dev",
    "methods": {},
    "version": 1
  },
  "userdoc": {
    "kind": "user",
    "methods": {},
    "version": 1
  }
}