{
  "contractName": "TokenFarm",
  "abi": [
    {
      "inputs": [
        {
          "internalType": "contract TegToken",
          "name": "_tegToken",
          "type": "address"
        },
        {
          "internalType": "contract DaiToken",
          "name": "_daiToken",
          "type": "address"
        }
      ],
      "stateMutability": "nonpayable",
      "type": "constructor"
    },
    {
      "anonymous": false,
      "inputs": [
        {
          "indexed": true,
          "internalType": "address",
          "name": "from",
          "type": "address"
        },
        {
          "indexed": false,
          "internalType": "uint256",
          "name": "amount",
          "type": "uint256"
        },
        {
          "indexed": false,
          "internalType": "uint256",
          "name": "borrowBal",
          "type": "uint256"
        },
        {
          "indexed": false,
          "internalType": "uint256",
          "name": "lossBal",
          "type": "uint256"
        },
        {
          "indexed": false,
          "internalType": "uint256",
          "name": "tegBal",
          "type": "uint256"
        },
        {
          "indexed": false,
          "internalType": "uint256",
          "name": "daiBal",
          "type": "uint256"
        }
      ],
      "name": "Borrow",
      "type": "event"
    },
    {
      "anonymous": false,
      "inputs": [
        {
          "indexed": true,
          "internalType": "address",
          "name": "from",
          "type": "address"
        },
        {
          "indexed": false,
          "internalType": "uint256",
          "name": "amount",
          "type": "uint256"
        },
        {
          "indexed": false,
          "internalType": "uint256",
          "name": "borrowBal",
          "type": "uint256"
        },
        {
          "indexed": false,
          "internalType": "uint256",
          "name": "lossBal",
          "type": "uint256"
        },
        {
          "indexed": false,
          "internalType": "uint256",
          "name": "tegBal",
          "type": "uint256"
        },
        {
          "indexed": false,
          "internalType": "uint256",
          "name": "daiBal",
          "type": "uint256"
        }
      ],
      "name": "Repay",
      "type": "event"
    },
    {
      "anonymous": false,
      "inputs": [
        {
          "indexed": true,
          "internalType": "address",
          "name": "from",
          "type": "address"
        },
        {
          "indexed": false,
          "internalType": "uint256",
          "name": "amount",
          "type": "uint256"
        },
        {
          "indexed": false,
          "internalType": "uint256",
          "name": "stakingBal",
          "type": "uint256"
        },
        {
          "indexed": false,
          "internalType": "uint256",
          "name": "intBal",
          "type": "uint256"
        },
        {
          "indexed": false,
          "internalType": "uint256",
          "name": "tegBal",
          "type": "uint256"
        },
        {
          "indexed": false,
          "internalType": "uint256",
          "name": "daiBal",
          "type": "uint256"
        }
      ],
      "name": "Stake",
      "type": "event"
    },
    {
      "anonymous": false,
      "inputs": [
        {
          "indexed": true,
          "internalType": "address",
          "name": "from",
          "type": "address"
        },
        {
          "indexed": false,
          "internalType": "uint256",
          "name": "amount",
          "type": "uint256"
        },
        {
          "indexed": false,
          "internalType": "uint256",
          "name": "stakingBal",
          "type": "uint256"
        },
        {
          "indexed": false,
          "internalType": "uint256",
          "name": "intBal",
          "type": "uint256"
        },
        {
          "indexed": false,
          "internalType": "uint256",
          "name": "tegBal",
          "type": "uint256"
        },
        {
          "indexed": false,
          "internalType": "uint256",
          "name": "daiBal",
          "type": "uint256"
        }
      ],
      "name": "Unstake",
      "type": "event"
    },
    {
      "anonymous": false,
      "inputs": [
        {
          "indexed": true,
          "internalType": "address",
          "name": "to",
          "type": "address"
        },
        {
          "indexed": false,
          "internalType": "uint256",
          "name": "amount",
          "type": "uint256"
        },
        {
          "indexed": false,
          "internalType": "uint256",
          "name": "stakingBal",
          "type": "uint256"
        },
        {
          "indexed": false,
          "internalType": "uint256",
          "name": "intBal",
          "type": "uint256"
        },
        {
          "indexed": false,
          "internalType": "uint256",
          "name": "tegBal",
          "type": "uint256"
        },
        {
          "indexed": false,
          "internalType": "uint256",
          "name": "daiBal",
          "type": "uint256"
        }
      ],
      "name": "YieldEarnedWithdraw",
      "type": "event"
    },
    {
      "anonymous": false,
      "inputs": [
        {
          "indexed": true,
          "internalType": "address",
          "name": "to",
          "type": "address"
        },
        {
          "indexed": false,
          "internalType": "uint256",
          "name": "amount",
          "type": "uint256"
        },
        {
          "indexed": false,
          "internalType": "uint256",
          "name": "borrowBal",
          "type": "uint256"
        },
        {
          "indexed": false,
          "internalType": "uint256",
          "name": "lossBal",
          "type": "uint256"
        },
        {
          "indexed": false,
          "internalType": "uint256",
          "name": "tegBal",
          "type": "uint256"
        },
        {
          "indexed": false,
          "internalType": "uint256",
          "name": "daiBal",
          "type": "uint256"
        }
      ],
      "name": "YieldLossWithdraw",
      "type": "event"
    },
    {
      "inputs": [
        {
          "internalType": "address",
          "name": "",
          "type": "address"
        }
      ],
      "name": "borrowedBalance",
      "outputs": [
        {
          "internalType": "uint256",
          "name": "",
          "type": "uint256"
        }
      ],
      "stateMutability": "view",
      "type": "function",
      "constant": true
    },
    {
      "inputs": [
        {
          "internalType": "address",
          "name": "",
          "type": "address"
        }
      ],
      "name": "borrowedTime",
      "outputs": [
        {
          "internalType": "uint256",
          "name": "",
          "type": "uint256"
        }
      ],
      "stateMutability": "view",
      "type": "function",
      "constant": true
    },
    {
      "inputs": [],
      "name": "daiToken",
      "outputs": [
        {
          "internalType": "contract DaiToken",
          "name": "",
          "type": "address"
        }
      ],
      "stateMutability": "view",
      "type": "function",
      "constant": true
    },
    {
      "inputs": [
        {
          "internalType": "address",
          "name": "",
          "type": "address"
        }
      ],
      "name": "earnedBalance",
      "outputs": [
        {
          "internalType": "uint256",
          "name": "",
          "type": "uint256"
        }
      ],
      "stateMutability": "view",
      "type": "function",
      "constant": true
    },
    {
      "inputs": [
        {
          "internalType": "address",
          "name": "",
          "type": "address"
        }
      ],
      "name": "earnedTime",
      "outputs": [
        {
          "internalType": "uint256",
          "name": "",
          "type": "uint256"
        }
      ],
      "stateMutability": "view",
      "type": "function",
      "constant": true
    },
    {
      "inputs": [
        {
          "internalType": "address",
          "name": "",
          "type": "address"
        }
      ],
      "name": "isBorrowing",
      "outputs": [
        {
          "internalType": "bool",
          "name": "",
          "type": "bool"
        }
      ],
      "stateMutability": "view",
      "type": "function",
      "constant": true
    },
    {
      "inputs": [
        {
          "internalType": "address",
          "name": "",
          "type": "address"
        }
      ],
      "name": "isStaking",
      "outputs": [
        {
          "internalType": "bool",
          "name": "",
          "type": "bool"
        }
      ],
      "stateMutability": "view",
      "type": "function",
      "constant": true
    },
    {
      "inputs": [
        {
          "internalType": "address",
          "name": "",
          "type": "address"
        }
      ],
      "name": "lossBalance",
      "outputs": [
        {
          "internalType": "uint256",
          "name": "",
          "type": "uint256"
        }
      ],
      "stateMutability": "view",
      "type": "function",
      "constant": true
    },
    {
      "inputs": [],
      "name": "name",
      "outputs": [
        {
          "internalType": "string",
          "name": "",
          "type": "string"
        }
      ],
      "stateMutability": "view",
      "type": "function",
      "constant": true
    },
    {
      "inputs": [],
      "name": "owner",
      "outputs": [
        {
          "internalType": "address",
          "name": "",
          "type": "address"
        }
      ],
      "stateMutability": "view",
      "type": "function",
      "constant": true
    },
    {
      "inputs": [
        {
          "internalType": "address",
          "name": "",
          "type": "address"
        }
      ],
      "name": "stakingBalance",
      "outputs": [
        {
          "internalType": "uint256",
          "name": "",
          "type": "uint256"
        }
      ],
      "stateMutability": "view",
      "type": "function",
      "constant": true
    },
    {
      "inputs": [],
      "name": "tegToken",
      "outputs": [
        {
          "internalType": "contract TegToken",
          "name": "",
          "type": "address"
        }
      ],
      "stateMutability": "view",
      "type": "function",
      "constant": true
    },
    {
      "inputs": [
        {
          "internalType": "uint256",
          "name": "_amount",
          "type": "uint256"
        }
      ],
      "name": "stakeTokens",
      "outputs": [
        {
          "internalType": "uint256",
          "name": "balance",
          "type": "uint256"
        }
      ],
      "stateMutability": "nonpayable",
      "type": "function"
    },
    {
      "inputs": [
        {
          "internalType": "uint256",
          "name": "_amount",
          "type": "uint256"
        }
      ],
      "name": "unstakeTokens",
      "outputs": [
        {
          "internalType": "uint256",
          "name": "balance",
          "type": "uint256"
        }
      ],
      "stateMutability": "nonpayable",
      "type": "function"
    },
    {
      "inputs": [],
      "name": "withdrawEarningYield",
      "outputs": [],
      "stateMutability": "nonpayable",
      "type": "function"
    },
    {
      "inputs": [
        {
          "internalType": "address",
          "name": "user",
          "type": "address"
        }
      ],
      "name": "calculateEarningTime",
      "outputs": [
        {
          "internalType": "uint256",
          "name": "",
          "type": "uint256"
        }
      ],
      "stateMutability": "view",
      "type": "function",
      "constant": true
    },
    {
      "inputs": [
        {
          "internalType": "address",
          "name": "user",
          "type": "address"
        }
      ],
      "name": "calculateEarningYield",
      "outputs": [
        {
          "internalType": "uint256",
          "name": "",
          "type": "uint256"
        }
      ],
      "stateMutability": "view",
      "type": "function",
      "constant": true
    },
    {
      "inputs": [
        {
          "internalType": "uint256",
          "name": "_amount",
          "type": "uint256"
        }
      ],
      "name": "borrowTokens",
      "outputs": [
        {
          "internalType": "uint256",
          "name": "balance",
          "type": "uint256"
        }
      ],
      "stateMutability": "nonpayable",
      "type": "function"
    },
    {
      "inputs": [
        {
          "internalType": "uint256",
          "name": "_amount",
          "type": "uint256"
        }
      ],
      "name": "repayTokens",
      "outputs": [
        {
          "internalType": "uint256",
          "name": "balance",
          "type": "uint256"
        }
      ],
      "stateMutability": "nonpayable",
      "type": "function"
    },
    {
      "inputs": [],
      "name": "withdrawLossYield",
      "outputs": [],
      "stateMutability": "nonpayable",
      "type": "function"
    },
    {
      "inputs": [
        {
          "internalType": "address",
          "name": "user",
          "type": "address"
        }
      ],
      "name": "calculateBorrowTime",
      "outputs": [
        {
          "internalType": "uint256",
          "name": "",
          "type": "uint256"
        }
      ],
      "stateMutability": "view",
      "type": "function",
      "constant": true
    },
    {
      "inputs": [
        {
          "internalType": "address",
          "name": "user",
          "type": "address"
        }
      ],
      "name": "calculateLossYield",
      "outputs": [
        {
          "internalType": "uint256",
          "name": "",
          "type": "uint256"
        }
      ],
      "stateMutability": "view",
      "type": "function",
      "constant": true
    }
  ],
  "bytecode": "0x60806040526040518060400160405280601281526020017f5465677269647920546f6b656e204661726d0000000000000000000000000000815250600090805190602001906200005192919062000150565b503480156200005f57600080fd5b50604051620034cd380380620034cd83398181016040528101906200008591906200022e565b81600260006101000a81548173ffffffffffffffffffffffffffffffffffffffff021916908373ffffffffffffffffffffffffffffffffffffffff16021790555080600360006101000a81548173ffffffffffffffffffffffffffffffffffffffff021916908373ffffffffffffffffffffffffffffffffffffffff16021790555033600160006101000a81548173ffffffffffffffffffffffffffffffffffffffff021916908373ffffffffffffffffffffffffffffffffffffffff16021790555050506200036f565b8280546200015e90620002d1565b90600052602060002090601f016020900481019282620001825760008555620001ce565b82601f106200019d57805160ff1916838001178555620001ce565b82800160010185558215620001ce579182015b82811115620001cd578251825591602001919060010190620001b0565b5b509050620001dd9190620001e1565b5090565b5b80821115620001fc576000816000905550600101620001e2565b5090565b60008151905062000211816200033b565b92915050565b600081519050620002288162000355565b92915050565b6000806040838503121562000248576200024762000336565b5b6000620002588582860162000217565b92505060206200026b8582860162000200565b9150509250929050565b60006200028282620002b1565b9050919050565b6000620002968262000275565b9050919050565b6000620002aa8262000275565b9050919050565b600073ffffffffffffffffffffffffffffffffffffffff82169050919050565b60006002820490506001821680620002ea57607f821691505b6020821081141562000301576200030062000307565b5b50919050565b7f4e487b7100000000000000000000000000000000000000000000000000000000600052602260045260246000fd5b600080fd5b620003468162000289565b81146200035257600080fd5b50565b62000360816200029d565b81146200036c57600080fd5b50565b61314e806200037f6000396000f3fe608060405234801561001057600080fd5b50600436106101425760003560e01c80636f49712b116100b8578063aed4730b1161007c578063aed4730b146103c5578063b0ed7af4146103f5578063be22f54614610425578063c728667814610443578063e91e596814610473578063ecf4911f146104a357610142565b80636f49712b1461030d5780637547c7a31461033d5780638a76a1121461036d5780638da5cb5b1461039d5780639e619e7c146103bb57610142565b80632b3c1f131161010a5780632b3c1f131461022557806345bc78ab1461022f57806350711be91461025f5780635400a8341461028f5780635890e149146102ad578063608e4dd0146102dd57610142565b806302b28d4b1461014757806306fdde031461017757806308bf9148146101955780630b059048146101c55780631e55f76d146101f5575b600080fd5b610161600480360381019061015c919061290e565b6104d3565b60405161016e9190612c83565b60405180910390f35b61017f6104eb565b60405161018c9190612bc1565b60405180910390f35b6101af60048036038101906101aa919061290e565b610579565b6040516101bc9190612c83565b60405180910390f35b6101df60048036038101906101da919061290e565b6105d8565b6040516101ec9190612c83565b60405180910390f35b61020f600480360381019061020a919061290e565b6105f0565b60405161021c9190612c83565b60405180910390f35b61022d610698565b005b6102496004803603810190610244919061290e565b610b31565b6040516102569190612c83565b60405180910390f35b6102796004803603810190610274919061290e565b610b49565b6040516102869190612b70565b60405180910390f35b610297610b69565b6040516102a49190612ba6565b60405180910390f35b6102c760048036038101906102c2919061290e565b610b8f565b6040516102d49190612c83565b60405180910390f35b6102f760048036038101906102f29190612968565b610ba7565b6040516103049190612c83565b60405180910390f35b6103276004803603810190610322919061290e565b61114f565b6040516103349190612b70565b60405180910390f35b61035760048036038101906103529190612968565b61116f565b6040516103649190612c83565b60405180910390f35b6103876004803603810190610382919061290e565b61173a565b6040516103949190612c83565b60405180910390f35b6103a5611752565b6040516103b29190612af5565b60405180910390f35b6103c3611778565b005b6103df60048036038101906103da919061290e565b611c11565b6040516103ec9190612c83565b60405180910390f35b61040f600480360381019061040a919061290e565b611c29565b60405161041c9190612c83565b60405180910390f35b61042d611cd1565b60405161043a9190612b8b565b60405180910390f35b61045d60048036038101906104589190612968565b611cf7565b60405161046a9190612c83565b60405180910390f35b61048d6004803603810190610488919061290e565b6122b1565b60405161049a9190612c83565b60405180910390f35b6104bd60048036038101906104b89190612968565b612310565b6040516104ca9190612c83565b60405180910390f35b60086020528060005260406000206000915090505481565b600080546104f890612ee5565b80601f016020809104026020016040519081016040528092919081815260200182805461052490612ee5565b80156105715780601f1061054657610100808354040283529160200191610571565b820191906000526020600020905b81548152906001019060200180831161055457829003601f168201915b505050505081565b6000804290506000600b60008573ffffffffffffffffffffffffffffffffffffffff1673ffffffffffffffffffffffffffffffffffffffff16815260200190815260200160002054826105cc9190612dee565b90508092505050919050565b60096020528060005260406000206000915090505481565b600080670de0b6b3a764000061060584610579565b61060f9190612d94565b905060006301b574a29050600081836106289190612d63565b90506000670de0b6b3a764000082600860008973ffffffffffffffffffffffffffffffffffffffff1673ffffffffffffffffffffffffffffffffffffffff168152602001908152602001600020546106809190612d94565b61068a9190612d63565b905080945050505050919050565b60006106a333611c29565b905060008111806106f357506000600560003373ffffffffffffffffffffffffffffffffffffffff1673ffffffffffffffffffffffffffffffffffffffff16815260200190815260200160002054115b610732576040517f08c379a000000000000000000000000000000000000000000000000000000000815260040161072990612be3565b60405180910390fd5b6000600560003373ffffffffffffffffffffffffffffffffffffffff1673ffffffffffffffffffffffffffffffffffffffff1681526020019081526020016000205414610812576000600560003373ffffffffffffffffffffffffffffffffffffffff1673ffffffffffffffffffffffffffffffffffffffff1681526020019081526020016000205490506000600560003373ffffffffffffffffffffffffffffffffffffffff1673ffffffffffffffffffffffffffffffffffffffff16815260200190815260200160002081905550808261080e9190612d0d565b9150505b42600760003373ffffffffffffffffffffffffffffffffffffffff1673ffffffffffffffffffffffffffffffffffffffff16815260200190815260200160002081905550600260009054906101000a900473ffffffffffffffffffffffffffffffffffffffff1673ffffffffffffffffffffffffffffffffffffffff1663a9059cbb33836040518363ffffffff1660e01b81526004016108b3929190612b47565b602060405180830381600087803b1580156108cd57600080fd5b505af11580156108e1573d6000803e3d6000fd5b505050506040513d601f19601f82011682018060405250810190610905919061293b565b503373ffffffffffffffffffffffffffffffffffffffff167f5b210f377ecb344c179bec9fe01ada1f873bcbf8fece237de2e3c408580a4e7d82600460003373ffffffffffffffffffffffffffffffffffffffff1673ffffffffffffffffffffffffffffffffffffffff16815260200190815260200160002054600560003373ffffffffffffffffffffffffffffffffffffffff1673ffffffffffffffffffffffffffffffffffffffff16815260200190815260200160002054600260009054906101000a900473ffffffffffffffffffffffffffffffffffffffff1673ffffffffffffffffffffffffffffffffffffffff166370a08231336040518263ffffffff1660e01b8152600401610a1a9190612af5565b60206040518083038186803b158015610a3257600080fd5b505afa158015610a46573d6000803e3d6000fd5b505050506040513d601f19601f82011682018060405250810190610a6a9190612995565b600360009054906101000a900473ffffffffffffffffffffffffffffffffffffffff1673ffffffffffffffffffffffffffffffffffffffff166370a08231336040518263ffffffff1660e01b8152600401610ac59190612af5565b60206040518083038186803b158015610add57600080fd5b505afa158015610af1573d6000803e3d6000fd5b505050506040513d601f19601f82011682018060405250810190610b159190612995565b604051610b26959493929190612c9e565b60405180910390a250565b60046020528060005260406000206000915090505481565b600a6020528060005260406000206000915054906101000a900460ff1681565b600260009054906101000a900473ffffffffffffffffffffffffffffffffffffffff1681565b60076020528060005260406000206000915090505481565b600081600460003373ffffffffffffffffffffffffffffffffffffffff1673ffffffffffffffffffffffffffffffffffffffff1681526020019081526020016000205410158015610c48575060011515600660003373ffffffffffffffffffffffffffffffffffffffff1673ffffffffffffffffffffffffffffffffffffffff16815260200190815260200160002060009054906101000a900460ff161515145b610c87576040517f08c379a0000000000000000000000000000000000000000000000000000000008152600401610c7e90612c03565b60405180910390fd5b6000610c9233611c29565b905042600760003373ffffffffffffffffffffffffffffffffffffffff1673ffffffffffffffffffffffffffffffffffffffff1681526020019081526020016000208190555060008390506000935080600460003373ffffffffffffffffffffffffffffffffffffffff1673ffffffffffffffffffffffffffffffffffffffff1681526020019081526020016000206000828254610d309190612dee565b92505081905550600360009054906101000a900473ffffffffffffffffffffffffffffffffffffffff1673ffffffffffffffffffffffffffffffffffffffff1663a9059cbb33836040518363ffffffff1660e01b8152600401610d94929190612b47565b602060405180830381600087803b158015610dae57600080fd5b505af1158015610dc2573d6000803e3d6000fd5b505050506040513d601f19601f82011682018060405250810190610de6919061293b565b5081600560003373ffffffffffffffffffffffffffffffffffffffff1673ffffffffffffffffffffffffffffffffffffffff1681526020019081526020016000206000828254610e369190612d0d565b925050819055506000600460003373ffffffffffffffffffffffffffffffffffffffff1673ffffffffffffffffffffffffffffffffffffffff168152602001908152602001600020541415610ede576000600660003373ffffffffffffffffffffffffffffffffffffffff1673ffffffffffffffffffffffffffffffffffffffff16815260200190815260200160002060006101000a81548160ff0219169083151502179055505b3373ffffffffffffffffffffffffffffffffffffffff167f2ae77851d374757c0aeee19fd5d8f75edac9f1f52043fb96992607c29373144185600460003373ffffffffffffffffffffffffffffffffffffffff1673ffffffffffffffffffffffffffffffffffffffff16815260200190815260200160002054600560003373ffffffffffffffffffffffffffffffffffffffff1673ffffffffffffffffffffffffffffffffffffffff16815260200190815260200160002054600260009054906101000a900473ffffffffffffffffffffffffffffffffffffffff1673ffffffffffffffffffffffffffffffffffffffff166370a08231336040518263ffffffff1660e01b8152600401610ff29190612af5565b60206040518083038186803b15801561100a57600080fd5b505afa15801561101e573d6000803e3d6000fd5b505050506040513d601f19601f820116820180604052508101906110429190612995565b600360009054906101000a900473ffffffffffffffffffffffffffffffffffffffff1673ffffffffffffffffffffffffffffffffffffffff166370a08231336040518263ffffffff1660e01b815260040161109d9190612af5565b60206040518083038186803b1580156110b557600080fd5b505afa1580156110c9573d6000803e3d6000fd5b505050506040513d601f19601f820116820180604052508101906110ed9190612995565b6040516110fe959493929190612c9e565b60405180910390a2600460003373ffffffffffffffffffffffffffffffffffffffff1673ffffffffffffffffffffffffffffffffffffffff1681526020019081526020016000205492505050919050565b60066020528060005260406000206000915054906101000a900460ff1681565b6000808211801561122a575081600360009054906101000a900473ffffffffffffffffffffffffffffffffffffffff1673ffffffffffffffffffffffffffffffffffffffff166370a08231336040518263ffffffff1660e01b81526004016111d79190612af5565b60206040518083038186803b1580156111ef57600080fd5b505afa158015611203573d6000803e3d6000fd5b505050506040513d601f19601f820116820180604052508101906112279190612995565b10155b611269576040517f08c379a000000000000000000000000000000000000000000000000000000000815260040161126090612c63565b60405180910390fd5b60011515600660003373ffffffffffffffffffffffffffffffffffffffff1673ffffffffffffffffffffffffffffffffffffffff16815260200190815260200160002060009054906101000a900460ff16151514156113275760006112cd33611c29565b905080600560003373ffffffffffffffffffffffffffffffffffffffff1673ffffffffffffffffffffffffffffffffffffffff168152602001908152602001600020600082825461131e9190612d0d565b92505081905550505b600360009054906101000a900473ffffffffffffffffffffffffffffffffffffffff1673ffffffffffffffffffffffffffffffffffffffff166323b872dd3330856040518463ffffffff1660e01b815260040161138693929190612b10565b602060405180830381600087803b1580156113a057600080fd5b505af11580156113b4573d6000803e3d6000fd5b505050506040513d601f19601f820116820180604052508101906113d8919061293b565b5042600760003373ffffffffffffffffffffffffffffffffffffffff1673ffffffffffffffffffffffffffffffffffffffff1681526020019081526020016000208190555081600460003373ffffffffffffffffffffffffffffffffffffffff1673ffffffffffffffffffffffffffffffffffffffff168152602001908152602001600020600082825461146c9190612d0d565b925050819055506001600660003373ffffffffffffffffffffffffffffffffffffffff1673ffffffffffffffffffffffffffffffffffffffff16815260200190815260200160002060006101000a81548160ff0219169083151502179055503373ffffffffffffffffffffffffffffffffffffffff167fc6f8dbf1fa0a0918d52df74fa2b529a0a4da7011a24f263a28678e7504444cd683600460003373ffffffffffffffffffffffffffffffffffffffff1673ffffffffffffffffffffffffffffffffffffffff16815260200190815260200160002054600560003373ffffffffffffffffffffffffffffffffffffffff1673ffffffffffffffffffffffffffffffffffffffff16815260200190815260200160002054600260009054906101000a900473ffffffffffffffffffffffffffffffffffffffff1673ffffffffffffffffffffffffffffffffffffffff166370a08231336040518263ffffffff1660e01b81526004016115df9190612af5565b60206040518083038186803b1580156115f757600080fd5b505afa15801561160b573d6000803e3d6000fd5b505050506040513d601f19601f8201168201806040525081019061162f9190612995565b600360009054906101000a900473ffffffffffffffffffffffffffffffffffffffff1673ffffffffffffffffffffffffffffffffffffffff166370a08231336040518263ffffffff1660e01b815260040161168a9190612af5565b60206040518083038186803b1580156116a257600080fd5b505afa1580156116b6573d6000803e3d6000fd5b505050506040513d601f19601f820116820180604052508101906116da9190612995565b6040516116eb959493929190612c9e565b60405180910390a2600460003373ffffffffffffffffffffffffffffffffffffffff1673ffffffffffffffffffffffffffffffffffffffff168152602001908152602001600020549050919050565b600b6020528060005260406000206000915090505481565b600160009054906101000a900473ffffffffffffffffffffffffffffffffffffffff1681565b6000611783336105f0565b905060008111806117d357506000600960003373ffffffffffffffffffffffffffffffffffffffff1673ffffffffffffffffffffffffffffffffffffffff16815260200190815260200160002054115b611812576040517f08c379a000000000000000000000000000000000000000000000000000000000815260040161180990612be3565b60405180910390fd5b6000600960003373ffffffffffffffffffffffffffffffffffffffff1673ffffffffffffffffffffffffffffffffffffffff16815260200190815260200160002054146118f2576000600960003373ffffffffffffffffffffffffffffffffffffffff1673ffffffffffffffffffffffffffffffffffffffff1681526020019081526020016000205490506000600960003373ffffffffffffffffffffffffffffffffffffffff1673ffffffffffffffffffffffffffffffffffffffff1681526020019081526020016000208190555080826118ee9190612d0d565b9150505b42600b60003373ffffffffffffffffffffffffffffffffffffffff1673ffffffffffffffffffffffffffffffffffffffff16815260200190815260200160002081905550600260009054906101000a900473ffffffffffffffffffffffffffffffffffffffff1673ffffffffffffffffffffffffffffffffffffffff1663a9059cbb33836040518363ffffffff1660e01b8152600401611993929190612b47565b602060405180830381600087803b1580156119ad57600080fd5b505af11580156119c1573d6000803e3d6000fd5b505050506040513d601f19601f820116820180604052508101906119e5919061293b565b503373ffffffffffffffffffffffffffffffffffffffff167ff3c1642fe24e9dd843f4f6402ff5cbc84abf4859926ec2d23c5eed769a2d868f82600860003373ffffffffffffffffffffffffffffffffffffffff1673ffffffffffffffffffffffffffffffffffffffff16815260200190815260200160002054600960003373ffffffffffffffffffffffffffffffffffffffff1673ffffffffffffffffffffffffffffffffffffffff16815260200190815260200160002054600260009054906101000a900473ffffffffffffffffffffffffffffffffffffffff1673ffffffffffffffffffffffffffffffffffffffff166370a08231336040518263ffffffff1660e01b8152600401611afa9190612af5565b60206040518083038186803b158015611b1257600080fd5b505afa158015611b26573d6000803e3d6000fd5b505050506040513d601f19601f82011682018060405250810190611b4a9190612995565b600360009054906101000a900473ffffffffffffffffffffffffffffffffffffffff1673ffffffffffffffffffffffffffffffffffffffff166370a08231336040518263ffffffff1660e01b8152600401611ba59190612af5565b60206040518083038186803b158015611bbd57600080fd5b505afa158015611bd1573d6000803e3d6000fd5b505050506040513d601f19601f82011682018060405250810190611bf59190612995565b604051611c06959493929190612c9e565b60405180910390a250565b60056020528060005260406000206000915090505481565b600080670de0b6b3a7640000611c3e846122b1565b611c489190612d94565b905060006301e13380905060008183611c619190612d63565b90506000670de0b6b3a764000082600460008973ffffffffffffffffffffffffffffffffffffffff1673ffffffffffffffffffffffffffffffffffffffff16815260200190815260200160002054611cb99190612d94565b611cc39190612d63565b905080945050505050919050565b600360009054906101000a900473ffffffffffffffffffffffffffffffffffffffff1681565b60008082118015611d58575060011515600660003373ffffffffffffffffffffffffffffffffffffffff1673ffffffffffffffffffffffffffffffffffffffff16815260200190815260200160002060009054906101000a900460ff161515145b8015611da3575081600460003373ffffffffffffffffffffffffffffffffffffffff1673ffffffffffffffffffffffffffffffffffffffff1681526020019081526020016000205410155b611de2576040517f08c379a0000000000000000000000000000000000000000000000000000000008152600401611dd990612c43565b60405180910390fd5b60011515600a60003373ffffffffffffffffffffffffffffffffffffffff1673ffffffffffffffffffffffffffffffffffffffff16815260200190815260200160002060009054906101000a900460ff1615151415611ea0576000611e46336105f0565b905080600960003373ffffffffffffffffffffffffffffffffffffffff1673ffffffffffffffffffffffffffffffffffffffff1681526020019081526020016000206000828254611e979190612d0d565b92505081905550505b600360009054906101000a900473ffffffffffffffffffffffffffffffffffffffff1673ffffffffffffffffffffffffffffffffffffffff1663a9059cbb33846040518363ffffffff1660e01b8152600401611efd929190612b47565b602060405180830381600087803b158015611f1757600080fd5b505af1158015611f2b573d6000803e3d6000fd5b505050506040513d601f19601f82011682018060405250810190611f4f919061293b565b5042600b60003373ffffffffffffffffffffffffffffffffffffffff1673ffffffffffffffffffffffffffffffffffffffff1681526020019081526020016000208190555081600860003373ffffffffffffffffffffffffffffffffffffffff1673ffffffffffffffffffffffffffffffffffffffff1681526020019081526020016000206000828254611fe39190612d0d565b925050819055506001600a60003373ffffffffffffffffffffffffffffffffffffffff1673ffffffffffffffffffffffffffffffffffffffff16815260200190815260200160002060006101000a81548160ff0219169083151502179055503373ffffffffffffffffffffffffffffffffffffffff167f212a25b7e6d62ca82a704bf5f0513e2d0840e89914c62639dceabfb40a34491a83600860003373ffffffffffffffffffffffffffffffffffffffff1673ffffffffffffffffffffffffffffffffffffffff16815260200190815260200160002054600960003373ffffffffffffffffffffffffffffffffffffffff1673ffffffffffffffffffffffffffffffffffffffff16815260200190815260200160002054600260009054906101000a900473ffffffffffffffffffffffffffffffffffffffff1673ffffffffffffffffffffffffffffffffffffffff166370a08231336040518263ffffffff1660e01b81526004016121569190612af5565b60206040518083038186803b15801561216e57600080fd5b505afa158015612182573d6000803e3d6000fd5b505050506040513d601f19601f820116820180604052508101906121a69190612995565b600360009054906101000a900473ffffffffffffffffffffffffffffffffffffffff1673ffffffffffffffffffffffffffffffffffffffff166370a08231336040518263ffffffff1660e01b81526004016122019190612af5565b60206040518083038186803b15801561221957600080fd5b505afa15801561222d573d6000803e3d6000fd5b505050506040513d601f19601f820116820180604052508101906122519190612995565b604051612262959493929190612c9e565b60405180910390a2600860003373ffffffffffffffffffffffffffffffffffffffff1673ffffffffffffffffffffffffffffffffffffffff168152602001908152602001600020549050919050565b6000804290506000600760008573ffffffffffffffffffffffffffffffffffffffff1673ffffffffffffffffffffffffffffffffffffffff16815260200190815260200160002054826123049190612dee565b90508092505050919050565b600081600860003373ffffffffffffffffffffffffffffffffffffffff1673ffffffffffffffffffffffffffffffffffffffff16815260200190815260200160002054101580156123b1575060011515600a60003373ffffffffffffffffffffffffffffffffffffffff1673ffffffffffffffffffffffffffffffffffffffff16815260200190815260200160002060009054906101000a900460ff161515145b6123f0576040517f08c379a00000000000000000000000000000000000000000000000000000000081526004016123e790612c23565b60405180910390fd5b60006123fb336105f0565b905042600b60003373ffffffffffffffffffffffffffffffffffffffff1673ffffffffffffffffffffffffffffffffffffffff1681526020019081526020016000208190555060008390506000935080600860003373ffffffffffffffffffffffffffffffffffffffff1673ffffffffffffffffffffffffffffffffffffffff16815260200190815260200160002060008282546124999190612dee565b92505081905550600360009054906101000a900473ffffffffffffffffffffffffffffffffffffffff1673ffffffffffffffffffffffffffffffffffffffff166323b872dd3330846040518463ffffffff1660e01b81526004016124ff93929190612b10565b602060405180830381600087803b15801561251957600080fd5b505af115801561252d573d6000803e3d6000fd5b505050506040513d601f19601f82011682018060405250810190612551919061293b565b5081600960003373ffffffffffffffffffffffffffffffffffffffff1673ffffffffffffffffffffffffffffffffffffffff16815260200190815260200160002060008282546125a19190612d0d565b925050819055506000600860003373ffffffffffffffffffffffffffffffffffffffff1673ffffffffffffffffffffffffffffffffffffffff168152602001908152602001600020541415612649576000600a60003373ffffffffffffffffffffffffffffffffffffffff1673ffffffffffffffffffffffffffffffffffffffff16815260200190815260200160002060006101000a81548160ff0219169083151502179055505b3373ffffffffffffffffffffffffffffffffffffffff167ff8d50c6057e24414caf5becd2c1db2b04030072f04629ef793e79845601341c585600860003373ffffffffffffffffffffffffffffffffffffffff1673ffffffffffffffffffffffffffffffffffffffff16815260200190815260200160002054600960003373ffffffffffffffffffffffffffffffffffffffff1673ffffffffffffffffffffffffffffffffffffffff16815260200190815260200160002054600260009054906101000a900473ffffffffffffffffffffffffffffffffffffffff1673ffffffffffffffffffffffffffffffffffffffff166370a08231336040518263ffffffff1660e01b815260040161275d9190612af5565b60206040518083038186803b15801561277557600080fd5b505afa158015612789573d6000803e3d6000fd5b505050506040513d601f19601f820116820180604052508101906127ad9190612995565b600360009054906101000a900473ffffffffffffffffffffffffffffffffffffffff1673ffffffffffffffffffffffffffffffffffffffff166370a08231336040518263ffffffff1660e01b81526004016128089190612af5565b60206040518083038186803b15801561282057600080fd5b505afa158015612834573d6000803e3d6000fd5b505050506040513d601f19601f820116820180604052508101906128589190612995565b604051612869959493929190612c9e565b60405180910390a2600860003373ffffffffffffffffffffffffffffffffffffffff1673ffffffffffffffffffffffffffffffffffffffff1681526020019081526020016000205492505050919050565b6000813590506128c9816130d3565b92915050565b6000815190506128de816130ea565b92915050565b6000813590506128f381613101565b92915050565b60008151905061290881613101565b92915050565b60006020828403121561292457612923612fa4565b5b6000612932848285016128ba565b91505092915050565b60006020828403121561295157612950612fa4565b5b600061295f848285016128cf565b91505092915050565b60006020828403121561297e5761297d612fa4565b5b600061298c848285016128e4565b91505092915050565b6000602082840312156129ab576129aa612fa4565b5b60006129b9848285016128f9565b91505092915050565b6129cb81612e22565b82525050565b6129da81612e34565b82525050565b6129e981612e6a565b82525050565b6129f881612e8e565b82525050565b6000612a0982612cf1565b612a138185612cfc565b9350612a23818560208601612eb2565b612a2c81612fa9565b840191505092915050565b6000612a44601383612cfc565b9150612a4f82612fba565b602082019050919050565b6000612a67602a83612cfc565b9150612a7282612fe3565b604082019050919050565b6000612a8a602b83612cfc565b9150612a9582613032565b604082019050919050565b6000612aad601d83612cfc565b9150612ab882613081565b602082019050919050565b6000612ad0601c83612cfc565b9150612adb826130aa565b602082019050919050565b612aef81612e60565b82525050565b6000602082019050612b0a60008301846129c2565b92915050565b6000606082019050612b2560008301866129c2565b612b3260208301856129c2565b612b3f6040830184612ae6565b949350505050565b6000604082019050612b5c60008301856129c2565b612b696020830184612ae6565b9392505050565b6000602082019050612b8560008301846129d1565b92915050565b6000602082019050612ba060008301846129e0565b92915050565b6000602082019050612bbb60008301846129ef565b92915050565b60006020820190508181036000830152612bdb81846129fe565b905092915050565b60006020820190508181036000830152612bfc81612a37565b9050919050565b60006020820190508181036000830152612c1c81612a5a565b9050919050565b60006020820190508181036000830152612c3c81612a7d565b9050919050565b60006020820190508181036000830152612c5c81612aa0565b9050919050565b60006020820190508181036000830152612c7c81612ac3565b9050919050565b6000602082019050612c986000830184612ae6565b92915050565b600060a082019050612cb36000830188612ae6565b612cc06020830187612ae6565b612ccd6040830186612ae6565b612cda6060830185612ae6565b612ce76080830184612ae6565b9695505050505050565b600081519050919050565b600082825260208201905092915050565b6000612d1882612e60565b9150612d2383612e60565b9250827fffffffffffffffffffffffffffffffffffffffffffffffffffffffffffffffff03821115612d5857612d57612f17565b5b828201905092915050565b6000612d6e82612e60565b9150612d7983612e60565b925082612d8957612d88612f46565b5b828204905092915050565b6000612d9f82612e60565b9150612daa83612e60565b9250817fffffffffffffffffffffffffffffffffffffffffffffffffffffffffffffffff0483118215151615612de357612de2612f17565b5b828202905092915050565b6000612df982612e60565b9150612e0483612e60565b925082821015612e1757612e16612f17565b5b828203905092915050565b6000612e2d82612e40565b9050919050565b60008115159050919050565b600073ffffffffffffffffffffffffffffffffffffffff82169050919050565b6000819050919050565b6000612e7582612e7c565b9050919050565b6000612e8782612e40565b9050919050565b6000612e9982612ea0565b9050919050565b6000612eab82612e40565b9050919050565b60005b83811015612ed0578082015181840152602081019050612eb5565b83811115612edf576000848401525b50505050565b60006002820490506001821680612efd57607f821691505b60208210811415612f1157612f10612f75565b5b50919050565b7f4e487b7100000000000000000000000000000000000000000000000000000000600052601160045260246000fd5b7f4e487b7100000000000000000000000000000000000000000000000000000000600052601260045260246000fd5b7f4e487b7100000000000000000000000000000000000000000000000000000000600052602260045260246000fd5b600080fd5b6000601f19601f8301169050919050565b7f4e6f7468696e6720746f20776974686472617700000000000000000000000000600082015250565b7f5374616b696e672062616c616e6365206d757374206265206c6172676572207460008201527f68616e20616d6f756e7400000000000000000000000000000000000000000000602082015250565b7f426f72726f7765642062616c616e6365206d757374206265206c61726765722060008201527f7468616e20616d6f756e74000000000000000000000000000000000000000000602082015250565b7f596f752063616e6e6f7420626f72726f77207a65726f20746f6b656e73000000600082015250565b7f596f752063616e6e6f74207374616b65207a65726f20746f6b656e7300000000600082015250565b6130dc81612e22565b81146130e757600080fd5b50565b6130f381612e34565b81146130fe57600080fd5b50565b61310a81612e60565b811461311557600080fd5b5056fea26469706673582212203a04fe2a9216de9df1bf80ce245414afe7f9df7d808ea603bcb92154c62f586264736f6c63430008060033",
  "immutableReferences": {},
  "source": "//\"SPDX-License-Identifier: UNLICENSED\"\npragma solidity ^0.8.6;\n\nimport \"./DaiToken.sol\";\nimport \"./TegToken.sol\";\n\ncontract TokenFarm {\n    string public name = \"Tegridy Token Farm\";\n\n    address public owner;\n    TegToken public tegToken;\n    DaiToken public daiToken;\n\n    mapping(address => uint256) public stakingBalance;\n    mapping(address => uint256) public earnedBalance;\n    mapping(address => bool) public isStaking;\n    mapping(address => uint256) public earnedTime;\n\n    mapping(address => uint256) public borrowedBalance;\n    mapping(address => uint256) public lossBalance;\n    mapping(address => bool) public isBorrowing;\n    mapping(address => uint256) public borrowedTime;\n\n    event Stake(\n        address indexed from,\n        uint256 amount,\n        uint256 stakingBal,\n        uint256 intBal,\n        uint256 tegBal,\n        uint256 daiBal\n    );\n    event Unstake(\n        address indexed from,\n        uint256 amount,\n        uint256 stakingBal,\n        uint256 intBal,\n        uint256 tegBal,\n        uint256 daiBal\n    );\n\n    event YieldEarnedWithdraw(\n        address indexed to,\n        uint256 amount,\n        uint256 stakingBal,\n        uint256 intBal,\n        uint256 tegBal,\n        uint256 daiBal\n    );\n\n    event Borrow(\n        address indexed from,\n        uint256 amount,\n        uint256 borrowBal,\n        uint256 lossBal,\n        uint256 tegBal,\n        uint256 daiBal\n    );\n\n    event Repay(\n        address indexed from,\n        uint256 amount,\n        uint256 borrowBal,\n        uint256 lossBal,\n        uint256 tegBal,\n        uint256 daiBal\n    );\n    event YieldLossWithdraw(\n        address indexed to,\n        uint256 amount,\n        uint256 borrowBal,\n        uint256 lossBal,\n        uint256 tegBal,\n        uint256 daiBal\n    );\n\n    constructor(TegToken _tegToken, DaiToken _daiToken) {\n        tegToken = _tegToken;\n        daiToken = _daiToken;\n        owner = msg.sender;\n    }\n\n    //1. Stake Tokens (deposit)\n    function stakeTokens(uint256 _amount) public returns (uint256 balance) {\n        //Amount staked cannot be smaller than 0\n        require(\n            _amount > 0 && daiToken.balanceOf(msg.sender) >= _amount,\n            \"You cannot stake zero tokens\"\n        );\n\n        if (isStaking[msg.sender] == true) {\n            uint256 toTransfer = calculateEarningYield(msg.sender);\n            earnedBalance[msg.sender] += toTransfer;\n        }\n        // Transfer Mock Dai to this contract for staking\n        daiToken.transferFrom(msg.sender, address(this), _amount);\n        //update start time\n        earnedTime[msg.sender] = block.timestamp;\n        //update staking balance\n        stakingBalance[msg.sender] += _amount;\n        // add user to stakers array \"only\" if they have not yet staked\n        // if (!hasStaked[msg.sender]) {\n        //     stakers.push(msg.sender);\n        // }\n        //update staking status\n        isStaking[msg.sender] = true;\n        // hasStaked[msg.sender] = true;\n        emit Stake(\n            msg.sender,\n            _amount,\n            stakingBalance[msg.sender],\n            earnedBalance[msg.sender],\n            tegToken.balanceOf(msg.sender),\n            daiToken.balanceOf(msg.sender)\n        );\n        return stakingBalance[msg.sender];\n    }\n\n    //2. Unstaking Tokens (withdraw)\n    function unstakeTokens(uint256 _amount) public returns (uint256 balance) {\n        //require amounnt > 0\n        require(\n            stakingBalance[msg.sender] >= _amount &&\n                isStaking[msg.sender] == true,\n            \"Staking balance must be larger than amount\"\n        );\n\n        //fetch staking balance\n        // uint256 balance = stakingBalance[msg.sender];\n\n        uint256 yieldTransfer = calculateEarningYield(msg.sender);\n        earnedTime[msg.sender] = block.timestamp;\n        uint256 balanceTransfer = _amount;\n        _amount = 0;\n        //decrease staking balance by amount\n        stakingBalance[msg.sender] -= balanceTransfer;\n        //unstake dai tokens from farm to investor\n        daiToken.transfer(msg.sender, balanceTransfer);\n\n        earnedBalance[msg.sender] += yieldTransfer;\n        // is he still staking?\n        //update staking status\n        if (stakingBalance[msg.sender] == 0) {\n            isStaking[msg.sender] = false;\n        }\n        emit Unstake(\n            msg.sender,\n            _amount,\n            stakingBalance[msg.sender],\n            earnedBalance[msg.sender],\n            tegToken.balanceOf(msg.sender),\n            daiToken.balanceOf(msg.sender)\n        );\n        return stakingBalance[msg.sender];\n    }\n\n    //3. withdraw earned yield\n    function withdrawEarningYield() public {\n        uint256 toTransfer = calculateEarningYield(msg.sender);\n\n        require(\n            toTransfer > 0 || earnedBalance[msg.sender] > 0,\n            \"Nothing to withdraw\"\n        );\n\n        if (earnedBalance[msg.sender] != 0) {\n            uint256 oldBalance = earnedBalance[msg.sender];\n            earnedBalance[msg.sender] = 0;\n            toTransfer += oldBalance;\n        }\n\n        earnedTime[msg.sender] = block.timestamp;\n        tegToken.transfer(msg.sender, toTransfer);\n        emit YieldEarnedWithdraw(\n            msg.sender,\n            toTransfer,\n            stakingBalance[msg.sender],\n            earnedBalance[msg.sender],\n            tegToken.balanceOf(msg.sender),\n            daiToken.balanceOf(msg.sender)\n        );\n    }\n\n    function calculateEarningTime(address user) public view returns (uint256) {\n        uint256 end = block.timestamp;\n        uint256 totalTime = end - earnedTime[user];\n        return totalTime;\n    }\n\n    function calculateEarningYield(address user) public view returns (uint256) {\n        uint256 time = calculateEarningTime(user) * 10**18;\n        uint256 rate = 31536000; // 100%\n        uint256 timeRate = time / rate;\n        uint256 rawYield = (stakingBalance[user] * timeRate) / 10**18;\n        return rawYield;\n    }\n\n    //4. Borrow Tokens\n    function borrowTokens(uint256 _amount) public returns (uint256 balance) {\n        //Amount staked cannot be smaller than 0,\n        //Borrower should be staking\n        //His staking balance should always be larger than borrowed amount (overcollateralized)\n        //Balance of TEG tokens should not be 0 or lower\n        require(\n            _amount > 0 &&\n                isStaking[msg.sender] == true &&\n                stakingBalance[msg.sender] >= _amount,\n            // tegToken.balanceOf(msg.sender) >= 0,\n            \"You cannot borrow zero tokens\"\n        );\n\n        if (isBorrowing[msg.sender] == true) {\n            uint256 toTransfer = calculateLossYield(msg.sender);\n            lossBalance[msg.sender] += toTransfer;\n        }\n        // Transfer Mock Dai to borrower\n        // daiToken.approve(address(this), _amount);\n        daiToken.transfer(msg.sender, _amount);\n        //update start time\n        borrowedTime[msg.sender] = block.timestamp;\n        //update borrowed balance\n        borrowedBalance[msg.sender] += _amount;\n        //update borrowing status\n        isBorrowing[msg.sender] = true;\n        emit Borrow(\n            msg.sender,\n            _amount,\n            borrowedBalance[msg.sender],\n            lossBalance[msg.sender],\n            tegToken.balanceOf(msg.sender),\n            daiToken.balanceOf(msg.sender)\n        );\n        return borrowedBalance[msg.sender];\n    }\n\n    //5. Repay Tokens\n    function repayTokens(uint256 _amount) public returns (uint256 balance) {\n        //require amount > 0\n        require(\n            borrowedBalance[msg.sender] >= _amount &&\n                isBorrowing[msg.sender] == true,\n            \"Borrowed balance must be larger than amount\"\n        );\n\n        uint256 yieldTransfer = calculateLossYield(msg.sender);\n        borrowedTime[msg.sender] = block.timestamp;\n        uint256 balanceTransfer = _amount;\n        _amount = 0;\n        //decrease borrowed balance by amount\n        borrowedBalance[msg.sender] -= balanceTransfer;\n        //repay dai tokens to farm\n        daiToken.transferFrom(msg.sender, address(this), balanceTransfer);\n\n        lossBalance[msg.sender] += yieldTransfer;\n        // is he still staking?\n        //update staking status\n        if (borrowedBalance[msg.sender] == 0) {\n            isBorrowing[msg.sender] = false;\n        }\n        emit Repay(\n            msg.sender,\n            _amount,\n            borrowedBalance[msg.sender],\n            lossBalance[msg.sender],\n            tegToken.balanceOf(msg.sender),\n            daiToken.balanceOf(msg.sender)\n        );\n        return borrowedBalance[msg.sender];\n    }\n\n    //3. withdraw loss yield\n    function withdrawLossYield() public {\n        uint256 toTransfer = calculateLossYield(msg.sender);\n\n        require(\n            toTransfer > 0 || lossBalance[msg.sender] > 0,\n            \"Nothing to withdraw\"\n        );\n\n        if (lossBalance[msg.sender] != 0) {\n            uint256 oldBalance = lossBalance[msg.sender];\n            lossBalance[msg.sender] = 0;\n            toTransfer += oldBalance;\n        }\n\n        borrowedTime[msg.sender] = block.timestamp;\n        tegToken.transfer(msg.sender, toTransfer);\n        emit YieldLossWithdraw(\n            msg.sender,\n            toTransfer,\n            borrowedBalance[msg.sender],\n            lossBalance[msg.sender],\n            tegToken.balanceOf(msg.sender),\n            daiToken.balanceOf(msg.sender)\n        );\n    }\n\n    function calculateBorrowTime(address user) public view returns (uint256) {\n        uint256 end = block.timestamp;\n        uint256 totalTime = end - borrowedTime[user];\n        return totalTime;\n    }\n\n    function calculateLossYield(address user) public view returns (uint256) {\n        uint256 time = calculateBorrowTime(user) * 10**18;\n        uint256 rate = 28669090; // 110%\n        uint256 timeRate = time / rate;\n        uint256 rawYield = (borrowedBalance[user] * timeRate) / 10**18;\n        return rawYield;\n    }\n}\n",
  "sourcePath": "/home/frankperler/Development/Codeworks/projects/blockchain/tegridyfarm/client/src/contracts/TokenFarm.sol",
  "compiler": {
    "name": "solc",
    "version": "0.8.6+commit.11564f7e.Emscripten.clang"
  },
  "schemaVersion": "3.4.2",
  "updatedAt": "2021-07-29T17:16:24.657Z",
  "networkType": "ethereum",
  "devdoc": {
    "kind": "dev",
    "methods": {},
    "version": 1
  },
  "userdoc": {
    "kind": "user",
    "methods": {},
    "version": 1
  }
}