{
  "contractName": "TokenFarm",
  "abi": [
    {
      "inputs": [
        {
          "internalType": "contract TegToken",
          "name": "_tegToken",
          "type": "address"
        },
        {
          "internalType": "contract DaiToken",
          "name": "_daiToken",
          "type": "address"
        }
      ],
      "stateMutability": "nonpayable",
      "type": "constructor"
    },
    {
      "anonymous": false,
      "inputs": [
        {
          "indexed": true,
          "internalType": "address",
          "name": "from",
          "type": "address"
        },
        {
          "indexed": false,
          "internalType": "uint256",
          "name": "amount",
          "type": "uint256"
        },
        {
          "indexed": false,
          "internalType": "uint256",
          "name": "balance",
          "type": "uint256"
        }
      ],
      "name": "Stake",
      "type": "event"
    },
    {
      "anonymous": false,
      "inputs": [
        {
          "indexed": true,
          "internalType": "address",
          "name": "from",
          "type": "address"
        },
        {
          "indexed": false,
          "internalType": "uint256",
          "name": "amount",
          "type": "uint256"
        },
        {
          "indexed": false,
          "internalType": "uint256",
          "name": "balance",
          "type": "uint256"
        }
      ],
      "name": "Unstake",
      "type": "event"
    },
    {
      "anonymous": false,
      "inputs": [
        {
          "indexed": true,
          "internalType": "address",
          "name": "to",
          "type": "address"
        },
        {
          "indexed": false,
          "internalType": "uint256",
          "name": "amount",
          "type": "uint256"
        },
        {
          "indexed": false,
          "internalType": "uint256",
          "name": "balance",
          "type": "uint256"
        }
      ],
      "name": "YieldWithdraw",
      "type": "event"
    },
    {
      "inputs": [],
      "name": "daiToken",
      "outputs": [
        {
          "internalType": "contract DaiToken",
          "name": "",
          "type": "address"
        }
      ],
      "stateMutability": "view",
      "type": "function",
      "constant": true
    },
    {
      "inputs": [
        {
          "internalType": "address",
          "name": "",
          "type": "address"
        }
      ],
      "name": "hasStaked",
      "outputs": [
        {
          "internalType": "bool",
          "name": "",
          "type": "bool"
        }
      ],
      "stateMutability": "view",
      "type": "function",
      "constant": true
    },
    {
      "inputs": [
        {
          "internalType": "address",
          "name": "",
          "type": "address"
        }
      ],
      "name": "isStaking",
      "outputs": [
        {
          "internalType": "bool",
          "name": "",
          "type": "bool"
        }
      ],
      "stateMutability": "view",
      "type": "function",
      "constant": true
    },
    {
      "inputs": [],
      "name": "name",
      "outputs": [
        {
          "internalType": "string",
          "name": "",
          "type": "string"
        }
      ],
      "stateMutability": "view",
      "type": "function",
      "constant": true
    },
    {
      "inputs": [],
      "name": "owner",
      "outputs": [
        {
          "internalType": "address",
          "name": "",
          "type": "address"
        }
      ],
      "stateMutability": "view",
      "type": "function",
      "constant": true
    },
    {
      "inputs": [
        {
          "internalType": "uint256",
          "name": "",
          "type": "uint256"
        }
      ],
      "name": "stakers",
      "outputs": [
        {
          "internalType": "address",
          "name": "",
          "type": "address"
        }
      ],
      "stateMutability": "view",
      "type": "function",
      "constant": true
    },
    {
      "inputs": [
        {
          "internalType": "address",
          "name": "",
          "type": "address"
        }
      ],
      "name": "stakingBalance",
      "outputs": [
        {
          "internalType": "uint256",
          "name": "",
          "type": "uint256"
        }
      ],
      "stateMutability": "view",
      "type": "function",
      "constant": true
    },
    {
      "inputs": [
        {
          "internalType": "address",
          "name": "",
          "type": "address"
        }
      ],
      "name": "startTime",
      "outputs": [
        {
          "internalType": "uint256",
          "name": "",
          "type": "uint256"
        }
      ],
      "stateMutability": "view",
      "type": "function",
      "constant": true
    },
    {
      "inputs": [
        {
          "internalType": "address",
          "name": "",
          "type": "address"
        }
      ],
      "name": "tegBalance",
      "outputs": [
        {
          "internalType": "uint256",
          "name": "",
          "type": "uint256"
        }
      ],
      "stateMutability": "view",
      "type": "function",
      "constant": true
    },
    {
      "inputs": [],
      "name": "tegToken",
      "outputs": [
        {
          "internalType": "contract TegToken",
          "name": "",
          "type": "address"
        }
      ],
      "stateMutability": "view",
      "type": "function",
      "constant": true
    },
    {
      "inputs": [
        {
          "internalType": "uint256",
          "name": "_amount",
          "type": "uint256"
        }
      ],
      "name": "stakeTokens",
      "outputs": [
        {
          "internalType": "uint256",
          "name": "balance",
          "type": "uint256"
        }
      ],
      "stateMutability": "nonpayable",
      "type": "function"
    },
    {
      "inputs": [
        {
          "internalType": "uint256",
          "name": "_amount",
          "type": "uint256"
        }
      ],
      "name": "unstakeTokens",
      "outputs": [
        {
          "internalType": "uint256",
          "name": "balance",
          "type": "uint256"
        }
      ],
      "stateMutability": "nonpayable",
      "type": "function"
    },
    {
      "inputs": [],
      "name": "withdrawYield",
      "outputs": [
        {
          "internalType": "uint256",
          "name": "balance",
          "type": "uint256"
        }
      ],
      "stateMutability": "nonpayable",
      "type": "function"
    },
    {
      "inputs": [
        {
          "internalType": "address",
          "name": "user",
          "type": "address"
        }
      ],
      "name": "calculateYieldTime",
      "outputs": [
        {
          "internalType": "uint256",
          "name": "",
          "type": "uint256"
        }
      ],
      "stateMutability": "view",
      "type": "function",
      "constant": true
    },
    {
      "inputs": [
        {
          "internalType": "address",
          "name": "user",
          "type": "address"
        }
      ],
      "name": "calculateYieldTotal",
      "outputs": [
        {
          "internalType": "uint256",
          "name": "",
          "type": "uint256"
        }
      ],
      "stateMutability": "view",
      "type": "function",
      "constant": true
    }
  ],
  "bytecode": "0x60806040526040518060400160405280601281526020017f5465677269647920546f6b656e204661726d0000000000000000000000000000815250600090805190602001906200005192919062000150565b503480156200005f57600080fd5b5060405162001dba38038062001dba83398181016040528101906200008591906200022e565b81600260006101000a81548173ffffffffffffffffffffffffffffffffffffffff021916908373ffffffffffffffffffffffffffffffffffffffff16021790555080600360006101000a81548173ffffffffffffffffffffffffffffffffffffffff021916908373ffffffffffffffffffffffffffffffffffffffff16021790555033600160006101000a81548173ffffffffffffffffffffffffffffffffffffffff021916908373ffffffffffffffffffffffffffffffffffffffff16021790555050506200036f565b8280546200015e90620002d1565b90600052602060002090601f016020900481019282620001825760008555620001ce565b82601f106200019d57805160ff1916838001178555620001ce565b82800160010185558215620001ce579182015b82811115620001cd578251825591602001919060010190620001b0565b5b509050620001dd9190620001e1565b5090565b5b80821115620001fc576000816000905550600101620001e2565b5090565b60008151905062000211816200033b565b92915050565b600081519050620002288162000355565b92915050565b6000806040838503121562000248576200024762000336565b5b6000620002588582860162000217565b92505060206200026b8582860162000200565b9150509250929050565b60006200028282620002b1565b9050919050565b6000620002968262000275565b9050919050565b6000620002aa8262000275565b9050919050565b600073ffffffffffffffffffffffffffffffffffffffff82169050919050565b60006002820490506001821680620002ea57607f821691505b6020821081141562000301576200030062000307565b5b50919050565b7f4e487b7100000000000000000000000000000000000000000000000000000000600052602260045260246000fd5b600080fd5b620003468162000289565b81146200035257600080fd5b50565b62000360816200029d565b81146200036c57600080fd5b50565b611a3b806200037f6000396000f3fe608060405234801561001057600080fd5b50600436106100f55760003560e01c80637547c7a311610097578063c93c8f3411610066578063c93c8f34146102c2578063c95715b0146102f2578063e507a8a414610322578063fd5e6dd114610340576100f5565b80637547c7a3146102265780638da5cb5b14610256578063980d611614610274578063be22f546146102a4576100f5565b80635400a834116100d35780635400a83414610178578063608e4dd0146101965780636e1dc66e146101c65780636f49712b146101f6576100f5565b806306872661146100fa57806306fdde031461012a57806345bc78ab14610148575b600080fd5b610114600480360381019061010f9190611323565b610370565b6040516101219190611612565b60405180910390f35b610132610417565b60405161013f9190611590565b60405180910390f35b610162600480360381019061015d9190611323565b6104a5565b60405161016f9190611612565b60405180910390f35b6101806104bd565b60405161018d9190611575565b60405180910390f35b6101b060048036038101906101ab919061137d565b6104e3565b6040516101bd9190611612565b60405180910390f35b6101e060048036038101906101db9190611323565b6108f2565b6040516101ed9190611612565b60405180910390f35b610210600480360381019061020b9190611323565b61090a565b60405161021d919061153f565b60405180910390f35b610240600480360381019061023b919061137d565b61092a565b60405161024d9190611612565b60405180910390f35b61025e610e69565b60405161026b91906114c4565b60405180910390f35b61028e60048036038101906102899190611323565b610e8f565b60405161029b9190611612565b60405180910390f35b6102ac610eee565b6040516102b9919061155a565b60405180910390f35b6102dc60048036038101906102d79190611323565b610f14565b6040516102e9919061153f565b60405180910390f35b61030c60048036038101906103079190611323565b610f34565b6040516103199190611612565b60405180910390f35b61032a610f4c565b6040516103379190611612565b60405180910390f35b61035a6004803603810190610355919061137d565b611290565b60405161036791906114c4565b60405180910390f35b600080670de0b6b3a764000061038584610e8f565b61038f91906116f9565b90506000620151809050600081836103a791906116c8565b90506000670de0b6b3a764000082600560008973ffffffffffffffffffffffffffffffffffffffff1673ffffffffffffffffffffffffffffffffffffffff168152602001908152602001600020546103ff91906116f9565b61040991906116c8565b905080945050505050919050565b600080546104249061184a565b80601f01602080910402602001604051908101604052809291908181526020018280546104509061184a565b801561049d5780601f106104725761010080835404028352916020019161049d565b820191906000526020600020905b81548152906001019060200180831161048057829003601f168201915b505050505081565b60056020528060005260406000206000915090505481565b600260009054906101000a900473ffffffffffffffffffffffffffffffffffffffff1681565b600081600560003373ffffffffffffffffffffffffffffffffffffffff1673ffffffffffffffffffffffffffffffffffffffff1681526020019081526020016000205410158015610584575060011515600760003373ffffffffffffffffffffffffffffffffffffffff1673ffffffffffffffffffffffffffffffffffffffff16815260200190815260200160002060009054906101000a900460ff161515145b6105c3576040517f08c379a00000000000000000000000000000000000000000000000000000000081526004016105ba906115f2565b60405180910390fd5b60006105ce33610370565b905042600860003373ffffffffffffffffffffffffffffffffffffffff1673ffffffffffffffffffffffffffffffffffffffff1681526020019081526020016000208190555060008390506000935080600560003373ffffffffffffffffffffffffffffffffffffffff1673ffffffffffffffffffffffffffffffffffffffff168152602001908152602001600020600082825461066c9190611753565b92505081905550600360009054906101000a900473ffffffffffffffffffffffffffffffffffffffff1673ffffffffffffffffffffffffffffffffffffffff1663a9059cbb33836040518363ffffffff1660e01b81526004016106d0929190611516565b602060405180830381600087803b1580156106ea57600080fd5b505af11580156106fe573d6000803e3d6000fd5b505050506040513d601f19601f820116820180604052508101906107229190611350565b5081600960003373ffffffffffffffffffffffffffffffffffffffff1673ffffffffffffffffffffffffffffffffffffffff16815260200190815260200160002060008282546107729190611672565b925050819055506000600560003373ffffffffffffffffffffffffffffffffffffffff1673ffffffffffffffffffffffffffffffffffffffff16815260200190815260200160002054141561081a576000600760003373ffffffffffffffffffffffffffffffffffffffff1673ffffffffffffffffffffffffffffffffffffffff16815260200190815260200160002060006101000a81548160ff0219169083151502179055505b3373ffffffffffffffffffffffffffffffffffffffff167ff960dbf9e5d0682f7a298ed974e33a28b4464914b7a2bfac12ae419a9afeb28085600560003373ffffffffffffffffffffffffffffffffffffffff1673ffffffffffffffffffffffffffffffffffffffff168152602001908152602001600020546040516108a192919061162d565b60405180910390a2600560003373ffffffffffffffffffffffffffffffffffffffff1673ffffffffffffffffffffffffffffffffffffffff1681526020019081526020016000205492505050919050565b60086020528060005260406000206000915090505481565b60076020528060005260406000206000915054906101000a900460ff1681565b600080821180156109e5575081600360009054906101000a900473ffffffffffffffffffffffffffffffffffffffff1673ffffffffffffffffffffffffffffffffffffffff166370a08231336040518263ffffffff1660e01b815260040161099291906114c4565b60206040518083038186803b1580156109aa57600080fd5b505afa1580156109be573d6000803e3d6000fd5b505050506040513d601f19601f820116820180604052508101906109e291906113aa565b10155b610a24576040517f08c379a0000000000000000000000000000000000000000000000000000000008152600401610a1b906115d2565b60405180910390fd5b60011515600760003373ffffffffffffffffffffffffffffffffffffffff1673ffffffffffffffffffffffffffffffffffffffff16815260200190815260200160002060009054906101000a900460ff1615151415610ae2576000610a8833610370565b905080600960003373ffffffffffffffffffffffffffffffffffffffff1673ffffffffffffffffffffffffffffffffffffffff1681526020019081526020016000206000828254610ad99190611672565b92505081905550505b600360009054906101000a900473ffffffffffffffffffffffffffffffffffffffff1673ffffffffffffffffffffffffffffffffffffffff166323b872dd3330856040518463ffffffff1660e01b8152600401610b41939291906114df565b602060405180830381600087803b158015610b5b57600080fd5b505af1158015610b6f573d6000803e3d6000fd5b505050506040513d601f19601f82011682018060405250810190610b939190611350565b5042600860003373ffffffffffffffffffffffffffffffffffffffff1673ffffffffffffffffffffffffffffffffffffffff1681526020019081526020016000208190555081600560003373ffffffffffffffffffffffffffffffffffffffff1673ffffffffffffffffffffffffffffffffffffffff1681526020019081526020016000206000828254610c279190611672565b92505081905550600660003373ffffffffffffffffffffffffffffffffffffffff1673ffffffffffffffffffffffffffffffffffffffff16815260200190815260200160002060009054906101000a900460ff16610ce3576004339080600181540180825580915050600190039060005260206000200160009091909190916101000a81548173ffffffffffffffffffffffffffffffffffffffff021916908373ffffffffffffffffffffffffffffffffffffffff1602179055505b6001600760003373ffffffffffffffffffffffffffffffffffffffff1673ffffffffffffffffffffffffffffffffffffffff16815260200190815260200160002060006101000a81548160ff0219169083151502179055506001600660003373ffffffffffffffffffffffffffffffffffffffff1673ffffffffffffffffffffffffffffffffffffffff16815260200190815260200160002060006101000a81548160ff0219169083151502179055503373ffffffffffffffffffffffffffffffffffffffff167f5af417134f72a9d41143ace85b0a26dce6f550f894f2cbc1eeee8810603d91b683600560003373ffffffffffffffffffffffffffffffffffffffff1673ffffffffffffffffffffffffffffffffffffffff16815260200190815260200160002054604051610e1a92919061162d565b60405180910390a2600560003373ffffffffffffffffffffffffffffffffffffffff1673ffffffffffffffffffffffffffffffffffffffff168152602001908152602001600020549050919050565b600160009054906101000a900473ffffffffffffffffffffffffffffffffffffffff1681565b6000804290506000600860008573ffffffffffffffffffffffffffffffffffffffff1673ffffffffffffffffffffffffffffffffffffffff1681526020019081526020016000205482610ee29190611753565b90508092505050919050565b600360009054906101000a900473ffffffffffffffffffffffffffffffffffffffff1681565b60066020528060005260406000206000915054906101000a900460ff1681565b60096020528060005260406000206000915090505481565b600080610f5833610370565b90506000811180610fa857506000600960003373ffffffffffffffffffffffffffffffffffffffff1673ffffffffffffffffffffffffffffffffffffffff16815260200190815260200160002054115b610fe7576040517f08c379a0000000000000000000000000000000000000000000000000000000008152600401610fde906115b2565b60405180910390fd5b6000600960003373ffffffffffffffffffffffffffffffffffffffff1673ffffffffffffffffffffffffffffffffffffffff16815260200190815260200160002054146110c7576000600960003373ffffffffffffffffffffffffffffffffffffffff1673ffffffffffffffffffffffffffffffffffffffff1681526020019081526020016000205490506000600960003373ffffffffffffffffffffffffffffffffffffffff1673ffffffffffffffffffffffffffffffffffffffff1681526020019081526020016000208190555080826110c39190611672565b9150505b42600860003373ffffffffffffffffffffffffffffffffffffffff1673ffffffffffffffffffffffffffffffffffffffff16815260200190815260200160002081905550600260009054906101000a900473ffffffffffffffffffffffffffffffffffffffff1673ffffffffffffffffffffffffffffffffffffffff1663a9059cbb33836040518363ffffffff1660e01b8152600401611168929190611516565b602060405180830381600087803b15801561118257600080fd5b505af1158015611196573d6000803e3d6000fd5b505050506040513d601f19601f820116820180604052508101906111ba9190611350565b503373ffffffffffffffffffffffffffffffffffffffff167ffaa010828be8dc917d4d6623b6cde0371c6aaf098b11a3173fb271f85dfb8ce782600960003373ffffffffffffffffffffffffffffffffffffffff1673ffffffffffffffffffffffffffffffffffffffff1681526020019081526020016000205460405161124292919061162d565b60405180910390a2600960003373ffffffffffffffffffffffffffffffffffffffff1673ffffffffffffffffffffffffffffffffffffffff1681526020019081526020016000205491505090565b600481815481106112a057600080fd5b906000526020600020016000915054906101000a900473ffffffffffffffffffffffffffffffffffffffff1681565b6000813590506112de816119c0565b92915050565b6000815190506112f3816119d7565b92915050565b600081359050611308816119ee565b92915050565b60008151905061131d816119ee565b92915050565b60006020828403121561133957611338611909565b5b6000611347848285016112cf565b91505092915050565b60006020828403121561136657611365611909565b5b6000611374848285016112e4565b91505092915050565b60006020828403121561139357611392611909565b5b60006113a1848285016112f9565b91505092915050565b6000602082840312156113c0576113bf611909565b5b60006113ce8482850161130e565b91505092915050565b6113e081611787565b82525050565b6113ef81611799565b82525050565b6113fe816117cf565b82525050565b61140d816117f3565b82525050565b600061141e82611656565b6114288185611661565b9350611438818560208601611817565b6114418161190e565b840191505092915050565b6000611459601383611661565b91506114648261191f565b602082019050919050565b600061147c601c83611661565b915061148782611948565b602082019050919050565b600061149f602483611661565b91506114aa82611971565b604082019050919050565b6114be816117c5565b82525050565b60006020820190506114d960008301846113d7565b92915050565b60006060820190506114f460008301866113d7565b61150160208301856113d7565b61150e60408301846114b5565b949350505050565b600060408201905061152b60008301856113d7565b61153860208301846114b5565b9392505050565b600060208201905061155460008301846113e6565b92915050565b600060208201905061156f60008301846113f5565b92915050565b600060208201905061158a6000830184611404565b92915050565b600060208201905081810360008301526115aa8184611413565b905092915050565b600060208201905081810360008301526115cb8161144c565b9050919050565b600060208201905081810360008301526115eb8161146f565b9050919050565b6000602082019050818103600083015261160b81611492565b9050919050565b600060208201905061162760008301846114b5565b92915050565b600060408201905061164260008301856114b5565b61164f60208301846114b5565b9392505050565b600081519050919050565b600082825260208201905092915050565b600061167d826117c5565b9150611688836117c5565b9250827fffffffffffffffffffffffffffffffffffffffffffffffffffffffffffffffff038211156116bd576116bc61187c565b5b828201905092915050565b60006116d3826117c5565b91506116de836117c5565b9250826116ee576116ed6118ab565b5b828204905092915050565b6000611704826117c5565b915061170f836117c5565b9250817fffffffffffffffffffffffffffffffffffffffffffffffffffffffffffffffff04831182151516156117485761174761187c565b5b828202905092915050565b600061175e826117c5565b9150611769836117c5565b92508282101561177c5761177b61187c565b5b828203905092915050565b6000611792826117a5565b9050919050565b60008115159050919050565b600073ffffffffffffffffffffffffffffffffffffffff82169050919050565b6000819050919050565b60006117da826117e1565b9050919050565b60006117ec826117a5565b9050919050565b60006117fe82611805565b9050919050565b6000611810826117a5565b9050919050565b60005b8381101561183557808201518184015260208101905061181a565b83811115611844576000848401525b50505050565b6000600282049050600182168061186257607f821691505b60208210811415611876576118756118da565b5b50919050565b7f4e487b7100000000000000000000000000000000000000000000000000000000600052601160045260246000fd5b7f4e487b7100000000000000000000000000000000000000000000000000000000600052601260045260246000fd5b7f4e487b7100000000000000000000000000000000000000000000000000000000600052602260045260246000fd5b600080fd5b6000601f19601f8301169050919050565b7f4e6f7468696e6720746f20776974686472617700000000000000000000000000600082015250565b7f596f752063616e6e6f74207374616b65207a65726f20746f6b656e7300000000600082015250565b7f5374616b696e672062616c616e63652063616e6e6f742062652030206f72206c60008201527f6f77657200000000000000000000000000000000000000000000000000000000602082015250565b6119c981611787565b81146119d457600080fd5b50565b6119e081611799565b81146119eb57600080fd5b50565b6119f7816117c5565b8114611a0257600080fd5b5056fea26469706673582212209197086af76e8a2cb139e7891335f0c4ef8d9874bcf249e90c3e2b6bf06066df64736f6c63430008060033",
  "immutableReferences": {},
  "source": "//\"SPDX-License-Identifier: UNLICENSED\"\npragma solidity ^0.8.6;\n\nimport \"./DaiToken.sol\";\nimport \"./TegToken.sol\";\n\ncontract TokenFarm {\n    string public name = \"Tegridy Token Farm\";\n\n    address public owner;\n    TegToken public tegToken;\n    DaiToken public daiToken;\n\n    address[] public stakers;\n    mapping(address => uint256) public stakingBalance;\n    mapping(address => bool) public hasStaked;\n    mapping(address => bool) public isStaking;\n    mapping(address => uint256) public startTime;\n    mapping(address => uint256) public tegBalance;\n\n    event Stake(address indexed from, uint256 amount, uint256 balance);\n    event Unstake(address indexed from, uint256 amount, uint256 balance);\n    event YieldWithdraw(address indexed to, uint256 amount, uint256 balance);\n\n    constructor(TegToken _tegToken, DaiToken _daiToken) {\n        tegToken = _tegToken;\n        daiToken = _daiToken;\n        owner = msg.sender;\n    }\n\n    //1. Stake Tokens (deposit)\n    function stakeTokens(uint256 _amount) public returns (uint256 balance) {\n        //Amount staked cannot be smaller than 0\n        require(\n            _amount > 0 && daiToken.balanceOf(msg.sender) >= _amount,\n            \"You cannot stake zero tokens\"\n        );\n\n        if (isStaking[msg.sender] == true) {\n            uint256 toTransfer = calculateYieldTotal(msg.sender);\n            tegBalance[msg.sender] += toTransfer;\n        }\n        // Transfer Mock Dai to this contract for staking\n        daiToken.transferFrom(msg.sender, address(this), _amount);\n        //update start time\n        startTime[msg.sender] = block.timestamp;\n        //update staking balance\n        stakingBalance[msg.sender] += _amount;\n        // add user to stakers array \"only\" if they have not yet staked\n        if (!hasStaked[msg.sender]) {\n            stakers.push(msg.sender);\n        }\n        //update staking status\n        isStaking[msg.sender] = true;\n        hasStaked[msg.sender] = true;\n        emit Stake(msg.sender, _amount, stakingBalance[msg.sender]);\n        return stakingBalance[msg.sender];\n    }\n\n    //2. Unstaking Tokens (withdraw)\n    function unstakeTokens(uint256 _amount) public returns (uint256 balance) {\n        //require amounnt > 0\n        require(\n            stakingBalance[msg.sender] >= _amount &&\n            isStaking[msg.sender] == true,\n            \"Staking balance cannot be 0 or lower\"\n        );\n\n        //fetch staking balance\n        // uint256 balance = stakingBalance[msg.sender];\n\n        uint256 yieldTransfer = calculateYieldTotal(msg.sender);\n        startTime[msg.sender] = block.timestamp;\n        uint256 balanceTransfer = _amount;\n        _amount = 0;\n        //decrease staking balance by amount\n        stakingBalance[msg.sender] -= balanceTransfer;\n        //unstake dai tokens from farm to investor\n        daiToken.transfer(msg.sender, balanceTransfer);\n\n        tegBalance[msg.sender] += yieldTransfer;\n        // is he still staking?\n        //update staking status\n        if(stakingBalance[msg.sender] == 0){\n            isStaking[msg.sender] = false;\n        }\n        emit Unstake(msg.sender, _amount, stakingBalance[msg.sender]);\n        return stakingBalance[msg.sender];\n    }\n\n    // //3. Issuing Teg Tokens to investor on a regular basis\n    // function issueTokens() public {\n    //     require(msg.sender == owner, \"only owner can call this function\");\n    //     for (uint256 i = 0; i < stakers.length; i++) {\n    //         address recipient = stakers[i];\n    //         uint256 balance = stakingBalance[recipient];\n    //         if (balance > 0) {\n    //             tegToken.transfer(recipient, balance); // send exactly the same amount of tegToken than dai Token deposited\n    //         }\n    //     }\n    // }\n\n    function withdrawYield() public returns (uint256 balance) {\n        uint256 toTransfer = calculateYieldTotal(msg.sender);\n\n        require(\n            toTransfer > 0 ||\n            tegBalance[msg.sender] > 0,\n            \"Nothing to withdraw\"\n            );\n            \n        if(tegBalance[msg.sender] != 0){\n            uint256 oldBalance = tegBalance[msg.sender];\n            tegBalance[msg.sender] = 0;\n            toTransfer += oldBalance;\n        }\n\n        startTime[msg.sender] = block.timestamp;\n        tegToken.transfer(msg.sender, toTransfer);\n        emit YieldWithdraw(msg.sender, toTransfer, tegBalance[msg.sender]);\n        return tegBalance[msg.sender]; \n    }\n\n    function calculateYieldTime(address user) public view returns(uint256){\n        uint256 end = block.timestamp;\n        uint256 totalTime = end - startTime[user];\n        return totalTime;\n    }\n\n    function calculateYieldTotal(address user) public view returns(uint256) {\n        uint256 time = calculateYieldTime(user) * 10**18;\n        uint256 rate = 86400;\n        uint256 timeRate = time / rate;\n        uint256 rawYield = (stakingBalance[user] * timeRate) / 10**18;\n        return rawYield;\n    }\n}\n",
  "sourcePath": "/home/frankperler/Development/Codeworks/projects/blockchain/tegridyfarm/client/src/contracts/TokenFarm.sol",
  "compiler": {
    "name": "solc",
    "version": "0.8.6+commit.11564f7e.Emscripten.clang"
  },
  "schemaVersion": "3.4.2",
  "updatedAt": "2021-07-28T20:25:51.025Z",
  "networkType": "ethereum",
  "devdoc": {
    "kind": "dev",
    "methods": {},
    "version": 1
  },
  "userdoc": {
    "kind": "user",
    "methods": {},
    "version": 1
  }
}